{
  "contractName": "Marketplace",
  "abi": [
    {
      "inputs": [
        {
          "internalType": "address payable",
          "name": "paymentAddress",
          "type": "address"
        },
        {
          "internalType": "address",
          "name": "taskPoolAddress",
          "type": "address"
        },
        {
          "internalType": "address",
          "name": "workerPoolAddress",
          "type": "address"
        },
        {
          "internalType": "address",
          "name": "usdtAddr",
          "type": "address"
        }
      ],
      "stateMutability": "nonpayable",
      "type": "constructor"
    },
    {
      "anonymous": false,
      "inputs": [
        {
          "indexed": false,
          "internalType": "uint256",
          "name": "orderId",
          "type": "uint256"
        },
        {
          "indexed": false,
          "internalType": "uint256",
          "name": "paymentAmount",
          "type": "uint256"
        }
      ],
      "name": "ConfirmOrder",
      "type": "event"
    },
    {
      "anonymous": false,
      "inputs": [
        {
          "indexed": false,
          "internalType": "string",
          "name": "message",
          "type": "string"
        }
      ],
      "name": "Log",
      "type": "event"
    },
    {
      "anonymous": false,
      "inputs": [
        {
          "indexed": false,
          "internalType": "bool",
          "name": "LogBool",
          "type": "bool"
        }
      ],
      "name": "LogBool",
      "type": "event"
    },
    {
      "anonymous": false,
      "inputs": [
        {
          "indexed": false,
          "internalType": "address",
          "name": "adr",
          "type": "address"
        },
        {
          "indexed": false,
          "internalType": "address",
          "name": "adr2",
          "type": "address"
        }
      ],
      "name": "Logad",
      "type": "event"
    },
    {
      "anonymous": false,
      "inputs": [
        {
          "indexed": false,
          "internalType": "string",
          "name": "message",
          "type": "string"
        },
        {
          "indexed": false,
          "internalType": "uint256",
          "name": "orderId",
          "type": "uint256"
        }
      ],
      "name": "OrderCreated",
      "type": "event"
    },
    {
      "anonymous": false,
      "inputs": [
        {
          "indexed": true,
          "internalType": "uint256",
          "name": "taskId",
          "type": "uint256"
        },
        {
          "indexed": true,
          "internalType": "address",
          "name": "worker",
          "type": "address"
        }
      ],
      "name": "TaskCompleted",
      "type": "event"
    },
    {
      "inputs": [
        {
          "internalType": "uint256",
          "name": "",
          "type": "uint256"
        }
      ],
      "name": "orders",
      "outputs": [
        {
          "internalType": "contract Order",
          "name": "",
          "type": "address"
        }
      ],
      "stateMutability": "view",
      "type": "function"
    },
    {
      "inputs": [
        {
          "internalType": "address",
          "name": "",
          "type": "address"
        },
        {
          "internalType": "uint256",
          "name": "",
          "type": "uint256"
        }
      ],
      "name": "userOrders",
      "outputs": [
        {
          "internalType": "uint256",
          "name": "",
          "type": "uint256"
        }
      ],
      "stateMutability": "view",
      "type": "function"
    },
    {
      "inputs": [
        {
          "internalType": "address",
          "name": "",
          "type": "address"
        }
      ],
      "name": "workerLoad",
      "outputs": [
        {
          "internalType": "uint256",
          "name": "",
          "type": "uint256"
        }
      ],
      "stateMutability": "view",
      "type": "function"
    },
    {
      "inputs": [
        {
          "internalType": "address",
          "name": "worker",
          "type": "address"
        },
        {
          "internalType": "uint256",
          "name": "_computingPower",
          "type": "uint256"
        }
      ],
      "name": "addWorker",
      "outputs": [],
      "stateMutability": "nonpayable",
      "type": "function"
    },
    {
      "inputs": [
        {
          "internalType": "address",
          "name": "worker",
          "type": "address"
        }
      ],
      "name": "removeWorker",
      "outputs": [],
      "stateMutability": "nonpayable",
      "type": "function"
    },
    {
      "inputs": [],
      "name": "getWorkerList",
      "outputs": [
        {
          "internalType": "address[]",
          "name": "",
          "type": "address[]"
        }
      ],
      "stateMutability": "view",
      "type": "function"
    },
    {
      "inputs": [
        {
          "internalType": "address",
          "name": "worker",
          "type": "address"
        }
      ],
      "name": "getWorkerInfo",
      "outputs": [
        {
          "components": [
            {
              "internalType": "uint256",
              "name": "workerId",
              "type": "uint256"
            },
            {
              "internalType": "uint256",
              "name": "computingPower",
              "type": "uint256"
            },
            {
              "internalType": "bool",
              "name": "isBusy",
              "type": "bool"
            },
            {
              "internalType": "bool",
              "name": "isActivate",
              "type": "bool"
            },
            {
              "internalType": "uint256",
              "name": "taskId",
              "type": "uint256"
            }
          ],
          "internalType": "struct WorkerPool.Worker",
          "name": "",
          "type": "tuple"
        }
      ],
      "stateMutability": "view",
      "type": "function"
    },
    {
      "inputs": [
        {
          "internalType": "uint256",
          "name": "taskId",
          "type": "uint256"
        }
      ],
      "name": "getTask",
      "outputs": [
        {
          "components": [
            {
              "internalType": "uint256",
              "name": "id",
              "type": "uint256"
            },
            {
              "internalType": "uint256",
              "name": "orderId",
              "type": "uint256"
            },
            {
              "internalType": "enum SharedStructs.TaskType",
              "name": "taskType",
              "type": "uint8"
            },
            {
              "internalType": "enum SharedStructs.TaskStatus",
              "name": "status",
              "type": "uint8"
            },
            {
              "internalType": "string",
              "name": "folderUrl",
              "type": "string"
            },
            {
              "internalType": "uint256",
              "name": "requiredPower",
              "type": "uint256"
            },
            {
              "internalType": "address",
              "name": "creator",
              "type": "address"
            },
            {
              "internalType": "uint256",
              "name": "workerId",
              "type": "uint256"
            },
            {
              "internalType": "uint256",
              "name": "expectWorkerId",
              "type": "uint256"
            },
            {
              "internalType": "uint256",
              "name": "orderLevel",
              "type": "uint256"
            }
          ],
          "internalType": "struct SharedStructs.TaskInfo",
          "name": "",
          "type": "tuple"
        }
      ],
      "stateMutability": "view",
      "type": "function"
    },
    {
      "inputs": [
        {
          "internalType": "string",
          "name": "folderUrl",
          "type": "string"
        },
        {
          "internalType": "uint256",
          "name": "requiredPower",
          "type": "uint256"
        },
        {
          "internalType": "uint256",
          "name": "paymentAmount",
          "type": "uint256"
        },
        {
          "internalType": "uint256",
          "name": "orderLevel",
          "type": "uint256"
        }
      ],
      "name": "createOrderPreview",
      "outputs": [
        {
          "internalType": "uint256",
          "name": "",
          "type": "uint256"
        }
      ],
      "stateMutability": "payable",
      "type": "function"
    },
    {
      "inputs": [
        {
          "internalType": "uint256",
          "name": "paymentAmount",
          "type": "uint256"
        }
      ],
      "name": "calculateCost",
      "outputs": [],
      "stateMutability": "payable",
      "type": "function"
    },
    {
      "inputs": [
        {
          "internalType": "address",
          "name": "user",
          "type": "address"
        }
      ],
      "name": "getUserOrders",
      "outputs": [
        {
          "internalType": "uint256[]",
          "name": "",
          "type": "uint256[]"
        }
      ],
      "stateMutability": "view",
      "type": "function"
    },
    {
      "inputs": [
        {
          "internalType": "uint256",
          "name": "orderId",
          "type": "uint256"
        }
      ],
      "name": "getOrderInfo",
      "outputs": [
        {
          "internalType": "uint256",
          "name": "_orderId",
          "type": "uint256"
        },
        {
          "internalType": "uint256",
          "name": "_trainTaskId",
          "type": "uint256"
        },
        {
          "internalType": "uint256",
          "name": "_validateTaskId",
          "type": "uint256"
        },
        {
          "internalType": "address",
          "name": "_client",
          "type": "address"
        },
        {
          "internalType": "uint256",
          "name": "_paymentAmount",
          "type": "uint256"
        },
        {
          "internalType": "enum SharedStructs.OrderStatus",
          "name": "_orderStatus",
          "type": "uint8"
        },
        {
          "internalType": "uint256",
          "name": "_orderLevel",
          "type": "uint256"
        },
        {
          "internalType": "uint256",
          "name": "_requiredComputingPower",
          "type": "uint256"
        },
        {
          "internalType": "string",
          "name": "_folderUrl",
          "type": "string"
        }
      ],
      "stateMutability": "view",
      "type": "function"
    },
    {
      "inputs": [
        {
          "internalType": "address",
          "name": "recipient",
          "type": "address"
        },
        {
          "internalType": "uint256",
          "name": "amount",
          "type": "uint256"
        }
      ],
      "name": "transferFunds",
      "outputs": [],
      "stateMutability": "nonpayable",
      "type": "function"
    },
    {
      "inputs": [
        {
          "internalType": "address",
          "name": "workerAddress",
          "type": "address"
        },
        {
          "internalType": "uint256",
          "name": "taskId",
          "type": "uint256"
        }
      ],
      "name": "CompleteTask",
      "outputs": [],
      "stateMutability": "nonpayable",
      "type": "function"
    },
    {
      "inputs": [
        {
          "internalType": "address",
          "name": "marketplaceAddress",
          "type": "address"
        }
      ],
      "name": "setMarketplaceAddress",
      "outputs": [],
      "stateMutability": "nonpayable",
      "type": "function"
    }
  ],
  "bytecode": "0x60a06040523480156200001157600080fd5b50604051620044393803806200443983398181016040528101906200003791906200022f565b836000806101000a81548173ffffffffffffffffffffffffffffffffffffffff021916908373ffffffffffffffffffffffffffffffffffffffff16021790555082600160006101000a81548173ffffffffffffffffffffffffffffffffffffffff021916908373ffffffffffffffffffffffffffffffffffffffff16021790555081600260006101000a81548173ffffffffffffffffffffffffffffffffffffffff021916908373ffffffffffffffffffffffffffffffffffffffff1602179055508073ffffffffffffffffffffffffffffffffffffffff1660808173ffffffffffffffffffffffffffffffffffffffff168152505033600360006101000a81548173ffffffffffffffffffffffffffffffffffffffff021916908373ffffffffffffffffffffffffffffffffffffffff160217905550600060088190555050505050620002a1565b600080fd5b600073ffffffffffffffffffffffffffffffffffffffff82169050919050565b6000620001b28262000185565b9050919050565b620001c481620001a5565b8114620001d057600080fd5b50565b600081519050620001e481620001b9565b92915050565b6000620001f78262000185565b9050919050565b6200020981620001ea565b81146200021557600080fd5b50565b6000815190506200022981620001fe565b92915050565b600080600080608085870312156200024c576200024b62000180565b5b60006200025c87828801620001d3565b94505060206200026f8782880162000218565b9350506040620002828782880162000218565b9250506060620002958782880162000218565b91505092959194509250565b60805161416e620002cb600039600081816105af015281816110380152611182015261416e6000f3fe608060405260043610620000fe5760003560e01c80638db4b00f1162000097578063c4f987a51162000061578063c4f987a51462000351578063ce8ef7a6146200037f578063d311636b14620003c3578063fd8a1682146200040f57620000fe565b80638db4b00f1462000283578063990dc9db14620002b1578063a85c38ef14620002df578063b47cc556146200032357620000fe565b80634af18f4f11620000d95780634af18f4f14620001ad57806363c69f0814620001cd5780636b6096fc1462000211578063856652e9146200023f57620000fe565b80631d65e77e14620001035780631e7f931f146200014757806326858d241462000177575b600080fd5b3480156200011057600080fd5b506200012f600480360381019062000129919062001e5d565b62000453565b6040516200013e91906200213e565b60405180910390f35b3480156200015457600080fd5b506200015f6200050a565b6040516200016e91906200221f565b60405180910390f35b6200019560048036038101906200018f919062002394565b620005aa565b604051620001a4919062002436565b60405180910390f35b620001cb6004803603810190620001c5919062001e5d565b62000ae7565b005b348015620001da57600080fd5b50620001f96004803603810190620001f3919062002484565b62000bc0565b60405162000208919062002573565b60405180910390f35b3480156200021e57600080fd5b506200023d600480360381019062000237919062002597565b62000c59565b005b3480156200024c57600080fd5b506200026b600480360381019062000265919062002597565b62000cfa565b6040516200027a919062002436565b60405180910390f35b3480156200029057600080fd5b50620002af6004803603810190620002a9919062002597565b62000d2c565b005b348015620002be57600080fd5b50620002dd6004803603810190620002d7919062002597565b620010eb565b005b348015620002ec57600080fd5b506200030b600480360381019062000305919062001e5d565b62001235565b6040516200031a919062002649565b60405180910390f35b3480156200033057600080fd5b506200034f600480360381019062000349919062002484565b62001268565b005b3480156200035e57600080fd5b506200037d600480360381019062000377919062002484565b6200133f565b005b3480156200038c57600080fd5b50620003ab6004803603810190620003a5919062002484565b620013d3565b604051620003ba9190620026f5565b60405180910390f35b348015620003d057600080fd5b50620003ef6004803603810190620003e9919062001e5d565b62001485565b6040516200040699989796959493929190620027c6565b60405180910390f35b3480156200041c57600080fd5b506200043b600480360381019062000435919062002484565b62001881565b6040516200044a919062002436565b60405180910390f35b6200045d62001d3a565b600160009054906101000a900473ffffffffffffffffffffffffffffffffffffffff1673ffffffffffffffffffffffffffffffffffffffff16631d65e77e836040518263ffffffff1660e01b8152600401620004ba919062002436565b600060405180830381865afa158015620004d8573d6000803e3d6000fd5b505050506040513d6000823e3d601f19601f8201168201806040525081019062000503919062002aa0565b9050919050565b6060600260009054906101000a900473ffffffffffffffffffffffffffffffffffffffff1673ffffffffffffffffffffffffffffffffffffffff16631e7f931f6040518163ffffffff1660e01b8152600401600060405180830381865afa1580156200057a573d6000803e3d6000fd5b505050506040513d6000823e3d601f19601f82011682018060405250810190620005a5919062002bcc565b905090565b6000807f000000000000000000000000000000000000000000000000000000000000000073ffffffffffffffffffffffffffffffffffffffff166323b872dd3330876040518463ffffffff1660e01b81526004016200060c9392919062002c1d565b6020604051808303816000875af11580156200062c573d6000803e3d6000fd5b505050506040513d601f19601f8201168201806040525081019062000652919062002c8b565b90508062000697576040517f08c379a00000000000000000000000000000000000000000000000000000000081526004016200068e9062002d0d565b60405180910390fd5b600060086000815480929190620006ae9062002d5e565b919050559050600033888887604051620006c89062001dcd565b620006d7949392919062002dab565b604051809103906000f080158015620006f4573d6000803e3d6000fd5b509050806006600084815260200190815260200160002060006101000a81548173ffffffffffffffffffffffffffffffffffffffff021916908373ffffffffffffffffffffffffffffffffffffffff160217905550600760003373ffffffffffffffffffffffffffffffffffffffff1673ffffffffffffffffffffffffffffffffffffffff1681526020019081526020016000208290806001815401808255809150506001900390600052602060002001600090919091909150557f1a72d6383b1fc1b015bedc584a040a3cba7b0a5e33b00a43a1693b852be2382e82604051620007e0919062002e4f565b60405180910390a16000600160009054906101000a900473ffffffffffffffffffffffffffffffffffffffff1673ffffffffffffffffffffffffffffffffffffffff1663d2f1d4486000858573ffffffffffffffffffffffffffffffffffffffff166358e9d3d56040518163ffffffff1660e01b8152600401600060405180830381865afa15801562000877573d6000803e3d6000fd5b505050506040513d6000823e3d601f19601f82011682018060405250810190620008a2919062002e81565b8673ffffffffffffffffffffffffffffffffffffffff1663523b0b366040518163ffffffff1660e01b8152600401602060405180830381865afa158015620008ee573d6000803e3d6000fd5b505050506040513d601f19601f8201168201806040525081019062000914919062002ed2565b8773ffffffffffffffffffffffffffffffffffffffff1663bee80fc56040518163ffffffff1660e01b8152600401602060405180830381865afa15801562000960573d6000803e3d6000fd5b505050506040513d601f19601f8201168201806040525081019062000986919062002ed2565b6040518663ffffffff1660e01b8152600401620009a895949392919062002f15565b6020604051808303816000875af1158015620009c8573d6000803e3d6000fd5b505050506040513d601f19601f82011682018060405250810190620009ee919062002ed2565b90508173ffffffffffffffffffffffffffffffffffffffff166390ef73e2826040518263ffffffff1660e01b815260040162000a2b919062002436565b600060405180830381600087803b15801562000a4657600080fd5b505af115801562000a5b573d6000803e3d6000fd5b505050508173ffffffffffffffffffffffffffffffffffffffff1663ba0179b5886040518263ffffffff1660e01b815260040162000a9a919062002436565b600060405180830381600087803b15801562000ab557600080fd5b505af115801562000aca573d6000803e3d6000fd5b5050505062000ad862001899565b82945050505050949350505050565b8034101562000b2d576040517f08c379a000000000000000000000000000000000000000000000000000000000815260040162000b249062002d0d565b60405180910390fd5b60008054906101000a900473ffffffffffffffffffffffffffffffffffffffff1673ffffffffffffffffffffffffffffffffffffffff1663f340fa0134336040518363ffffffff1660e01b815260040162000b89919062002f79565b6000604051808303818588803b15801562000ba357600080fd5b505af115801562000bb8573d6000803e3d6000fd5b505050505050565b6060600760008373ffffffffffffffffffffffffffffffffffffffff1673ffffffffffffffffffffffffffffffffffffffff16815260200190815260200160002080548060200260200160405190810160405280929190818152602001828054801562000c4d57602002820191906000526020600020905b81548152602001906001019080831162000c38575b50505050509050919050565b600260009054906101000a900473ffffffffffffffffffffffffffffffffffffffff1673ffffffffffffffffffffffffffffffffffffffff16636b6096fc83836040518363ffffffff1660e01b815260040162000cb892919062002f96565b600060405180830381600087803b15801562000cd357600080fd5b505af115801562000ce8573d6000803e3d6000fd5b5050505062000cf662001899565b5050565b6007602052816000526040600020818154811062000d1757600080fd5b90600052602060002001600091509150505481565b6000600160009054906101000a900473ffffffffffffffffffffffffffffffffffffffff1673ffffffffffffffffffffffffffffffffffffffff16631d65e77e836040518263ffffffff1660e01b815260040162000d8b919062002436565b600060405180830381865afa15801562000da9573d6000803e3d6000fd5b505050506040513d6000823e3d601f19601f8201168201806040525081019062000dd4919062002aa0565b9050600160009054906101000a900473ffffffffffffffffffffffffffffffffffffffff1673ffffffffffffffffffffffffffffffffffffffff1663e1e29558836040518263ffffffff1660e01b815260040162000e33919062002436565b600060405180830381600087803b15801562000e4e57600080fd5b505af115801562000e63573d6000803e3d6000fd5b505050506000600660008360200151815260200190815260200160002060009054906101000a900473ffffffffffffffffffffffffffffffffffffffff169050600260009054906101000a900473ffffffffffffffffffffffffffffffffffffffff1673ffffffffffffffffffffffffffffffffffffffff16633fc0f48b856040518263ffffffff1660e01b815260040162000f00919062002f79565b600060405180830381600087803b15801562000f1b57600080fd5b505af115801562000f30573d6000803e3d6000fd5b505050508073ffffffffffffffffffffffffffffffffffffffff1663b8896eb660026040518263ffffffff1660e01b815260040162000f70919062002fc3565b600060405180830381600087803b15801562000f8b57600080fd5b505af115801562000fa0573d6000803e3d6000fd5b505050506000600a60088373ffffffffffffffffffffffffffffffffffffffff1663c35905c66040518163ffffffff1660e01b8152600401602060405180830381865afa15801562000ff6573d6000803e3d6000fd5b505050506040513d601f19601f820116820180604052508101906200101c919062002ed2565b62001028919062002fe0565b6200103491906200305a565b90507f000000000000000000000000000000000000000000000000000000000000000073ffffffffffffffffffffffffffffffffffffffff1663a9059cbb86836040518363ffffffff1660e01b81526004016200109392919062002f96565b6020604051808303816000875af1158015620010b3573d6000803e3d6000fd5b505050506040513d601f19601f82011682018060405250810190620010d9919062002c8b565b50620010e462001899565b5050505050565b600360009054906101000a900473ffffffffffffffffffffffffffffffffffffffff1673ffffffffffffffffffffffffffffffffffffffff163373ffffffffffffffffffffffffffffffffffffffff16146200117e576040517f08c379a0000000000000000000000000000000000000000000000000000000008152600401620011759062003108565b60405180910390fd5b60007f000000000000000000000000000000000000000000000000000000000000000073ffffffffffffffffffffffffffffffffffffffff1663a9059cbb84846040518363ffffffff1660e01b8152600401620011dd92919062002f96565b6020604051808303816000875af1158015620011fd573d6000803e3d6000fd5b505050506040513d601f19601f8201168201806040525081019062001223919062002c8b565b9050806200123057600080fd5b505050565b60066020528060005260406000206000915054906101000a900473ffffffffffffffffffffffffffffffffffffffff1681565b600360009054906101000a900473ffffffffffffffffffffffffffffffffffffffff1673ffffffffffffffffffffffffffffffffffffffff163373ffffffffffffffffffffffffffffffffffffffff1614620012fb576040517f08c379a0000000000000000000000000000000000000000000000000000000008152600401620012f290620031a0565b60405180910390fd5b80600460006101000a81548173ffffffffffffffffffffffffffffffffffffffff021916908373ffffffffffffffffffffffffffffffffffffffff16021790555050565b600260009054906101000a900473ffffffffffffffffffffffffffffffffffffffff1673ffffffffffffffffffffffffffffffffffffffff1663c4f987a5826040518263ffffffff1660e01b81526004016200139c919062002f79565b600060405180830381600087803b158015620013b757600080fd5b505af1158015620013cc573d6000803e3d6000fd5b5050505050565b620013dd62001ddb565b600260009054906101000a900473ffffffffffffffffffffffffffffffffffffffff1673ffffffffffffffffffffffffffffffffffffffff166374a44d12836040518263ffffffff1660e01b81526004016200143a919062002f79565b60a060405180830381865afa15801562001458573d6000803e3d6000fd5b505050506040513d601f19601f820116820180604052508101906200147e91906200325d565b9050919050565b60008060008060008060008060608998506000600660008c815260200190815260200160002060009054906101000a900473ffffffffffffffffffffffffffffffffffffffff1690508073ffffffffffffffffffffffffffffffffffffffff16632c8989456040518163ffffffff1660e01b8152600401602060405180830381865afa1580156200151a573d6000803e3d6000fd5b505050506040513d601f19601f8201168201806040525081019062001540919062002ed2565b98508073ffffffffffffffffffffffffffffffffffffffff1663e7b0b1906040518163ffffffff1660e01b8152600401602060405180830381865afa1580156200158e573d6000803e3d6000fd5b505050506040513d601f19601f82011682018060405250810190620015b4919062002ed2565b97508073ffffffffffffffffffffffffffffffffffffffff1663109e94cf6040518163ffffffff1660e01b8152600401602060405180830381865afa15801562001602573d6000803e3d6000fd5b505050506040513d601f19601f820116820180604052508101906200162891906200328f565b96508073ffffffffffffffffffffffffffffffffffffffff1663c35905c66040518163ffffffff1660e01b8152600401602060405180830381865afa15801562001676573d6000803e3d6000fd5b505050506040513d601f19601f820116820180604052508101906200169c919062002ed2565b95508073ffffffffffffffffffffffffffffffffffffffff16632728e28b6040518163ffffffff1660e01b8152600401602060405180830381865afa158015620016ea573d6000803e3d6000fd5b505050506040513d601f19601f82011682018060405250810190620017109190620032e9565b94508073ffffffffffffffffffffffffffffffffffffffff1663bee80fc56040518163ffffffff1660e01b8152600401602060405180830381865afa1580156200175e573d6000803e3d6000fd5b505050506040513d601f19601f8201168201806040525081019062001784919062002ed2565b93508073ffffffffffffffffffffffffffffffffffffffff1663523b0b366040518163ffffffff1660e01b8152600401602060405180830381865afa158015620017d2573d6000803e3d6000fd5b505050506040513d601f19601f82011682018060405250810190620017f8919062002ed2565b92508073ffffffffffffffffffffffffffffffffffffffff166358e9d3d56040518163ffffffff1660e01b8152600401600060405180830381865afa15801562001846573d6000803e3d6000fd5b505050506040513d6000823e3d601f19601f8201168201806040525081019062001871919062002e81565b9150509193959799909294969850565b60056020528060005260406000206000915090505481565b7fc33356bc2bad2ce263b056da5d061d4e89c336823d5e77f14c1383aedb7a1b3a600160009054906101000a900473ffffffffffffffffffffffffffffffffffffffff1673ffffffffffffffffffffffffffffffffffffffff1663f650e0cf6040518163ffffffff1660e01b8152600401602060405180830381865afa15801562001928573d6000803e3d6000fd5b505050506040513d601f19601f820116820180604052508101906200194e919062002c8b565b6040516200195d91906200332c565b60405180910390a1600160009054906101000a900473ffffffffffffffffffffffffffffffffffffffff1673ffffffffffffffffffffffffffffffffffffffff1663f650e0cf6040518163ffffffff1660e01b8152600401602060405180830381865afa158015620019d3573d6000803e3d6000fd5b505050506040513d601f19601f82011682018060405250810190620019f9919062002c8b565b1562001d38576000600160009054906101000a900473ffffffffffffffffffffffffffffffffffffffff1673ffffffffffffffffffffffffffffffffffffffff166398c436206040518163ffffffff1660e01b8152600401600060405180830381865afa15801562001a6f573d6000803e3d6000fd5b505050506040513d6000823e3d601f19601f8201168201806040525081019062001a9a919062002aa0565b90506000600260009054906101000a900473ffffffffffffffffffffffffffffffffffffffff1673ffffffffffffffffffffffffffffffffffffffff16638b09bffd8360a0015184600001518561010001518661012001516040518563ffffffff1660e01b815260040162001b13949392919062003349565b6020604051808303816000875af115801562001b33573d6000803e3d6000fd5b505050506040513d601f19601f8201168201806040525081019062001b59919062002ed2565b9050600260009054906101000a900473ffffffffffffffffffffffffffffffffffffffff1673ffffffffffffffffffffffffffffffffffffffff16636e5720a26040518163ffffffff1660e01b8152600401602060405180830381865afa15801562001bc9573d6000803e3d6000fd5b505050506040513d601f19601f8201168201806040525081019062001bef919062002ed2565b811462001d3557600660008360200151815260200190815260200160002060009054906101000a900473ffffffffffffffffffffffffffffffffffffffff1673ffffffffffffffffffffffffffffffffffffffff1663b8896eb660016040518263ffffffff1660e01b815260040162001c69919062002fc3565b600060405180830381600087803b15801562001c8457600080fd5b505af115801562001c99573d6000803e3d6000fd5b50505050600160009054906101000a900473ffffffffffffffffffffffffffffffffffffffff1673ffffffffffffffffffffffffffffffffffffffff166301612c408360000151836040518363ffffffff1660e01b815260040162001d0092919062003396565b600060405180830381600087803b15801562001d1b57600080fd5b505af115801562001d30573d6000803e3d6000fd5b505050505b50505b565b60405180610140016040528060008152602001600081526020016000600181111562001d6b5762001d6a62001ea0565b5b81526020016000600281111562001d875762001d8662001ea0565b5b81526020016060815260200160008152602001600073ffffffffffffffffffffffffffffffffffffffff1681526020016000815260200160008152602001600081525090565b610d7580620033c483390190565b6040518060a001604052806000815260200160008152602001600015158152602001600015158152602001600081525090565b6000604051905090565b600080fd5b600080fd5b6000819050919050565b62001e378162001e22565b811462001e4357600080fd5b50565b60008135905062001e578162001e2c565b92915050565b60006020828403121562001e765762001e7562001e18565b5b600062001e868482850162001e46565b91505092915050565b62001e9a8162001e22565b82525050565b7f4e487b7100000000000000000000000000000000000000000000000000000000600052602160045260246000fd5b6002811062001ee35762001ee262001ea0565b5b50565b600081905062001ef68262001ecf565b919050565b600062001f088262001ee6565b9050919050565b62001f1a8162001efb565b82525050565b6003811062001f345762001f3362001ea0565b5b50565b600081905062001f478262001f20565b919050565b600062001f598262001f37565b9050919050565b62001f6b8162001f4c565b82525050565b600081519050919050565b600082825260208201905092915050565b60005b8381101562001fad57808201518184015260208101905062001f90565b60008484015250505050565b6000601f19601f8301169050919050565b600062001fd78262001f71565b62001fe3818562001f7c565b935062001ff581856020860162001f8d565b620020008162001fb9565b840191505092915050565b600073ffffffffffffffffffffffffffffffffffffffff82169050919050565b600062002038826200200b565b9050919050565b6200204a816200202b565b82525050565b6000610140830160008301516200206b600086018262001e8f565b50602083015162002080602086018262001e8f565b50604083015162002095604086018262001f0f565b506060830151620020aa606086018262001f60565b5060808301518482036080860152620020c4828262001fca565b91505060a0830151620020db60a086018262001e8f565b5060c0830151620020f060c08601826200203f565b5060e08301516200210560e086018262001e8f565b506101008301516200211c61010086018262001e8f565b506101208301516200213361012086018262001e8f565b508091505092915050565b600060208201905081810360008301526200215a818462002050565b905092915050565b600081519050919050565b600082825260208201905092915050565b6000819050602082019050919050565b60006200219c83836200203f565b60208301905092915050565b6000602082019050919050565b6000620021c28262002162565b620021ce81856200216d565b9350620021db836200217e565b8060005b8381101562002212578151620021f688826200218e565b97506200220383620021a8565b925050600181019050620021df565b5085935050505092915050565b600060208201905081810360008301526200223b8184620021b5565b905092915050565b600080fd5b600080fd5b7f4e487b7100000000000000000000000000000000000000000000000000000000600052604160045260246000fd5b620022878262001fb9565b810181811067ffffffffffffffff82111715620022a957620022a86200224d565b5b80604052505050565b6000620022be62001e0e565b9050620022cc82826200227c565b919050565b600067ffffffffffffffff821115620022ef57620022ee6200224d565b5b620022fa8262001fb9565b9050602081019050919050565b82818337600083830152505050565b60006200232d6200232784620022d1565b620022b2565b9050828152602081018484840111156200234c576200234b62002248565b5b6200235984828562002307565b509392505050565b600082601f83011262002379576200237862002243565b5b81356200238b84826020860162002316565b91505092915050565b60008060008060808587031215620023b157620023b062001e18565b5b600085013567ffffffffffffffff811115620023d257620023d162001e1d565b5b620023e08782880162002361565b9450506020620023f38782880162001e46565b9350506040620024068782880162001e46565b9250506060620024198782880162001e46565b91505092959194509250565b620024308162001e22565b82525050565b60006020820190506200244d600083018462002425565b92915050565b6200245e816200202b565b81146200246a57600080fd5b50565b6000813590506200247e8162002453565b92915050565b6000602082840312156200249d576200249c62001e18565b5b6000620024ad848285016200246d565b91505092915050565b600081519050919050565b600082825260208201905092915050565b6000819050602082019050919050565b6000620024f0838362001e8f565b60208301905092915050565b6000602082019050919050565b60006200251682620024b6565b620025228185620024c1565b93506200252f83620024d2565b8060005b83811015620025665781516200254a8882620024e2565b97506200255783620024fc565b92505060018101905062002533565b5085935050505092915050565b600060208201905081810360008301526200258f818462002509565b905092915050565b60008060408385031215620025b157620025b062001e18565b5b6000620025c1858286016200246d565b9250506020620025d48582860162001e46565b9150509250929050565b6000819050919050565b60006200260962002603620025fd846200200b565b620025de565b6200200b565b9050919050565b60006200261d82620025e8565b9050919050565b6000620026318262002610565b9050919050565b620026438162002624565b82525050565b600060208201905062002660600083018462002638565b92915050565b60008115159050919050565b6200267d8162002666565b82525050565b60a0820160008201516200269b600085018262001e8f565b506020820151620026b0602085018262001e8f565b506040820151620026c5604085018262002672565b506060820151620026da606085018262002672565b506080820151620026ef608085018262001e8f565b50505050565b600060a0820190506200270c600083018462002683565b92915050565b6200271d816200202b565b82525050565b6004811062002737576200273662001ea0565b5b50565b60008190506200274a8262002723565b919050565b60006200275c826200273a565b9050919050565b6200276e816200274f565b82525050565b600082825260208201905092915050565b6000620027928262001f71565b6200279e818562002774565b9350620027b081856020860162001f8d565b620027bb8162001fb9565b840191505092915050565b600061012082019050620027de600083018c62002425565b620027ed602083018b62002425565b620027fc604083018a62002425565b6200280b606083018962002712565b6200281a608083018862002425565b6200282960a083018762002763565b6200283860c083018662002425565b6200284760e083018562002425565b8181036101008301526200285c818462002785565b90509a9950505050505050505050565b600080fd5b600080fd5b600081519050620028878162001e2c565b92915050565b600281106200289b57600080fd5b50565b600081519050620028af816200288d565b92915050565b60038110620028c357600080fd5b50565b600081519050620028d781620028b5565b92915050565b6000620028f4620028ee84620022d1565b620022b2565b90508281526020810184848401111562002913576200291262002248565b5b6200292084828562001f8d565b509392505050565b600082601f83011262002940576200293f62002243565b5b815162002952848260208601620028dd565b91505092915050565b6000815190506200296c8162002453565b92915050565b600061014082840312156200298c576200298b6200286c565b5b62002999610140620022b2565b90506000620029ab8482850162002876565b6000830152506020620029c18482850162002876565b6020830152506040620029d7848285016200289e565b6040830152506060620029ed84828501620028c6565b606083015250608082015167ffffffffffffffff81111562002a145762002a1362002871565b5b62002a228482850162002928565b60808301525060a062002a388482850162002876565b60a08301525060c062002a4e848285016200295b565b60c08301525060e062002a648482850162002876565b60e08301525061010062002a7b8482850162002876565b6101008301525061012062002a938482850162002876565b6101208301525092915050565b60006020828403121562002ab95762002ab862001e18565b5b600082015167ffffffffffffffff81111562002ada5762002ad962001e1d565b5b62002ae88482850162002972565b91505092915050565b600067ffffffffffffffff82111562002b0f5762002b0e6200224d565b5b602082029050602081019050919050565b600080fd5b600062002b3c62002b368462002af1565b620022b2565b9050808382526020820190506020840283018581111562002b625762002b6162002b20565b5b835b8181101562002b8f578062002b7a88826200295b565b84526020840193505060208101905062002b64565b5050509392505050565b600082601f83011262002bb15762002bb062002243565b5b815162002bc384826020860162002b25565b91505092915050565b60006020828403121562002be55762002be462001e18565b5b600082015167ffffffffffffffff81111562002c065762002c0562001e1d565b5b62002c148482850162002b99565b91505092915050565b600060608201905062002c34600083018662002712565b62002c43602083018562002712565b62002c52604083018462002425565b949350505050565b62002c658162002666565b811462002c7157600080fd5b50565b60008151905062002c858162002c5a565b92915050565b60006020828403121562002ca45762002ca362001e18565b5b600062002cb48482850162002c74565b91505092915050565b7f4e6f7420656e6f7567682066756e64732070726f76696465642e000000000000600082015250565b600062002cf5601a8362002774565b915062002d028262002cbd565b602082019050919050565b6000602082019050818103600083015262002d288162002ce6565b9050919050565b7f4e487b7100000000000000000000000000000000000000000000000000000000600052601160045260246000fd5b600062002d6b8262001e22565b91507fffffffffffffffffffffffffffffffffffffffffffffffffffffffffffffffff820362002da05762002d9f62002d2f565b5b600182019050919050565b600060808201905062002dc2600083018762002712565b818103602083015262002dd6818662002785565b905062002de7604083018562002425565b62002df6606083018462002425565b95945050505050565b7f4372656164206f72646572207375636365737321000000000000000000000000600082015250565b600062002e3760148362002774565b915062002e448262002dff565b602082019050919050565b6000604082019050818103600083015262002e6a8162002e28565b905062002e7b602083018462002425565b92915050565b60006020828403121562002e9a5762002e9962001e18565b5b600082015167ffffffffffffffff81111562002ebb5762002eba62001e1d565b5b62002ec98482850162002928565b91505092915050565b60006020828403121562002eeb5762002eea62001e18565b5b600062002efb8482850162002876565b91505092915050565b62002f0f8162001efb565b82525050565b600060a08201905062002f2c600083018862002f04565b62002f3b602083018762002425565b818103604083015262002f4f818662002785565b905062002f60606083018562002425565b62002f6f608083018462002425565b9695505050505050565b600060208201905062002f90600083018462002712565b92915050565b600060408201905062002fad600083018562002712565b62002fbc602083018462002425565b9392505050565b600060208201905062002fda600083018462002763565b92915050565b600062002fed8262001e22565b915062002ffa8362001e22565b92508282026200300a8162001e22565b9150828204841483151762003024576200302362002d2f565b5b5092915050565b7f4e487b7100000000000000000000000000000000000000000000000000000000600052601260045260246000fd5b6000620030678262001e22565b9150620030748362001e22565b9250826200308757620030866200302b565b5b828204905092915050565b7f4f6e6c792061646d696e2063616e20706572666f726d2074686973206f70657260008201527f6174696f6e2e0000000000000000000000000000000000000000000000000000602082015250565b6000620030f060268362002774565b9150620030fd8262003092565b604082019050919050565b600060208201905081810360008301526200312381620030e1565b9050919050565b7f4f6e6c792061646d696e2063616e2073657420746865206d61726b6574706c6160008201527f636520616464726573732e000000000000000000000000000000000000000000602082015250565b600062003188602b8362002774565b915062003195826200312a565b604082019050919050565b60006020820190508181036000830152620031bb8162003179565b9050919050565b600060a08284031215620031db57620031da6200286c565b5b620031e760a0620022b2565b90506000620031f98482850162002876565b60008301525060206200320f8482850162002876565b6020830152506040620032258482850162002c74565b60408301525060606200323b8482850162002c74565b6060830152506080620032518482850162002876565b60808301525092915050565b600060a0828403121562003276576200327562001e18565b5b60006200328684828501620031c2565b91505092915050565b600060208284031215620032a857620032a762001e18565b5b6000620032b8848285016200295b565b91505092915050565b60048110620032cf57600080fd5b50565b600081519050620032e381620032c1565b92915050565b60006020828403121562003302576200330162001e18565b5b60006200331284828501620032d2565b91505092915050565b620033268162002666565b82525050565b60006020820190506200334360008301846200331b565b92915050565b600060808201905062003360600083018762002425565b6200336f602083018662002425565b6200337e604083018562002425565b6200338d606083018462002425565b95945050505050565b6000604082019050620033ad600083018562002425565b620033bc602083018462002425565b939250505056fe60806040523480156200001157600080fd5b5060405162000d7538038062000d7583398181016040528101906200003791906200031a565b60006001819055506000808190555083600260006101000a81548173ffffffffffffffffffffffffffffffffffffffff021916908373ffffffffffffffffffffffffffffffffffffffff16021790555060006003819055506000600660006101000a81548160ff02191690836003811115620000b857620000b7620003ab565b5b02179055508260049081620000ce91906200061b565b5081600581905550806007819055505050505062000702565b6000604051905090565b600080fd5b600080fd5b600073ffffffffffffffffffffffffffffffffffffffff82169050919050565b60006200012882620000fb565b9050919050565b6200013a816200011b565b81146200014657600080fd5b50565b6000815190506200015a816200012f565b92915050565b600080fd5b600080fd5b6000601f19601f8301169050919050565b7f4e487b7100000000000000000000000000000000000000000000000000000000600052604160045260246000fd5b620001b5826200016a565b810181811067ffffffffffffffff82111715620001d757620001d66200017b565b5b80604052505050565b6000620001ec620000e7565b9050620001fa8282620001aa565b919050565b600067ffffffffffffffff8211156200021d576200021c6200017b565b5b62000228826200016a565b9050602081019050919050565b60005b838110156200025557808201518184015260208101905062000238565b60008484015250505050565b6000620002786200027284620001ff565b620001e0565b90508281526020810184848401111562000297576200029662000165565b5b620002a484828562000235565b509392505050565b600082601f830112620002c457620002c362000160565b5b8151620002d684826020860162000261565b91505092915050565b6000819050919050565b620002f481620002df565b81146200030057600080fd5b50565b6000815190506200031481620002e9565b92915050565b60008060008060808587031215620003375762000336620000f1565b5b6000620003478782880162000149565b945050602085015167ffffffffffffffff8111156200036b576200036a620000f6565b5b6200037987828801620002ac565b93505060406200038c8782880162000303565b92505060606200039f8782880162000303565b91505092959194509250565b7f4e487b7100000000000000000000000000000000000000000000000000000000600052602160045260246000fd5b600081519050919050565b7f4e487b7100000000000000000000000000000000000000000000000000000000600052602260045260246000fd5b600060028204905060018216806200042d57607f821691505b602082108103620004435762000442620003e5565b5b50919050565b60008190508160005260206000209050919050565b60006020601f8301049050919050565b600082821b905092915050565b600060088302620004ad7fffffffffffffffffffffffffffffffffffffffffffffffffffffffffffffffff826200046e565b620004b986836200046e565b95508019841693508086168417925050509392505050565b6000819050919050565b6000620004fc620004f6620004f084620002df565b620004d1565b620002df565b9050919050565b6000819050919050565b6200051883620004db565b62000530620005278262000503565b8484546200047b565b825550505050565b600090565b6200054762000538565b620005548184846200050d565b505050565b5b818110156200057c57620005706000826200053d565b6001810190506200055a565b5050565b601f821115620005cb57620005958162000449565b620005a0846200045e565b81016020851015620005b0578190505b620005c8620005bf856200045e565b83018262000559565b50505b505050565b600082821c905092915050565b6000620005f060001984600802620005d0565b1980831691505092915050565b60006200060b8383620005dd565b9150826002028217905092915050565b6200062682620003da565b67ffffffffffffffff8111156200064257620006416200017b565b5b6200064e825462000414565b6200065b82828562000580565b600060209050601f8311600181146200069357600084156200067e578287015190505b6200068a8582620005fd565b865550620006fa565b601f198416620006a38662000449565b60005b82811015620006cd57848901518255600182019150602085019450602081019050620006a6565b86831015620006ed5784890151620006e9601f891682620005dd565b8355505b6001600288020188555050505b505050505050565b61066380620007126000396000f3fe608060405234801561001057600080fd5b50600436106100b45760003560e01c8063a85cb62911610071578063a85cb6291461016b578063b8896eb614610187578063ba0179b5146101a3578063bee80fc5146101bf578063c35905c6146101dd578063e7b0b190146101fb576100b4565b8063109e94cf146100b95780632728e28b146100d75780632c898945146100f5578063523b0b361461011357806358e9d3d51461013157806390ef73e21461014f575b600080fd5b6100c1610219565b6040516100ce919061038a565b60405180910390f35b6100df61023f565b6040516100ec919061041c565b60405180910390f35b6100fd610252565b60405161010a9190610450565b60405180910390f35b61011b610258565b6040516101289190610450565b60405180910390f35b61013961025e565b60405161014691906104fb565b60405180910390f35b6101696004803603810190610164919061054e565b6102ec565b005b6101856004803603810190610180919061054e565b6102f6565b005b6101a1600480360381019061019c91906105a0565b610300565b005b6101bd60048036038101906101b8919061054e565b61032d565b005b6101c7610337565b6040516101d49190610450565b60405180910390f35b6101e561033d565b6040516101f29190610450565b60405180910390f35b610203610343565b6040516102109190610450565b60405180910390f35b600260009054906101000a900473ffffffffffffffffffffffffffffffffffffffff1681565b600660009054906101000a900460ff1681565b60005481565b60055481565b6004805461026b906105fc565b80601f0160208091040260200160405190810160405280929190818152602001828054610297906105fc565b80156102e45780601f106102b9576101008083540402835291602001916102e4565b820191906000526020600020905b8154815290600101906020018083116102c757829003601f168201915b505050505081565b8060008190555050565b8060018190555050565b80600660006101000a81548160ff02191690836003811115610325576103246103a5565b5b021790555050565b8060038190555050565b60075481565b60035481565b60015481565b600073ffffffffffffffffffffffffffffffffffffffff82169050919050565b600061037482610349565b9050919050565b61038481610369565b82525050565b600060208201905061039f600083018461037b565b92915050565b7f4e487b7100000000000000000000000000000000000000000000000000000000600052602160045260246000fd5b600481106103e5576103e46103a5565b5b50565b60008190506103f6826103d4565b919050565b6000610406826103e8565b9050919050565b610416816103fb565b82525050565b6000602082019050610431600083018461040d565b92915050565b6000819050919050565b61044a81610437565b82525050565b60006020820190506104656000830184610441565b92915050565b600081519050919050565b600082825260208201905092915050565b60005b838110156104a557808201518184015260208101905061048a565b60008484015250505050565b6000601f19601f8301169050919050565b60006104cd8261046b565b6104d78185610476565b93506104e7818560208601610487565b6104f0816104b1565b840191505092915050565b6000602082019050818103600083015261051581846104c2565b905092915050565b600080fd5b61052b81610437565b811461053657600080fd5b50565b60008135905061054881610522565b92915050565b6000602082840312156105645761056361051d565b5b600061057284828501610539565b91505092915050565b6004811061058857600080fd5b50565b60008135905061059a8161057b565b92915050565b6000602082840312156105b6576105b561051d565b5b60006105c48482850161058b565b91505092915050565b7f4e487b7100000000000000000000000000000000000000000000000000000000600052602260045260246000fd5b6000600282049050600182168061061457607f821691505b602082108103610627576106266105cd565b5b5091905056fea26469706673582212209f4ada1ff1d1cbb751b9e0835d3bc2253386b08ec633bd892fdbee682dfca27f64736f6c63430008130033a2646970667358221220c9e250f72b30b5814968658d092b0e4971de2a4c3a2822e9127566ecf5d0848064736f6c63430008130033",
  "immutableReferences": {
    "88": [
      {
        "length": 32,
        "start": 1455
      },
      {
        "length": 32,
        "start": 4152
      },
      {
        "length": 32,
        "start": 4482
      }
    ]
  },
  "source": "// SPDX-License-Identifier: MIT\r\npragma solidity ^0.8.0;\r\n\r\nimport \"./Payment.sol\";\r\nimport \"./TaskPool.sol\";\r\nimport \"./Order.sol\";\r\nimport \"./SharedStructs.sol\";\r\nimport \"./WorkerPool.sol\";\r\nimport \"./IERC20.sol\";\r\n\r\ncontract Marketplace {\r\n    Payment private paymentContract;\r\n    TaskPool private taskPoolContract;\r\n    WorkerPool private workerPoolContract;\r\n    IERC20 private immutable usdtContract;\r\n    address private admin;\r\n    address private marketplace;\r\n    mapping(address => uint256) public workerLoad;\r\n    mapping(uint256 => Order) public orders;\r\n    mapping(address => uint256[]) public userOrders;\r\n    uint256 private nextOrderId;\r\n\r\n    event TaskCompleted(uint256 indexed taskId, address indexed worker);\r\n\r\n    event OrderCreated(string message, uint256 orderId);\r\n    event ConfirmOrder(uint256 orderId, uint256 paymentAmount);\r\n    event Log(string message);\r\n    event LogBool(bool LogBool);\r\n\r\n    event Logad(address adr, address adr2);\r\n\r\n    modifier onlyAdmin() {\r\n        require(msg.sender == admin, \"Only admin can perform this operation.\");\r\n        _;\r\n    }\r\n\r\n    constructor(\r\n        address payable paymentAddress,\r\n        address taskPoolAddress,\r\n        address workerPoolAddress,\r\n        address usdtAddr\r\n    ) {\r\n        paymentContract = Payment(paymentAddress);\r\n        taskPoolContract = TaskPool(taskPoolAddress);\r\n        workerPoolContract = WorkerPool(workerPoolAddress);\r\n        usdtContract = IERC20(usdtAddr);\r\n        admin = msg.sender;\r\n        nextOrderId = 0;\r\n    }\r\n\r\n    function addWorker(address worker, uint256 _computingPower) public {\r\n        workerPoolContract.addWorker(worker, _computingPower);\r\n        TriggerTaskPool();\r\n    }\r\n    \r\n    function removeWorker(address worker) public\r\n    {\r\n        workerPoolContract.removeWorker(worker);\r\n    }\r\n\r\n    function getWorkerList() public view returns(address[] memory)\r\n    {\r\n        return workerPoolContract.getWorkerList();\r\n    }\r\n\r\n    function getWorkerInfo(address worker) public view returns(WorkerPool.Worker memory)\r\n    {\r\n        return workerPoolContract.getWorkerByWorkerAddress(worker);\r\n    }\r\n\r\n    function getTask(\r\n        uint256 taskId\r\n    ) public view returns (SharedStructs.TaskInfo memory) {\r\n        return taskPoolContract.getTask(taskId);\r\n    }\r\n\r\n    function createOrderPreview(\r\n        string memory folderUrl,\r\n        uint256 requiredPower,\r\n        uint256 paymentAmount,\r\n        uint256 orderLevel\r\n    ) public payable returns (uint256) {\r\n\r\n        //require(msg.value >= paymentAmount, \"Not enough funds provided.\");\r\n        bool ok = usdtContract.transferFrom(msg.sender, address(this), paymentAmount);\r\n        require(ok, \"Not enough funds provided.\");\r\n        uint256 orderId = nextOrderId++;\r\n\r\n        Order order = new Order(\r\n            msg.sender,\r\n            folderUrl,\r\n            requiredPower,\r\n            orderLevel\r\n        );\r\n        orders[orderId] = order;\r\n        userOrders[msg.sender].push(orderId);\r\n        emit OrderCreated(\"Cread order success!\", orderId);\r\n\r\n        //Payment(paymentContract).deposit{value: msg.value}(msg.sender);\r\n\r\n        uint256 taskId = taskPoolContract.createTask(\r\n            SharedStructs.TaskType.Training,\r\n            orderId,\r\n            order.folderUrl(),\r\n            order.requiredComputingPower(),\r\n            order.orderLevel()\r\n        );\r\n        order.SetOrdertrainTaskId(taskId);\r\n        order.confirm(paymentAmount);\r\n        TriggerTaskPool();\r\n        return orderId;\r\n    }\r\n\r\n    function calculateCost(\r\n        uint256 paymentAmount\r\n    ) public payable{\r\n\r\n        require(msg.value >= paymentAmount, \"Not enough funds provided.\");\r\n        \r\n        Payment(paymentContract).deposit{value: msg.value}(msg.sender);\r\n    }\r\n\r\n    function getUserOrders(\r\n        address user\r\n    ) public view returns (uint256[] memory) {\r\n        return userOrders[user];\r\n    }\r\n\r\n    function getOrderInfo(\r\n        uint256 orderId\r\n    )\r\n        public\r\n        view\r\n        returns (\r\n            uint256 _orderId,\r\n            uint256 _trainTaskId,\r\n            uint256 _validateTaskId,\r\n            address _client,\r\n            uint256 _paymentAmount,\r\n            SharedStructs.OrderStatus _orderStatus,\r\n            uint _orderLevel,\r\n            uint256 _requiredComputingPower,\r\n            string memory _folderUrl\r\n        )\r\n    {\r\n        _orderId = orderId;\r\n        Order order = orders[orderId];\r\n        _trainTaskId = order.trainTaskId();\r\n        _validateTaskId = order.validateTaskId();\r\n        _client = order.client();\r\n        _paymentAmount = order.paymentAmount();\r\n        _orderStatus = order.orderStatus();\r\n        _orderLevel = order.orderLevel();\r\n        _requiredComputingPower = order.requiredComputingPower();\r\n        _folderUrl = order.folderUrl();\r\n    }\r\n\r\n    function transferFunds(address recipient, uint256 amount) public onlyAdmin {\r\n        //require(address(this).balance >= amount, \"Insufficient contract balance.\");\r\n        //payable(recipient).transfer(amount);\r\n        bool ok = usdtContract.transfer(recipient, amount);\r\n        require(ok);\r\n    }\r\n\r\n    function CompleteTask(address workerAddress, uint256 taskId) external {\r\n        SharedStructs.TaskInfo memory task = taskPoolContract.getTask(taskId);\r\n        taskPoolContract.completeTask(taskId);\r\n        Order order = orders[task.orderId];\r\n        workerPoolContract.finishTask(workerAddress);\r\n        order.SetOrderStatus(SharedStructs.OrderStatus.Completed);\r\n\r\n        uint256 paymentWorker = order.paymentAmount() * 8 / 10;\r\n        usdtContract.transfer(workerAddress, paymentWorker);\r\n        //Payment(paymentContract).payWorker(workerAddress, paymentWorker);\r\n\r\n        TriggerTaskPool();\r\n    }\r\n\r\n    function TriggerTaskPool() private\r\n   {\r\n        emit LogBool(taskPoolContract.HasTask());\r\n        if(taskPoolContract.HasTask())\r\n        {\r\n            SharedStructs.TaskInfo memory task =  taskPoolContract.getPendingTask();\r\n            uint256 workerId = workerPoolContract.assignTask(task.requiredPower, task.id, task.expectWorkerId, task.orderLevel);\r\n            \r\n            if(workerId != workerPoolContract.Invalid_WorkerId())\r\n            {\r\n                \r\n                orders[task.orderId].SetOrderStatus(SharedStructs.OrderStatus.processing);\r\n                taskPoolContract.assignTask(task.id, workerId);\r\n            }\r\n        }\r\n    }\r\n\r\n    function setMarketplaceAddress(address marketplaceAddress) external {\r\n        require(\r\n            msg.sender == admin,\r\n            \"Only admin can set the marketplace address.\"\r\n        );\r\n        marketplace = marketplaceAddress;\r\n    }\r\n}\r\n",
  "sourcePath": "C:\\Users\\23861\\Bahen-Client\\src\\smart-contracts\\contracts\\Marketplace.sol",
  "compiler": {
    "name": "solc",
    "version": "0.8.19+commit.7dd6d404.Emscripten.clang"
  },
  "schemaVersion": "3.4.14",
  "updatedAt": "2023-10-08T04:05:06.510Z",
  "devdoc": {
    "kind": "dev",
    "methods": {},
    "version": 1
  },
  "userdoc": {
    "kind": "user",
    "methods": {},
    "version": 1
  }
}