{
  "contractName": "TaskPool",
  "abi": [
    {
      "anonymous": false,
      "inputs": [
        {
          "indexed": true,
          "internalType": "uint256",
          "name": "taskId",
          "type": "uint256"
        },
        {
          "indexed": true,
          "internalType": "uint256",
          "name": "workerId",
          "type": "uint256"
        }
      ],
      "name": "TaskAssigned",
      "type": "event"
    },
    {
      "anonymous": false,
      "inputs": [
        {
          "indexed": true,
          "internalType": "uint256",
          "name": "taskId",
          "type": "uint256"
        }
      ],
      "name": "TaskCompleted",
      "type": "event"
    },
    {
      "anonymous": false,
      "inputs": [
        {
          "indexed": true,
          "internalType": "uint256",
          "name": "taskId",
          "type": "uint256"
        },
        {
          "indexed": true,
          "internalType": "address",
          "name": "creator",
          "type": "address"
        }
      ],
      "name": "TaskCreated",
      "type": "event"
    },
    {
      "inputs": [
        {
          "internalType": "uint256",
          "name": "",
          "type": "uint256"
        }
      ],
      "name": "tasks",
      "outputs": [
        {
          "internalType": "uint256",
          "name": "id",
          "type": "uint256"
        },
        {
          "internalType": "uint256",
          "name": "orderId",
          "type": "uint256"
        },
        {
          "internalType": "enum SharedStructs.TaskType",
          "name": "taskType",
          "type": "uint8"
        },
        {
          "internalType": "enum SharedStructs.TaskStatus",
          "name": "status",
          "type": "uint8"
        },
        {
          "internalType": "string",
          "name": "folderUrl",
          "type": "string"
        },
        {
          "internalType": "uint256",
          "name": "requiredPower",
          "type": "uint256"
        },
        {
          "internalType": "address",
          "name": "creator",
          "type": "address"
        },
        {
          "internalType": "uint256",
          "name": "workerId",
          "type": "uint256"
        },
        {
          "internalType": "uint256",
          "name": "expectWorkerId",
          "type": "uint256"
        },
        {
          "internalType": "uint256",
          "name": "orderLevel",
          "type": "uint256"
        }
      ],
      "stateMutability": "view",
      "type": "function"
    },
    {
      "inputs": [
        {
          "internalType": "enum SharedStructs.TaskType",
          "name": "taskType",
          "type": "uint8"
        },
        {
          "internalType": "uint256",
          "name": "orderId",
          "type": "uint256"
        },
        {
          "internalType": "string",
          "name": "folderUrl",
          "type": "string"
        },
        {
          "internalType": "uint256",
          "name": "requiredPower",
          "type": "uint256"
        },
        {
          "internalType": "uint256",
          "name": "exceptWorkerId",
          "type": "uint256"
        },
        {
          "internalType": "uint256",
          "name": "orderLevel",
          "type": "uint256"
        }
      ],
      "name": "createTask",
      "outputs": [
        {
          "internalType": "uint256",
          "name": "",
          "type": "uint256"
        }
      ],
      "stateMutability": "nonpayable",
      "type": "function"
    },
    {
      "inputs": [
        {
          "internalType": "enum SharedStructs.TaskType",
          "name": "taskType",
          "type": "uint8"
        },
        {
          "internalType": "uint256",
          "name": "orderId",
          "type": "uint256"
        },
        {
          "internalType": "string",
          "name": "folderUrl",
          "type": "string"
        },
        {
          "internalType": "uint256",
          "name": "requiredPower",
          "type": "uint256"
        },
        {
          "internalType": "uint256",
          "name": "orderLevel",
          "type": "uint256"
        }
      ],
      "name": "createTask",
      "outputs": [
        {
          "internalType": "uint256",
          "name": "",
          "type": "uint256"
        }
      ],
      "stateMutability": "nonpayable",
      "type": "function"
    },
    {
      "inputs": [],
      "name": "getAllTasks",
      "outputs": [
        {
          "components": [
            {
              "internalType": "uint256",
              "name": "id",
              "type": "uint256"
            },
            {
              "internalType": "uint256",
              "name": "orderId",
              "type": "uint256"
            },
            {
              "internalType": "enum SharedStructs.TaskType",
              "name": "taskType",
              "type": "uint8"
            },
            {
              "internalType": "enum SharedStructs.TaskStatus",
              "name": "status",
              "type": "uint8"
            },
            {
              "internalType": "string",
              "name": "folderUrl",
              "type": "string"
            },
            {
              "internalType": "uint256",
              "name": "requiredPower",
              "type": "uint256"
            },
            {
              "internalType": "address",
              "name": "creator",
              "type": "address"
            },
            {
              "internalType": "uint256",
              "name": "workerId",
              "type": "uint256"
            },
            {
              "internalType": "uint256",
              "name": "expectWorkerId",
              "type": "uint256"
            },
            {
              "internalType": "uint256",
              "name": "orderLevel",
              "type": "uint256"
            }
          ],
          "internalType": "struct SharedStructs.TaskInfo[]",
          "name": "",
          "type": "tuple[]"
        }
      ],
      "stateMutability": "view",
      "type": "function"
    },
    {
      "inputs": [
        {
          "internalType": "uint256",
          "name": "taskId",
          "type": "uint256"
        }
      ],
      "name": "getTask",
      "outputs": [
        {
          "components": [
            {
              "internalType": "uint256",
              "name": "id",
              "type": "uint256"
            },
            {
              "internalType": "uint256",
              "name": "orderId",
              "type": "uint256"
            },
            {
              "internalType": "enum SharedStructs.TaskType",
              "name": "taskType",
              "type": "uint8"
            },
            {
              "internalType": "enum SharedStructs.TaskStatus",
              "name": "status",
              "type": "uint8"
            },
            {
              "internalType": "string",
              "name": "folderUrl",
              "type": "string"
            },
            {
              "internalType": "uint256",
              "name": "requiredPower",
              "type": "uint256"
            },
            {
              "internalType": "address",
              "name": "creator",
              "type": "address"
            },
            {
              "internalType": "uint256",
              "name": "workerId",
              "type": "uint256"
            },
            {
              "internalType": "uint256",
              "name": "expectWorkerId",
              "type": "uint256"
            },
            {
              "internalType": "uint256",
              "name": "orderLevel",
              "type": "uint256"
            }
          ],
          "internalType": "struct SharedStructs.TaskInfo",
          "name": "",
          "type": "tuple"
        }
      ],
      "stateMutability": "view",
      "type": "function"
    },
    {
      "inputs": [],
      "name": "getPendingTask",
      "outputs": [
        {
          "components": [
            {
              "internalType": "uint256",
              "name": "id",
              "type": "uint256"
            },
            {
              "internalType": "uint256",
              "name": "orderId",
              "type": "uint256"
            },
            {
              "internalType": "enum SharedStructs.TaskType",
              "name": "taskType",
              "type": "uint8"
            },
            {
              "internalType": "enum SharedStructs.TaskStatus",
              "name": "status",
              "type": "uint8"
            },
            {
              "internalType": "string",
              "name": "folderUrl",
              "type": "string"
            },
            {
              "internalType": "uint256",
              "name": "requiredPower",
              "type": "uint256"
            },
            {
              "internalType": "address",
              "name": "creator",
              "type": "address"
            },
            {
              "internalType": "uint256",
              "name": "workerId",
              "type": "uint256"
            },
            {
              "internalType": "uint256",
              "name": "expectWorkerId",
              "type": "uint256"
            },
            {
              "internalType": "uint256",
              "name": "orderLevel",
              "type": "uint256"
            }
          ],
          "internalType": "struct SharedStructs.TaskInfo",
          "name": "task",
          "type": "tuple"
        }
      ],
      "stateMutability": "view",
      "type": "function"
    },
    {
      "inputs": [],
      "name": "HasTask",
      "outputs": [
        {
          "internalType": "bool",
          "name": "",
          "type": "bool"
        }
      ],
      "stateMutability": "view",
      "type": "function"
    },
    {
      "inputs": [
        {
          "internalType": "uint256",
          "name": "taskId",
          "type": "uint256"
        },
        {
          "internalType": "uint256",
          "name": "workerId",
          "type": "uint256"
        }
      ],
      "name": "assignTask",
      "outputs": [],
      "stateMutability": "nonpayable",
      "type": "function"
    },
    {
      "inputs": [
        {
          "internalType": "uint256",
          "name": "taskId",
          "type": "uint256"
        }
      ],
      "name": "completeTask",
      "outputs": [],
      "stateMutability": "nonpayable",
      "type": "function"
    }
  ],
  "bytecode": "0x608060405260016000556001805534801561001957600080fd5b50611c5f806100296000396000f3fe608060405234801561001057600080fd5b50600436106100935760003560e01c80638d977672116100665780638d9776721461013257806398c436201461016b578063d2f1d44814610189578063e1e29558146101b9578063f650e0cf146101d557610093565b806301612c40146100985780631d65e77e146100b45780633ddfc3e6146100e4578063779900b414610114575b600080fd5b6100b260048036038101906100ad9190610e87565b6101f3565b005b6100ce60048036038101906100c99190610ec7565b61034a565b6040516100db919061116d565b60405180910390f35b6100fe60048036038101906100f991906112e9565b610512565b60405161010b91906113a1565b60405180910390f35b61011c61073b565b6040516101299190611558565b60405180910390f35b61014c60048036038101906101479190610ec7565b6109bb565b6040516101629a999897969594939291906115f1565b60405180910390f35b610173610ad1565b604051610180919061116d565b60405180910390f35b6101a3600480360381019061019e9190611694565b610c99565b6040516101b091906113a1565b60405180910390f35b6101d360048036038101906101ce9190610ec7565b610cb5565b005b6101dd610da2565b6040516101ea9190611746565b60405180910390f35b6101fb610da2565b61023a576040517f08c379a0000000000000000000000000000000000000000000000000000000008152600401610231906117ad565b60405180910390fd5b60006002600084815260200190815260200160002090506000600281111561026557610264610f03565b5b8160020160019054906101000a900460ff16600281111561028957610288610f03565b5b146102c9576040517f08c379a00000000000000000000000000000000000000000000000000000000081526004016102c090611819565b60405180910390fd5b60018160020160016101000a81548160ff021916908360028111156102f1576102f0610f03565b5b02179055508181600601819055506001600081548092919061031290611868565b919050555081837f25e5c814bf9313a0efe86f97f5d6ad2921089c376aa35ab12fc2c495546755ee60405160405180910390a3505050565b610352610db0565b600260008381526020019081526020016000206040518061014001604052908160008201548152602001600182015481526020016002820160009054906101000a900460ff1660018111156103aa576103a9610f03565b5b60018111156103bc576103bb610f03565b5b81526020016002820160019054906101000a900460ff1660028111156103e5576103e4610f03565b5b60028111156103f7576103f6610f03565b5b815260200160038201805461040b906118df565b80601f0160208091040260200160405190810160405280929190818152602001828054610437906118df565b80156104845780601f1061045957610100808354040283529160200191610484565b820191906000526020600020905b81548152906001019060200180831161046757829003601f168201915b50505050508152602001600482015481526020016005820160009054906101000a900473ffffffffffffffffffffffffffffffffffffffff1673ffffffffffffffffffffffffffffffffffffffff1673ffffffffffffffffffffffffffffffffffffffff16815260200160068201548152602001600782015481526020016008820154815250509050919050565b60008060008081548092919061052790611868565b91905055905060405180610140016040528082815260200188815260200189600181111561055857610557610f03565b5b81526020016000600281111561057157610570610f03565b5b81526020018781526020018681526020013373ffffffffffffffffffffffffffffffffffffffff168152602001600081526020018581526020018481525060026000838152602001908152602001600020600082015181600001556020820151816001015560408201518160020160006101000a81548160ff0219169083600181111561060157610600610f03565b5b021790555060608201518160020160016101000a81548160ff0219169083600281111561063157610630610f03565b5b0217905550608082015181600301908161064b9190611abc565b5060a0820151816004015560c08201518160050160006101000a81548173ffffffffffffffffffffffffffffffffffffffff021916908373ffffffffffffffffffffffffffffffffffffffff16021790555060e082015181600601556101008201518160070155610120820151816008015590505060038190806001815401808255809150506001900390600052602060002001600090919091909150553373ffffffffffffffffffffffffffffffffffffffff16817fe9ee39160568153d230ca0e29961267415d513defbb7d3b21af0fe940e1ebd1560405160405180910390a3809150509695505050505050565b60606000600380549050905060008167ffffffffffffffff811115610763576107626111be565b5b60405190808252806020026020018201604052801561079c57816020015b610789610db0565b8152602001906001900390816107815790505b50905060005b828110156109b25760026000600383815481106107c2576107c1611b8e565b5b906000526020600020015481526020019081526020016000206040518061014001604052908160008201548152602001600182015481526020016002820160009054906101000a900460ff1660018111156108205761081f610f03565b5b600181111561083257610831610f03565b5b81526020016002820160019054906101000a900460ff16600281111561085b5761085a610f03565b5b600281111561086d5761086c610f03565b5b8152602001600382018054610881906118df565b80601f01602080910402602001604051908101604052809291908181526020018280546108ad906118df565b80156108fa5780601f106108cf576101008083540402835291602001916108fa565b820191906000526020600020905b8154815290600101906020018083116108dd57829003601f168201915b50505050508152602001600482015481526020016005820160009054906101000a900473ffffffffffffffffffffffffffffffffffffffff1673ffffffffffffffffffffffffffffffffffffffff1673ffffffffffffffffffffffffffffffffffffffff168152602001600682015481526020016007820154815260200160088201548152505082828151811061099457610993611b8e565b5b602002602001018190525080806109aa90611868565b9150506107a2565b50809250505090565b60026020528060005260406000206000915090508060000154908060010154908060020160009054906101000a900460ff16908060020160019054906101000a900460ff1690806003018054610a10906118df565b80601f0160208091040260200160405190810160405280929190818152602001828054610a3c906118df565b8015610a895780601f10610a5e57610100808354040283529160200191610a89565b820191906000526020600020905b815481529060010190602001808311610a6c57829003601f168201915b5050505050908060040154908060050160009054906101000a900473ffffffffffffffffffffffffffffffffffffffff1690806006015490806007015490806008015490508a565b610ad9610db0565b6002600060015481526020019081526020016000206040518061014001604052908160008201548152602001600182015481526020016002820160009054906101000a900460ff166001811115610b3357610b32610f03565b5b6001811115610b4557610b44610f03565b5b81526020016002820160019054906101000a900460ff166002811115610b6e57610b6d610f03565b5b6002811115610b8057610b7f610f03565b5b8152602001600382018054610b94906118df565b80601f0160208091040260200160405190810160405280929190818152602001828054610bc0906118df565b8015610c0d5780601f10610be257610100808354040283529160200191610c0d565b820191906000526020600020905b815481529060010190602001808311610bf057829003601f168201915b50505050508152602001600482015481526020016005820160009054906101000a900473ffffffffffffffffffffffffffffffffffffffff1673ffffffffffffffffffffffffffffffffffffffff1673ffffffffffffffffffffffffffffffffffffffff1681526020016006820154815260200160078201548152602001600882015481525050905090565b6000610caa86868686600087610512565b905095945050505050565b600060026000838152602001908152602001600020905060016002811115610ce057610cdf610f03565b5b8160020160019054906101000a900460ff166002811115610d0457610d03610f03565b5b14610d44576040517f08c379a0000000000000000000000000000000000000000000000000000000008152600401610d3b90611c09565b60405180910390fd5b60028160020160016101000a81548160ff02191690836002811115610d6c57610d6b610f03565b5b0217905550817fc1fa7142cfb933d0855114a3bffde296944c30b727f297c14d0db4d553d3a5c760405160405180910390a25050565b600060015460005411905090565b604051806101400160405280600081526020016000815260200160006001811115610dde57610ddd610f03565b5b815260200160006002811115610df757610df6610f03565b5b81526020016060815260200160008152602001600073ffffffffffffffffffffffffffffffffffffffff1681526020016000815260200160008152602001600081525090565b6000604051905090565b600080fd5b600080fd5b6000819050919050565b610e6481610e51565b8114610e6f57600080fd5b50565b600081359050610e8181610e5b565b92915050565b60008060408385031215610e9e57610e9d610e47565b5b6000610eac85828601610e72565b9250506020610ebd85828601610e72565b9150509250929050565b600060208284031215610edd57610edc610e47565b5b6000610eeb84828501610e72565b91505092915050565b610efd81610e51565b82525050565b7f4e487b7100000000000000000000000000000000000000000000000000000000600052602160045260246000fd5b60028110610f4357610f42610f03565b5b50565b6000819050610f5482610f32565b919050565b6000610f6482610f46565b9050919050565b610f7481610f59565b82525050565b60038110610f8b57610f8a610f03565b5b50565b6000819050610f9c82610f7a565b919050565b6000610fac82610f8e565b9050919050565b610fbc81610fa1565b82525050565b600081519050919050565b600082825260208201905092915050565b60005b83811015610ffc578082015181840152602081019050610fe1565b60008484015250505050565b6000601f19601f8301169050919050565b600061102482610fc2565b61102e8185610fcd565b935061103e818560208601610fde565b61104781611008565b840191505092915050565b600073ffffffffffffffffffffffffffffffffffffffff82169050919050565b600061107d82611052565b9050919050565b61108d81611072565b82525050565b6000610140830160008301516110ac6000860182610ef4565b5060208301516110bf6020860182610ef4565b5060408301516110d26040860182610f6b565b5060608301516110e56060860182610fb3565b50608083015184820360808601526110fd8282611019565b91505060a083015161111260a0860182610ef4565b5060c083015161112560c0860182611084565b5060e083015161113860e0860182610ef4565b5061010083015161114d610100860182610ef4565b50610120830151611162610120860182610ef4565b508091505092915050565b600060208201905081810360008301526111878184611093565b905092915050565b6002811061119c57600080fd5b50565b6000813590506111ae8161118f565b92915050565b600080fd5b600080fd5b7f4e487b7100000000000000000000000000000000000000000000000000000000600052604160045260246000fd5b6111f682611008565b810181811067ffffffffffffffff82111715611215576112146111be565b5b80604052505050565b6000611228610e3d565b905061123482826111ed565b919050565b600067ffffffffffffffff821115611254576112536111be565b5b61125d82611008565b9050602081019050919050565b82818337600083830152505050565b600061128c61128784611239565b61121e565b9050828152602081018484840111156112a8576112a76111b9565b5b6112b384828561126a565b509392505050565b600082601f8301126112d0576112cf6111b4565b5b81356112e0848260208601611279565b91505092915050565b60008060008060008060c0878903121561130657611305610e47565b5b600061131489828a0161119f565b965050602061132589828a01610e72565b955050604087013567ffffffffffffffff81111561134657611345610e4c565b5b61135289828a016112bb565b945050606061136389828a01610e72565b935050608061137489828a01610e72565b92505060a061138589828a01610e72565b9150509295509295509295565b61139b81610e51565b82525050565b60006020820190506113b66000830184611392565b92915050565b600081519050919050565b600082825260208201905092915050565b6000819050602082019050919050565b6000610140830160008301516114016000860182610ef4565b5060208301516114146020860182610ef4565b5060408301516114276040860182610f6b565b50606083015161143a6060860182610fb3565b50608083015184820360808601526114528282611019565b91505060a083015161146760a0860182610ef4565b5060c083015161147a60c0860182611084565b5060e083015161148d60e0860182610ef4565b506101008301516114a2610100860182610ef4565b506101208301516114b7610120860182610ef4565b508091505092915050565b60006114ce83836113e8565b905092915050565b6000602082019050919050565b60006114ee826113bc565b6114f881856113c7565b93508360208202850161150a856113d8565b8060005b85811015611546578484038952815161152785826114c2565b9450611532836114d6565b925060208a0199505060018101905061150e565b50829750879550505050505092915050565b6000602082019050818103600083015261157281846114e3565b905092915050565b61158381610f59565b82525050565b61159281610fa1565b82525050565b600082825260208201905092915050565b60006115b482610fc2565b6115be8185611598565b93506115ce818560208601610fde565b6115d781611008565b840191505092915050565b6115eb81611072565b82525050565b600061014082019050611607600083018d611392565b611614602083018c611392565b611621604083018b61157a565b61162e606083018a611589565b818103608083015261164081896115a9565b905061164f60a0830188611392565b61165c60c08301876115e2565b61166960e0830186611392565b611677610100830185611392565b611685610120830184611392565b9b9a5050505050505050505050565b600080600080600060a086880312156116b0576116af610e47565b5b60006116be8882890161119f565b95505060206116cf88828901610e72565b945050604086013567ffffffffffffffff8111156116f0576116ef610e4c565b5b6116fc888289016112bb565b935050606061170d88828901610e72565b925050608061171e88828901610e72565b9150509295509295909350565b60008115159050919050565b6117408161172b565b82525050565b600060208201905061175b6000830184611737565b92915050565b7f4e6f207461736b7320696e2074686520706f6f6c2e0000000000000000000000600082015250565b6000611797601583611598565b91506117a282611761565b602082019050919050565b600060208201905081810360008301526117c68161178a565b9050919050565b7f5461736b206973206e6f7420696e2043726561746564207374617475732e0000600082015250565b6000611803601e83611598565b915061180e826117cd565b602082019050919050565b60006020820190508181036000830152611832816117f6565b9050919050565b7f4e487b7100000000000000000000000000000000000000000000000000000000600052601160045260246000fd5b600061187382610e51565b91507fffffffffffffffffffffffffffffffffffffffffffffffffffffffffffffffff82036118a5576118a4611839565b5b600182019050919050565b7f4e487b7100000000000000000000000000000000000000000000000000000000600052602260045260246000fd5b600060028204905060018216806118f757607f821691505b60208210810361190a576119096118b0565b5b50919050565b60008190508160005260206000209050919050565b60006020601f8301049050919050565b600082821b905092915050565b6000600883026119727fffffffffffffffffffffffffffffffffffffffffffffffffffffffffffffffff82611935565b61197c8683611935565b95508019841693508086168417925050509392505050565b6000819050919050565b60006119b96119b46119af84610e51565b611994565b610e51565b9050919050565b6000819050919050565b6119d38361199e565b6119e76119df826119c0565b848454611942565b825550505050565b600090565b6119fc6119ef565b611a078184846119ca565b505050565b5b81811015611a2b57611a206000826119f4565b600181019050611a0d565b5050565b601f821115611a7057611a4181611910565b611a4a84611925565b81016020851015611a59578190505b611a6d611a6585611925565b830182611a0c565b50505b505050565b600082821c905092915050565b6000611a9360001984600802611a75565b1980831691505092915050565b6000611aac8383611a82565b9150826002028217905092915050565b611ac582610fc2565b67ffffffffffffffff811115611ade57611add6111be565b5b611ae882546118df565b611af3828285611a2f565b600060209050601f831160018114611b265760008415611b14578287015190505b611b1e8582611aa0565b865550611b86565b601f198416611b3486611910565b60005b82811015611b5c57848901518255600182019150602085019450602081019050611b37565b86831015611b795784890151611b75601f891682611a82565b8355505b6001600288020188555050505b505050505050565b7f4e487b7100000000000000000000000000000000000000000000000000000000600052603260045260246000fd5b7f5461736b206973206e6f7420696e2041737369676e6564207374617475732e00600082015250565b6000611bf3601f83611598565b9150611bfe82611bbd565b602082019050919050565b60006020820190508181036000830152611c2281611be6565b905091905056fea26469706673582212202127e82604088387a7a401fa6d98a1f5fb4829f6cce79a1f9e678babfd62712e64736f6c63430008130033",
  "immutableReferences": {},
  "source": "// SPDX-License-Identifier: MIT\r\npragma solidity ^0.8.0;\r\n\r\nimport \"./SharedStructs.sol\";\r\n\r\ncontract TaskPool {\r\n    uint256 private nextTaskId = 1;\r\n    uint256 private pendingTaskHead = 1;\r\n    mapping(uint256 => SharedStructs.TaskInfo) public tasks;\r\n    uint256[] private taskIds;\r\n    event TaskCreated(uint256 indexed taskId, address indexed creator);\r\n    event TaskAssigned(uint256 indexed taskId, uint256 indexed workerId);\r\n    event TaskCompleted(uint256 indexed taskId);\r\n\r\n    function createTask(SharedStructs.TaskType taskType, uint256 orderId, string memory folderUrl, uint256 requiredPower, uint256 exceptWorkerId, uint256 orderLevel) public returns (uint256) \r\n    {\r\n        uint256 taskId = nextTaskId++;\r\n        tasks[taskId] = SharedStructs.TaskInfo(\r\n            taskId,\r\n            orderId,\r\n            taskType,\r\n            SharedStructs.TaskStatus.Created,\r\n            folderUrl,\r\n            requiredPower,\r\n            msg.sender,\r\n            0,\r\n            exceptWorkerId,\r\n            orderLevel \r\n        );\r\n        taskIds.push(taskId);\r\n        emit TaskCreated(taskId, msg.sender);\r\n        return taskId;\r\n    }\r\n\r\n    function createTask(SharedStructs.TaskType taskType, uint256 orderId, string memory folderUrl, uint256 requiredPower,uint256 orderLevel) public returns (uint256) \r\n    {\r\n        return createTask(taskType, orderId, folderUrl, requiredPower, 0, orderLevel);\r\n    }\r\n\r\n    function getAllTasks() public view returns (SharedStructs.TaskInfo[] memory)\r\n    {\r\n        uint256 length = taskIds.length;\r\n        SharedStructs.TaskInfo[]\r\n            memory taskArray = new SharedStructs.TaskInfo[](length);\r\n        for (uint256 i = 0; i < length; i++) {\r\n            taskArray[i] = tasks[taskIds[i]];\r\n        }\r\n\r\n        return taskArray;\r\n    }\r\n\r\n    function getTask(uint256 taskId) public view returns (SharedStructs.TaskInfo memory) \r\n    {\r\n        return tasks[taskId];\r\n    }\r\n\r\n    function getPendingTask() public view returns (SharedStructs.TaskInfo memory task)\r\n    {\r\n        return tasks[pendingTaskHead];\r\n    }\r\n\r\n    function HasTask() public view returns (bool)\r\n    {\r\n        return nextTaskId > pendingTaskHead;\r\n    }\r\n\r\n    function assignTask(uint256 taskId, uint256 workerId) public \r\n    {\r\n        require(HasTask(), \"No tasks in the pool.\");\r\n        SharedStructs.TaskInfo storage task = tasks[taskId];\r\n        require(\r\n            task.status == SharedStructs.TaskStatus.Created,\r\n            \"Task is not in Created status.\"\r\n        );\r\n        task.status = SharedStructs.TaskStatus.processing;\r\n        task.workerId = workerId;\r\n        pendingTaskHead++;\r\n        emit TaskAssigned(taskId, workerId);\r\n    }\r\n\r\n    function completeTask(uint256 taskId) public \r\n    {\r\n        SharedStructs.TaskInfo storage task = tasks[taskId];\r\n        require(\r\n            task.status == SharedStructs.TaskStatus.processing,\r\n            \"Task is not in Assigned status.\"\r\n        );\r\n        task.status = SharedStructs.TaskStatus.Completed;\r\n        emit TaskCompleted(taskId);\r\n    }\r\n\r\n    function removeTaskAfterTaskAsign(uint256 taskId) private \r\n    {\r\n        uint256 index = findTaskIndex(taskId);\r\n        if (index < taskIds.length) {\r\n            taskIds[index] = taskIds[taskIds.length - 1];\r\n            taskIds.pop();\r\n        }\r\n    }\r\n\r\n    function findTaskIndex(uint256 taskId) internal view returns (uint256 taskIndex) \r\n    {\r\n        for (uint256 i = 0; i < taskIds.length; i++) {\r\n            if (taskIds[i] == taskId) {\r\n                return i;\r\n            }\r\n        }\r\n\r\n        return taskIds.length;\r\n    }\r\n}\r\n",
  "sourcePath": "C:\\Users\\23861\\Bahen-Client\\src\\smart-contracts\\contracts\\TaskPool.sol",
  "compiler": {
    "name": "solc",
    "version": "0.8.19+commit.7dd6d404.Emscripten.clang"
  },
  "schemaVersion": "3.4.14",
  "updatedAt": "2023-10-08T04:05:06.525Z",
  "devdoc": {
    "kind": "dev",
    "methods": {},
    "version": 1
  },
  "userdoc": {
    "kind": "user",
    "methods": {},
    "version": 1
  }
}