{
  "contractName": "WorkerPool",
  "abi": [
    {
      "inputs": [],
      "name": "Invalid_WorkerId",
      "outputs": [
        {
          "internalType": "uint256",
          "name": "",
          "type": "uint256"
        }
      ],
      "stateMutability": "view",
      "type": "function"
    },
    {
      "inputs": [
        {
          "internalType": "uint256",
          "name": "",
          "type": "uint256"
        }
      ],
      "name": "workerIds",
      "outputs": [
        {
          "internalType": "address",
          "name": "",
          "type": "address"
        }
      ],
      "stateMutability": "view",
      "type": "function"
    },
    {
      "inputs": [
        {
          "internalType": "address",
          "name": "",
          "type": "address"
        }
      ],
      "name": "workers",
      "outputs": [
        {
          "internalType": "uint256",
          "name": "workerId",
          "type": "uint256"
        },
        {
          "internalType": "uint256",
          "name": "computingPower",
          "type": "uint256"
        },
        {
          "internalType": "bool",
          "name": "isBusy",
          "type": "bool"
        },
        {
          "internalType": "bool",
          "name": "isActivate",
          "type": "bool"
        },
        {
          "internalType": "uint256",
          "name": "taskId",
          "type": "uint256"
        }
      ],
      "stateMutability": "view",
      "type": "function"
    },
    {
      "inputs": [
        {
          "internalType": "address",
          "name": "_workerAddress",
          "type": "address"
        },
        {
          "internalType": "uint256",
          "name": "_computingPower",
          "type": "uint256"
        }
      ],
      "name": "addWorker",
      "outputs": [],
      "stateMutability": "nonpayable",
      "type": "function"
    },
    {
      "inputs": [],
      "name": "getWorkerList",
      "outputs": [
        {
          "internalType": "address[]",
          "name": "",
          "type": "address[]"
        }
      ],
      "stateMutability": "view",
      "type": "function"
    },
    {
      "inputs": [
        {
          "internalType": "address",
          "name": "_workerAddress",
          "type": "address"
        }
      ],
      "name": "removeWorker",
      "outputs": [],
      "stateMutability": "nonpayable",
      "type": "function"
    },
    {
      "inputs": [
        {
          "internalType": "uint256",
          "name": "_workerId",
          "type": "uint256"
        }
      ],
      "name": "getWorkerByWorkerId",
      "outputs": [
        {
          "components": [
            {
              "internalType": "uint256",
              "name": "workerId",
              "type": "uint256"
            },
            {
              "internalType": "uint256",
              "name": "computingPower",
              "type": "uint256"
            },
            {
              "internalType": "bool",
              "name": "isBusy",
              "type": "bool"
            },
            {
              "internalType": "bool",
              "name": "isActivate",
              "type": "bool"
            },
            {
              "internalType": "uint256",
              "name": "taskId",
              "type": "uint256"
            }
          ],
          "internalType": "struct WorkerPool.Worker",
          "name": "",
          "type": "tuple"
        }
      ],
      "stateMutability": "view",
      "type": "function"
    },
    {
      "inputs": [
        {
          "internalType": "address",
          "name": "workerAddress",
          "type": "address"
        }
      ],
      "name": "getWorkerByWorkerAddress",
      "outputs": [
        {
          "components": [
            {
              "internalType": "uint256",
              "name": "workerId",
              "type": "uint256"
            },
            {
              "internalType": "uint256",
              "name": "computingPower",
              "type": "uint256"
            },
            {
              "internalType": "bool",
              "name": "isBusy",
              "type": "bool"
            },
            {
              "internalType": "bool",
              "name": "isActivate",
              "type": "bool"
            },
            {
              "internalType": "uint256",
              "name": "taskId",
              "type": "uint256"
            }
          ],
          "internalType": "struct WorkerPool.Worker",
          "name": "",
          "type": "tuple"
        }
      ],
      "stateMutability": "view",
      "type": "function"
    },
    {
      "inputs": [
        {
          "internalType": "address",
          "name": "workerAddress",
          "type": "address"
        }
      ],
      "name": "getWorkerIdByWorkerAddress",
      "outputs": [
        {
          "internalType": "uint256",
          "name": "workerId",
          "type": "uint256"
        }
      ],
      "stateMutability": "view",
      "type": "function"
    },
    {
      "inputs": [
        {
          "internalType": "uint256",
          "name": "_requiredComputingPower",
          "type": "uint256"
        },
        {
          "internalType": "uint256",
          "name": "taskId",
          "type": "uint256"
        },
        {
          "internalType": "uint256",
          "name": "exceptWorkerId",
          "type": "uint256"
        },
        {
          "internalType": "uint256",
          "name": "_orderLevel",
          "type": "uint256"
        }
      ],
      "name": "assignTask",
      "outputs": [
        {
          "internalType": "uint256",
          "name": "",
          "type": "uint256"
        }
      ],
      "stateMutability": "nonpayable",
      "type": "function"
    },
    {
      "inputs": [
        {
          "internalType": "uint256",
          "name": "_requiredComputingPower",
          "type": "uint256"
        },
        {
          "internalType": "uint256",
          "name": "taskId",
          "type": "uint256"
        },
        {
          "internalType": "uint256",
          "name": "_orderLevel",
          "type": "uint256"
        }
      ],
      "name": "assignTask",
      "outputs": [
        {
          "internalType": "uint256",
          "name": "",
          "type": "uint256"
        }
      ],
      "stateMutability": "nonpayable",
      "type": "function"
    },
    {
      "inputs": [
        {
          "internalType": "address",
          "name": "workerAddress",
          "type": "address"
        }
      ],
      "name": "finishTask",
      "outputs": [],
      "stateMutability": "nonpayable",
      "type": "function"
    },
    {
      "inputs": [
        {
          "internalType": "address",
          "name": "workerAddress",
          "type": "address"
        },
        {
          "internalType": "uint256",
          "name": "taskId",
          "type": "uint256"
        }
      ],
      "name": "validateWorkerTask",
      "outputs": [
        {
          "internalType": "bool",
          "name": "",
          "type": "bool"
        }
      ],
      "stateMutability": "view",
      "type": "function"
    }
  ],
  "bytecode": "0x60806040526001600055600060045534801561001a57600080fd5b506119898061002a6000396000f3fe608060405234801561001057600080fd5b50600436106100cf5760003560e01c80636e5720a21161008c5780638b09bffd116100665780638b09bffd1461023c578063c4f987a51461026c578063ce8bcd3414610288578063e01a2b14146102b8576100cf565b80636e5720a2146101be57806374a44d12146101dc578063866591f71461020c576100cf565b80630fc72abc146100d45780631e7f931f146101045780631f1508cf146101225780633fc0f48b146101525780634048a2571461016e5780636b6096fc146101a2575b600080fd5b6100ee60048036038101906100e9919061129c565b6102e8565b6040516100fb919061135b565b60405180910390f35b61010c610497565b6040516101199190611466565b60405180910390f35b61013c600480360381019061013791906114b4565b610525565b60405161014991906114f0565b60405180910390f35b61016c600480360381019061016791906114b4565b61066c565b005b610188600480360381019061018391906114b4565b6106da565b60405161019995949392919061151a565b60405180910390f35b6101bc60048036038101906101b7919061156d565b61072a565b005b6101c6610962565b6040516101d391906114f0565b60405180910390f35b6101f660048036038101906101f191906114b4565b610968565b604051610203919061135b565b60405180910390f35b6102266004803603810190610221919061156d565b610aab565b60405161023391906115ad565b60405180910390f35b610256600480360381019061025191906115c8565b610b6f565b60405161026391906114f0565b60405180910390f35b610286600480360381019061028191906114b4565b610c3d565b005b6102a2600480360381019061029d919061162f565b610ca4565b6040516102af91906114f0565b60405180910390f35b6102d260048036038101906102cd919061129c565b610cbc565b6040516102df9190611691565b60405180910390f35b6102f061122e565b60011515600160006002600086815260200190815260200160002060009054906101000a900473ffffffffffffffffffffffffffffffffffffffff1673ffffffffffffffffffffffffffffffffffffffff1673ffffffffffffffffffffffffffffffffffffffff16815260200190815260200160002060020160019054906101000a900460ff161515146103b9576040517f08c379a00000000000000000000000000000000000000000000000000000000081526004016103b090611709565b60405180910390fd5b60006002600084815260200190815260200160002060009054906101000a900473ffffffffffffffffffffffffffffffffffffffff169050600160008273ffffffffffffffffffffffffffffffffffffffff1673ffffffffffffffffffffffffffffffffffffffff1681526020019081526020016000206040518060a001604052908160008201548152602001600182015481526020016002820160009054906101000a900460ff161515151581526020016002820160019054906101000a900460ff16151515158152602001600382015481525050915050919050565b6060600380548060200260200160405190810160405280929190818152602001828054801561051b57602002820191906000526020600020905b8160009054906101000a900473ffffffffffffffffffffffffffffffffffffffff1673ffffffffffffffffffffffffffffffffffffffff16815260200190600101908083116104d1575b5050505050905090565b600060011515600160008473ffffffffffffffffffffffffffffffffffffffff1673ffffffffffffffffffffffffffffffffffffffff16815260200190815260200160002060020160019054906101000a900460ff161515146105bd576040517f08c379a00000000000000000000000000000000000000000000000000000000081526004016105b490611709565b60405180910390fd5b6000600160008473ffffffffffffffffffffffffffffffffffffffff1673ffffffffffffffffffffffffffffffffffffffff1681526020019081526020016000206040518060a001604052908160008201548152602001600182015481526020016002820160009054906101000a900460ff161515151581526020016002820160019054906101000a900460ff1615151515815260200160038201548152505090508060000151915050919050565b6000600160008373ffffffffffffffffffffffffffffffffffffffff1673ffffffffffffffffffffffffffffffffffffffff16815260200190815260200160002090506000816003018190555060008160020160006101000a81548160ff0219169083151502179055505050565b60016020528060005260406000206000915090508060000154908060010154908060020160009054906101000a900460ff16908060020160019054906101000a900460ff16908060030154905085565b60001515600160008473ffffffffffffffffffffffffffffffffffffffff1673ffffffffffffffffffffffffffffffffffffffff16815260200190815260200160002060020160019054906101000a900460ff161515146107c0576040517f08c379a00000000000000000000000000000000000000000000000000000000081526004016107b79061179b565b60405180910390fd5b60008060008154809291906107d4906117ea565b9190505590506040518060a001604052808281526020018381526020016000151581526020016001151581526020016000815250600160008573ffffffffffffffffffffffffffffffffffffffff1673ffffffffffffffffffffffffffffffffffffffff168152602001908152602001600020600082015181600001556020820151816001015560408201518160020160006101000a81548160ff02191690831515021790555060608201518160020160016101000a81548160ff02191690831515021790555060808201518160030155905050826002600083815260200190815260200160002060006101000a81548173ffffffffffffffffffffffffffffffffffffffff021916908373ffffffffffffffffffffffffffffffffffffffff1602179055506003839080600181540180825580915050600190039060005260206000200160009091909190916101000a81548173ffffffffffffffffffffffffffffffffffffffff021916908373ffffffffffffffffffffffffffffffffffffffff160217905550505050565b60045481565b61097061122e565b60011515600160008473ffffffffffffffffffffffffffffffffffffffff1673ffffffffffffffffffffffffffffffffffffffff16815260200190815260200160002060020160019054906101000a900460ff16151514610a06576040517f08c379a00000000000000000000000000000000000000000000000000000000081526004016109fd90611709565b60405180910390fd5b600160008373ffffffffffffffffffffffffffffffffffffffff1673ffffffffffffffffffffffffffffffffffffffff1681526020019081526020016000206040518060a001604052908160008201548152602001600182015481526020016002820160009054906101000a900460ff161515151581526020016002820160019054906101000a900460ff161515151581526020016003820154815250509050919050565b600080600160008573ffffffffffffffffffffffffffffffffffffffff1673ffffffffffffffffffffffffffffffffffffffff1681526020019081526020016000206040518060a001604052908160008201548152602001600182015481526020016002820160009054906101000a900460ff161515151581526020016002820160019054906101000a900460ff16151515158152602001600382015481525050905082816080015103610b63576001915050610b69565b60009150505b92915050565b600080610b7d868585610cef565b90506004548103610b9357600454915050610c35565b6000600160006002600085815260200190815260200160002060009054906101000a900473ffffffffffffffffffffffffffffffffffffffff1673ffffffffffffffffffffffffffffffffffffffff1673ffffffffffffffffffffffffffffffffffffffff168152602001908152602001600020905060018160020160006101000a81548160ff02191690831515021790555085816003018190555081925050505b949350505050565b6000600160008373ffffffffffffffffffffffffffffffffffffffff1673ffffffffffffffffffffffffffffffffffffffff16815260200190815260200160002060020160016101000a81548160ff021916908315150217905550610ca18161106b565b50565b6000610cb38484600085610b6f565b90509392505050565b60026020528060005260406000206000915054906101000a900473ffffffffffffffffffffffffffffffffffffffff1681565b60008060038054905067ffffffffffffffff811115610d1157610d10611832565b5b604051908082528060200260200182016040528015610d3f5781602001602082028036833780820191505090505b5090506000805b600380549050811015610ee957600060038281548110610d6957610d68611861565b5b9060005260206000200160009054906101000a900473ffffffffffffffffffffffffffffffffffffffff1690506000600160008373ffffffffffffffffffffffffffffffffffffffff1673ffffffffffffffffffffffffffffffffffffffff1681526020019081526020016000206040518060a001604052908160008201548152602001600182015481526020016002820160009054906101000a900460ff161515151581526020016002820160019054906101000a900460ff1615151515815260200160038201548152505090508060400151158015610e4e575088816020015110155b8015610e6257506001151581606001511515145b8015610e72575087816000015114155b15610ed45781858581518110610e8b57610e8a611861565b5b602002602001019073ffffffffffffffffffffffffffffffffffffffff16908173ffffffffffffffffffffffffffffffffffffffff16815250508380610ed0906117ea565b9450505b50508080610ee1906117ea565b915050610d46565b5060008103610efe5760045492505050611064565b60018403610f6d576001600083600081518110610f1e57610f1d611861565b5b602002602001015173ffffffffffffffffffffffffffffffffffffffff1673ffffffffffffffffffffffffffffffffffffffff1681526020019081526020016000206000015492505050611064565b60028403610fe7576001600083600284610f8791906118bf565b81518110610f9857610f97611861565b5b602002602001015173ffffffffffffffffffffffffffffffffffffffff1673ffffffffffffffffffffffffffffffffffffffff1681526020019081526020016000206000015492505050611064565b6003840361106157600160008360018461100191906118f0565b8151811061101257611011611861565b5b602002602001015173ffffffffffffffffffffffffffffffffffffffff1673ffffffffffffffffffffffffffffffffffffffff1681526020019081526020016000206000015492505050611064565b50505b9392505050565b60006110768261117d565b9050600380549050811015611179576003600160038054905061109991906118f0565b815481106110aa576110a9611861565b5b9060005260206000200160009054906101000a900473ffffffffffffffffffffffffffffffffffffffff16600382815481106110e9576110e8611861565b5b9060005260206000200160006101000a81548173ffffffffffffffffffffffffffffffffffffffff021916908373ffffffffffffffffffffffffffffffffffffffff160217905550600380548061114357611142611924565b5b6001900381819060005260206000200160006101000a81549073ffffffffffffffffffffffffffffffffffffffff021916905590555b5050565b600080600090505b60038054905081101561121f578273ffffffffffffffffffffffffffffffffffffffff16600382815481106111bd576111bc611861565b5b9060005260206000200160009054906101000a900473ffffffffffffffffffffffffffffffffffffffff1673ffffffffffffffffffffffffffffffffffffffff160361120c5780915050611229565b8080611217906117ea565b915050611185565b5060038054905090505b919050565b6040518060a001604052806000815260200160008152602001600015158152602001600015158152602001600081525090565b600080fd5b6000819050919050565b61127981611266565b811461128457600080fd5b50565b60008135905061129681611270565b92915050565b6000602082840312156112b2576112b1611261565b5b60006112c084828501611287565b91505092915050565b6112d281611266565b82525050565b60008115159050919050565b6112ed816112d8565b82525050565b60a08201600082015161130960008501826112c9565b50602082015161131c60208501826112c9565b50604082015161132f60408501826112e4565b50606082015161134260608501826112e4565b50608082015161135560808501826112c9565b50505050565b600060a08201905061137060008301846112f3565b92915050565b600081519050919050565b600082825260208201905092915050565b6000819050602082019050919050565b600073ffffffffffffffffffffffffffffffffffffffff82169050919050565b60006113cd826113a2565b9050919050565b6113dd816113c2565b82525050565b60006113ef83836113d4565b60208301905092915050565b6000602082019050919050565b600061141382611376565b61141d8185611381565b935061142883611392565b8060005b8381101561145957815161144088826113e3565b975061144b836113fb565b92505060018101905061142c565b5085935050505092915050565b600060208201905081810360008301526114808184611408565b905092915050565b611491816113c2565b811461149c57600080fd5b50565b6000813590506114ae81611488565b92915050565b6000602082840312156114ca576114c9611261565b5b60006114d88482850161149f565b91505092915050565b6114ea81611266565b82525050565b600060208201905061150560008301846114e1565b92915050565b611514816112d8565b82525050565b600060a08201905061152f60008301886114e1565b61153c60208301876114e1565b611549604083018661150b565b611556606083018561150b565b61156360808301846114e1565b9695505050505050565b6000806040838503121561158457611583611261565b5b60006115928582860161149f565b92505060206115a385828601611287565b9150509250929050565b60006020820190506115c2600083018461150b565b92915050565b600080600080608085870312156115e2576115e1611261565b5b60006115f087828801611287565b945050602061160187828801611287565b935050604061161287828801611287565b925050606061162387828801611287565b91505092959194509250565b60008060006060848603121561164857611647611261565b5b600061165686828701611287565b935050602061166786828701611287565b925050604061167886828701611287565b9150509250925092565b61168b816113c2565b82525050565b60006020820190506116a66000830184611682565b92915050565b600082825260208201905092915050565b7f5468697320776f726b6572206e6f7420726567697374657265642e0000000000600082015250565b60006116f3601b836116ac565b91506116fe826116bd565b602082019050919050565b60006020820190508181036000830152611722816116e6565b9050919050565b7f5468697320616464726573732068617320616c7265616479207265676973746560008201527f7265642e00000000000000000000000000000000000000000000000000000000602082015250565b60006117856024836116ac565b915061179082611729565b604082019050919050565b600060208201905081810360008301526117b481611778565b9050919050565b7f4e487b7100000000000000000000000000000000000000000000000000000000600052601160045260246000fd5b60006117f582611266565b91507fffffffffffffffffffffffffffffffffffffffffffffffffffffffffffffffff8203611827576118266117bb565b5b600182019050919050565b7f4e487b7100000000000000000000000000000000000000000000000000000000600052604160045260246000fd5b7f4e487b7100000000000000000000000000000000000000000000000000000000600052603260045260246000fd5b7f4e487b7100000000000000000000000000000000000000000000000000000000600052601260045260246000fd5b60006118ca82611266565b91506118d583611266565b9250826118e5576118e4611890565b5b828204905092915050565b60006118fb82611266565b915061190683611266565b925082820390508181111561191e5761191d6117bb565b5b92915050565b7f4e487b7100000000000000000000000000000000000000000000000000000000600052603160045260246000fdfea26469706673582212205f265f1b668b85f8f0f323470f6efa1a6c53f8cebeb207ab5d555dda4d9774c464736f6c63430008130033",
  "immutableReferences": {},
  "source": "// SPDX-License-Identifier: MIT\r\npragma solidity ^0.8.0;\r\n\r\nimport \"./SharedStructs.sol\";\r\n\r\ncontract WorkerPool\r\n{\r\n    uint256 private nextWorkerId = 1;\r\n    struct Worker {\r\n        uint256 workerId;\r\n        uint256 computingPower;\r\n        bool isBusy;\r\n        bool isActivate;\r\n        uint256 taskId;\r\n    }\r\n    mapping(address => Worker) public workers;\r\n    mapping(uint256 => address) public workerIds;\r\n    address[] private workerAddresses;\r\n    uint256 public Invalid_WorkerId = 0;\r\n\r\n    function addWorker(address _workerAddress, uint256 _computingPower) public\r\n    {\r\n        require(workers[_workerAddress].isActivate == false, \"This address has already registered.\");\r\n        uint256 _workerId = nextWorkerId++;\r\n        workers[_workerAddress] = Worker(_workerId, _computingPower, false, true, 0);\r\n        workerIds[_workerId] = _workerAddress;\r\n        workerAddresses.push(_workerAddress);\r\n    }\r\n\r\n    function getWorkerList() public view returns(address[] memory) \r\n    {\r\n        return workerAddresses;\r\n    }\r\n\r\n    function removeWorker(address _workerAddress) public\r\n    {\r\n        workers[_workerAddress].isActivate = false;\r\n        removeTaskAfterTaskAsign(_workerAddress);\r\n    }\r\n\r\n    function getWorkerByWorkerId(uint256 _workerId) public view returns (Worker memory)\r\n    {\r\n        require(workers[workerIds[_workerId]].isActivate == true, \"This worker not registered.\");\r\n        address workerAddress = workerIds[_workerId];\r\n        return workers[workerAddress];\r\n    }\r\n\r\n    function getWorkerByWorkerAddress(address workerAddress) public view returns(Worker memory)\r\n    {\r\n        require(workers[workerAddress].isActivate == true, \"This worker not registered.\");\r\n        return workers[workerAddress];\r\n    }\r\n\r\n    function getWorkerIdByWorkerAddress(address workerAddress) public view returns(uint256 workerId)\r\n    {\r\n        require(workers[workerAddress].isActivate == true, \"This worker not registered.\");\r\n        Worker memory worker = workers[workerAddress];\r\n        return worker.workerId;\r\n    }\r\n\r\n    function findWorker(uint256 _requiredComputingPower, uint256 exceptWorkerId, uint256 _orderLevel) private view returns (uint256 workerId) \r\n    {\r\n        address[] memory qualifiedWorkers = new address[](workerAddresses.length);\r\n        uint256 qualifiedCount = 0;\r\n\r\n        for (uint256 i = 0; i < workerAddresses.length; i++) \r\n        {\r\n            address workerAddress = workerAddresses[i];\r\n            Worker memory worker = workers[workerAddress];\r\n            if (!worker.isBusy && worker.computingPower >= _requiredComputingPower && worker.isActivate == true && worker.workerId != exceptWorkerId) \r\n            {\r\n                qualifiedWorkers[qualifiedCount] = workerAddress;\r\n                qualifiedCount++;\r\n            }\r\n        }\r\n\r\n        if (qualifiedCount == 0) {\r\n            return Invalid_WorkerId;\r\n        }\r\n\r\n        if (_orderLevel == 1) {\r\n\r\n            return workers[qualifiedWorkers[0]].workerId;\r\n        } else if (_orderLevel == 2) {\r\n\r\n            return workers[qualifiedWorkers[qualifiedCount / 2]].workerId;\r\n        } else if (_orderLevel == 3) {\r\n\r\n            return workers[qualifiedWorkers[qualifiedCount - 1]].workerId;\r\n        }\r\n    }\r\n\r\n    function assignTask(uint256 _requiredComputingPower, uint256 taskId, uint256 exceptWorkerId, uint256 _orderLevel) public returns (uint256) \r\n    {\r\n        uint256 workerId = findWorker(_requiredComputingPower, exceptWorkerId, _orderLevel);\r\n        if (workerId == Invalid_WorkerId) \r\n        {\r\n            return Invalid_WorkerId;\r\n        }\r\n\r\n        Worker storage worker = workers[workerIds[workerId]];\r\n        worker.isBusy = true;\r\n        worker.taskId = taskId;\r\n        return workerId;\r\n    }\r\n\r\n    function assignTask(uint256 _requiredComputingPower, uint256 taskId, uint256 _orderLevel) public returns (uint256) \r\n    {\r\n        return assignTask(_requiredComputingPower, taskId, 0, _orderLevel);\r\n    }\r\n\r\n    function finishTask(uint256 workerId) private \r\n    {\r\n        Worker storage worker = workers[workerIds[workerId]];\r\n        worker.taskId = 0;\r\n        worker.isBusy = false;\r\n    }\r\n\r\n    function finishTask(address workerAddress) public \r\n    {\r\n        Worker storage worker = workers[workerAddress];\r\n        worker.taskId = 0;\r\n        worker.isBusy = false;\r\n    }\r\n\r\n    function validateWorkerTask(address workerAddress, uint256 taskId)public view returns(bool)\r\n    {\r\n        Worker memory worker = workers[workerAddress];\r\n        if(worker.taskId == taskId)\r\n        {\r\n            return true;\r\n        }\r\n\r\n        return false;\r\n    }\r\n\r\n    function removeTaskAfterTaskAsign(address _workerAddress) private \r\n    {\r\n        uint256 index = findWorkerAddressIndex(_workerAddress);\r\n        if (index < workerAddresses.length) {\r\n            workerAddresses[index] = workerAddresses[workerAddresses.length - 1];\r\n            workerAddresses.pop();\r\n        }\r\n    }\r\n\r\n    function findWorkerAddressIndex(address _workerAddress) internal view returns (uint256 taskIndex) \r\n    {\r\n        for (uint256 i = 0; i < workerAddresses.length; i++) {\r\n            if (workerAddresses[i] == _workerAddress) {\r\n                return i;\r\n            }\r\n        }\r\n\r\n        return workerAddresses.length;\r\n    }\r\n}",
  "sourcePath": "C:\\Users\\23861\\Bahen-Client\\src\\smart-contracts\\contracts\\WorkerPool.sol",
  "compiler": {
    "name": "solc",
    "version": "0.8.19+commit.7dd6d404.Emscripten.clang"
  },
  "schemaVersion": "3.4.14",
  "updatedAt": "2023-10-08T04:05:06.530Z",
  "devdoc": {
    "kind": "dev",
    "methods": {},
    "version": 1
  },
  "userdoc": {
    "kind": "user",
    "methods": {},
    "version": 1
  }
}