{
  "contractName": "Marketplace",
  "abi": [
    {
      "inputs": [
        {
          "internalType": "address payable",
          "name": "paymentAddress",
          "type": "address"
        },
        {
          "internalType": "address",
          "name": "taskPoolAddress",
          "type": "address"
        },
        {
          "internalType": "address",
          "name": "workerPoolAddress",
          "type": "address"
        }
      ],
      "stateMutability": "nonpayable",
      "type": "constructor"
    },
    {
      "anonymous": false,
      "inputs": [
        {
          "indexed": false,
          "internalType": "uint256",
          "name": "orderId",
          "type": "uint256"
        },
        {
          "indexed": false,
          "internalType": "uint256",
          "name": "paymentAmount",
          "type": "uint256"
        }
      ],
      "name": "ConfirmOrder",
      "type": "event"
    },
    {
      "anonymous": false,
      "inputs": [
        {
          "indexed": false,
          "internalType": "string",
          "name": "message",
          "type": "string"
        }
      ],
      "name": "Log",
      "type": "event"
    },
    {
      "anonymous": false,
      "inputs": [
        {
          "indexed": false,
          "internalType": "bool",
          "name": "LogBool",
          "type": "bool"
        }
      ],
      "name": "LogBool",
      "type": "event"
    },
    {
      "anonymous": false,
      "inputs": [
        {
          "indexed": false,
          "internalType": "address",
          "name": "adr",
          "type": "address"
        },
        {
          "indexed": false,
          "internalType": "address",
          "name": "adr2",
          "type": "address"
        }
      ],
      "name": "Logad",
      "type": "event"
    },
    {
      "anonymous": false,
      "inputs": [
        {
          "indexed": false,
          "internalType": "string",
          "name": "message",
          "type": "string"
        },
        {
          "indexed": false,
          "internalType": "uint256",
          "name": "orderId",
          "type": "uint256"
        }
      ],
      "name": "OrderCreated",
      "type": "event"
    },
    {
      "anonymous": false,
      "inputs": [
        {
          "indexed": true,
          "internalType": "uint256",
          "name": "taskId",
          "type": "uint256"
        },
        {
          "indexed": true,
          "internalType": "address",
          "name": "worker",
          "type": "address"
        }
      ],
      "name": "TaskCompleted",
      "type": "event"
    },
    {
      "inputs": [
        {
          "internalType": "uint256",
          "name": "",
          "type": "uint256"
        }
      ],
      "name": "orders",
      "outputs": [
        {
          "internalType": "contract Order",
          "name": "",
          "type": "address"
        }
      ],
      "stateMutability": "view",
      "type": "function"
    },
    {
      "inputs": [
        {
          "internalType": "address",
          "name": "",
          "type": "address"
        },
        {
          "internalType": "uint256",
          "name": "",
          "type": "uint256"
        }
      ],
      "name": "userOrders",
      "outputs": [
        {
          "internalType": "uint256",
          "name": "",
          "type": "uint256"
        }
      ],
      "stateMutability": "view",
      "type": "function"
    },
    {
      "inputs": [
        {
          "internalType": "address",
          "name": "",
          "type": "address"
        }
      ],
      "name": "workerLoad",
      "outputs": [
        {
          "internalType": "uint256",
          "name": "",
          "type": "uint256"
        }
      ],
      "stateMutability": "view",
      "type": "function"
    },
    {
      "inputs": [
        {
          "internalType": "address",
          "name": "worker",
          "type": "address"
        },
        {
          "internalType": "uint256",
          "name": "_computingPower",
          "type": "uint256"
        }
      ],
      "name": "addWorker",
      "outputs": [],
      "stateMutability": "nonpayable",
      "type": "function"
    },
    {
      "inputs": [
        {
          "internalType": "address",
          "name": "worker",
          "type": "address"
        }
      ],
      "name": "removeWorker",
      "outputs": [],
      "stateMutability": "nonpayable",
      "type": "function"
    },
    {
      "inputs": [],
      "name": "getWorkerList",
      "outputs": [
        {
          "internalType": "address[]",
          "name": "",
          "type": "address[]"
        }
      ],
      "stateMutability": "view",
      "type": "function"
    },
    {
      "inputs": [
        {
          "internalType": "address",
          "name": "worker",
          "type": "address"
        }
      ],
      "name": "getWorkerInfo",
      "outputs": [
        {
          "components": [
            {
              "internalType": "uint256",
              "name": "workerId",
              "type": "uint256"
            },
            {
              "internalType": "uint256",
              "name": "computingPower",
              "type": "uint256"
            },
            {
              "internalType": "bool",
              "name": "isBusy",
              "type": "bool"
            },
            {
              "internalType": "bool",
              "name": "isActivate",
              "type": "bool"
            },
            {
              "internalType": "uint256",
              "name": "taskId",
              "type": "uint256"
            }
          ],
          "internalType": "struct WorkerPool.Worker",
          "name": "",
          "type": "tuple"
        }
      ],
      "stateMutability": "view",
      "type": "function"
    },
    {
      "inputs": [
        {
          "internalType": "uint256",
          "name": "taskId",
          "type": "uint256"
        }
      ],
      "name": "getTask",
      "outputs": [
        {
          "components": [
            {
              "internalType": "uint256",
              "name": "id",
              "type": "uint256"
            },
            {
              "internalType": "uint256",
              "name": "orderId",
              "type": "uint256"
            },
            {
              "internalType": "enum SharedStructs.TaskType",
              "name": "taskType",
              "type": "uint8"
            },
            {
              "internalType": "enum SharedStructs.TaskStatus",
              "name": "status",
              "type": "uint8"
            },
            {
              "internalType": "string",
              "name": "folderUrl",
              "type": "string"
            },
            {
              "internalType": "uint256",
              "name": "requiredPower",
              "type": "uint256"
            },
            {
              "internalType": "address",
              "name": "creator",
              "type": "address"
            },
            {
              "internalType": "uint256",
              "name": "workerId",
              "type": "uint256"
            },
            {
              "internalType": "uint256",
              "name": "expectWorkerId",
              "type": "uint256"
            },
            {
              "internalType": "uint256",
              "name": "orderLevel",
              "type": "uint256"
            }
          ],
          "internalType": "struct SharedStructs.TaskInfo",
          "name": "",
          "type": "tuple"
        }
      ],
      "stateMutability": "view",
      "type": "function"
    },
    {
      "inputs": [
        {
          "internalType": "string",
          "name": "folderUrl",
          "type": "string"
        },
        {
          "internalType": "uint256",
          "name": "requiredPower",
          "type": "uint256"
        },
        {
          "internalType": "uint256",
          "name": "orderLevel",
          "type": "uint256"
        }
      ],
      "name": "createOrderPreview",
      "outputs": [
        {
          "internalType": "uint256",
          "name": "",
          "type": "uint256"
        }
      ],
      "stateMutability": "nonpayable",
      "type": "function"
    },
    {
      "inputs": [
        {
          "internalType": "uint256",
          "name": "orderId",
          "type": "uint256"
        },
        {
          "internalType": "uint256",
          "name": "paymentAmount",
          "type": "uint256"
        }
      ],
      "name": "confirmOrder",
      "outputs": [],
      "stateMutability": "payable",
      "type": "function"
    },
    {
      "inputs": [
        {
          "internalType": "address",
          "name": "user",
          "type": "address"
        }
      ],
      "name": "getUserOrders",
      "outputs": [
        {
          "internalType": "uint256[]",
          "name": "",
          "type": "uint256[]"
        }
      ],
      "stateMutability": "view",
      "type": "function"
    },
    {
      "inputs": [
        {
          "internalType": "uint256",
          "name": "orderId",
          "type": "uint256"
        }
      ],
      "name": "getOrderInfo",
      "outputs": [
        {
          "internalType": "uint256",
          "name": "_trainTaskId",
          "type": "uint256"
        },
        {
          "internalType": "uint256",
          "name": "_validateTaskId",
          "type": "uint256"
        },
        {
          "internalType": "address",
          "name": "_client",
          "type": "address"
        },
        {
          "internalType": "uint256",
          "name": "_paymentAmount",
          "type": "uint256"
        },
        {
          "internalType": "enum SharedStructs.OrderStatus",
          "name": "_orderStatus",
          "type": "uint8"
        },
        {
          "internalType": "uint256",
          "name": "_orderLevel",
          "type": "uint256"
        }
      ],
      "stateMutability": "view",
      "type": "function"
    },
    {
      "inputs": [
        {
          "internalType": "address",
          "name": "workerAddress",
          "type": "address"
        },
        {
          "internalType": "uint256",
          "name": "taskId",
          "type": "uint256"
        }
      ],
      "name": "CompleteTask",
      "outputs": [],
      "stateMutability": "nonpayable",
      "type": "function"
    },
    {
      "inputs": [
        {
          "internalType": "address",
          "name": "marketplaceAddress",
          "type": "address"
        }
      ],
      "name": "setMarketplaceAddress",
      "outputs": [],
      "stateMutability": "nonpayable",
      "type": "function"
    }
  ],
  "bytecode": "0x60806040523480156200001157600080fd5b5060405162004a1438038062004a148339818101604052810190620000379190620001fa565b826000806101000a81548173ffffffffffffffffffffffffffffffffffffffff021916908373ffffffffffffffffffffffffffffffffffffffff16021790555081600160006101000a81548173ffffffffffffffffffffffffffffffffffffffff021916908373ffffffffffffffffffffffffffffffffffffffff16021790555080600260006101000a81548173ffffffffffffffffffffffffffffffffffffffff021916908373ffffffffffffffffffffffffffffffffffffffff16021790555033600360006101000a81548173ffffffffffffffffffffffffffffffffffffffff021916908373ffffffffffffffffffffffffffffffffffffffff160217905550600060088190555050505062000256565b600080fd5b600073ffffffffffffffffffffffffffffffffffffffff82169050919050565b60006200017d8262000150565b9050919050565b6200018f8162000170565b81146200019b57600080fd5b50565b600081519050620001af8162000184565b92915050565b6000620001c28262000150565b9050919050565b620001d481620001b5565b8114620001e057600080fd5b50565b600081519050620001f481620001c9565b92915050565b6000806000606084860312156200021657620002156200014b565b5b600062000226868287016200019e565b93505060206200023986828701620001e3565b92505060406200024c86828701620001e3565b9150509250925092565b6147ae80620002666000396000f3fe608060405260043610620000f25760003560e01c8063a85c38ef116200008b578063ce8ef7a61162000061578063ce8ef7a61462000333578063d311636b1462000377578063f38aa74d14620003c0578063fd8a168214620003e057620000f2565b8063a85c38ef1462000293578063b47cc55614620002d7578063c4f987a5146200030557620000f2565b80636b6096fc11620000cd5780636b6096fc14620001af578063856652e914620001dd5780638db4b00f14620002215780639e5da8fc146200024f57620000f2565b80631d65e77e14620000f75780631e7f931f146200013b57806363c69f08146200016b575b600080fd5b3480156200010457600080fd5b506200012360048036038101906200011d9190620020cf565b62000424565b604051620001329190620023b0565b60405180910390f35b3480156200014857600080fd5b5062000153620004db565b60405162000162919062002491565b60405180910390f35b3480156200017857600080fd5b50620001976004803603810190620001919190620024e6565b6200057b565b604051620001a69190620025d5565b60405180910390f35b348015620001bc57600080fd5b50620001db6004803603810190620001d59190620025f9565b62000614565b005b348015620001ea57600080fd5b50620002096004803603810190620002039190620025f9565b62000723565b60405162000218919062002651565b60405180910390f35b3480156200022e57600080fd5b506200024d6004803603810190620002479190620025f9565b62000755565b005b3480156200025c57600080fd5b506200027b6004803603810190620002759190620027bf565b62000e55565b6040516200028a919062002651565b60405180910390f35b348015620002a057600080fd5b50620002bf6004803603810190620002b99190620020cf565b62000fb3565b604051620002ce9190620028a5565b60405180910390f35b348015620002e457600080fd5b50620003036004803603810190620002fd9190620024e6565b62000fe6565b005b3480156200031257600080fd5b506200033160048036038101906200032b9190620024e6565b620010bd565b005b3480156200034057600080fd5b506200035f6004803603810190620003599190620024e6565b620011e4565b6040516200036e919062002951565b60405180910390f35b3480156200038457600080fd5b50620003a360048036038101906200039d9190620020cf565b62001296565b604051620003b796959493929190620029d0565b60405180910390f35b620003de6004803603810190620003d8919062002a3d565b62001599565b005b348015620003ed57600080fd5b506200040c6004803603810190620004069190620024e6565b62001a7f565b6040516200041b919062002651565b60405180910390f35b6200042e62001fac565b600160009054906101000a900473ffffffffffffffffffffffffffffffffffffffff1673ffffffffffffffffffffffffffffffffffffffff16631d65e77e836040518263ffffffff1660e01b81526004016200048b919062002651565b600060405180830381865afa158015620004a9573d6000803e3d6000fd5b505050506040513d6000823e3d601f19601f82011682018060405250810190620004d4919062002cb8565b9050919050565b6060600260009054906101000a900473ffffffffffffffffffffffffffffffffffffffff1673ffffffffffffffffffffffffffffffffffffffff16631e7f931f6040518163ffffffff1660e01b8152600401600060405180830381865afa1580156200054b573d6000803e3d6000fd5b505050506040513d6000823e3d601f19601f8201168201806040525081019062000576919062002de4565b905090565b6060600760008373ffffffffffffffffffffffffffffffffffffffff1673ffffffffffffffffffffffffffffffffffffffff1681526020019081526020016000208054806020026020016040519081016040528092919081815260200182805480156200060857602002820191906000526020600020905b815481526020019060010190808311620005f3575b50505050509050919050565b7fcf34ef537ac33ee1ac626ca1587a0a7e8e51561e5514f8cb36afa1c5102b3bab604051620006439062002e96565b60405180910390a1600260009054906101000a900473ffffffffffffffffffffffffffffffffffffffff1673ffffffffffffffffffffffffffffffffffffffff16636b6096fc83836040518363ffffffff1660e01b8152600401620006aa92919062002eb8565b600060405180830381600087803b158015620006c557600080fd5b505af1158015620006da573d6000803e3d6000fd5b50505050620006e862001a97565b7fcf34ef537ac33ee1ac626ca1587a0a7e8e51561e5514f8cb36afa1c5102b3bab604051620007179062002f35565b60405180910390a15050565b600760205281600052604060002081815481106200074057600080fd5b90600052602060002001600091509150505481565b600260009054906101000a900473ffffffffffffffffffffffffffffffffffffffff1673ffffffffffffffffffffffffffffffffffffffff1663866591f783836040518363ffffffff1660e01b8152600401620007b492919062002eb8565b602060405180830381865afa158015620007d2573d6000803e3d6000fd5b505050506040513d601f19601f82011682018060405250810190620007f8919062002f88565b6200083a576040517f08c379a000000000000000000000000000000000000000000000000000000000815260040162000831906200300a565b60405180910390fd5b6000600160009054906101000a900473ffffffffffffffffffffffffffffffffffffffff1673ffffffffffffffffffffffffffffffffffffffff16631d65e77e836040518263ffffffff1660e01b815260040162000899919062002651565b600060405180830381865afa158015620008b7573d6000803e3d6000fd5b505050506040513d6000823e3d601f19601f82011682018060405250810190620008e2919062002cb8565b9050600160009054906101000a900473ffffffffffffffffffffffffffffffffffffffff1673ffffffffffffffffffffffffffffffffffffffff1663e1e29558836040518263ffffffff1660e01b815260040162000941919062002651565b600060405180830381600087803b1580156200095c57600080fd5b505af115801562000971573d6000803e3d6000fd5b505050506000600660008360200151815260200190815260200160002060009054906101000a900473ffffffffffffffffffffffffffffffffffffffff169050600260009054906101000a900473ffffffffffffffffffffffffffffffffffffffff1673ffffffffffffffffffffffffffffffffffffffff16633fc0f48b856040518263ffffffff1660e01b815260040162000a0e91906200302c565b600060405180830381600087803b15801562000a2957600080fd5b505af115801562000a3e573d6000803e3d6000fd5b505050506000600181111562000a595762000a5862002112565b5b8260400151600181111562000a735762000a7262002112565b5b0362000dd4577fcf34ef537ac33ee1ac626ca1587a0a7e8e51561e5514f8cb36afa1c5102b3bab60405162000aa89062003099565b60405180910390a16000600160009054906101000a900473ffffffffffffffffffffffffffffffffffffffff1673ffffffffffffffffffffffffffffffffffffffff16633ddfc3e6600185602001518573ffffffffffffffffffffffffffffffffffffffff166358e9d3d56040518163ffffffff1660e01b8152600401600060405180830381865afa15801562000b43573d6000803e3d6000fd5b505050506040513d6000823e3d601f19601f8201168201806040525081019062000b6e9190620030bb565b8673ffffffffffffffffffffffffffffffffffffffff1663523b0b366040518163ffffffff1660e01b8152600401602060405180830381865afa15801562000bba573d6000803e3d6000fd5b505050506040513d601f19601f8201168201806040525081019062000be091906200310c565b600260009054906101000a900473ffffffffffffffffffffffffffffffffffffffff1673ffffffffffffffffffffffffffffffffffffffff16631f1508cf8c6040518263ffffffff1660e01b815260040162000c3d91906200302c565b602060405180830381865afa15801562000c5b573d6000803e3d6000fd5b505050506040513d601f19601f8201168201806040525081019062000c8191906200310c565b8873ffffffffffffffffffffffffffffffffffffffff1663bee80fc56040518163ffffffff1660e01b8152600401602060405180830381865afa15801562000ccd573d6000803e3d6000fd5b505050506040513d601f19601f8201168201806040525081019062000cf391906200310c565b6040518763ffffffff1660e01b815260040162000d169695949392919062003190565b6020604051808303816000875af115801562000d36573d6000803e3d6000fd5b505050506040513d601f19601f8201168201806040525081019062000d5c91906200310c565b90508173ffffffffffffffffffffffffffffffffffffffff1663a85cb629826040518263ffffffff1660e01b815260040162000d99919062002651565b600060405180830381600087803b15801562000db457600080fd5b505af115801562000dc9573d6000803e3d6000fd5b505050505062000e45565b8073ffffffffffffffffffffffffffffffffffffffff1663b8896eb660026040518263ffffffff1660e01b815260040162000e10919062003204565b600060405180830381600087803b15801562000e2b57600080fd5b505af115801562000e40573d6000803e3d6000fd5b505050505b62000e4f62001a97565b50505050565b6000806008600081548092919062000e6d9062003250565b91905055905060003386868660405162000e87906200203f565b62000e9694939291906200329d565b604051809103906000f08015801562000eb3573d6000803e3d6000fd5b509050806006600084815260200190815260200160002060006101000a81548173ffffffffffffffffffffffffffffffffffffffff021916908373ffffffffffffffffffffffffffffffffffffffff160217905550600760003373ffffffffffffffffffffffffffffffffffffffff1673ffffffffffffffffffffffffffffffffffffffff1681526020019081526020016000208290806001815401808255809150506001900390600052602060002001600090919091909150557f1a72d6383b1fc1b015bedc584a040a3cba7b0a5e33b00a43a1693b852be2382e8260405162000f9f919062003341565b60405180910390a181925050509392505050565b60066020528060005260406000206000915054906101000a900473ffffffffffffffffffffffffffffffffffffffff1681565b600360009054906101000a900473ffffffffffffffffffffffffffffffffffffffff1673ffffffffffffffffffffffffffffffffffffffff163373ffffffffffffffffffffffffffffffffffffffff161462001079576040517f08c379a00000000000000000000000000000000000000000000000000000000081526004016200107090620033e9565b60405180910390fd5b80600460006101000a81548173ffffffffffffffffffffffffffffffffffffffff021916908373ffffffffffffffffffffffffffffffffffffffff16021790555050565b600360009054906101000a900473ffffffffffffffffffffffffffffffffffffffff1673ffffffffffffffffffffffffffffffffffffffff163373ffffffffffffffffffffffffffffffffffffffff161462001150576040517f08c379a0000000000000000000000000000000000000000000000000000000008152600401620011479062003481565b60405180910390fd5b600260009054906101000a900473ffffffffffffffffffffffffffffffffffffffff1673ffffffffffffffffffffffffffffffffffffffff1663c4f987a5826040518263ffffffff1660e01b8152600401620011ad91906200302c565b600060405180830381600087803b158015620011c857600080fd5b505af1158015620011dd573d6000803e3d6000fd5b5050505050565b620011ee6200204d565b600260009054906101000a900473ffffffffffffffffffffffffffffffffffffffff1673ffffffffffffffffffffffffffffffffffffffff166374a44d12836040518263ffffffff1660e01b81526004016200124b91906200302c565b60a060405180830381865afa15801562001269573d6000803e3d6000fd5b505050506040513d601f19601f820116820180604052508101906200128f91906200353e565b9050919050565b60008060008060008060006006600089815260200190815260200160002060009054906101000a900473ffffffffffffffffffffffffffffffffffffffff1690508073ffffffffffffffffffffffffffffffffffffffff16632c8989456040518163ffffffff1660e01b8152600401602060405180830381865afa15801562001323573d6000803e3d6000fd5b505050506040513d601f19601f820116820180604052508101906200134991906200310c565b96508073ffffffffffffffffffffffffffffffffffffffff1663e7b0b1906040518163ffffffff1660e01b8152600401602060405180830381865afa15801562001397573d6000803e3d6000fd5b505050506040513d601f19601f82011682018060405250810190620013bd91906200310c565b95508073ffffffffffffffffffffffffffffffffffffffff1663109e94cf6040518163ffffffff1660e01b8152600401602060405180830381865afa1580156200140b573d6000803e3d6000fd5b505050506040513d601f19601f8201168201806040525081019062001431919062003570565b94508073ffffffffffffffffffffffffffffffffffffffff1663c35905c66040518163ffffffff1660e01b8152600401602060405180830381865afa1580156200147f573d6000803e3d6000fd5b505050506040513d601f19601f82011682018060405250810190620014a591906200310c565b93508073ffffffffffffffffffffffffffffffffffffffff16632728e28b6040518163ffffffff1660e01b8152600401602060405180830381865afa158015620014f3573d6000803e3d6000fd5b505050506040513d601f19601f82011682018060405250810190620015199190620035ca565b92508073ffffffffffffffffffffffffffffffffffffffff1663bee80fc56040518163ffffffff1660e01b8152600401602060405180830381865afa15801562001567573d6000803e3d6000fd5b505050506040513d601f19601f820116820180604052508101906200158d91906200310c565b91505091939550919395565b60006006600084815260200190815260200160002060009054906101000a900473ffffffffffffffffffffffffffffffffffffffff1690508073ffffffffffffffffffffffffffffffffffffffff1663109e94cf6040518163ffffffff1660e01b8152600401602060405180830381865afa1580156200161d573d6000803e3d6000fd5b505050506040513d601f19601f8201168201806040525081019062001643919062003570565b73ffffffffffffffffffffffffffffffffffffffff163373ffffffffffffffffffffffffffffffffffffffff1614620016b3576040517f08c379a0000000000000000000000000000000000000000000000000000000008152600401620016aa9062003672565b60405180910390fd5b81341015620016f9576040517f08c379a0000000000000000000000000000000000000000000000000000000008152600401620016f090620036e4565b60405180910390fd5b60008054906101000a900473ffffffffffffffffffffffffffffffffffffffff1673ffffffffffffffffffffffffffffffffffffffff1663f340fa0134336040518363ffffffff1660e01b81526004016200175591906200302c565b6000604051808303818588803b1580156200176f57600080fd5b505af115801562001784573d6000803e3d6000fd5b50505050506000600160009054906101000a900473ffffffffffffffffffffffffffffffffffffffff1673ffffffffffffffffffffffffffffffffffffffff1663d2f1d4486000868573ffffffffffffffffffffffffffffffffffffffff166358e9d3d56040518163ffffffff1660e01b8152600401600060405180830381865afa15801562001818573d6000803e3d6000fd5b505050506040513d6000823e3d601f19601f82011682018060405250810190620018439190620030bb565b8673ffffffffffffffffffffffffffffffffffffffff1663523b0b366040518163ffffffff1660e01b8152600401602060405180830381865afa1580156200188f573d6000803e3d6000fd5b505050506040513d601f19601f82011682018060405250810190620018b591906200310c565b8773ffffffffffffffffffffffffffffffffffffffff1663bee80fc56040518163ffffffff1660e01b8152600401602060405180830381865afa15801562001901573d6000803e3d6000fd5b505050506040513d601f19601f820116820180604052508101906200192791906200310c565b6040518663ffffffff1660e01b81526004016200194995949392919062003706565b6020604051808303816000875af115801562001969573d6000803e3d6000fd5b505050506040513d601f19601f820116820180604052508101906200198f91906200310c565b90508173ffffffffffffffffffffffffffffffffffffffff166390ef73e2826040518263ffffffff1660e01b8152600401620019cc919062002651565b600060405180830381600087803b158015620019e757600080fd5b505af1158015620019fc573d6000803e3d6000fd5b505050508173ffffffffffffffffffffffffffffffffffffffff1663ba0179b5846040518263ffffffff1660e01b815260040162001a3b919062002651565b600060405180830381600087803b15801562001a5657600080fd5b505af115801562001a6b573d6000803e3d6000fd5b5050505062001a7962001a97565b50505050565b60056020528060005260406000206000915090505481565b7fcf34ef537ac33ee1ac626ca1587a0a7e8e51561e5514f8cb36afa1c5102b3bab60405162001ac690620037ba565b60405180910390a17fc33356bc2bad2ce263b056da5d061d4e89c336823d5e77f14c1383aedb7a1b3a600160009054906101000a900473ffffffffffffffffffffffffffffffffffffffff1673ffffffffffffffffffffffffffffffffffffffff1663f650e0cf6040518163ffffffff1660e01b8152600401602060405180830381865afa15801562001b5d573d6000803e3d6000fd5b505050506040513d601f19601f8201168201806040525081019062001b83919062002f88565b60405162001b929190620037ed565b60405180910390a1600160009054906101000a900473ffffffffffffffffffffffffffffffffffffffff1673ffffffffffffffffffffffffffffffffffffffff1663f650e0cf6040518163ffffffff1660e01b8152600401602060405180830381865afa15801562001c08573d6000803e3d6000fd5b505050506040513d601f19601f8201168201806040525081019062001c2e919062002f88565b1562001f73576000600160009054906101000a900473ffffffffffffffffffffffffffffffffffffffff1673ffffffffffffffffffffffffffffffffffffffff166398c436206040518163ffffffff1660e01b8152600401600060405180830381865afa15801562001ca4573d6000803e3d6000fd5b505050506040513d6000823e3d601f19601f8201168201806040525081019062001ccf919062002cb8565b90506000600260009054906101000a900473ffffffffffffffffffffffffffffffffffffffff1673ffffffffffffffffffffffffffffffffffffffff16638b09bffd8360a0015184600001518561010001518661012001516040518563ffffffff1660e01b815260040162001d4894939291906200380a565b6020604051808303816000875af115801562001d68573d6000803e3d6000fd5b505050506040513d601f19601f8201168201806040525081019062001d8e91906200310c565b9050600260009054906101000a900473ffffffffffffffffffffffffffffffffffffffff1673ffffffffffffffffffffffffffffffffffffffff16636e5720a26040518163ffffffff1660e01b8152600401602060405180830381865afa15801562001dfe573d6000803e3d6000fd5b505050506040513d601f19601f8201168201806040525081019062001e2491906200310c565b811462001f7057600160009054906101000a900473ffffffffffffffffffffffffffffffffffffffff1673ffffffffffffffffffffffffffffffffffffffff166301612c408360000151836040518363ffffffff1660e01b815260040162001e8e92919062003857565b600060405180830381600087803b15801562001ea957600080fd5b505af115801562001ebe573d6000803e3d6000fd5b505050506000600660008460200151815260200190815260200160002060009054906101000a900473ffffffffffffffffffffffffffffffffffffffff1690508073ffffffffffffffffffffffffffffffffffffffff1663b8896eb660026040518263ffffffff1660e01b815260040162001f3a919062003204565b600060405180830381600087803b15801562001f5557600080fd5b505af115801562001f6a573d6000803e3d6000fd5b50505050505b50505b7fcf34ef537ac33ee1ac626ca1587a0a7e8e51561e5514f8cb36afa1c5102b3bab60405162001fa290620038d4565b60405180910390a1565b60405180610140016040528060008152602001600081526020016000600181111562001fdd5762001fdc62002112565b5b81526020016000600281111562001ff95762001ff862002112565b5b81526020016060815260200160008152602001600073ffffffffffffffffffffffffffffffffffffffff1681526020016000815260200160008152602001600081525090565b610e8280620038f783390190565b6040518060a001604052806000815260200160008152602001600015158152602001600015158152602001600081525090565b6000604051905090565b600080fd5b600080fd5b6000819050919050565b620020a98162002094565b8114620020b557600080fd5b50565b600081359050620020c9816200209e565b92915050565b600060208284031215620020e857620020e76200208a565b5b6000620020f884828501620020b8565b91505092915050565b6200210c8162002094565b82525050565b7f4e487b7100000000000000000000000000000000000000000000000000000000600052602160045260246000fd5b6002811062002155576200215462002112565b5b50565b6000819050620021688262002141565b919050565b60006200217a8262002158565b9050919050565b6200218c816200216d565b82525050565b60038110620021a657620021a562002112565b5b50565b6000819050620021b98262002192565b919050565b6000620021cb82620021a9565b9050919050565b620021dd81620021be565b82525050565b600081519050919050565b600082825260208201905092915050565b60005b838110156200221f57808201518184015260208101905062002202565b60008484015250505050565b6000601f19601f8301169050919050565b60006200224982620021e3565b620022558185620021ee565b935062002267818560208601620021ff565b62002272816200222b565b840191505092915050565b600073ffffffffffffffffffffffffffffffffffffffff82169050919050565b6000620022aa826200227d565b9050919050565b620022bc816200229d565b82525050565b600061014083016000830151620022dd600086018262002101565b506020830151620022f2602086018262002101565b50604083015162002307604086018262002181565b5060608301516200231c6060860182620021d2565b50608083015184820360808601526200233682826200223c565b91505060a08301516200234d60a086018262002101565b5060c08301516200236260c0860182620022b1565b5060e08301516200237760e086018262002101565b506101008301516200238e61010086018262002101565b50610120830151620023a561012086018262002101565b508091505092915050565b60006020820190508181036000830152620023cc8184620022c2565b905092915050565b600081519050919050565b600082825260208201905092915050565b6000819050602082019050919050565b60006200240e8383620022b1565b60208301905092915050565b6000602082019050919050565b60006200243482620023d4565b620024408185620023df565b93506200244d83620023f0565b8060005b838110156200248457815162002468888262002400565b975062002475836200241a565b92505060018101905062002451565b5085935050505092915050565b60006020820190508181036000830152620024ad818462002427565b905092915050565b620024c0816200229d565b8114620024cc57600080fd5b50565b600081359050620024e081620024b5565b92915050565b600060208284031215620024ff57620024fe6200208a565b5b60006200250f84828501620024cf565b91505092915050565b600081519050919050565b600082825260208201905092915050565b6000819050602082019050919050565b600062002552838362002101565b60208301905092915050565b6000602082019050919050565b6000620025788262002518565b62002584818562002523565b9350620025918362002534565b8060005b83811015620025c8578151620025ac888262002544565b9750620025b9836200255e565b92505060018101905062002595565b5085935050505092915050565b60006020820190508181036000830152620025f181846200256b565b905092915050565b600080604083850312156200261357620026126200208a565b5b60006200262385828601620024cf565b92505060206200263685828601620020b8565b9150509250929050565b6200264b8162002094565b82525050565b600060208201905062002668600083018462002640565b92915050565b600080fd5b600080fd5b7f4e487b7100000000000000000000000000000000000000000000000000000000600052604160045260246000fd5b620026b2826200222b565b810181811067ffffffffffffffff82111715620026d457620026d362002678565b5b80604052505050565b6000620026e962002080565b9050620026f78282620026a7565b919050565b600067ffffffffffffffff8211156200271a576200271962002678565b5b62002725826200222b565b9050602081019050919050565b82818337600083830152505050565b6000620027586200275284620026fc565b620026dd565b90508281526020810184848401111562002777576200277662002673565b5b6200278484828562002732565b509392505050565b600082601f830112620027a457620027a36200266e565b5b8135620027b684826020860162002741565b91505092915050565b600080600060608486031215620027db57620027da6200208a565b5b600084013567ffffffffffffffff811115620027fc57620027fb6200208f565b5b6200280a868287016200278c565b93505060206200281d86828701620020b8565b92505060406200283086828701620020b8565b9150509250925092565b6000819050919050565b6000620028656200285f62002859846200227d565b6200283a565b6200227d565b9050919050565b6000620028798262002844565b9050919050565b60006200288d826200286c565b9050919050565b6200289f8162002880565b82525050565b6000602082019050620028bc600083018462002894565b92915050565b60008115159050919050565b620028d981620028c2565b82525050565b60a082016000820151620028f7600085018262002101565b5060208201516200290c602085018262002101565b506040820151620029216040850182620028ce565b506060820151620029366060850182620028ce565b5060808201516200294b608085018262002101565b50505050565b600060a082019050620029686000830184620028df565b92915050565b62002979816200229d565b82525050565b6004811062002993576200299262002112565b5b50565b6000819050620029a6826200297f565b919050565b6000620029b88262002996565b9050919050565b620029ca81620029ab565b82525050565b600060c082019050620029e7600083018962002640565b620029f6602083018862002640565b62002a0560408301876200296e565b62002a14606083018662002640565b62002a236080830185620029bf565b62002a3260a083018462002640565b979650505050505050565b6000806040838503121562002a575762002a566200208a565b5b600062002a6785828601620020b8565b925050602062002a7a85828601620020b8565b9150509250929050565b600080fd5b600080fd5b60008151905062002a9f816200209e565b92915050565b6002811062002ab357600080fd5b50565b60008151905062002ac78162002aa5565b92915050565b6003811062002adb57600080fd5b50565b60008151905062002aef8162002acd565b92915050565b600062002b0c62002b0684620026fc565b620026dd565b90508281526020810184848401111562002b2b5762002b2a62002673565b5b62002b38848285620021ff565b509392505050565b600082601f83011262002b585762002b576200266e565b5b815162002b6a84826020860162002af5565b91505092915050565b60008151905062002b8481620024b5565b92915050565b6000610140828403121562002ba45762002ba362002a84565b5b62002bb1610140620026dd565b9050600062002bc38482850162002a8e565b600083015250602062002bd98482850162002a8e565b602083015250604062002bef8482850162002ab6565b604083015250606062002c058482850162002ade565b606083015250608082015167ffffffffffffffff81111562002c2c5762002c2b62002a89565b5b62002c3a8482850162002b40565b60808301525060a062002c508482850162002a8e565b60a08301525060c062002c668482850162002b73565b60c08301525060e062002c7c8482850162002a8e565b60e08301525061010062002c938482850162002a8e565b6101008301525061012062002cab8482850162002a8e565b6101208301525092915050565b60006020828403121562002cd15762002cd06200208a565b5b600082015167ffffffffffffffff81111562002cf25762002cf16200208f565b5b62002d008482850162002b8a565b91505092915050565b600067ffffffffffffffff82111562002d275762002d2662002678565b5b602082029050602081019050919050565b600080fd5b600062002d5462002d4e8462002d09565b620026dd565b9050808382526020820190506020840283018581111562002d7a5762002d7962002d38565b5b835b8181101562002da7578062002d92888262002b73565b84526020840193505060208101905062002d7c565b5050509392505050565b600082601f83011262002dc95762002dc86200266e565b5b815162002ddb84826020860162002d3d565b91505092915050565b60006020828403121562002dfd5762002dfc6200208a565b5b600082015167ffffffffffffffff81111562002e1e5762002e1d6200208f565b5b62002e2c8482850162002db1565b91505092915050565b600082825260208201905092915050565b7f2d2d41646420576f726b65722073746172742121210000000000000000000000600082015250565b600062002e7e60158362002e35565b915062002e8b8262002e46565b602082019050919050565b6000602082019050818103600083015262002eb18162002e6f565b9050919050565b600060408201905062002ecf60008301856200296e565b62002ede602083018462002640565b9392505050565b7f2d2d41646420576f726b65722073756363657373656421212100000000000000600082015250565b600062002f1d60198362002e35565b915062002f2a8262002ee5565b602082019050919050565b6000602082019050818103600083015262002f508162002f0e565b9050919050565b62002f6281620028c2565b811462002f6e57600080fd5b50565b60008151905062002f828162002f57565b92915050565b60006020828403121562002fa15762002fa06200208a565b5b600062002fb18482850162002f71565b91505092915050565b7f496e76616c696420726571756573740000000000000000000000000000000000600082015250565b600062002ff2600f8362002e35565b915062002fff8262002fba565b602082019050919050565b60006020820190508181036000830152620030258162002fe3565b9050919050565b60006020820190506200304360008301846200296e565b92915050565b7f43726561746520747261696e205461736b202121210000000000000000000000600082015250565b60006200308160158362002e35565b91506200308e8262003049565b602082019050919050565b60006020820190508181036000830152620030b48162003072565b9050919050565b600060208284031215620030d457620030d36200208a565b5b600082015167ffffffffffffffff811115620030f557620030f46200208f565b5b620031038482850162002b40565b91505092915050565b6000602082840312156200312557620031246200208a565b5b6000620031358482850162002a8e565b91505092915050565b62003149816200216d565b82525050565b60006200315c82620021e3565b62003168818562002e35565b93506200317a818560208601620021ff565b62003185816200222b565b840191505092915050565b600060c082019050620031a760008301896200313e565b620031b6602083018862002640565b8181036040830152620031ca81876200314f565b9050620031db606083018662002640565b620031ea608083018562002640565b620031f960a083018462002640565b979650505050505050565b60006020820190506200321b6000830184620029bf565b92915050565b7f4e487b7100000000000000000000000000000000000000000000000000000000600052601160045260246000fd5b60006200325d8262002094565b91507fffffffffffffffffffffffffffffffffffffffffffffffffffffffffffffffff820362003292576200329162003221565b5b600182019050919050565b6000608082019050620032b460008301876200296e565b8181036020830152620032c881866200314f565b9050620032d9604083018562002640565b620032e8606083018462002640565b95945050505050565b7f4372656164206f72646572207375636365737321000000000000000000000000600082015250565b60006200332960148362002e35565b91506200333682620032f1565b602082019050919050565b600060408201905081810360008301526200335c816200331a565b90506200336d602083018462002640565b92915050565b7f4f6e6c792061646d696e2063616e2073657420746865206d61726b6574706c6160008201527f636520616464726573732e000000000000000000000000000000000000000000602082015250565b6000620033d1602b8362002e35565b9150620033de8262003373565b604082019050919050565b600060208201905081810360008301526200340481620033c2565b9050919050565b7f4f6e6c792061646d696e2063616e20706572666f726d2074686973206f70657260008201527f6174696f6e2e0000000000000000000000000000000000000000000000000000602082015250565b60006200346960268362002e35565b915062003476826200340b565b604082019050919050565b600060208201905081810360008301526200349c816200345a565b9050919050565b600060a08284031215620034bc57620034bb62002a84565b5b620034c860a0620026dd565b90506000620034da8482850162002a8e565b6000830152506020620034f08482850162002a8e565b6020830152506040620035068482850162002f71565b60408301525060606200351c8482850162002f71565b6060830152506080620035328482850162002a8e565b60808301525092915050565b600060a082840312156200355757620035566200208a565b5b60006200356784828501620034a3565b91505092915050565b6000602082840312156200358957620035886200208a565b5b6000620035998482850162002b73565b91505092915050565b60048110620035b057600080fd5b50565b600081519050620035c481620035a2565b92915050565b600060208284031215620035e357620035e26200208a565b5b6000620035f384828501620035b3565b91505092915050565b7f4f6e6c792074686520636c69656e742063616e20706572666f726d207468697360008201527f206f7065726174696f6e2e000000000000000000000000000000000000000000602082015250565b60006200365a602b8362002e35565b91506200366782620035fc565b604082019050919050565b600060208201905081810360008301526200368d816200364b565b9050919050565b7f4e6f7420656e6f7567682066756e64732070726f76696465642e000000000000600082015250565b6000620036cc601a8362002e35565b9150620036d98262003694565b602082019050919050565b60006020820190508181036000830152620036ff81620036bd565b9050919050565b600060a0820190506200371d60008301886200313e565b6200372c602083018762002640565b81810360408301526200374081866200314f565b905062003751606083018562002640565b62003760608083018462002640565b9695505050505050565b7f547269676765725461736b506f6f6c2073746172740000000000000000000000600082015250565b6000620037a260158362002e35565b9150620037af826200376a565b602082019050919050565b60006020820190508181036000830152620037d58162003793565b9050919050565b620037e781620028c2565b82525050565b6000602082019050620038046000830184620037dc565b92915050565b600060808201905062003821600083018762002640565b62003830602083018662002640565b6200383f604083018562002640565b6200384e606083018462002640565b95945050505050565b60006040820190506200386e600083018562002640565b6200387d602083018462002640565b9392505050565b7f547269676765725461736b506f6f6c20656e6400000000000000000000000000600082015250565b6000620038bc60138362002e35565b9150620038c98262003884565b602082019050919050565b60006020820190508181036000830152620038ef81620038ad565b905091905056fe60806040523480156200001157600080fd5b5060405162000e8238038062000e8283398181016040528101906200003791906200031a565b60006001819055506000808190555083600260006101000a81548173ffffffffffffffffffffffffffffffffffffffff021916908373ffffffffffffffffffffffffffffffffffffffff16021790555060006003819055506000600660006101000a81548160ff02191690836003811115620000b857620000b7620003ab565b5b02179055508260049081620000ce91906200061b565b5081600581905550806007819055505050505062000702565b6000604051905090565b600080fd5b600080fd5b600073ffffffffffffffffffffffffffffffffffffffff82169050919050565b60006200012882620000fb565b9050919050565b6200013a816200011b565b81146200014657600080fd5b50565b6000815190506200015a816200012f565b92915050565b600080fd5b600080fd5b6000601f19601f8301169050919050565b7f4e487b7100000000000000000000000000000000000000000000000000000000600052604160045260246000fd5b620001b5826200016a565b810181811067ffffffffffffffff82111715620001d757620001d66200017b565b5b80604052505050565b6000620001ec620000e7565b9050620001fa8282620001aa565b919050565b600067ffffffffffffffff8211156200021d576200021c6200017b565b5b62000228826200016a565b9050602081019050919050565b60005b838110156200025557808201518184015260208101905062000238565b60008484015250505050565b6000620002786200027284620001ff565b620001e0565b90508281526020810184848401111562000297576200029662000165565b5b620002a484828562000235565b509392505050565b600082601f830112620002c457620002c362000160565b5b8151620002d684826020860162000261565b91505092915050565b6000819050919050565b620002f481620002df565b81146200030057600080fd5b50565b6000815190506200031481620002e9565b92915050565b60008060008060808587031215620003375762000336620000f1565b5b6000620003478782880162000149565b945050602085015167ffffffffffffffff8111156200036b576200036a620000f6565b5b6200037987828801620002ac565b93505060406200038c8782880162000303565b92505060606200039f8782880162000303565b91505092959194509250565b7f4e487b7100000000000000000000000000000000000000000000000000000000600052602160045260246000fd5b600081519050919050565b7f4e487b7100000000000000000000000000000000000000000000000000000000600052602260045260246000fd5b600060028204905060018216806200042d57607f821691505b602082108103620004435762000442620003e5565b5b50919050565b60008190508160005260206000209050919050565b60006020601f8301049050919050565b600082821b905092915050565b600060088302620004ad7fffffffffffffffffffffffffffffffffffffffffffffffffffffffffffffffff826200046e565b620004b986836200046e565b95508019841693508086168417925050509392505050565b6000819050919050565b6000620004fc620004f6620004f084620002df565b620004d1565b620002df565b9050919050565b6000819050919050565b6200051883620004db565b62000530620005278262000503565b8484546200047b565b825550505050565b600090565b6200054762000538565b620005548184846200050d565b505050565b5b818110156200057c57620005706000826200053d565b6001810190506200055a565b5050565b601f821115620005cb57620005958162000449565b620005a0846200045e565b81016020851015620005b0578190505b620005c8620005bf856200045e565b83018262000559565b50505b505050565b600082821c905092915050565b6000620005f060001984600802620005d0565b1980831691505092915050565b60006200060b8383620005dd565b9150826002028217905092915050565b6200062682620003da565b67ffffffffffffffff8111156200064257620006416200017b565b5b6200064e825462000414565b6200065b82828562000580565b600060209050601f8311600181146200069357600084156200067e578287015190505b6200068a8582620005fd565b865550620006fa565b601f198416620006a38662000449565b60005b82811015620006cd57848901518255600182019150602085019450602081019050620006a6565b86831015620006ed5784890151620006e9601f891682620005dd565b8355505b6001600288020188555050505b505050505050565b61077080620007126000396000f3fe608060405234801561001057600080fd5b50600436106100b45760003560e01c8063a85cb62911610071578063a85cb6291461016b578063b8896eb614610187578063ba0179b5146101a3578063bee80fc5146101bf578063c35905c6146101dd578063e7b0b190146101fb576100b4565b8063109e94cf146100b95780632728e28b146100d75780632c898945146100f5578063523b0b361461011357806358e9d3d51461013157806390ef73e21461014f575b600080fd5b6100c1610219565b6040516100ce919061042b565b60405180910390f35b6100df61023f565b6040516100ec91906104bd565b60405180910390f35b6100fd610252565b60405161010a91906104f1565b60405180910390f35b61011b610258565b60405161012891906104f1565b60405180910390f35b61013961025e565b604051610146919061059c565b60405180910390f35b610169600480360381019061016491906105ef565b6102ec565b005b610185600480360381019061018091906105ef565b6102f6565b005b6101a1600480360381019061019c9190610641565b610300565b005b6101bd60048036038101906101b891906105ef565b61032d565b005b6101c76103d8565b6040516101d491906104f1565b60405180910390f35b6101e56103de565b6040516101f291906104f1565b60405180910390f35b6102036103e4565b60405161021091906104f1565b60405180910390f35b600260009054906101000a900473ffffffffffffffffffffffffffffffffffffffff1681565b600660009054906101000a900460ff1681565b60005481565b60055481565b6004805461026b9061069d565b80601f01602080910402602001604051908101604052809291908181526020018280546102979061069d565b80156102e45780601f106102b9576101008083540402835291602001916102e4565b820191906000526020600020905b8154815290600101906020018083116102c757829003601f168201915b505050505081565b8060008190555050565b8060018190555050565b80600660006101000a81548160ff0219169083600381111561032557610324610446565b5b021790555050565b6001600381111561034157610340610446565b5b600660009054906101000a900460ff16600381111561036357610362610446565b5b036103a3576040517f08c379a000000000000000000000000000000000000000000000000000000000815260040161039a9061071a565b60405180910390fd5b806003819055506001600660006101000a81548160ff021916908360038111156103d0576103cf610446565b5b021790555050565b60075481565b60035481565b60015481565b600073ffffffffffffffffffffffffffffffffffffffff82169050919050565b6000610415826103ea565b9050919050565b6104258161040a565b82525050565b6000602082019050610440600083018461041c565b92915050565b7f4e487b7100000000000000000000000000000000000000000000000000000000600052602160045260246000fd5b6004811061048657610485610446565b5b50565b600081905061049782610475565b919050565b60006104a782610489565b9050919050565b6104b78161049c565b82525050565b60006020820190506104d260008301846104ae565b92915050565b6000819050919050565b6104eb816104d8565b82525050565b600060208201905061050660008301846104e2565b92915050565b600081519050919050565b600082825260208201905092915050565b60005b8381101561054657808201518184015260208101905061052b565b60008484015250505050565b6000601f19601f8301169050919050565b600061056e8261050c565b6105788185610517565b9350610588818560208601610528565b61059181610552565b840191505092915050565b600060208201905081810360008301526105b68184610563565b905092915050565b600080fd5b6105cc816104d8565b81146105d757600080fd5b50565b6000813590506105e9816105c3565b92915050565b600060208284031215610605576106046105be565b5b6000610613848285016105da565b91505092915050565b6004811061062957600080fd5b50565b60008135905061063b8161061c565b92915050565b600060208284031215610657576106566105be565b5b60006106658482850161062c565b91505092915050565b7f4e487b7100000000000000000000000000000000000000000000000000000000600052602260045260246000fd5b600060028204905060018216806106b557607f821691505b6020821081036106c8576106c761066e565b5b50919050565b7f4f7264657220616c726561647920636f6e6669726d65642e0000000000000000600082015250565b6000610704601883610517565b915061070f826106ce565b602082019050919050565b60006020820190508181036000830152610733816106f7565b905091905056fea26469706673582212209cc6b7169d1cdcc03912d607b1fed7e2587d0f4b0e59220dc34af79bec47088c64736f6c63430008130033a26469706673582212202abd18b6ab9906655aaf27ae2809759636fbce80caa31bc174ec676d76a4cfe164736f6c63430008130033",
  "immutableReferences": {},
  "source": "// SPDX-License-Identifier: MIT\r\npragma solidity ^0.8.0;\r\n\r\nimport \"./Payment.sol\";\r\nimport \"./TaskPool.sol\";\r\nimport \"./Order.sol\";\r\nimport \"./SharedStructs.sol\";\r\nimport \"./WorkerPool.sol\";\r\n\r\ncontract Marketplace {\r\n    Payment private paymentContract;\r\n    TaskPool private taskPoolContract;\r\n    WorkerPool private workerPoolContract;\r\n    address private admin;\r\n    address private marketplace;\r\n    mapping(address => uint256) public workerLoad;\r\n    mapping(uint256 => Order) public orders;\r\n    mapping(address => uint256[]) public userOrders;\r\n    uint256 private nextOrderId;\r\n\r\n    event TaskCompleted(uint256 indexed taskId, address indexed worker);\r\n\r\n    // TODO: delete message to save gas\r\n    event OrderCreated(string message, uint256 orderId);\r\n    event ConfirmOrder(uint256 orderId, uint256 paymentAmount);\r\n    event Log(string message);\r\n    event LogBool(bool LogBool);\r\n\r\n    event Logad(address adr, address adr2);\r\n\r\n    modifier onlyAdmin() {\r\n        require(msg.sender == admin, \"Only admin can perform this operation.\");\r\n        _;\r\n    }\r\n\r\n    constructor(\r\n        address payable paymentAddress,\r\n        address taskPoolAddress,\r\n        address workerPoolAddress\r\n    ) {\r\n        paymentContract = Payment(paymentAddress);\r\n        taskPoolContract = TaskPool(taskPoolAddress);\r\n        workerPoolContract = WorkerPool(workerPoolAddress);\r\n        admin = msg.sender;\r\n        nextOrderId = 0;\r\n    }\r\n\r\n    function addWorker(address worker, uint256 _computingPower) public {\r\n        emit Log(\"--Add Worker start!!!\");\r\n        workerPoolContract.addWorker(worker, _computingPower);\r\n        TriggerTaskPool();\r\n        emit Log(\"--Add Worker successed!!!\");\r\n    }\r\n    \r\n    function removeWorker(address worker) public onlyAdmin \r\n    {\r\n        workerPoolContract.removeWorker(worker);\r\n    }\r\n\r\n    function getWorkerList() public view returns(address[] memory)\r\n    {\r\n        return workerPoolContract.getWorkerList();\r\n    }\r\n\r\n    function getWorkerInfo(address worker) public view returns(WorkerPool.Worker memory)\r\n    {\r\n        return workerPoolContract.getWorkerByWorkerAddress(worker);\r\n    }\r\n\r\n    function getTask(\r\n        uint256 taskId\r\n    ) public view returns (SharedStructs.TaskInfo memory) {\r\n        return taskPoolContract.getTask(taskId);\r\n    }\r\n\r\n    function createOrderPreview(\r\n        string memory folderUrl,\r\n        uint256 requiredPower,\r\n        uint256 orderLevel\r\n    ) public returns (uint256) {\r\n        uint256 orderId = nextOrderId++;\r\n\r\n        Order newOrder = new Order(\r\n            msg.sender,\r\n            folderUrl,\r\n            requiredPower,\r\n            orderLevel\r\n        );\r\n        orders[orderId] = newOrder;\r\n\r\n        // update [userAdress, order] map\r\n        userOrders[msg.sender].push(orderId);\r\n\r\n        emit OrderCreated(\"Cread order success!\", orderId);\r\n        return orderId;\r\n    }\r\n\r\n    function confirmOrder(\r\n        uint256 orderId,\r\n        uint256 paymentAmount\r\n    ) public payable {\r\n        Order order = orders[orderId];\r\n        require(\r\n            msg.sender == order.client(),\r\n            \"Only the client can perform this operation.\"\r\n        );\r\n        // require(workers.length > 0, \"No workers available.\");\r\n\r\n        require(msg.value >= paymentAmount, \"Not enough funds provided.\");\r\n\r\n        // Send the funds to the Marketplace contract\r\n        Payment(paymentContract).deposit{value: msg.value}(msg.sender);\r\n\r\n        uint256 taskId = taskPoolContract.createTask(\r\n            SharedStructs.TaskType.Training,\r\n            orderId,\r\n            order.folderUrl(),\r\n            order.requiredComputingPower(),\r\n            order.orderLevel()\r\n        );\r\n        order.SetOrdertrainTaskId(taskId);\r\n        order.confirm(paymentAmount);\r\n        TriggerTaskPool();\r\n    }\r\n\r\n    // get order by user adress\r\n    function getUserOrders(\r\n        address user\r\n    ) public view returns (uint256[] memory) {\r\n        return userOrders[user];\r\n    }\r\n\r\n    function getOrderInfo(\r\n        uint256 orderId\r\n    )\r\n        public\r\n        view\r\n        returns (\r\n            uint256 _trainTaskId,\r\n            uint256 _validateTaskId,\r\n            address _client,\r\n            uint256 _paymentAmount,\r\n            SharedStructs.OrderStatus _orderStatus,\r\n            uint _orderLevel\r\n        )\r\n    {\r\n        Order order = orders[orderId];\r\n        _trainTaskId = order.trainTaskId();\r\n        _validateTaskId = order.validateTaskId();\r\n        _client = order.client();\r\n        _paymentAmount = order.paymentAmount();\r\n        _orderStatus = order.orderStatus();\r\n        _orderLevel = order.orderLevel();\r\n    }\r\n\r\n    function CompleteTask(address workerAddress, uint256 taskId) external {\r\n        require(\r\n            workerPoolContract.validateWorkerTask(workerAddress, taskId),\r\n            \"Invalid request\"\r\n        );\r\n        SharedStructs.TaskInfo memory task = taskPoolContract.getTask(taskId);\r\n        taskPoolContract.completeTask(taskId);\r\n        Order order = orders[task.orderId];\r\n        workerPoolContract.finishTask(workerAddress);\r\n        if (task.taskType == SharedStructs.TaskType.Training) {\r\n            emit Log(\"Create train Task !!!\");\r\n\r\n            uint256 newTaskId = taskPoolContract.createTask(\r\n                SharedStructs.TaskType.Validation,\r\n                task.orderId,\r\n                order.folderUrl(),\r\n                order.requiredComputingPower(),\r\n                workerPoolContract.getWorkerIdByWorkerAddress(workerAddress),\r\n                order.orderLevel()\r\n            );\r\n            order.SetOrderValidateTaskId(newTaskId);\r\n        } else {\r\n            order.SetOrderStatus(SharedStructs.OrderStatus.Completed);\r\n        }\r\n        TriggerTaskPool();\r\n    }\r\n\r\n    function TriggerTaskPool() private\r\n   {\r\n        emit Log(\"TriggerTaskPool start\");\r\n        emit LogBool(taskPoolContract.HasTask());\r\n        if(taskPoolContract.HasTask())\r\n        {\r\n            SharedStructs.TaskInfo memory task =  taskPoolContract.getPendingTask();\r\n            uint256 workerId = workerPoolContract.assignTask(task.requiredPower, task.id, task.expectWorkerId, task.orderLevel);\r\n            if(workerId != workerPoolContract.Invalid_WorkerId())\r\n            {\r\n                taskPoolContract.assignTask(task.id, workerId);\r\n                Order order = orders[task.orderId];\r\n                order.SetOrderStatus(SharedStructs.OrderStatus.Completed);\r\n            }\r\n        }\r\n        emit Log(\"TriggerTaskPool end\");\r\n    }\r\n\r\n    function setMarketplaceAddress(address marketplaceAddress) external {\r\n        require(\r\n            msg.sender == admin,\r\n            \"Only admin can set the marketplace address.\"\r\n        );\r\n        marketplace = marketplaceAddress;\r\n    }\r\n}\r\n",
  "sourcePath": "D:\\workspace\\apex\\ApexHackthon\\web3\\contracts\\Marketplace.sol",
  "compiler": {
    "name": "solc",
    "version": "0.8.19+commit.7dd6d404.Emscripten.clang"
  },
  "schemaVersion": "3.4.13",
  "updatedAt": "2023-06-24T14:14:40.160Z",
  "devdoc": {
    "kind": "dev",
    "methods": {},
    "version": 1
  },
  "userdoc": {
    "kind": "user",
    "methods": {},
    "version": 1
  }
}