{
  "contractName": "Payment",
  "abi": [
    {
      "anonymous": false,
      "inputs": [
        {
          "indexed": true,
          "internalType": "address",
          "name": "sender",
          "type": "address"
        },
        {
          "indexed": false,
          "internalType": "uint256",
          "name": "Balance",
          "type": "uint256"
        }
      ],
      "name": "Balance",
      "type": "event"
    },
    {
      "anonymous": false,
      "inputs": [
        {
          "indexed": true,
          "internalType": "address",
          "name": "sender",
          "type": "address"
        },
        {
          "indexed": false,
          "internalType": "uint256",
          "name": "amount",
          "type": "uint256"
        }
      ],
      "name": "Deposit",
      "type": "event"
    },
    {
      "anonymous": false,
      "inputs": [
        {
          "indexed": true,
          "internalType": "address",
          "name": "sender",
          "type": "address"
        },
        {
          "indexed": true,
          "internalType": "address",
          "name": "recipient",
          "type": "address"
        },
        {
          "indexed": false,
          "internalType": "uint256",
          "name": "amount",
          "type": "uint256"
        }
      ],
      "name": "Transfer",
      "type": "event"
    },
    {
      "anonymous": false,
      "inputs": [
        {
          "indexed": true,
          "internalType": "address",
          "name": "sender",
          "type": "address"
        },
        {
          "indexed": false,
          "internalType": "uint256",
          "name": "amount",
          "type": "uint256"
        }
      ],
      "name": "Withdrawal",
      "type": "event"
    },
    {
      "stateMutability": "payable",
      "type": "fallback"
    },
    {
      "inputs": [
        {
          "internalType": "address",
          "name": "",
          "type": "address"
        }
      ],
      "name": "balanceOf",
      "outputs": [
        {
          "internalType": "uint256",
          "name": "",
          "type": "uint256"
        }
      ],
      "stateMutability": "view",
      "type": "function"
    },
    {
      "stateMutability": "payable",
      "type": "receive"
    },
    {
      "inputs": [
        {
          "internalType": "address",
          "name": "user",
          "type": "address"
        }
      ],
      "name": "deposit",
      "outputs": [],
      "stateMutability": "payable",
      "type": "function"
    },
    {
      "inputs": [
        {
          "internalType": "address",
          "name": "to",
          "type": "address"
        },
        {
          "internalType": "uint256",
          "name": "amount",
          "type": "uint256"
        }
      ],
      "name": "transfer",
      "outputs": [],
      "stateMutability": "nonpayable",
      "type": "function"
    },
    {
      "inputs": [
        {
          "internalType": "uint256",
          "name": "amount",
          "type": "uint256"
        }
      ],
      "name": "withdraw",
      "outputs": [],
      "stateMutability": "nonpayable",
      "type": "function"
    }
  ],
  "bytecode": "0x608060405234801561001057600080fd5b506108f2806100206000396000f3fe6080604052600436106100435760003560e01c80632e1a7d4d1461019257806370a08231146101bb578063a9059cbb146101f8578063f340fa0114610221576100ed565b366100ed57346000803373ffffffffffffffffffffffffffffffffffffffff1673ffffffffffffffffffffffffffffffffffffffff16815260200190815260200160002060008282546100969190610684565b925050819055503373ffffffffffffffffffffffffffffffffffffffff167fe1fffcc4923d04b559f4d29a8bfc6cda04eb5b0d3c460751c2402c5c5cc9109c346040516100e391906106c7565b60405180910390a2005b346000803373ffffffffffffffffffffffffffffffffffffffff1673ffffffffffffffffffffffffffffffffffffffff168152602001908152602001600020600082825461013b9190610684565b925050819055503373ffffffffffffffffffffffffffffffffffffffff167fe1fffcc4923d04b559f4d29a8bfc6cda04eb5b0d3c460751c2402c5c5cc9109c3460405161018891906106c7565b60405180910390a2005b34801561019e57600080fd5b506101b960048036038101906101b49190610713565b61023d565b005b3480156101c757600080fd5b506101e260048036038101906101dd919061079e565b6103ab565b6040516101ef91906106c7565b60405180910390f35b34801561020457600080fd5b5061021f600480360381019061021a91906107cb565b6103c3565b005b61023b6004803603810190610236919061079e565b610557565b005b806000803373ffffffffffffffffffffffffffffffffffffffff1673ffffffffffffffffffffffffffffffffffffffff1681526020019081526020016000205410156102be576040517f08c379a00000000000000000000000000000000000000000000000000000000081526004016102b590610868565b60405180910390fd5b806000803373ffffffffffffffffffffffffffffffffffffffff1673ffffffffffffffffffffffffffffffffffffffff168152602001908152602001600020600082825461030c9190610888565b925050819055503373ffffffffffffffffffffffffffffffffffffffff166108fc829081150290604051600060405180830381858888f19350505050158015610359573d6000803e3d6000fd5b503373ffffffffffffffffffffffffffffffffffffffff167f7fcf532c15f0a6db0bd6d0e038bea71d30d808c7d98cb3bf7268a95bf5081b65826040516103a091906106c7565b60405180910390a250565b60006020528060005260406000206000915090505481565b806000803373ffffffffffffffffffffffffffffffffffffffff1673ffffffffffffffffffffffffffffffffffffffff168152602001908152602001600020541015610444576040517f08c379a000000000000000000000000000000000000000000000000000000000815260040161043b90610868565b60405180910390fd5b806000803373ffffffffffffffffffffffffffffffffffffffff1673ffffffffffffffffffffffffffffffffffffffff16815260200190815260200160002060008282546104929190610888565b92505081905550806000808473ffffffffffffffffffffffffffffffffffffffff1673ffffffffffffffffffffffffffffffffffffffff16815260200190815260200160002060008282546104e79190610684565b925050819055508173ffffffffffffffffffffffffffffffffffffffff163373ffffffffffffffffffffffffffffffffffffffff167fddf252ad1be2c89b69c2b068fc378daa952ba7f163c4a11628f55a4df523b3ef8360405161054b91906106c7565b60405180910390a35050565b346000808373ffffffffffffffffffffffffffffffffffffffff1673ffffffffffffffffffffffffffffffffffffffff16815260200190815260200160002060008282546105a59190610684565b925050819055508073ffffffffffffffffffffffffffffffffffffffff167fe1fffcc4923d04b559f4d29a8bfc6cda04eb5b0d3c460751c2402c5c5cc9109c346040516105f291906106c7565b60405180910390a28073ffffffffffffffffffffffffffffffffffffffff167f134e340554ff8a7d64280a2a28b982df554e2595e5bf45cd39368f31099172a64760405161064091906106c7565b60405180910390a250565b6000819050919050565b7f4e487b7100000000000000000000000000000000000000000000000000000000600052601160045260246000fd5b600061068f8261064b565b915061069a8361064b565b92508282019050808211156106b2576106b1610655565b5b92915050565b6106c18161064b565b82525050565b60006020820190506106dc60008301846106b8565b92915050565b600080fd5b6106f08161064b565b81146106fb57600080fd5b50565b60008135905061070d816106e7565b92915050565b600060208284031215610729576107286106e2565b5b6000610737848285016106fe565b91505092915050565b600073ffffffffffffffffffffffffffffffffffffffff82169050919050565b600061076b82610740565b9050919050565b61077b81610760565b811461078657600080fd5b50565b60008135905061079881610772565b92915050565b6000602082840312156107b4576107b36106e2565b5b60006107c284828501610789565b91505092915050565b600080604083850312156107e2576107e16106e2565b5b60006107f085828601610789565b9250506020610801858286016106fe565b9150509250929050565b600082825260208201905092915050565b7f496e73756666696369656e742062616c616e63652e0000000000000000000000600082015250565b600061085260158361080b565b915061085d8261081c565b602082019050919050565b6000602082019050818103600083015261088181610845565b9050919050565b60006108938261064b565b915061089e8361064b565b92508282039050818111156108b6576108b5610655565b5b9291505056fea26469706673582212204613ac9213733901e7aba668c43eca4f39e5a18d4a43bff76b189973d32ead1e64736f6c63430008130033",
  "immutableReferences": {},
  "source": "// SPDX-License-Identifier: MIT\r\npragma solidity ^0.8.0;\r\n\r\ncontract Payment {\r\n    mapping(address => uint256) public balanceOf;\r\n    event Deposit(address indexed sender, uint256 amount);\r\n    event Balance(address indexed sender, uint256 Balance);\r\n    event Transfer(\r\n        address indexed sender,\r\n        address indexed recipient,\r\n        uint256 amount\r\n    );\r\n    event Withdrawal(address indexed sender, uint256 amount);\r\n\r\n    // Users can deposit ETH into the contract\r\n    function deposit(address user) external payable {\r\n        // Update the user's balance in the contract\r\n        balanceOf[user] += msg.value;\r\n        // Emit the Deposit event\r\n        emit Deposit(user, msg.value);\r\n        emit Balance(user, address(this).balance);\r\n    }\r\n\r\n    // Transfer ETH between users\r\n    function transfer(address to, uint256 amount) external {\r\n        // Ensure the sender has a sufficient balance\r\n        require(balanceOf[msg.sender] >= amount, \"Insufficient balance.\");\r\n\r\n        // Deduct the transfer amount from the sender's balance\r\n        balanceOf[msg.sender] -= amount;\r\n        // Add the amount to the recipient's balance\r\n        balanceOf[to] += amount;\r\n\r\n        // Emit the Transfer event\r\n        emit Transfer(msg.sender, to, amount);\r\n    }\r\n\r\n    // Users can withdraw ETH from the contract\r\n    function withdraw(uint256 amount) external {\r\n        // Ensure the user has a sufficient balance\r\n        require(balanceOf[msg.sender] >= amount, \"Insufficient balance.\");\r\n\r\n        // Deduct the withdrawal amount from the user's balance\r\n        balanceOf[msg.sender] -= amount;\r\n        // Send the withdrawal amount to the user\r\n        payable(msg.sender).transfer(amount);\r\n\r\n        // Emit the Withdrawal event\r\n        emit Withdrawal(msg.sender, amount);\r\n    }\r\n\r\n    // Internal function to transfer ETH to a specific address\r\n    function _transferETH(address to, uint256 amount) internal {\r\n        // Ensure the contract has a sufficient balance\r\n        require(\r\n            address(this).balance >= amount,\r\n            \"Insufficient contract balance.\"\r\n        );\r\n\r\n        // Transfer the specified amount of ETH to the recipient\r\n        payable(to).transfer(amount);\r\n    }\r\n\r\n    // Receive function\r\n    receive() external payable {\r\n        // Add the ETH to the sender's balance\r\n        balanceOf[msg.sender] += msg.value;\r\n        // Emit the Deposit event\r\n        emit Deposit(msg.sender, msg.value);\r\n    }\r\n\r\n    // Fallback function to handle ETH sent directly to the contract address\r\n    fallback() external payable {\r\n        // Add the ETH to the sender's balance\r\n        balanceOf[msg.sender] += msg.value;\r\n        // Emit the Deposit event\r\n        emit Deposit(msg.sender, msg.value);\r\n    }\r\n}\r\n",
  "sourcePath": "D:\\workspace\\apex\\ApexHackthon\\web3\\contracts\\Payment.sol",
  "compiler": {
    "name": "solc",
    "version": "0.8.19+commit.7dd6d404.Emscripten.clang"
  },
  "schemaVersion": "3.4.13",
  "updatedAt": "2023-06-24T14:14:40.177Z",
  "devdoc": {
    "kind": "dev",
    "methods": {},
    "version": 1
  },
  "userdoc": {
    "kind": "user",
    "methods": {},
    "version": 1
  }
}