{
	"data": {
		"bytecode": {
			"linkReferences": {},
			"object": "60806040523480156200001157600080fd5b50604051620049cc380380620049cc8339818101604052810190620000379190620001fa565b826000806101000a81548173ffffffffffffffffffffffffffffffffffffffff021916908373ffffffffffffffffffffffffffffffffffffffff16021790555081600160006101000a81548173ffffffffffffffffffffffffffffffffffffffff021916908373ffffffffffffffffffffffffffffffffffffffff16021790555080600260006101000a81548173ffffffffffffffffffffffffffffffffffffffff021916908373ffffffffffffffffffffffffffffffffffffffff16021790555033600360006101000a81548173ffffffffffffffffffffffffffffffffffffffff021916908373ffffffffffffffffffffffffffffffffffffffff160217905550600060088190555050505062000256565b600080fd5b600073ffffffffffffffffffffffffffffffffffffffff82169050919050565b60006200017d8262000150565b9050919050565b6200018f8162000170565b81146200019b57600080fd5b50565b600081519050620001af8162000184565b92915050565b6000620001c28262000150565b9050919050565b620001d481620001b5565b8114620001e057600080fd5b50565b600081519050620001f481620001c9565b92915050565b6000806000606084860312156200021657620002156200014b565b5b600062000226868287016200019e565b93505060206200023986828701620001e3565b92505060406200024c86828701620001e3565b9150509250925092565b61476680620002666000396000f3fe608060405260043610620000fe5760003560e01c80639e5da8fc1162000097578063ce8ef7a61162000061578063ce8ef7a6146200036d578063d311636b14620003b1578063f38aa74d14620003fc578063fd8a1682146200041c57620000fe565b80639e5da8fc1462000289578063a85c38ef14620002cd578063b47cc5561462000311578063c4f987a5146200033f57620000fe565b80636b6096fc11620000d95780636b6096fc14620001bb578063856652e914620001e95780638db4b00f146200022d578063990dc9db146200025b57620000fe565b80631d65e77e14620001035780631e7f931f146200014757806363c69f081462000177575b600080fd5b3480156200011057600080fd5b506200012f600480360381019062000129919062002021565b62000460565b6040516200013e919062002302565b60405180910390f35b3480156200015457600080fd5b506200015f62000517565b6040516200016e9190620023e3565b60405180910390f35b3480156200018457600080fd5b50620001a360048036038101906200019d919062002438565b620005b7565b604051620001b2919062002527565b60405180910390f35b348015620001c857600080fd5b50620001e76004803603810190620001e191906200254b565b62000650565b005b348015620001f657600080fd5b506200021560048036038101906200020f91906200254b565b6200075f565b604051620002249190620025a3565b60405180910390f35b3480156200023a57600080fd5b506200025960048036038101906200025391906200254b565b62000791565b005b3480156200026857600080fd5b506200028760048036038101906200028191906200254b565b62000c22565b005b3480156200029657600080fd5b50620002b56004803603810190620002af919062002711565b62000cb4565b604051620002c49190620025a3565b60405180910390f35b348015620002da57600080fd5b50620002f96004803603810190620002f3919062002021565b62000e12565b604051620003089190620027f7565b60405180910390f35b3480156200031e57600080fd5b506200033d600480360381019062000337919062002438565b62000e45565b005b3480156200034c57600080fd5b506200036b600480360381019062000365919062002438565b62000f1c565b005b3480156200037a57600080fd5b5062000399600480360381019062000393919062002438565b62001043565b604051620003a89190620028a3565b60405180910390f35b348015620003be57600080fd5b50620003dd6004803603810190620003d7919062002021565b620010f5565b604051620003f398979695949392919062002974565b60405180910390f35b6200041a600480360381019062000414919062002a09565b620014eb565b005b3480156200042957600080fd5b5062000448600480360381019062000442919062002438565b620019d1565b604051620004579190620025a3565b60405180910390f35b6200046a62001efe565b600160009054906101000a900473ffffffffffffffffffffffffffffffffffffffff1673ffffffffffffffffffffffffffffffffffffffff16631d65e77e836040518263ffffffff1660e01b8152600401620004c79190620025a3565b600060405180830381865afa158015620004e5573d6000803e3d6000fd5b505050506040513d6000823e3d601f19601f8201168201806040525081019062000510919062002c84565b9050919050565b6060600260009054906101000a900473ffffffffffffffffffffffffffffffffffffffff1673ffffffffffffffffffffffffffffffffffffffff16631e7f931f6040518163ffffffff1660e01b8152600401600060405180830381865afa15801562000587573d6000803e3d6000fd5b505050506040513d6000823e3d601f19601f82011682018060405250810190620005b2919062002db0565b905090565b6060600760008373ffffffffffffffffffffffffffffffffffffffff1673ffffffffffffffffffffffffffffffffffffffff1681526020019081526020016000208054806020026020016040519081016040528092919081815260200182805480156200064457602002820191906000526020600020905b8154815260200190600101908083116200062f575b50505050509050919050565b7fcf34ef537ac33ee1ac626ca1587a0a7e8e51561e5514f8cb36afa1c5102b3bab6040516200067f9062002e51565b60405180910390a1600260009054906101000a900473ffffffffffffffffffffffffffffffffffffffff1673ffffffffffffffffffffffffffffffffffffffff16636b6096fc83836040518363ffffffff1660e01b8152600401620006e692919062002e73565b600060405180830381600087803b1580156200070157600080fd5b505af115801562000716573d6000803e3d6000fd5b5050505062000724620019e9565b7fcf34ef537ac33ee1ac626ca1587a0a7e8e51561e5514f8cb36afa1c5102b3bab604051620007539062002ef0565b60405180910390a15050565b600760205281600052604060002081815481106200077c57600080fd5b90600052602060002001600091509150505481565b600260009054906101000a900473ffffffffffffffffffffffffffffffffffffffff1673ffffffffffffffffffffffffffffffffffffffff1663866591f783836040518363ffffffff1660e01b8152600401620007f092919062002e73565b602060405180830381865afa1580156200080e573d6000803e3d6000fd5b505050506040513d601f19601f8201168201806040525081019062000834919062002f43565b62000876576040517f08c379a00000000000000000000000000000000000000000000000000000000081526004016200086d9062002fc5565b60405180910390fd5b6000600160009054906101000a900473ffffffffffffffffffffffffffffffffffffffff1673ffffffffffffffffffffffffffffffffffffffff16631d65e77e836040518263ffffffff1660e01b8152600401620008d59190620025a3565b600060405180830381865afa158015620008f3573d6000803e3d6000fd5b505050506040513d6000823e3d601f19601f820116820180604052508101906200091e919062002c84565b9050600160009054906101000a900473ffffffffffffffffffffffffffffffffffffffff1673ffffffffffffffffffffffffffffffffffffffff1663e1e29558836040518263ffffffff1660e01b81526004016200097d9190620025a3565b600060405180830381600087803b1580156200099857600080fd5b505af1158015620009ad573d6000803e3d6000fd5b505050506000600660008360200151815260200190815260200160002060009054906101000a900473ffffffffffffffffffffffffffffffffffffffff169050600260009054906101000a900473ffffffffffffffffffffffffffffffffffffffff1673ffffffffffffffffffffffffffffffffffffffff16633fc0f48b856040518263ffffffff1660e01b815260040162000a4a919062002fe7565b600060405180830381600087803b15801562000a6557600080fd5b505af115801562000a7a573d6000803e3d6000fd5b505050508073ffffffffffffffffffffffffffffffffffffffff1663b8896eb660026040518263ffffffff1660e01b815260040162000aba919062003004565b600060405180830381600087803b15801562000ad557600080fd5b505af115801562000aea573d6000803e3d6000fd5b505050506000600a60098373ffffffffffffffffffffffffffffffffffffffff1663c35905c66040518163ffffffff1660e01b8152600401602060405180830381865afa15801562000b40573d6000803e3d6000fd5b505050506040513d601f19601f8201168201806040525081019062000b66919062003021565b62000b72919062003082565b62000b7e9190620030fc565b905060008054906101000a900473ffffffffffffffffffffffffffffffffffffffff1673ffffffffffffffffffffffffffffffffffffffff1663f7fb7ea586836040518363ffffffff1660e01b815260040162000bdd92919062002e73565b600060405180830381600087803b15801562000bf857600080fd5b505af115801562000c0d573d6000803e3d6000fd5b5050505062000c1b620019e9565b5050505050565b8047101562000c68576040517f08c379a000000000000000000000000000000000000000000000000000000000815260040162000c5f9062003184565b60405180910390fd5b8173ffffffffffffffffffffffffffffffffffffffff166108fc829081150290604051600060405180830381858888f1935050505015801562000caf573d6000803e3d6000fd5b505050565b6000806008600081548092919062000ccc90620031a6565b91905055905060003386868660405162000ce69062001f91565b62000cf59493929190620031f3565b604051809103906000f08015801562000d12573d6000803e3d6000fd5b509050806006600084815260200190815260200160002060006101000a81548173ffffffffffffffffffffffffffffffffffffffff021916908373ffffffffffffffffffffffffffffffffffffffff160217905550600760003373ffffffffffffffffffffffffffffffffffffffff1673ffffffffffffffffffffffffffffffffffffffff1681526020019081526020016000208290806001815401808255809150506001900390600052602060002001600090919091909150557f1a72d6383b1fc1b015bedc584a040a3cba7b0a5e33b00a43a1693b852be2382e8260405162000dfe919062003297565b60405180910390a181925050509392505050565b60066020528060005260406000206000915054906101000a900473ffffffffffffffffffffffffffffffffffffffff1681565b600360009054906101000a900473ffffffffffffffffffffffffffffffffffffffff1673ffffffffffffffffffffffffffffffffffffffff163373ffffffffffffffffffffffffffffffffffffffff161462000ed8576040517f08c379a000000000000000000000000000000000000000000000000000000000815260040162000ecf906200333f565b60405180910390fd5b80600460006101000a81548173ffffffffffffffffffffffffffffffffffffffff021916908373ffffffffffffffffffffffffffffffffffffffff16021790555050565b600360009054906101000a900473ffffffffffffffffffffffffffffffffffffffff1673ffffffffffffffffffffffffffffffffffffffff163373ffffffffffffffffffffffffffffffffffffffff161462000faf576040517f08c379a000000000000000000000000000000000000000000000000000000000815260040162000fa690620033d7565b60405180910390fd5b600260009054906101000a900473ffffffffffffffffffffffffffffffffffffffff1673ffffffffffffffffffffffffffffffffffffffff1663c4f987a5826040518263ffffffff1660e01b81526004016200100c919062002fe7565b600060405180830381600087803b1580156200102757600080fd5b505af11580156200103c573d6000803e3d6000fd5b5050505050565b6200104d62001f9f565b600260009054906101000a900473ffffffffffffffffffffffffffffffffffffffff1673ffffffffffffffffffffffffffffffffffffffff166374a44d12836040518263ffffffff1660e01b8152600401620010aa919062002fe7565b60a060405180830381865afa158015620010c8573d6000803e3d6000fd5b505050506040513d601f19601f82011682018060405250810190620010ee919062003494565b9050919050565b600080600080600080600060606000600660008b815260200190815260200160002060009054906101000a900473ffffffffffffffffffffffffffffffffffffffff1690508073ffffffffffffffffffffffffffffffffffffffff16632c8989456040518163ffffffff1660e01b8152600401602060405180830381865afa15801562001186573d6000803e3d6000fd5b505050506040513d601f19601f82011682018060405250810190620011ac919062003021565b98508073ffffffffffffffffffffffffffffffffffffffff1663e7b0b1906040518163ffffffff1660e01b8152600401602060405180830381865afa158015620011fa573d6000803e3d6000fd5b505050506040513d601f19601f8201168201806040525081019062001220919062003021565b97508073ffffffffffffffffffffffffffffffffffffffff1663109e94cf6040518163ffffffff1660e01b8152600401602060405180830381865afa1580156200126e573d6000803e3d6000fd5b505050506040513d601f19601f82011682018060405250810190620012949190620034c6565b96508073ffffffffffffffffffffffffffffffffffffffff1663c35905c66040518163ffffffff1660e01b8152600401602060405180830381865afa158015620012e2573d6000803e3d6000fd5b505050506040513d601f19601f8201168201806040525081019062001308919062003021565b95508073ffffffffffffffffffffffffffffffffffffffff16632728e28b6040518163ffffffff1660e01b8152600401602060405180830381865afa15801562001356573d6000803e3d6000fd5b505050506040513d601f19601f820116820180604052508101906200137c919062003520565b94508073ffffffffffffffffffffffffffffffffffffffff1663bee80fc56040518163ffffffff1660e01b8152600401602060405180830381865afa158015620013ca573d6000803e3d6000fd5b505050506040513d601f19601f82011682018060405250810190620013f0919062003021565b93508073ffffffffffffffffffffffffffffffffffffffff1663523b0b366040518163ffffffff1660e01b8152600401602060405180830381865afa1580156200143e573d6000803e3d6000fd5b505050506040513d601f19601f8201168201806040525081019062001464919062003021565b92508073ffffffffffffffffffffffffffffffffffffffff166358e9d3d56040518163ffffffff1660e01b8152600401600060405180830381865afa158015620014b2573d6000803e3d6000fd5b505050506040513d6000823e3d601f19601f82011682018060405250810190620014dd919062003552565b915050919395975091939597565b60006006600084815260200190815260200160002060009054906101000a900473ffffffffffffffffffffffffffffffffffffffff1690508073ffffffffffffffffffffffffffffffffffffffff1663109e94cf6040518163ffffffff1660e01b8152600401602060405180830381865afa1580156200156f573d6000803e3d6000fd5b505050506040513d601f19601f82011682018060405250810190620015959190620034c6565b73ffffffffffffffffffffffffffffffffffffffff163373ffffffffffffffffffffffffffffffffffffffff161462001605576040517f08c379a0000000000000000000000000000000000000000000000000000000008152600401620015fc9062003619565b60405180910390fd5b813410156200164b576040517f08c379a000000000000000000000000000000000000000000000000000000000815260040162001642906200368b565b60405180910390fd5b60008054906101000a900473ffffffffffffffffffffffffffffffffffffffff1673ffffffffffffffffffffffffffffffffffffffff1663f340fa0134336040518363ffffffff1660e01b8152600401620016a7919062002fe7565b6000604051808303818588803b158015620016c157600080fd5b505af1158015620016d6573d6000803e3d6000fd5b50505050506000600160009054906101000a900473ffffffffffffffffffffffffffffffffffffffff1673ffffffffffffffffffffffffffffffffffffffff1663d2f1d4486000868573ffffffffffffffffffffffffffffffffffffffff166358e9d3d56040518163ffffffff1660e01b8152600401600060405180830381865afa1580156200176a573d6000803e3d6000fd5b505050506040513d6000823e3d601f19601f8201168201806040525081019062001795919062003552565b8673ffffffffffffffffffffffffffffffffffffffff1663523b0b366040518163ffffffff1660e01b8152600401602060405180830381865afa158015620017e1573d6000803e3d6000fd5b505050506040513d601f19601f8201168201806040525081019062001807919062003021565b8773ffffffffffffffffffffffffffffffffffffffff1663bee80fc56040518163ffffffff1660e01b8152600401602060405180830381865afa15801562001853573d6000803e3d6000fd5b505050506040513d601f19601f8201168201806040525081019062001879919062003021565b6040518663ffffffff1660e01b81526004016200189b959493929190620036be565b6020604051808303816000875af1158015620018bb573d6000803e3d6000fd5b505050506040513d601f19601f82011682018060405250810190620018e1919062003021565b90508173ffffffffffffffffffffffffffffffffffffffff166390ef73e2826040518263ffffffff1660e01b81526004016200191e9190620025a3565b600060405180830381600087803b1580156200193957600080fd5b505af11580156200194e573d6000803e3d6000fd5b505050508173ffffffffffffffffffffffffffffffffffffffff1663ba0179b5846040518263ffffffff1660e01b81526004016200198d9190620025a3565b600060405180830381600087803b158015620019a857600080fd5b505af1158015620019bd573d6000803e3d6000fd5b50505050620019cb620019e9565b50505050565b60056020528060005260406000206000915090505481565b7fcf34ef537ac33ee1ac626ca1587a0a7e8e51561e5514f8cb36afa1c5102b3bab60405162001a189062003772565b60405180910390a17fc33356bc2bad2ce263b056da5d061d4e89c336823d5e77f14c1383aedb7a1b3a600160009054906101000a900473ffffffffffffffffffffffffffffffffffffffff1673ffffffffffffffffffffffffffffffffffffffff1663f650e0cf6040518163ffffffff1660e01b8152600401602060405180830381865afa15801562001aaf573d6000803e3d6000fd5b505050506040513d601f19601f8201168201806040525081019062001ad5919062002f43565b60405162001ae49190620037a5565b60405180910390a1600160009054906101000a900473ffffffffffffffffffffffffffffffffffffffff1673ffffffffffffffffffffffffffffffffffffffff1663f650e0cf6040518163ffffffff1660e01b8152600401602060405180830381865afa15801562001b5a573d6000803e3d6000fd5b505050506040513d601f19601f8201168201806040525081019062001b80919062002f43565b1562001ec5576000600160009054906101000a900473ffffffffffffffffffffffffffffffffffffffff1673ffffffffffffffffffffffffffffffffffffffff166398c436206040518163ffffffff1660e01b8152600401600060405180830381865afa15801562001bf6573d6000803e3d6000fd5b505050506040513d6000823e3d601f19601f8201168201806040525081019062001c21919062002c84565b90506000600260009054906101000a900473ffffffffffffffffffffffffffffffffffffffff1673ffffffffffffffffffffffffffffffffffffffff16638b09bffd8360a0015184600001518561010001518661012001516040518563ffffffff1660e01b815260040162001c9a9493929190620037c2565b6020604051808303816000875af115801562001cba573d6000803e3d6000fd5b505050506040513d601f19601f8201168201806040525081019062001ce0919062003021565b9050600260009054906101000a900473ffffffffffffffffffffffffffffffffffffffff1673ffffffffffffffffffffffffffffffffffffffff16636e5720a26040518163ffffffff1660e01b8152600401602060405180830381865afa15801562001d50573d6000803e3d6000fd5b505050506040513d601f19601f8201168201806040525081019062001d76919062003021565b811462001ec257600160009054906101000a900473ffffffffffffffffffffffffffffffffffffffff1673ffffffffffffffffffffffffffffffffffffffff166301612c408360000151836040518363ffffffff1660e01b815260040162001de09291906200380f565b600060405180830381600087803b15801562001dfb57600080fd5b505af115801562001e10573d6000803e3d6000fd5b505050506000600660008460200151815260200190815260200160002060009054906101000a900473ffffffffffffffffffffffffffffffffffffffff1690508073ffffffffffffffffffffffffffffffffffffffff1663b8896eb660026040518263ffffffff1660e01b815260040162001e8c919062003004565b600060405180830381600087803b15801562001ea757600080fd5b505af115801562001ebc573d6000803e3d6000fd5b50505050505b50505b7fcf34ef537ac33ee1ac626ca1587a0a7e8e51561e5514f8cb36afa1c5102b3bab60405162001ef4906200388c565b60405180910390a1565b60405180610140016040528060008152602001600081526020016000600181111562001f2f5762001f2e62002064565b5b81526020016000600281111562001f4b5762001f4a62002064565b5b81526020016060815260200160008152602001600073ffffffffffffffffffffffffffffffffffffffff1681526020016000815260200160008152602001600081525090565b610e8280620038af83390190565b6040518060a001604052806000815260200160008152602001600015158152602001600015158152602001600081525090565b6000604051905090565b600080fd5b600080fd5b6000819050919050565b62001ffb8162001fe6565b81146200200757600080fd5b50565b6000813590506200201b8162001ff0565b92915050565b6000602082840312156200203a576200203962001fdc565b5b60006200204a848285016200200a565b91505092915050565b6200205e8162001fe6565b82525050565b7f4e487b7100000000000000000000000000000000000000000000000000000000600052602160045260246000fd5b60028110620020a757620020a662002064565b5b50565b6000819050620020ba8262002093565b919050565b6000620020cc82620020aa565b9050919050565b620020de81620020bf565b82525050565b60038110620020f857620020f762002064565b5b50565b60008190506200210b82620020e4565b919050565b60006200211d82620020fb565b9050919050565b6200212f8162002110565b82525050565b600081519050919050565b600082825260208201905092915050565b60005b838110156200217157808201518184015260208101905062002154565b60008484015250505050565b6000601f19601f8301169050919050565b60006200219b8262002135565b620021a7818562002140565b9350620021b981856020860162002151565b620021c4816200217d565b840191505092915050565b600073ffffffffffffffffffffffffffffffffffffffff82169050919050565b6000620021fc82620021cf565b9050919050565b6200220e81620021ef565b82525050565b6000610140830160008301516200222f600086018262002053565b50602083015162002244602086018262002053565b506040830151620022596040860182620020d3565b5060608301516200226e606086018262002124565b50608083015184820360808601526200228882826200218e565b91505060a08301516200229f60a086018262002053565b5060c0830151620022b460c086018262002203565b5060e0830151620022c960e086018262002053565b50610100830151620022e061010086018262002053565b50610120830151620022f761012086018262002053565b508091505092915050565b600060208201905081810360008301526200231e818462002214565b905092915050565b600081519050919050565b600082825260208201905092915050565b6000819050602082019050919050565b600062002360838362002203565b60208301905092915050565b6000602082019050919050565b6000620023868262002326565b62002392818562002331565b93506200239f8362002342565b8060005b83811015620023d6578151620023ba888262002352565b9750620023c7836200236c565b925050600181019050620023a3565b5085935050505092915050565b60006020820190508181036000830152620023ff818462002379565b905092915050565b6200241281620021ef565b81146200241e57600080fd5b50565b600081359050620024328162002407565b92915050565b60006020828403121562002451576200245062001fdc565b5b6000620024618482850162002421565b91505092915050565b600081519050919050565b600082825260208201905092915050565b6000819050602082019050919050565b6000620024a4838362002053565b60208301905092915050565b6000602082019050919050565b6000620024ca826200246a565b620024d6818562002475565b9350620024e38362002486565b8060005b838110156200251a578151620024fe888262002496565b97506200250b83620024b0565b925050600181019050620024e7565b5085935050505092915050565b60006020820190508181036000830152620025438184620024bd565b905092915050565b6000806040838503121562002565576200256462001fdc565b5b6000620025758582860162002421565b925050602062002588858286016200200a565b9150509250929050565b6200259d8162001fe6565b82525050565b6000602082019050620025ba600083018462002592565b92915050565b600080fd5b600080fd5b7f4e487b7100000000000000000000000000000000000000000000000000000000600052604160045260246000fd5b62002604826200217d565b810181811067ffffffffffffffff82111715620026265762002625620025ca565b5b80604052505050565b60006200263b62001fd2565b9050620026498282620025f9565b919050565b600067ffffffffffffffff8211156200266c576200266b620025ca565b5b62002677826200217d565b9050602081019050919050565b82818337600083830152505050565b6000620026aa620026a4846200264e565b6200262f565b905082815260208101848484011115620026c957620026c8620025c5565b5b620026d684828562002684565b509392505050565b600082601f830112620026f657620026f5620025c0565b5b81356200270884826020860162002693565b91505092915050565b6000806000606084860312156200272d576200272c62001fdc565b5b600084013567ffffffffffffffff8111156200274e576200274d62001fe1565b5b6200275c86828701620026de565b93505060206200276f868287016200200a565b925050604062002782868287016200200a565b9150509250925092565b6000819050919050565b6000620027b7620027b1620027ab84620021cf565b6200278c565b620021cf565b9050919050565b6000620027cb8262002796565b9050919050565b6000620027df82620027be565b9050919050565b620027f181620027d2565b82525050565b60006020820190506200280e6000830184620027e6565b92915050565b60008115159050919050565b6200282b8162002814565b82525050565b60a08201600082015162002849600085018262002053565b5060208201516200285e602085018262002053565b50604082015162002873604085018262002820565b50606082015162002888606085018262002820565b5060808201516200289d608085018262002053565b50505050565b600060a082019050620028ba600083018462002831565b92915050565b620028cb81620021ef565b82525050565b60048110620028e557620028e462002064565b5b50565b6000819050620028f882620028d1565b919050565b60006200290a82620028e8565b9050919050565b6200291c81620028fd565b82525050565b600082825260208201905092915050565b6000620029408262002135565b6200294c818562002922565b93506200295e81856020860162002151565b62002969816200217d565b840191505092915050565b6000610100820190506200298c600083018b62002592565b6200299b602083018a62002592565b620029aa6040830189620028c0565b620029b9606083018862002592565b620029c8608083018762002911565b620029d760a083018662002592565b620029e660c083018562002592565b81810360e0830152620029fa818462002933565b90509998505050505050505050565b6000806040838503121562002a235762002a2262001fdc565b5b600062002a33858286016200200a565b925050602062002a46858286016200200a565b9150509250929050565b600080fd5b600080fd5b60008151905062002a6b8162001ff0565b92915050565b6002811062002a7f57600080fd5b50565b60008151905062002a938162002a71565b92915050565b6003811062002aa757600080fd5b50565b60008151905062002abb8162002a99565b92915050565b600062002ad862002ad2846200264e565b6200262f565b90508281526020810184848401111562002af75762002af6620025c5565b5b62002b0484828562002151565b509392505050565b600082601f83011262002b245762002b23620025c0565b5b815162002b3684826020860162002ac1565b91505092915050565b60008151905062002b508162002407565b92915050565b6000610140828403121562002b705762002b6f62002a50565b5b62002b7d6101406200262f565b9050600062002b8f8482850162002a5a565b600083015250602062002ba58482850162002a5a565b602083015250604062002bbb8482850162002a82565b604083015250606062002bd18482850162002aaa565b606083015250608082015167ffffffffffffffff81111562002bf85762002bf762002a55565b5b62002c068482850162002b0c565b60808301525060a062002c1c8482850162002a5a565b60a08301525060c062002c328482850162002b3f565b60c08301525060e062002c488482850162002a5a565b60e08301525061010062002c5f8482850162002a5a565b6101008301525061012062002c778482850162002a5a565b6101208301525092915050565b60006020828403121562002c9d5762002c9c62001fdc565b5b600082015167ffffffffffffffff81111562002cbe5762002cbd62001fe1565b5b62002ccc8482850162002b56565b91505092915050565b600067ffffffffffffffff82111562002cf35762002cf2620025ca565b5b602082029050602081019050919050565b600080fd5b600062002d2062002d1a8462002cd5565b6200262f565b9050808382526020820190506020840283018581111562002d465762002d4562002d04565b5b835b8181101562002d73578062002d5e888262002b3f565b84526020840193505060208101905062002d48565b5050509392505050565b600082601f83011262002d955762002d94620025c0565b5b815162002da784826020860162002d09565b91505092915050565b60006020828403121562002dc95762002dc862001fdc565b5b600082015167ffffffffffffffff81111562002dea5762002de962001fe1565b5b62002df88482850162002d7d565b91505092915050565b7f2d2d41646420576f726b65722073746172742121210000000000000000000000600082015250565b600062002e3960158362002922565b915062002e468262002e01565b602082019050919050565b6000602082019050818103600083015262002e6c8162002e2a565b9050919050565b600060408201905062002e8a6000830185620028c0565b62002e99602083018462002592565b9392505050565b7f2d2d41646420576f726b65722073756363657373656421212100000000000000600082015250565b600062002ed860198362002922565b915062002ee58262002ea0565b602082019050919050565b6000602082019050818103600083015262002f0b8162002ec9565b9050919050565b62002f1d8162002814565b811462002f2957600080fd5b50565b60008151905062002f3d8162002f12565b92915050565b60006020828403121562002f5c5762002f5b62001fdc565b5b600062002f6c8482850162002f2c565b91505092915050565b7f496e76616c696420726571756573740000000000000000000000000000000000600082015250565b600062002fad600f8362002922565b915062002fba8262002f75565b602082019050919050565b6000602082019050818103600083015262002fe08162002f9e565b9050919050565b600060208201905062002ffe6000830184620028c0565b92915050565b60006020820190506200301b600083018462002911565b92915050565b6000602082840312156200303a576200303962001fdc565b5b60006200304a8482850162002a5a565b91505092915050565b7f4e487b7100000000000000000000000000000000000000000000000000000000600052601160045260246000fd5b60006200308f8262001fe6565b91506200309c8362001fe6565b9250828202620030ac8162001fe6565b91508282048414831517620030c657620030c562003053565b5b5092915050565b7f4e487b7100000000000000000000000000000000000000000000000000000000600052601260045260246000fd5b6000620031098262001fe6565b9150620031168362001fe6565b925082620031295762003128620030cd565b5b828204905092915050565b7f496e73756666696369656e7420636f6e74726163742062616c616e63652e0000600082015250565b60006200316c601e8362002922565b9150620031798262003134565b602082019050919050565b600060208201905081810360008301526200319f816200315d565b9050919050565b6000620031b38262001fe6565b91507fffffffffffffffffffffffffffffffffffffffffffffffffffffffffffffffff8203620031e857620031e762003053565b5b600182019050919050565b60006080820190506200320a6000830187620028c0565b81810360208301526200321e818662002933565b90506200322f604083018562002592565b6200323e606083018462002592565b95945050505050565b7f4372656164206f72646572207375636365737321000000000000000000000000600082015250565b60006200327f60148362002922565b91506200328c8262003247565b602082019050919050565b60006040820190508181036000830152620032b28162003270565b9050620032c3602083018462002592565b92915050565b7f4f6e6c792061646d696e2063616e2073657420746865206d61726b6574706c6160008201527f636520616464726573732e000000000000000000000000000000000000000000602082015250565b600062003327602b8362002922565b91506200333482620032c9565b604082019050919050565b600060208201905081810360008301526200335a8162003318565b9050919050565b7f4f6e6c792061646d696e2063616e20706572666f726d2074686973206f70657260008201527f6174696f6e2e0000000000000000000000000000000000000000000000000000602082015250565b6000620033bf60268362002922565b9150620033cc8262003361565b604082019050919050565b60006020820190508181036000830152620033f281620033b0565b9050919050565b600060a0828403121562003412576200341162002a50565b5b6200341e60a06200262f565b90506000620034308482850162002a5a565b6000830152506020620034468482850162002a5a565b60208301525060406200345c8482850162002f2c565b6040830152506060620034728482850162002f2c565b6060830152506080620034888482850162002a5a565b60808301525092915050565b600060a08284031215620034ad57620034ac62001fdc565b5b6000620034bd84828501620033f9565b91505092915050565b600060208284031215620034df57620034de62001fdc565b5b6000620034ef8482850162002b3f565b91505092915050565b600481106200350657600080fd5b50565b6000815190506200351a81620034f8565b92915050565b60006020828403121562003539576200353862001fdc565b5b6000620035498482850162003509565b91505092915050565b6000602082840312156200356b576200356a62001fdc565b5b600082015167ffffffffffffffff8111156200358c576200358b62001fe1565b5b6200359a8482850162002b0c565b91505092915050565b7f4f6e6c792074686520636c69656e742063616e20706572666f726d207468697360008201527f206f7065726174696f6e2e000000000000000000000000000000000000000000602082015250565b600062003601602b8362002922565b91506200360e82620035a3565b604082019050919050565b600060208201905081810360008301526200363481620035f2565b9050919050565b7f4e6f7420656e6f7567682066756e64732070726f76696465642e000000000000600082015250565b600062003673601a8362002922565b915062003680826200363b565b602082019050919050565b60006020820190508181036000830152620036a68162003664565b9050919050565b620036b881620020bf565b82525050565b600060a082019050620036d56000830188620036ad565b620036e4602083018762002592565b8181036040830152620036f8818662002933565b905062003709606083018562002592565b62003718608083018462002592565b9695505050505050565b7f547269676765725461736b506f6f6c2073746172740000000000000000000000600082015250565b60006200375a60158362002922565b9150620037678262003722565b602082019050919050565b600060208201905081810360008301526200378d816200374b565b9050919050565b6200379f8162002814565b82525050565b6000602082019050620037bc600083018462003794565b92915050565b6000608082019050620037d9600083018762002592565b620037e8602083018662002592565b620037f7604083018562002592565b62003806606083018462002592565b95945050505050565b600060408201905062003826600083018562002592565b62003835602083018462002592565b9392505050565b7f547269676765725461736b506f6f6c20656e6400000000000000000000000000600082015250565b60006200387460138362002922565b915062003881826200383c565b602082019050919050565b60006020820190508181036000830152620038a78162003865565b905091905056fe60806040523480156200001157600080fd5b5060405162000e8238038062000e8283398181016040528101906200003791906200031a565b60006001819055506000808190555083600260006101000a81548173ffffffffffffffffffffffffffffffffffffffff021916908373ffffffffffffffffffffffffffffffffffffffff16021790555060006003819055506000600660006101000a81548160ff02191690836003811115620000b857620000b7620003ab565b5b02179055508260049081620000ce91906200061b565b5081600581905550806007819055505050505062000702565b6000604051905090565b600080fd5b600080fd5b600073ffffffffffffffffffffffffffffffffffffffff82169050919050565b60006200012882620000fb565b9050919050565b6200013a816200011b565b81146200014657600080fd5b50565b6000815190506200015a816200012f565b92915050565b600080fd5b600080fd5b6000601f19601f8301169050919050565b7f4e487b7100000000000000000000000000000000000000000000000000000000600052604160045260246000fd5b620001b5826200016a565b810181811067ffffffffffffffff82111715620001d757620001d66200017b565b5b80604052505050565b6000620001ec620000e7565b9050620001fa8282620001aa565b919050565b600067ffffffffffffffff8211156200021d576200021c6200017b565b5b62000228826200016a565b9050602081019050919050565b60005b838110156200025557808201518184015260208101905062000238565b60008484015250505050565b6000620002786200027284620001ff565b620001e0565b90508281526020810184848401111562000297576200029662000165565b5b620002a484828562000235565b509392505050565b600082601f830112620002c457620002c362000160565b5b8151620002d684826020860162000261565b91505092915050565b6000819050919050565b620002f481620002df565b81146200030057600080fd5b50565b6000815190506200031481620002e9565b92915050565b60008060008060808587031215620003375762000336620000f1565b5b6000620003478782880162000149565b945050602085015167ffffffffffffffff8111156200036b576200036a620000f6565b5b6200037987828801620002ac565b93505060406200038c8782880162000303565b92505060606200039f8782880162000303565b91505092959194509250565b7f4e487b7100000000000000000000000000000000000000000000000000000000600052602160045260246000fd5b600081519050919050565b7f4e487b7100000000000000000000000000000000000000000000000000000000600052602260045260246000fd5b600060028204905060018216806200042d57607f821691505b602082108103620004435762000442620003e5565b5b50919050565b60008190508160005260206000209050919050565b60006020601f8301049050919050565b600082821b905092915050565b600060088302620004ad7fffffffffffffffffffffffffffffffffffffffffffffffffffffffffffffffff826200046e565b620004b986836200046e565b95508019841693508086168417925050509392505050565b6000819050919050565b6000620004fc620004f6620004f084620002df565b620004d1565b620002df565b9050919050565b6000819050919050565b6200051883620004db565b62000530620005278262000503565b8484546200047b565b825550505050565b600090565b6200054762000538565b620005548184846200050d565b505050565b5b818110156200057c57620005706000826200053d565b6001810190506200055a565b5050565b601f821115620005cb57620005958162000449565b620005a0846200045e565b81016020851015620005b0578190505b620005c8620005bf856200045e565b83018262000559565b50505b505050565b600082821c905092915050565b6000620005f060001984600802620005d0565b1980831691505092915050565b60006200060b8383620005dd565b9150826002028217905092915050565b6200062682620003da565b67ffffffffffffffff8111156200064257620006416200017b565b5b6200064e825462000414565b6200065b82828562000580565b600060209050601f8311600181146200069357600084156200067e578287015190505b6200068a8582620005fd565b865550620006fa565b601f198416620006a38662000449565b60005b82811015620006cd57848901518255600182019150602085019450602081019050620006a6565b86831015620006ed5784890151620006e9601f891682620005dd565b8355505b6001600288020188555050505b505050505050565b61077080620007126000396000f3fe608060405234801561001057600080fd5b50600436106100b45760003560e01c8063a85cb62911610071578063a85cb6291461016b578063b8896eb614610187578063ba0179b5146101a3578063bee80fc5146101bf578063c35905c6146101dd578063e7b0b190146101fb576100b4565b8063109e94cf146100b95780632728e28b146100d75780632c898945146100f5578063523b0b361461011357806358e9d3d51461013157806390ef73e21461014f575b600080fd5b6100c1610219565b6040516100ce919061042b565b60405180910390f35b6100df61023f565b6040516100ec91906104bd565b60405180910390f35b6100fd610252565b60405161010a91906104f1565b60405180910390f35b61011b610258565b60405161012891906104f1565b60405180910390f35b61013961025e565b604051610146919061059c565b60405180910390f35b610169600480360381019061016491906105ef565b6102ec565b005b610185600480360381019061018091906105ef565b6102f6565b005b6101a1600480360381019061019c9190610641565b610300565b005b6101bd60048036038101906101b891906105ef565b61032d565b005b6101c76103d8565b6040516101d491906104f1565b60405180910390f35b6101e56103de565b6040516101f291906104f1565b60405180910390f35b6102036103e4565b60405161021091906104f1565b60405180910390f35b600260009054906101000a900473ffffffffffffffffffffffffffffffffffffffff1681565b600660009054906101000a900460ff1681565b60005481565b60055481565b6004805461026b9061069d565b80601f01602080910402602001604051908101604052809291908181526020018280546102979061069d565b80156102e45780601f106102b9576101008083540402835291602001916102e4565b820191906000526020600020905b8154815290600101906020018083116102c757829003601f168201915b505050505081565b8060008190555050565b8060018190555050565b80600660006101000a81548160ff0219169083600381111561032557610324610446565b5b021790555050565b6001600381111561034157610340610446565b5b600660009054906101000a900460ff16600381111561036357610362610446565b5b036103a3576040517f08c379a000000000000000000000000000000000000000000000000000000000815260040161039a9061071a565b60405180910390fd5b806003819055506001600660006101000a81548160ff021916908360038111156103d0576103cf610446565b5b021790555050565b60075481565b60035481565b60015481565b600073ffffffffffffffffffffffffffffffffffffffff82169050919050565b6000610415826103ea565b9050919050565b6104258161040a565b82525050565b6000602082019050610440600083018461041c565b92915050565b7f4e487b7100000000000000000000000000000000000000000000000000000000600052602160045260246000fd5b6004811061048657610485610446565b5b50565b600081905061049782610475565b919050565b60006104a782610489565b9050919050565b6104b78161049c565b82525050565b60006020820190506104d260008301846104ae565b92915050565b6000819050919050565b6104eb816104d8565b82525050565b600060208201905061050660008301846104e2565b92915050565b600081519050919050565b600082825260208201905092915050565b60005b8381101561054657808201518184015260208101905061052b565b60008484015250505050565b6000601f19601f8301169050919050565b600061056e8261050c565b6105788185610517565b9350610588818560208601610528565b61059181610552565b840191505092915050565b600060208201905081810360008301526105b68184610563565b905092915050565b600080fd5b6105cc816104d8565b81146105d757600080fd5b50565b6000813590506105e9816105c3565b92915050565b600060208284031215610605576106046105be565b5b6000610613848285016105da565b91505092915050565b6004811061062957600080fd5b50565b60008135905061063b8161061c565b92915050565b600060208284031215610657576106566105be565b5b60006106658482850161062c565b91505092915050565b7f4e487b7100000000000000000000000000000000000000000000000000000000600052602260045260246000fd5b600060028204905060018216806106b557607f821691505b6020821081036106c8576106c761066e565b5b50919050565b7f4f7264657220616c726561647920636f6e6669726d65642e0000000000000000600082015250565b6000610704601883610517565b915061070f826106ce565b602082019050919050565b60006020820190508181036000830152610733816106f7565b905091905056fea2646970667358221220aad99771cb7bc1036342035cafb5491bcb5db8b27de83b0455593dc0d461ff7564736f6c63430008120033a2646970667358221220fd32be1073dee7e2359252b37fe8a6512051e5dacd8d886f16cd951baf9b80bb64736f6c63430008120033",
			"opcodes": "PUSH1 0x80 PUSH1 0x40 MSTORE CALLVALUE DUP1 ISZERO PUSH3 0x11 JUMPI PUSH1 0x0 DUP1 REVERT JUMPDEST POP PUSH1 0x40 MLOAD PUSH3 0x49CC CODESIZE SUB DUP1 PUSH3 0x49CC DUP4 CODECOPY DUP2 DUP2 ADD PUSH1 0x40 MSTORE DUP2 ADD SWAP1 PUSH3 0x37 SWAP2 SWAP1 PUSH3 0x1FA JUMP JUMPDEST DUP3 PUSH1 0x0 DUP1 PUSH2 0x100 EXP DUP2 SLOAD DUP2 PUSH20 0xFFFFFFFFFFFFFFFFFFFFFFFFFFFFFFFFFFFFFFFF MUL NOT AND SWAP1 DUP4 PUSH20 0xFFFFFFFFFFFFFFFFFFFFFFFFFFFFFFFFFFFFFFFF AND MUL OR SWAP1 SSTORE POP DUP2 PUSH1 0x1 PUSH1 0x0 PUSH2 0x100 EXP DUP2 SLOAD DUP2 PUSH20 0xFFFFFFFFFFFFFFFFFFFFFFFFFFFFFFFFFFFFFFFF MUL NOT AND SWAP1 DUP4 PUSH20 0xFFFFFFFFFFFFFFFFFFFFFFFFFFFFFFFFFFFFFFFF AND MUL OR SWAP1 SSTORE POP DUP1 PUSH1 0x2 PUSH1 0x0 PUSH2 0x100 EXP DUP2 SLOAD DUP2 PUSH20 0xFFFFFFFFFFFFFFFFFFFFFFFFFFFFFFFFFFFFFFFF MUL NOT AND SWAP1 DUP4 PUSH20 0xFFFFFFFFFFFFFFFFFFFFFFFFFFFFFFFFFFFFFFFF AND MUL OR SWAP1 SSTORE POP CALLER PUSH1 0x3 PUSH1 0x0 PUSH2 0x100 EXP DUP2 SLOAD DUP2 PUSH20 0xFFFFFFFFFFFFFFFFFFFFFFFFFFFFFFFFFFFFFFFF MUL NOT AND SWAP1 DUP4 PUSH20 0xFFFFFFFFFFFFFFFFFFFFFFFFFFFFFFFFFFFFFFFF AND MUL OR SWAP1 SSTORE POP PUSH1 0x0 PUSH1 0x8 DUP2 SWAP1 SSTORE POP POP POP POP PUSH3 0x256 JUMP JUMPDEST PUSH1 0x0 DUP1 REVERT JUMPDEST PUSH1 0x0 PUSH20 0xFFFFFFFFFFFFFFFFFFFFFFFFFFFFFFFFFFFFFFFF DUP3 AND SWAP1 POP SWAP2 SWAP1 POP JUMP JUMPDEST PUSH1 0x0 PUSH3 0x17D DUP3 PUSH3 0x150 JUMP JUMPDEST SWAP1 POP SWAP2 SWAP1 POP JUMP JUMPDEST PUSH3 0x18F DUP2 PUSH3 0x170 JUMP JUMPDEST DUP2 EQ PUSH3 0x19B JUMPI PUSH1 0x0 DUP1 REVERT JUMPDEST POP JUMP JUMPDEST PUSH1 0x0 DUP2 MLOAD SWAP1 POP PUSH3 0x1AF DUP2 PUSH3 0x184 JUMP JUMPDEST SWAP3 SWAP2 POP POP JUMP JUMPDEST PUSH1 0x0 PUSH3 0x1C2 DUP3 PUSH3 0x150 JUMP JUMPDEST SWAP1 POP SWAP2 SWAP1 POP JUMP JUMPDEST PUSH3 0x1D4 DUP2 PUSH3 0x1B5 JUMP JUMPDEST DUP2 EQ PUSH3 0x1E0 JUMPI PUSH1 0x0 DUP1 REVERT JUMPDEST POP JUMP JUMPDEST PUSH1 0x0 DUP2 MLOAD SWAP1 POP PUSH3 0x1F4 DUP2 PUSH3 0x1C9 JUMP JUMPDEST SWAP3 SWAP2 POP POP JUMP JUMPDEST PUSH1 0x0 DUP1 PUSH1 0x0 PUSH1 0x60 DUP5 DUP7 SUB SLT ISZERO PUSH3 0x216 JUMPI PUSH3 0x215 PUSH3 0x14B JUMP JUMPDEST JUMPDEST PUSH1 0x0 PUSH3 0x226 DUP7 DUP3 DUP8 ADD PUSH3 0x19E JUMP JUMPDEST SWAP4 POP POP PUSH1 0x20 PUSH3 0x239 DUP7 DUP3 DUP8 ADD PUSH3 0x1E3 JUMP JUMPDEST SWAP3 POP POP PUSH1 0x40 PUSH3 0x24C DUP7 DUP3 DUP8 ADD PUSH3 0x1E3 JUMP JUMPDEST SWAP2 POP POP SWAP3 POP SWAP3 POP SWAP3 JUMP JUMPDEST PUSH2 0x4766 DUP1 PUSH3 0x266 PUSH1 0x0 CODECOPY PUSH1 0x0 RETURN INVALID PUSH1 0x80 PUSH1 0x40 MSTORE PUSH1 0x4 CALLDATASIZE LT PUSH3 0xFE JUMPI PUSH1 0x0 CALLDATALOAD PUSH1 0xE0 SHR DUP1 PUSH4 0x9E5DA8FC GT PUSH3 0x97 JUMPI DUP1 PUSH4 0xCE8EF7A6 GT PUSH3 0x61 JUMPI DUP1 PUSH4 0xCE8EF7A6 EQ PUSH3 0x36D JUMPI DUP1 PUSH4 0xD311636B EQ PUSH3 0x3B1 JUMPI DUP1 PUSH4 0xF38AA74D EQ PUSH3 0x3FC JUMPI DUP1 PUSH4 0xFD8A1682 EQ PUSH3 0x41C JUMPI PUSH3 0xFE JUMP JUMPDEST DUP1 PUSH4 0x9E5DA8FC EQ PUSH3 0x289 JUMPI DUP1 PUSH4 0xA85C38EF EQ PUSH3 0x2CD JUMPI DUP1 PUSH4 0xB47CC556 EQ PUSH3 0x311 JUMPI DUP1 PUSH4 0xC4F987A5 EQ PUSH3 0x33F JUMPI PUSH3 0xFE JUMP JUMPDEST DUP1 PUSH4 0x6B6096FC GT PUSH3 0xD9 JUMPI DUP1 PUSH4 0x6B6096FC EQ PUSH3 0x1BB JUMPI DUP1 PUSH4 0x856652E9 EQ PUSH3 0x1E9 JUMPI DUP1 PUSH4 0x8DB4B00F EQ PUSH3 0x22D JUMPI DUP1 PUSH4 0x990DC9DB EQ PUSH3 0x25B JUMPI PUSH3 0xFE JUMP JUMPDEST DUP1 PUSH4 0x1D65E77E EQ PUSH3 0x103 JUMPI DUP1 PUSH4 0x1E7F931F EQ PUSH3 0x147 JUMPI DUP1 PUSH4 0x63C69F08 EQ PUSH3 0x177 JUMPI JUMPDEST PUSH1 0x0 DUP1 REVERT JUMPDEST CALLVALUE DUP1 ISZERO PUSH3 0x110 JUMPI PUSH1 0x0 DUP1 REVERT JUMPDEST POP PUSH3 0x12F PUSH1 0x4 DUP1 CALLDATASIZE SUB DUP2 ADD SWAP1 PUSH3 0x129 SWAP2 SWAP1 PUSH3 0x2021 JUMP JUMPDEST PUSH3 0x460 JUMP JUMPDEST PUSH1 0x40 MLOAD PUSH3 0x13E SWAP2 SWAP1 PUSH3 0x2302 JUMP JUMPDEST PUSH1 0x40 MLOAD DUP1 SWAP2 SUB SWAP1 RETURN JUMPDEST CALLVALUE DUP1 ISZERO PUSH3 0x154 JUMPI PUSH1 0x0 DUP1 REVERT JUMPDEST POP PUSH3 0x15F PUSH3 0x517 JUMP JUMPDEST PUSH1 0x40 MLOAD PUSH3 0x16E SWAP2 SWAP1 PUSH3 0x23E3 JUMP JUMPDEST PUSH1 0x40 MLOAD DUP1 SWAP2 SUB SWAP1 RETURN JUMPDEST CALLVALUE DUP1 ISZERO PUSH3 0x184 JUMPI PUSH1 0x0 DUP1 REVERT JUMPDEST POP PUSH3 0x1A3 PUSH1 0x4 DUP1 CALLDATASIZE SUB DUP2 ADD SWAP1 PUSH3 0x19D SWAP2 SWAP1 PUSH3 0x2438 JUMP JUMPDEST PUSH3 0x5B7 JUMP JUMPDEST PUSH1 0x40 MLOAD PUSH3 0x1B2 SWAP2 SWAP1 PUSH3 0x2527 JUMP JUMPDEST PUSH1 0x40 MLOAD DUP1 SWAP2 SUB SWAP1 RETURN JUMPDEST CALLVALUE DUP1 ISZERO PUSH3 0x1C8 JUMPI PUSH1 0x0 DUP1 REVERT JUMPDEST POP PUSH3 0x1E7 PUSH1 0x4 DUP1 CALLDATASIZE SUB DUP2 ADD SWAP1 PUSH3 0x1E1 SWAP2 SWAP1 PUSH3 0x254B JUMP JUMPDEST PUSH3 0x650 JUMP JUMPDEST STOP JUMPDEST CALLVALUE DUP1 ISZERO PUSH3 0x1F6 JUMPI PUSH1 0x0 DUP1 REVERT JUMPDEST POP PUSH3 0x215 PUSH1 0x4 DUP1 CALLDATASIZE SUB DUP2 ADD SWAP1 PUSH3 0x20F SWAP2 SWAP1 PUSH3 0x254B JUMP JUMPDEST PUSH3 0x75F JUMP JUMPDEST PUSH1 0x40 MLOAD PUSH3 0x224 SWAP2 SWAP1 PUSH3 0x25A3 JUMP JUMPDEST PUSH1 0x40 MLOAD DUP1 SWAP2 SUB SWAP1 RETURN JUMPDEST CALLVALUE DUP1 ISZERO PUSH3 0x23A JUMPI PUSH1 0x0 DUP1 REVERT JUMPDEST POP PUSH3 0x259 PUSH1 0x4 DUP1 CALLDATASIZE SUB DUP2 ADD SWAP1 PUSH3 0x253 SWAP2 SWAP1 PUSH3 0x254B JUMP JUMPDEST PUSH3 0x791 JUMP JUMPDEST STOP JUMPDEST CALLVALUE DUP1 ISZERO PUSH3 0x268 JUMPI PUSH1 0x0 DUP1 REVERT JUMPDEST POP PUSH3 0x287 PUSH1 0x4 DUP1 CALLDATASIZE SUB DUP2 ADD SWAP1 PUSH3 0x281 SWAP2 SWAP1 PUSH3 0x254B JUMP JUMPDEST PUSH3 0xC22 JUMP JUMPDEST STOP JUMPDEST CALLVALUE DUP1 ISZERO PUSH3 0x296 JUMPI PUSH1 0x0 DUP1 REVERT JUMPDEST POP PUSH3 0x2B5 PUSH1 0x4 DUP1 CALLDATASIZE SUB DUP2 ADD SWAP1 PUSH3 0x2AF SWAP2 SWAP1 PUSH3 0x2711 JUMP JUMPDEST PUSH3 0xCB4 JUMP JUMPDEST PUSH1 0x40 MLOAD PUSH3 0x2C4 SWAP2 SWAP1 PUSH3 0x25A3 JUMP JUMPDEST PUSH1 0x40 MLOAD DUP1 SWAP2 SUB SWAP1 RETURN JUMPDEST CALLVALUE DUP1 ISZERO PUSH3 0x2DA JUMPI PUSH1 0x0 DUP1 REVERT JUMPDEST POP PUSH3 0x2F9 PUSH1 0x4 DUP1 CALLDATASIZE SUB DUP2 ADD SWAP1 PUSH3 0x2F3 SWAP2 SWAP1 PUSH3 0x2021 JUMP JUMPDEST PUSH3 0xE12 JUMP JUMPDEST PUSH1 0x40 MLOAD PUSH3 0x308 SWAP2 SWAP1 PUSH3 0x27F7 JUMP JUMPDEST PUSH1 0x40 MLOAD DUP1 SWAP2 SUB SWAP1 RETURN JUMPDEST CALLVALUE DUP1 ISZERO PUSH3 0x31E JUMPI PUSH1 0x0 DUP1 REVERT JUMPDEST POP PUSH3 0x33D PUSH1 0x4 DUP1 CALLDATASIZE SUB DUP2 ADD SWAP1 PUSH3 0x337 SWAP2 SWAP1 PUSH3 0x2438 JUMP JUMPDEST PUSH3 0xE45 JUMP JUMPDEST STOP JUMPDEST CALLVALUE DUP1 ISZERO PUSH3 0x34C JUMPI PUSH1 0x0 DUP1 REVERT JUMPDEST POP PUSH3 0x36B PUSH1 0x4 DUP1 CALLDATASIZE SUB DUP2 ADD SWAP1 PUSH3 0x365 SWAP2 SWAP1 PUSH3 0x2438 JUMP JUMPDEST PUSH3 0xF1C JUMP JUMPDEST STOP JUMPDEST CALLVALUE DUP1 ISZERO PUSH3 0x37A JUMPI PUSH1 0x0 DUP1 REVERT JUMPDEST POP PUSH3 0x399 PUSH1 0x4 DUP1 CALLDATASIZE SUB DUP2 ADD SWAP1 PUSH3 0x393 SWAP2 SWAP1 PUSH3 0x2438 JUMP JUMPDEST PUSH3 0x1043 JUMP JUMPDEST PUSH1 0x40 MLOAD PUSH3 0x3A8 SWAP2 SWAP1 PUSH3 0x28A3 JUMP JUMPDEST PUSH1 0x40 MLOAD DUP1 SWAP2 SUB SWAP1 RETURN JUMPDEST CALLVALUE DUP1 ISZERO PUSH3 0x3BE JUMPI PUSH1 0x0 DUP1 REVERT JUMPDEST POP PUSH3 0x3DD PUSH1 0x4 DUP1 CALLDATASIZE SUB DUP2 ADD SWAP1 PUSH3 0x3D7 SWAP2 SWAP1 PUSH3 0x2021 JUMP JUMPDEST PUSH3 0x10F5 JUMP JUMPDEST PUSH1 0x40 MLOAD PUSH3 0x3F3 SWAP9 SWAP8 SWAP7 SWAP6 SWAP5 SWAP4 SWAP3 SWAP2 SWAP1 PUSH3 0x2974 JUMP JUMPDEST PUSH1 0x40 MLOAD DUP1 SWAP2 SUB SWAP1 RETURN JUMPDEST PUSH3 0x41A PUSH1 0x4 DUP1 CALLDATASIZE SUB DUP2 ADD SWAP1 PUSH3 0x414 SWAP2 SWAP1 PUSH3 0x2A09 JUMP JUMPDEST PUSH3 0x14EB JUMP JUMPDEST STOP JUMPDEST CALLVALUE DUP1 ISZERO PUSH3 0x429 JUMPI PUSH1 0x0 DUP1 REVERT JUMPDEST POP PUSH3 0x448 PUSH1 0x4 DUP1 CALLDATASIZE SUB DUP2 ADD SWAP1 PUSH3 0x442 SWAP2 SWAP1 PUSH3 0x2438 JUMP JUMPDEST PUSH3 0x19D1 JUMP JUMPDEST PUSH1 0x40 MLOAD PUSH3 0x457 SWAP2 SWAP1 PUSH3 0x25A3 JUMP JUMPDEST PUSH1 0x40 MLOAD DUP1 SWAP2 SUB SWAP1 RETURN JUMPDEST PUSH3 0x46A PUSH3 0x1EFE JUMP JUMPDEST PUSH1 0x1 PUSH1 0x0 SWAP1 SLOAD SWAP1 PUSH2 0x100 EXP SWAP1 DIV PUSH20 0xFFFFFFFFFFFFFFFFFFFFFFFFFFFFFFFFFFFFFFFF AND PUSH20 0xFFFFFFFFFFFFFFFFFFFFFFFFFFFFFFFFFFFFFFFF AND PUSH4 0x1D65E77E DUP4 PUSH1 0x40 MLOAD DUP3 PUSH4 0xFFFFFFFF AND PUSH1 0xE0 SHL DUP2 MSTORE PUSH1 0x4 ADD PUSH3 0x4C7 SWAP2 SWAP1 PUSH3 0x25A3 JUMP JUMPDEST PUSH1 0x0 PUSH1 0x40 MLOAD DUP1 DUP4 SUB DUP2 DUP7 GAS STATICCALL ISZERO DUP1 ISZERO PUSH3 0x4E5 JUMPI RETURNDATASIZE PUSH1 0x0 DUP1 RETURNDATACOPY RETURNDATASIZE PUSH1 0x0 REVERT JUMPDEST POP POP POP POP PUSH1 0x40 MLOAD RETURNDATASIZE PUSH1 0x0 DUP3 RETURNDATACOPY RETURNDATASIZE PUSH1 0x1F NOT PUSH1 0x1F DUP3 ADD AND DUP3 ADD DUP1 PUSH1 0x40 MSTORE POP DUP2 ADD SWAP1 PUSH3 0x510 SWAP2 SWAP1 PUSH3 0x2C84 JUMP JUMPDEST SWAP1 POP SWAP2 SWAP1 POP JUMP JUMPDEST PUSH1 0x60 PUSH1 0x2 PUSH1 0x0 SWAP1 SLOAD SWAP1 PUSH2 0x100 EXP SWAP1 DIV PUSH20 0xFFFFFFFFFFFFFFFFFFFFFFFFFFFFFFFFFFFFFFFF AND PUSH20 0xFFFFFFFFFFFFFFFFFFFFFFFFFFFFFFFFFFFFFFFF AND PUSH4 0x1E7F931F PUSH1 0x40 MLOAD DUP2 PUSH4 0xFFFFFFFF AND PUSH1 0xE0 SHL DUP2 MSTORE PUSH1 0x4 ADD PUSH1 0x0 PUSH1 0x40 MLOAD DUP1 DUP4 SUB DUP2 DUP7 GAS STATICCALL ISZERO DUP1 ISZERO PUSH3 0x587 JUMPI RETURNDATASIZE PUSH1 0x0 DUP1 RETURNDATACOPY RETURNDATASIZE PUSH1 0x0 REVERT JUMPDEST POP POP POP POP PUSH1 0x40 MLOAD RETURNDATASIZE PUSH1 0x0 DUP3 RETURNDATACOPY RETURNDATASIZE PUSH1 0x1F NOT PUSH1 0x1F DUP3 ADD AND DUP3 ADD DUP1 PUSH1 0x40 MSTORE POP DUP2 ADD SWAP1 PUSH3 0x5B2 SWAP2 SWAP1 PUSH3 0x2DB0 JUMP JUMPDEST SWAP1 POP SWAP1 JUMP JUMPDEST PUSH1 0x60 PUSH1 0x7 PUSH1 0x0 DUP4 PUSH20 0xFFFFFFFFFFFFFFFFFFFFFFFFFFFFFFFFFFFFFFFF AND PUSH20 0xFFFFFFFFFFFFFFFFFFFFFFFFFFFFFFFFFFFFFFFF AND DUP2 MSTORE PUSH1 0x20 ADD SWAP1 DUP2 MSTORE PUSH1 0x20 ADD PUSH1 0x0 KECCAK256 DUP1 SLOAD DUP1 PUSH1 0x20 MUL PUSH1 0x20 ADD PUSH1 0x40 MLOAD SWAP1 DUP2 ADD PUSH1 0x40 MSTORE DUP1 SWAP3 SWAP2 SWAP1 DUP2 DUP2 MSTORE PUSH1 0x20 ADD DUP3 DUP1 SLOAD DUP1 ISZERO PUSH3 0x644 JUMPI PUSH1 0x20 MUL DUP3 ADD SWAP2 SWAP1 PUSH1 0x0 MSTORE PUSH1 0x20 PUSH1 0x0 KECCAK256 SWAP1 JUMPDEST DUP2 SLOAD DUP2 MSTORE PUSH1 0x20 ADD SWAP1 PUSH1 0x1 ADD SWAP1 DUP1 DUP4 GT PUSH3 0x62F JUMPI JUMPDEST POP POP POP POP POP SWAP1 POP SWAP2 SWAP1 POP JUMP JUMPDEST PUSH32 0xCF34EF537AC33EE1AC626CA1587A0A7E8E51561E5514F8CB36AFA1C5102B3BAB PUSH1 0x40 MLOAD PUSH3 0x67F SWAP1 PUSH3 0x2E51 JUMP JUMPDEST PUSH1 0x40 MLOAD DUP1 SWAP2 SUB SWAP1 LOG1 PUSH1 0x2 PUSH1 0x0 SWAP1 SLOAD SWAP1 PUSH2 0x100 EXP SWAP1 DIV PUSH20 0xFFFFFFFFFFFFFFFFFFFFFFFFFFFFFFFFFFFFFFFF AND PUSH20 0xFFFFFFFFFFFFFFFFFFFFFFFFFFFFFFFFFFFFFFFF AND PUSH4 0x6B6096FC DUP4 DUP4 PUSH1 0x40 MLOAD DUP4 PUSH4 0xFFFFFFFF AND PUSH1 0xE0 SHL DUP2 MSTORE PUSH1 0x4 ADD PUSH3 0x6E6 SWAP3 SWAP2 SWAP1 PUSH3 0x2E73 JUMP JUMPDEST PUSH1 0x0 PUSH1 0x40 MLOAD DUP1 DUP4 SUB DUP2 PUSH1 0x0 DUP8 DUP1 EXTCODESIZE ISZERO DUP1 ISZERO PUSH3 0x701 JUMPI PUSH1 0x0 DUP1 REVERT JUMPDEST POP GAS CALL ISZERO DUP1 ISZERO PUSH3 0x716 JUMPI RETURNDATASIZE PUSH1 0x0 DUP1 RETURNDATACOPY RETURNDATASIZE PUSH1 0x0 REVERT JUMPDEST POP POP POP POP PUSH3 0x724 PUSH3 0x19E9 JUMP JUMPDEST PUSH32 0xCF34EF537AC33EE1AC626CA1587A0A7E8E51561E5514F8CB36AFA1C5102B3BAB PUSH1 0x40 MLOAD PUSH3 0x753 SWAP1 PUSH3 0x2EF0 JUMP JUMPDEST PUSH1 0x40 MLOAD DUP1 SWAP2 SUB SWAP1 LOG1 POP POP JUMP JUMPDEST PUSH1 0x7 PUSH1 0x20 MSTORE DUP2 PUSH1 0x0 MSTORE PUSH1 0x40 PUSH1 0x0 KECCAK256 DUP2 DUP2 SLOAD DUP2 LT PUSH3 0x77C JUMPI PUSH1 0x0 DUP1 REVERT JUMPDEST SWAP1 PUSH1 0x0 MSTORE PUSH1 0x20 PUSH1 0x0 KECCAK256 ADD PUSH1 0x0 SWAP2 POP SWAP2 POP POP SLOAD DUP2 JUMP JUMPDEST PUSH1 0x2 PUSH1 0x0 SWAP1 SLOAD SWAP1 PUSH2 0x100 EXP SWAP1 DIV PUSH20 0xFFFFFFFFFFFFFFFFFFFFFFFFFFFFFFFFFFFFFFFF AND PUSH20 0xFFFFFFFFFFFFFFFFFFFFFFFFFFFFFFFFFFFFFFFF AND PUSH4 0x866591F7 DUP4 DUP4 PUSH1 0x40 MLOAD DUP4 PUSH4 0xFFFFFFFF AND PUSH1 0xE0 SHL DUP2 MSTORE PUSH1 0x4 ADD PUSH3 0x7F0 SWAP3 SWAP2 SWAP1 PUSH3 0x2E73 JUMP JUMPDEST PUSH1 0x20 PUSH1 0x40 MLOAD DUP1 DUP4 SUB DUP2 DUP7 GAS STATICCALL ISZERO DUP1 ISZERO PUSH3 0x80E JUMPI RETURNDATASIZE PUSH1 0x0 DUP1 RETURNDATACOPY RETURNDATASIZE PUSH1 0x0 REVERT JUMPDEST POP POP POP POP PUSH1 0x40 MLOAD RETURNDATASIZE PUSH1 0x1F NOT PUSH1 0x1F DUP3 ADD AND DUP3 ADD DUP1 PUSH1 0x40 MSTORE POP DUP2 ADD SWAP1 PUSH3 0x834 SWAP2 SWAP1 PUSH3 0x2F43 JUMP JUMPDEST PUSH3 0x876 JUMPI PUSH1 0x40 MLOAD PUSH32 0x8C379A000000000000000000000000000000000000000000000000000000000 DUP2 MSTORE PUSH1 0x4 ADD PUSH3 0x86D SWAP1 PUSH3 0x2FC5 JUMP JUMPDEST PUSH1 0x40 MLOAD DUP1 SWAP2 SUB SWAP1 REVERT JUMPDEST PUSH1 0x0 PUSH1 0x1 PUSH1 0x0 SWAP1 SLOAD SWAP1 PUSH2 0x100 EXP SWAP1 DIV PUSH20 0xFFFFFFFFFFFFFFFFFFFFFFFFFFFFFFFFFFFFFFFF AND PUSH20 0xFFFFFFFFFFFFFFFFFFFFFFFFFFFFFFFFFFFFFFFF AND PUSH4 0x1D65E77E DUP4 PUSH1 0x40 MLOAD DUP3 PUSH4 0xFFFFFFFF AND PUSH1 0xE0 SHL DUP2 MSTORE PUSH1 0x4 ADD PUSH3 0x8D5 SWAP2 SWAP1 PUSH3 0x25A3 JUMP JUMPDEST PUSH1 0x0 PUSH1 0x40 MLOAD DUP1 DUP4 SUB DUP2 DUP7 GAS STATICCALL ISZERO DUP1 ISZERO PUSH3 0x8F3 JUMPI RETURNDATASIZE PUSH1 0x0 DUP1 RETURNDATACOPY RETURNDATASIZE PUSH1 0x0 REVERT JUMPDEST POP POP POP POP PUSH1 0x40 MLOAD RETURNDATASIZE PUSH1 0x0 DUP3 RETURNDATACOPY RETURNDATASIZE PUSH1 0x1F NOT PUSH1 0x1F DUP3 ADD AND DUP3 ADD DUP1 PUSH1 0x40 MSTORE POP DUP2 ADD SWAP1 PUSH3 0x91E SWAP2 SWAP1 PUSH3 0x2C84 JUMP JUMPDEST SWAP1 POP PUSH1 0x1 PUSH1 0x0 SWAP1 SLOAD SWAP1 PUSH2 0x100 EXP SWAP1 DIV PUSH20 0xFFFFFFFFFFFFFFFFFFFFFFFFFFFFFFFFFFFFFFFF AND PUSH20 0xFFFFFFFFFFFFFFFFFFFFFFFFFFFFFFFFFFFFFFFF AND PUSH4 0xE1E29558 DUP4 PUSH1 0x40 MLOAD DUP3 PUSH4 0xFFFFFFFF AND PUSH1 0xE0 SHL DUP2 MSTORE PUSH1 0x4 ADD PUSH3 0x97D SWAP2 SWAP1 PUSH3 0x25A3 JUMP JUMPDEST PUSH1 0x0 PUSH1 0x40 MLOAD DUP1 DUP4 SUB DUP2 PUSH1 0x0 DUP8 DUP1 EXTCODESIZE ISZERO DUP1 ISZERO PUSH3 0x998 JUMPI PUSH1 0x0 DUP1 REVERT JUMPDEST POP GAS CALL ISZERO DUP1 ISZERO PUSH3 0x9AD JUMPI RETURNDATASIZE PUSH1 0x0 DUP1 RETURNDATACOPY RETURNDATASIZE PUSH1 0x0 REVERT JUMPDEST POP POP POP POP PUSH1 0x0 PUSH1 0x6 PUSH1 0x0 DUP4 PUSH1 0x20 ADD MLOAD DUP2 MSTORE PUSH1 0x20 ADD SWAP1 DUP2 MSTORE PUSH1 0x20 ADD PUSH1 0x0 KECCAK256 PUSH1 0x0 SWAP1 SLOAD SWAP1 PUSH2 0x100 EXP SWAP1 DIV PUSH20 0xFFFFFFFFFFFFFFFFFFFFFFFFFFFFFFFFFFFFFFFF AND SWAP1 POP PUSH1 0x2 PUSH1 0x0 SWAP1 SLOAD SWAP1 PUSH2 0x100 EXP SWAP1 DIV PUSH20 0xFFFFFFFFFFFFFFFFFFFFFFFFFFFFFFFFFFFFFFFF AND PUSH20 0xFFFFFFFFFFFFFFFFFFFFFFFFFFFFFFFFFFFFFFFF AND PUSH4 0x3FC0F48B DUP6 PUSH1 0x40 MLOAD DUP3 PUSH4 0xFFFFFFFF AND PUSH1 0xE0 SHL DUP2 MSTORE PUSH1 0x4 ADD PUSH3 0xA4A SWAP2 SWAP1 PUSH3 0x2FE7 JUMP JUMPDEST PUSH1 0x0 PUSH1 0x40 MLOAD DUP1 DUP4 SUB DUP2 PUSH1 0x0 DUP8 DUP1 EXTCODESIZE ISZERO DUP1 ISZERO PUSH3 0xA65 JUMPI PUSH1 0x0 DUP1 REVERT JUMPDEST POP GAS CALL ISZERO DUP1 ISZERO PUSH3 0xA7A JUMPI RETURNDATASIZE PUSH1 0x0 DUP1 RETURNDATACOPY RETURNDATASIZE PUSH1 0x0 REVERT JUMPDEST POP POP POP POP DUP1 PUSH20 0xFFFFFFFFFFFFFFFFFFFFFFFFFFFFFFFFFFFFFFFF AND PUSH4 0xB8896EB6 PUSH1 0x2 PUSH1 0x40 MLOAD DUP3 PUSH4 0xFFFFFFFF AND PUSH1 0xE0 SHL DUP2 MSTORE PUSH1 0x4 ADD PUSH3 0xABA SWAP2 SWAP1 PUSH3 0x3004 JUMP JUMPDEST PUSH1 0x0 PUSH1 0x40 MLOAD DUP1 DUP4 SUB DUP2 PUSH1 0x0 DUP8 DUP1 EXTCODESIZE ISZERO DUP1 ISZERO PUSH3 0xAD5 JUMPI PUSH1 0x0 DUP1 REVERT JUMPDEST POP GAS CALL ISZERO DUP1 ISZERO PUSH3 0xAEA JUMPI RETURNDATASIZE PUSH1 0x0 DUP1 RETURNDATACOPY RETURNDATASIZE PUSH1 0x0 REVERT JUMPDEST POP POP POP POP PUSH1 0x0 PUSH1 0xA PUSH1 0x9 DUP4 PUSH20 0xFFFFFFFFFFFFFFFFFFFFFFFFFFFFFFFFFFFFFFFF AND PUSH4 0xC35905C6 PUSH1 0x40 MLOAD DUP2 PUSH4 0xFFFFFFFF AND PUSH1 0xE0 SHL DUP2 MSTORE PUSH1 0x4 ADD PUSH1 0x20 PUSH1 0x40 MLOAD DUP1 DUP4 SUB DUP2 DUP7 GAS STATICCALL ISZERO DUP1 ISZERO PUSH3 0xB40 JUMPI RETURNDATASIZE PUSH1 0x0 DUP1 RETURNDATACOPY RETURNDATASIZE PUSH1 0x0 REVERT JUMPDEST POP POP POP POP PUSH1 0x40 MLOAD RETURNDATASIZE PUSH1 0x1F NOT PUSH1 0x1F DUP3 ADD AND DUP3 ADD DUP1 PUSH1 0x40 MSTORE POP DUP2 ADD SWAP1 PUSH3 0xB66 SWAP2 SWAP1 PUSH3 0x3021 JUMP JUMPDEST PUSH3 0xB72 SWAP2 SWAP1 PUSH3 0x3082 JUMP JUMPDEST PUSH3 0xB7E SWAP2 SWAP1 PUSH3 0x30FC JUMP JUMPDEST SWAP1 POP PUSH1 0x0 DUP1 SLOAD SWAP1 PUSH2 0x100 EXP SWAP1 DIV PUSH20 0xFFFFFFFFFFFFFFFFFFFFFFFFFFFFFFFFFFFFFFFF AND PUSH20 0xFFFFFFFFFFFFFFFFFFFFFFFFFFFFFFFFFFFFFFFF AND PUSH4 0xF7FB7EA5 DUP7 DUP4 PUSH1 0x40 MLOAD DUP4 PUSH4 0xFFFFFFFF AND PUSH1 0xE0 SHL DUP2 MSTORE PUSH1 0x4 ADD PUSH3 0xBDD SWAP3 SWAP2 SWAP1 PUSH3 0x2E73 JUMP JUMPDEST PUSH1 0x0 PUSH1 0x40 MLOAD DUP1 DUP4 SUB DUP2 PUSH1 0x0 DUP8 DUP1 EXTCODESIZE ISZERO DUP1 ISZERO PUSH3 0xBF8 JUMPI PUSH1 0x0 DUP1 REVERT JUMPDEST POP GAS CALL ISZERO DUP1 ISZERO PUSH3 0xC0D JUMPI RETURNDATASIZE PUSH1 0x0 DUP1 RETURNDATACOPY RETURNDATASIZE PUSH1 0x0 REVERT JUMPDEST POP POP POP POP PUSH3 0xC1B PUSH3 0x19E9 JUMP JUMPDEST POP POP POP POP POP JUMP JUMPDEST DUP1 SELFBALANCE LT ISZERO PUSH3 0xC68 JUMPI PUSH1 0x40 MLOAD PUSH32 0x8C379A000000000000000000000000000000000000000000000000000000000 DUP2 MSTORE PUSH1 0x4 ADD PUSH3 0xC5F SWAP1 PUSH3 0x3184 JUMP JUMPDEST PUSH1 0x40 MLOAD DUP1 SWAP2 SUB SWAP1 REVERT JUMPDEST DUP2 PUSH20 0xFFFFFFFFFFFFFFFFFFFFFFFFFFFFFFFFFFFFFFFF AND PUSH2 0x8FC DUP3 SWAP1 DUP2 ISZERO MUL SWAP1 PUSH1 0x40 MLOAD PUSH1 0x0 PUSH1 0x40 MLOAD DUP1 DUP4 SUB DUP2 DUP6 DUP9 DUP9 CALL SWAP4 POP POP POP POP ISZERO DUP1 ISZERO PUSH3 0xCAF JUMPI RETURNDATASIZE PUSH1 0x0 DUP1 RETURNDATACOPY RETURNDATASIZE PUSH1 0x0 REVERT JUMPDEST POP POP POP JUMP JUMPDEST PUSH1 0x0 DUP1 PUSH1 0x8 PUSH1 0x0 DUP2 SLOAD DUP1 SWAP3 SWAP2 SWAP1 PUSH3 0xCCC SWAP1 PUSH3 0x31A6 JUMP JUMPDEST SWAP2 SWAP1 POP SSTORE SWAP1 POP PUSH1 0x0 CALLER DUP7 DUP7 DUP7 PUSH1 0x40 MLOAD PUSH3 0xCE6 SWAP1 PUSH3 0x1F91 JUMP JUMPDEST PUSH3 0xCF5 SWAP5 SWAP4 SWAP3 SWAP2 SWAP1 PUSH3 0x31F3 JUMP JUMPDEST PUSH1 0x40 MLOAD DUP1 SWAP2 SUB SWAP1 PUSH1 0x0 CREATE DUP1 ISZERO DUP1 ISZERO PUSH3 0xD12 JUMPI RETURNDATASIZE PUSH1 0x0 DUP1 RETURNDATACOPY RETURNDATASIZE PUSH1 0x0 REVERT JUMPDEST POP SWAP1 POP DUP1 PUSH1 0x6 PUSH1 0x0 DUP5 DUP2 MSTORE PUSH1 0x20 ADD SWAP1 DUP2 MSTORE PUSH1 0x20 ADD PUSH1 0x0 KECCAK256 PUSH1 0x0 PUSH2 0x100 EXP DUP2 SLOAD DUP2 PUSH20 0xFFFFFFFFFFFFFFFFFFFFFFFFFFFFFFFFFFFFFFFF MUL NOT AND SWAP1 DUP4 PUSH20 0xFFFFFFFFFFFFFFFFFFFFFFFFFFFFFFFFFFFFFFFF AND MUL OR SWAP1 SSTORE POP PUSH1 0x7 PUSH1 0x0 CALLER PUSH20 0xFFFFFFFFFFFFFFFFFFFFFFFFFFFFFFFFFFFFFFFF AND PUSH20 0xFFFFFFFFFFFFFFFFFFFFFFFFFFFFFFFFFFFFFFFF AND DUP2 MSTORE PUSH1 0x20 ADD SWAP1 DUP2 MSTORE PUSH1 0x20 ADD PUSH1 0x0 KECCAK256 DUP3 SWAP1 DUP1 PUSH1 0x1 DUP2 SLOAD ADD DUP1 DUP3 SSTORE DUP1 SWAP2 POP POP PUSH1 0x1 SWAP1 SUB SWAP1 PUSH1 0x0 MSTORE PUSH1 0x20 PUSH1 0x0 KECCAK256 ADD PUSH1 0x0 SWAP1 SWAP2 SWAP1 SWAP2 SWAP1 SWAP2 POP SSTORE PUSH32 0x1A72D6383B1FC1B015BEDC584A040A3CBA7B0A5E33B00A43A1693B852BE2382E DUP3 PUSH1 0x40 MLOAD PUSH3 0xDFE SWAP2 SWAP1 PUSH3 0x3297 JUMP JUMPDEST PUSH1 0x40 MLOAD DUP1 SWAP2 SUB SWAP1 LOG1 DUP2 SWAP3 POP POP POP SWAP4 SWAP3 POP POP POP JUMP JUMPDEST PUSH1 0x6 PUSH1 0x20 MSTORE DUP1 PUSH1 0x0 MSTORE PUSH1 0x40 PUSH1 0x0 KECCAK256 PUSH1 0x0 SWAP2 POP SLOAD SWAP1 PUSH2 0x100 EXP SWAP1 DIV PUSH20 0xFFFFFFFFFFFFFFFFFFFFFFFFFFFFFFFFFFFFFFFF AND DUP2 JUMP JUMPDEST PUSH1 0x3 PUSH1 0x0 SWAP1 SLOAD SWAP1 PUSH2 0x100 EXP SWAP1 DIV PUSH20 0xFFFFFFFFFFFFFFFFFFFFFFFFFFFFFFFFFFFFFFFF AND PUSH20 0xFFFFFFFFFFFFFFFFFFFFFFFFFFFFFFFFFFFFFFFF AND CALLER PUSH20 0xFFFFFFFFFFFFFFFFFFFFFFFFFFFFFFFFFFFFFFFF AND EQ PUSH3 0xED8 JUMPI PUSH1 0x40 MLOAD PUSH32 0x8C379A000000000000000000000000000000000000000000000000000000000 DUP2 MSTORE PUSH1 0x4 ADD PUSH3 0xECF SWAP1 PUSH3 0x333F JUMP JUMPDEST PUSH1 0x40 MLOAD DUP1 SWAP2 SUB SWAP1 REVERT JUMPDEST DUP1 PUSH1 0x4 PUSH1 0x0 PUSH2 0x100 EXP DUP2 SLOAD DUP2 PUSH20 0xFFFFFFFFFFFFFFFFFFFFFFFFFFFFFFFFFFFFFFFF MUL NOT AND SWAP1 DUP4 PUSH20 0xFFFFFFFFFFFFFFFFFFFFFFFFFFFFFFFFFFFFFFFF AND MUL OR SWAP1 SSTORE POP POP JUMP JUMPDEST PUSH1 0x3 PUSH1 0x0 SWAP1 SLOAD SWAP1 PUSH2 0x100 EXP SWAP1 DIV PUSH20 0xFFFFFFFFFFFFFFFFFFFFFFFFFFFFFFFFFFFFFFFF AND PUSH20 0xFFFFFFFFFFFFFFFFFFFFFFFFFFFFFFFFFFFFFFFF AND CALLER PUSH20 0xFFFFFFFFFFFFFFFFFFFFFFFFFFFFFFFFFFFFFFFF AND EQ PUSH3 0xFAF JUMPI PUSH1 0x40 MLOAD PUSH32 0x8C379A000000000000000000000000000000000000000000000000000000000 DUP2 MSTORE PUSH1 0x4 ADD PUSH3 0xFA6 SWAP1 PUSH3 0x33D7 JUMP JUMPDEST PUSH1 0x40 MLOAD DUP1 SWAP2 SUB SWAP1 REVERT JUMPDEST PUSH1 0x2 PUSH1 0x0 SWAP1 SLOAD SWAP1 PUSH2 0x100 EXP SWAP1 DIV PUSH20 0xFFFFFFFFFFFFFFFFFFFFFFFFFFFFFFFFFFFFFFFF AND PUSH20 0xFFFFFFFFFFFFFFFFFFFFFFFFFFFFFFFFFFFFFFFF AND PUSH4 0xC4F987A5 DUP3 PUSH1 0x40 MLOAD DUP3 PUSH4 0xFFFFFFFF AND PUSH1 0xE0 SHL DUP2 MSTORE PUSH1 0x4 ADD PUSH3 0x100C SWAP2 SWAP1 PUSH3 0x2FE7 JUMP JUMPDEST PUSH1 0x0 PUSH1 0x40 MLOAD DUP1 DUP4 SUB DUP2 PUSH1 0x0 DUP8 DUP1 EXTCODESIZE ISZERO DUP1 ISZERO PUSH3 0x1027 JUMPI PUSH1 0x0 DUP1 REVERT JUMPDEST POP GAS CALL ISZERO DUP1 ISZERO PUSH3 0x103C JUMPI RETURNDATASIZE PUSH1 0x0 DUP1 RETURNDATACOPY RETURNDATASIZE PUSH1 0x0 REVERT JUMPDEST POP POP POP POP POP JUMP JUMPDEST PUSH3 0x104D PUSH3 0x1F9F JUMP JUMPDEST PUSH1 0x2 PUSH1 0x0 SWAP1 SLOAD SWAP1 PUSH2 0x100 EXP SWAP1 DIV PUSH20 0xFFFFFFFFFFFFFFFFFFFFFFFFFFFFFFFFFFFFFFFF AND PUSH20 0xFFFFFFFFFFFFFFFFFFFFFFFFFFFFFFFFFFFFFFFF AND PUSH4 0x74A44D12 DUP4 PUSH1 0x40 MLOAD DUP3 PUSH4 0xFFFFFFFF AND PUSH1 0xE0 SHL DUP2 MSTORE PUSH1 0x4 ADD PUSH3 0x10AA SWAP2 SWAP1 PUSH3 0x2FE7 JUMP JUMPDEST PUSH1 0xA0 PUSH1 0x40 MLOAD DUP1 DUP4 SUB DUP2 DUP7 GAS STATICCALL ISZERO DUP1 ISZERO PUSH3 0x10C8 JUMPI RETURNDATASIZE PUSH1 0x0 DUP1 RETURNDATACOPY RETURNDATASIZE PUSH1 0x0 REVERT JUMPDEST POP POP POP POP PUSH1 0x40 MLOAD RETURNDATASIZE PUSH1 0x1F NOT PUSH1 0x1F DUP3 ADD AND DUP3 ADD DUP1 PUSH1 0x40 MSTORE POP DUP2 ADD SWAP1 PUSH3 0x10EE SWAP2 SWAP1 PUSH3 0x3494 JUMP JUMPDEST SWAP1 POP SWAP2 SWAP1 POP JUMP JUMPDEST PUSH1 0x0 DUP1 PUSH1 0x0 DUP1 PUSH1 0x0 DUP1 PUSH1 0x0 PUSH1 0x60 PUSH1 0x0 PUSH1 0x6 PUSH1 0x0 DUP12 DUP2 MSTORE PUSH1 0x20 ADD SWAP1 DUP2 MSTORE PUSH1 0x20 ADD PUSH1 0x0 KECCAK256 PUSH1 0x0 SWAP1 SLOAD SWAP1 PUSH2 0x100 EXP SWAP1 DIV PUSH20 0xFFFFFFFFFFFFFFFFFFFFFFFFFFFFFFFFFFFFFFFF AND SWAP1 POP DUP1 PUSH20 0xFFFFFFFFFFFFFFFFFFFFFFFFFFFFFFFFFFFFFFFF AND PUSH4 0x2C898945 PUSH1 0x40 MLOAD DUP2 PUSH4 0xFFFFFFFF AND PUSH1 0xE0 SHL DUP2 MSTORE PUSH1 0x4 ADD PUSH1 0x20 PUSH1 0x40 MLOAD DUP1 DUP4 SUB DUP2 DUP7 GAS STATICCALL ISZERO DUP1 ISZERO PUSH3 0x1186 JUMPI RETURNDATASIZE PUSH1 0x0 DUP1 RETURNDATACOPY RETURNDATASIZE PUSH1 0x0 REVERT JUMPDEST POP POP POP POP PUSH1 0x40 MLOAD RETURNDATASIZE PUSH1 0x1F NOT PUSH1 0x1F DUP3 ADD AND DUP3 ADD DUP1 PUSH1 0x40 MSTORE POP DUP2 ADD SWAP1 PUSH3 0x11AC SWAP2 SWAP1 PUSH3 0x3021 JUMP JUMPDEST SWAP9 POP DUP1 PUSH20 0xFFFFFFFFFFFFFFFFFFFFFFFFFFFFFFFFFFFFFFFF AND PUSH4 0xE7B0B190 PUSH1 0x40 MLOAD DUP2 PUSH4 0xFFFFFFFF AND PUSH1 0xE0 SHL DUP2 MSTORE PUSH1 0x4 ADD PUSH1 0x20 PUSH1 0x40 MLOAD DUP1 DUP4 SUB DUP2 DUP7 GAS STATICCALL ISZERO DUP1 ISZERO PUSH3 0x11FA JUMPI RETURNDATASIZE PUSH1 0x0 DUP1 RETURNDATACOPY RETURNDATASIZE PUSH1 0x0 REVERT JUMPDEST POP POP POP POP PUSH1 0x40 MLOAD RETURNDATASIZE PUSH1 0x1F NOT PUSH1 0x1F DUP3 ADD AND DUP3 ADD DUP1 PUSH1 0x40 MSTORE POP DUP2 ADD SWAP1 PUSH3 0x1220 SWAP2 SWAP1 PUSH3 0x3021 JUMP JUMPDEST SWAP8 POP DUP1 PUSH20 0xFFFFFFFFFFFFFFFFFFFFFFFFFFFFFFFFFFFFFFFF AND PUSH4 0x109E94CF PUSH1 0x40 MLOAD DUP2 PUSH4 0xFFFFFFFF AND PUSH1 0xE0 SHL DUP2 MSTORE PUSH1 0x4 ADD PUSH1 0x20 PUSH1 0x40 MLOAD DUP1 DUP4 SUB DUP2 DUP7 GAS STATICCALL ISZERO DUP1 ISZERO PUSH3 0x126E JUMPI RETURNDATASIZE PUSH1 0x0 DUP1 RETURNDATACOPY RETURNDATASIZE PUSH1 0x0 REVERT JUMPDEST POP POP POP POP PUSH1 0x40 MLOAD RETURNDATASIZE PUSH1 0x1F NOT PUSH1 0x1F DUP3 ADD AND DUP3 ADD DUP1 PUSH1 0x40 MSTORE POP DUP2 ADD SWAP1 PUSH3 0x1294 SWAP2 SWAP1 PUSH3 0x34C6 JUMP JUMPDEST SWAP7 POP DUP1 PUSH20 0xFFFFFFFFFFFFFFFFFFFFFFFFFFFFFFFFFFFFFFFF AND PUSH4 0xC35905C6 PUSH1 0x40 MLOAD DUP2 PUSH4 0xFFFFFFFF AND PUSH1 0xE0 SHL DUP2 MSTORE PUSH1 0x4 ADD PUSH1 0x20 PUSH1 0x40 MLOAD DUP1 DUP4 SUB DUP2 DUP7 GAS STATICCALL ISZERO DUP1 ISZERO PUSH3 0x12E2 JUMPI RETURNDATASIZE PUSH1 0x0 DUP1 RETURNDATACOPY RETURNDATASIZE PUSH1 0x0 REVERT JUMPDEST POP POP POP POP PUSH1 0x40 MLOAD RETURNDATASIZE PUSH1 0x1F NOT PUSH1 0x1F DUP3 ADD AND DUP3 ADD DUP1 PUSH1 0x40 MSTORE POP DUP2 ADD SWAP1 PUSH3 0x1308 SWAP2 SWAP1 PUSH3 0x3021 JUMP JUMPDEST SWAP6 POP DUP1 PUSH20 0xFFFFFFFFFFFFFFFFFFFFFFFFFFFFFFFFFFFFFFFF AND PUSH4 0x2728E28B PUSH1 0x40 MLOAD DUP2 PUSH4 0xFFFFFFFF AND PUSH1 0xE0 SHL DUP2 MSTORE PUSH1 0x4 ADD PUSH1 0x20 PUSH1 0x40 MLOAD DUP1 DUP4 SUB DUP2 DUP7 GAS STATICCALL ISZERO DUP1 ISZERO PUSH3 0x1356 JUMPI RETURNDATASIZE PUSH1 0x0 DUP1 RETURNDATACOPY RETURNDATASIZE PUSH1 0x0 REVERT JUMPDEST POP POP POP POP PUSH1 0x40 MLOAD RETURNDATASIZE PUSH1 0x1F NOT PUSH1 0x1F DUP3 ADD AND DUP3 ADD DUP1 PUSH1 0x40 MSTORE POP DUP2 ADD SWAP1 PUSH3 0x137C SWAP2 SWAP1 PUSH3 0x3520 JUMP JUMPDEST SWAP5 POP DUP1 PUSH20 0xFFFFFFFFFFFFFFFFFFFFFFFFFFFFFFFFFFFFFFFF AND PUSH4 0xBEE80FC5 PUSH1 0x40 MLOAD DUP2 PUSH4 0xFFFFFFFF AND PUSH1 0xE0 SHL DUP2 MSTORE PUSH1 0x4 ADD PUSH1 0x20 PUSH1 0x40 MLOAD DUP1 DUP4 SUB DUP2 DUP7 GAS STATICCALL ISZERO DUP1 ISZERO PUSH3 0x13CA JUMPI RETURNDATASIZE PUSH1 0x0 DUP1 RETURNDATACOPY RETURNDATASIZE PUSH1 0x0 REVERT JUMPDEST POP POP POP POP PUSH1 0x40 MLOAD RETURNDATASIZE PUSH1 0x1F NOT PUSH1 0x1F DUP3 ADD AND DUP3 ADD DUP1 PUSH1 0x40 MSTORE POP DUP2 ADD SWAP1 PUSH3 0x13F0 SWAP2 SWAP1 PUSH3 0x3021 JUMP JUMPDEST SWAP4 POP DUP1 PUSH20 0xFFFFFFFFFFFFFFFFFFFFFFFFFFFFFFFFFFFFFFFF AND PUSH4 0x523B0B36 PUSH1 0x40 MLOAD DUP2 PUSH4 0xFFFFFFFF AND PUSH1 0xE0 SHL DUP2 MSTORE PUSH1 0x4 ADD PUSH1 0x20 PUSH1 0x40 MLOAD DUP1 DUP4 SUB DUP2 DUP7 GAS STATICCALL ISZERO DUP1 ISZERO PUSH3 0x143E JUMPI RETURNDATASIZE PUSH1 0x0 DUP1 RETURNDATACOPY RETURNDATASIZE PUSH1 0x0 REVERT JUMPDEST POP POP POP POP PUSH1 0x40 MLOAD RETURNDATASIZE PUSH1 0x1F NOT PUSH1 0x1F DUP3 ADD AND DUP3 ADD DUP1 PUSH1 0x40 MSTORE POP DUP2 ADD SWAP1 PUSH3 0x1464 SWAP2 SWAP1 PUSH3 0x3021 JUMP JUMPDEST SWAP3 POP DUP1 PUSH20 0xFFFFFFFFFFFFFFFFFFFFFFFFFFFFFFFFFFFFFFFF AND PUSH4 0x58E9D3D5 PUSH1 0x40 MLOAD DUP2 PUSH4 0xFFFFFFFF AND PUSH1 0xE0 SHL DUP2 MSTORE PUSH1 0x4 ADD PUSH1 0x0 PUSH1 0x40 MLOAD DUP1 DUP4 SUB DUP2 DUP7 GAS STATICCALL ISZERO DUP1 ISZERO PUSH3 0x14B2 JUMPI RETURNDATASIZE PUSH1 0x0 DUP1 RETURNDATACOPY RETURNDATASIZE PUSH1 0x0 REVERT JUMPDEST POP POP POP POP PUSH1 0x40 MLOAD RETURNDATASIZE PUSH1 0x0 DUP3 RETURNDATACOPY RETURNDATASIZE PUSH1 0x1F NOT PUSH1 0x1F DUP3 ADD AND DUP3 ADD DUP1 PUSH1 0x40 MSTORE POP DUP2 ADD SWAP1 PUSH3 0x14DD SWAP2 SWAP1 PUSH3 0x3552 JUMP JUMPDEST SWAP2 POP POP SWAP2 SWAP4 SWAP6 SWAP8 POP SWAP2 SWAP4 SWAP6 SWAP8 JUMP JUMPDEST PUSH1 0x0 PUSH1 0x6 PUSH1 0x0 DUP5 DUP2 MSTORE PUSH1 0x20 ADD SWAP1 DUP2 MSTORE PUSH1 0x20 ADD PUSH1 0x0 KECCAK256 PUSH1 0x0 SWAP1 SLOAD SWAP1 PUSH2 0x100 EXP SWAP1 DIV PUSH20 0xFFFFFFFFFFFFFFFFFFFFFFFFFFFFFFFFFFFFFFFF AND SWAP1 POP DUP1 PUSH20 0xFFFFFFFFFFFFFFFFFFFFFFFFFFFFFFFFFFFFFFFF AND PUSH4 0x109E94CF PUSH1 0x40 MLOAD DUP2 PUSH4 0xFFFFFFFF AND PUSH1 0xE0 SHL DUP2 MSTORE PUSH1 0x4 ADD PUSH1 0x20 PUSH1 0x40 MLOAD DUP1 DUP4 SUB DUP2 DUP7 GAS STATICCALL ISZERO DUP1 ISZERO PUSH3 0x156F JUMPI RETURNDATASIZE PUSH1 0x0 DUP1 RETURNDATACOPY RETURNDATASIZE PUSH1 0x0 REVERT JUMPDEST POP POP POP POP PUSH1 0x40 MLOAD RETURNDATASIZE PUSH1 0x1F NOT PUSH1 0x1F DUP3 ADD AND DUP3 ADD DUP1 PUSH1 0x40 MSTORE POP DUP2 ADD SWAP1 PUSH3 0x1595 SWAP2 SWAP1 PUSH3 0x34C6 JUMP JUMPDEST PUSH20 0xFFFFFFFFFFFFFFFFFFFFFFFFFFFFFFFFFFFFFFFF AND CALLER PUSH20 0xFFFFFFFFFFFFFFFFFFFFFFFFFFFFFFFFFFFFFFFF AND EQ PUSH3 0x1605 JUMPI PUSH1 0x40 MLOAD PUSH32 0x8C379A000000000000000000000000000000000000000000000000000000000 DUP2 MSTORE PUSH1 0x4 ADD PUSH3 0x15FC SWAP1 PUSH3 0x3619 JUMP JUMPDEST PUSH1 0x40 MLOAD DUP1 SWAP2 SUB SWAP1 REVERT JUMPDEST DUP2 CALLVALUE LT ISZERO PUSH3 0x164B JUMPI PUSH1 0x40 MLOAD PUSH32 0x8C379A000000000000000000000000000000000000000000000000000000000 DUP2 MSTORE PUSH1 0x4 ADD PUSH3 0x1642 SWAP1 PUSH3 0x368B JUMP JUMPDEST PUSH1 0x40 MLOAD DUP1 SWAP2 SUB SWAP1 REVERT JUMPDEST PUSH1 0x0 DUP1 SLOAD SWAP1 PUSH2 0x100 EXP SWAP1 DIV PUSH20 0xFFFFFFFFFFFFFFFFFFFFFFFFFFFFFFFFFFFFFFFF AND PUSH20 0xFFFFFFFFFFFFFFFFFFFFFFFFFFFFFFFFFFFFFFFF AND PUSH4 0xF340FA01 CALLVALUE CALLER PUSH1 0x40 MLOAD DUP4 PUSH4 0xFFFFFFFF AND PUSH1 0xE0 SHL DUP2 MSTORE PUSH1 0x4 ADD PUSH3 0x16A7 SWAP2 SWAP1 PUSH3 0x2FE7 JUMP JUMPDEST PUSH1 0x0 PUSH1 0x40 MLOAD DUP1 DUP4 SUB DUP2 DUP6 DUP9 DUP1 EXTCODESIZE ISZERO DUP1 ISZERO PUSH3 0x16C1 JUMPI PUSH1 0x0 DUP1 REVERT JUMPDEST POP GAS CALL ISZERO DUP1 ISZERO PUSH3 0x16D6 JUMPI RETURNDATASIZE PUSH1 0x0 DUP1 RETURNDATACOPY RETURNDATASIZE PUSH1 0x0 REVERT JUMPDEST POP POP POP POP POP PUSH1 0x0 PUSH1 0x1 PUSH1 0x0 SWAP1 SLOAD SWAP1 PUSH2 0x100 EXP SWAP1 DIV PUSH20 0xFFFFFFFFFFFFFFFFFFFFFFFFFFFFFFFFFFFFFFFF AND PUSH20 0xFFFFFFFFFFFFFFFFFFFFFFFFFFFFFFFFFFFFFFFF AND PUSH4 0xD2F1D448 PUSH1 0x0 DUP7 DUP6 PUSH20 0xFFFFFFFFFFFFFFFFFFFFFFFFFFFFFFFFFFFFFFFF AND PUSH4 0x58E9D3D5 PUSH1 0x40 MLOAD DUP2 PUSH4 0xFFFFFFFF AND PUSH1 0xE0 SHL DUP2 MSTORE PUSH1 0x4 ADD PUSH1 0x0 PUSH1 0x40 MLOAD DUP1 DUP4 SUB DUP2 DUP7 GAS STATICCALL ISZERO DUP1 ISZERO PUSH3 0x176A JUMPI RETURNDATASIZE PUSH1 0x0 DUP1 RETURNDATACOPY RETURNDATASIZE PUSH1 0x0 REVERT JUMPDEST POP POP POP POP PUSH1 0x40 MLOAD RETURNDATASIZE PUSH1 0x0 DUP3 RETURNDATACOPY RETURNDATASIZE PUSH1 0x1F NOT PUSH1 0x1F DUP3 ADD AND DUP3 ADD DUP1 PUSH1 0x40 MSTORE POP DUP2 ADD SWAP1 PUSH3 0x1795 SWAP2 SWAP1 PUSH3 0x3552 JUMP JUMPDEST DUP7 PUSH20 0xFFFFFFFFFFFFFFFFFFFFFFFFFFFFFFFFFFFFFFFF AND PUSH4 0x523B0B36 PUSH1 0x40 MLOAD DUP2 PUSH4 0xFFFFFFFF AND PUSH1 0xE0 SHL DUP2 MSTORE PUSH1 0x4 ADD PUSH1 0x20 PUSH1 0x40 MLOAD DUP1 DUP4 SUB DUP2 DUP7 GAS STATICCALL ISZERO DUP1 ISZERO PUSH3 0x17E1 JUMPI RETURNDATASIZE PUSH1 0x0 DUP1 RETURNDATACOPY RETURNDATASIZE PUSH1 0x0 REVERT JUMPDEST POP POP POP POP PUSH1 0x40 MLOAD RETURNDATASIZE PUSH1 0x1F NOT PUSH1 0x1F DUP3 ADD AND DUP3 ADD DUP1 PUSH1 0x40 MSTORE POP DUP2 ADD SWAP1 PUSH3 0x1807 SWAP2 SWAP1 PUSH3 0x3021 JUMP JUMPDEST DUP8 PUSH20 0xFFFFFFFFFFFFFFFFFFFFFFFFFFFFFFFFFFFFFFFF AND PUSH4 0xBEE80FC5 PUSH1 0x40 MLOAD DUP2 PUSH4 0xFFFFFFFF AND PUSH1 0xE0 SHL DUP2 MSTORE PUSH1 0x4 ADD PUSH1 0x20 PUSH1 0x40 MLOAD DUP1 DUP4 SUB DUP2 DUP7 GAS STATICCALL ISZERO DUP1 ISZERO PUSH3 0x1853 JUMPI RETURNDATASIZE PUSH1 0x0 DUP1 RETURNDATACOPY RETURNDATASIZE PUSH1 0x0 REVERT JUMPDEST POP POP POP POP PUSH1 0x40 MLOAD RETURNDATASIZE PUSH1 0x1F NOT PUSH1 0x1F DUP3 ADD AND DUP3 ADD DUP1 PUSH1 0x40 MSTORE POP DUP2 ADD SWAP1 PUSH3 0x1879 SWAP2 SWAP1 PUSH3 0x3021 JUMP JUMPDEST PUSH1 0x40 MLOAD DUP7 PUSH4 0xFFFFFFFF AND PUSH1 0xE0 SHL DUP2 MSTORE PUSH1 0x4 ADD PUSH3 0x189B SWAP6 SWAP5 SWAP4 SWAP3 SWAP2 SWAP1 PUSH3 0x36BE JUMP JUMPDEST PUSH1 0x20 PUSH1 0x40 MLOAD DUP1 DUP4 SUB DUP2 PUSH1 0x0 DUP8 GAS CALL ISZERO DUP1 ISZERO PUSH3 0x18BB JUMPI RETURNDATASIZE PUSH1 0x0 DUP1 RETURNDATACOPY RETURNDATASIZE PUSH1 0x0 REVERT JUMPDEST POP POP POP POP PUSH1 0x40 MLOAD RETURNDATASIZE PUSH1 0x1F NOT PUSH1 0x1F DUP3 ADD AND DUP3 ADD DUP1 PUSH1 0x40 MSTORE POP DUP2 ADD SWAP1 PUSH3 0x18E1 SWAP2 SWAP1 PUSH3 0x3021 JUMP JUMPDEST SWAP1 POP DUP2 PUSH20 0xFFFFFFFFFFFFFFFFFFFFFFFFFFFFFFFFFFFFFFFF AND PUSH4 0x90EF73E2 DUP3 PUSH1 0x40 MLOAD DUP3 PUSH4 0xFFFFFFFF AND PUSH1 0xE0 SHL DUP2 MSTORE PUSH1 0x4 ADD PUSH3 0x191E SWAP2 SWAP1 PUSH3 0x25A3 JUMP JUMPDEST PUSH1 0x0 PUSH1 0x40 MLOAD DUP1 DUP4 SUB DUP2 PUSH1 0x0 DUP8 DUP1 EXTCODESIZE ISZERO DUP1 ISZERO PUSH3 0x1939 JUMPI PUSH1 0x0 DUP1 REVERT JUMPDEST POP GAS CALL ISZERO DUP1 ISZERO PUSH3 0x194E JUMPI RETURNDATASIZE PUSH1 0x0 DUP1 RETURNDATACOPY RETURNDATASIZE PUSH1 0x0 REVERT JUMPDEST POP POP POP POP DUP2 PUSH20 0xFFFFFFFFFFFFFFFFFFFFFFFFFFFFFFFFFFFFFFFF AND PUSH4 0xBA0179B5 DUP5 PUSH1 0x40 MLOAD DUP3 PUSH4 0xFFFFFFFF AND PUSH1 0xE0 SHL DUP2 MSTORE PUSH1 0x4 ADD PUSH3 0x198D SWAP2 SWAP1 PUSH3 0x25A3 JUMP JUMPDEST PUSH1 0x0 PUSH1 0x40 MLOAD DUP1 DUP4 SUB DUP2 PUSH1 0x0 DUP8 DUP1 EXTCODESIZE ISZERO DUP1 ISZERO PUSH3 0x19A8 JUMPI PUSH1 0x0 DUP1 REVERT JUMPDEST POP GAS CALL ISZERO DUP1 ISZERO PUSH3 0x19BD JUMPI RETURNDATASIZE PUSH1 0x0 DUP1 RETURNDATACOPY RETURNDATASIZE PUSH1 0x0 REVERT JUMPDEST POP POP POP POP PUSH3 0x19CB PUSH3 0x19E9 JUMP JUMPDEST POP POP POP POP JUMP JUMPDEST PUSH1 0x5 PUSH1 0x20 MSTORE DUP1 PUSH1 0x0 MSTORE PUSH1 0x40 PUSH1 0x0 KECCAK256 PUSH1 0x0 SWAP2 POP SWAP1 POP SLOAD DUP2 JUMP JUMPDEST PUSH32 0xCF34EF537AC33EE1AC626CA1587A0A7E8E51561E5514F8CB36AFA1C5102B3BAB PUSH1 0x40 MLOAD PUSH3 0x1A18 SWAP1 PUSH3 0x3772 JUMP JUMPDEST PUSH1 0x40 MLOAD DUP1 SWAP2 SUB SWAP1 LOG1 PUSH32 0xC33356BC2BAD2CE263B056DA5D061D4E89C336823D5E77F14C1383AEDB7A1B3A PUSH1 0x1 PUSH1 0x0 SWAP1 SLOAD SWAP1 PUSH2 0x100 EXP SWAP1 DIV PUSH20 0xFFFFFFFFFFFFFFFFFFFFFFFFFFFFFFFFFFFFFFFF AND PUSH20 0xFFFFFFFFFFFFFFFFFFFFFFFFFFFFFFFFFFFFFFFF AND PUSH4 0xF650E0CF PUSH1 0x40 MLOAD DUP2 PUSH4 0xFFFFFFFF AND PUSH1 0xE0 SHL DUP2 MSTORE PUSH1 0x4 ADD PUSH1 0x20 PUSH1 0x40 MLOAD DUP1 DUP4 SUB DUP2 DUP7 GAS STATICCALL ISZERO DUP1 ISZERO PUSH3 0x1AAF JUMPI RETURNDATASIZE PUSH1 0x0 DUP1 RETURNDATACOPY RETURNDATASIZE PUSH1 0x0 REVERT JUMPDEST POP POP POP POP PUSH1 0x40 MLOAD RETURNDATASIZE PUSH1 0x1F NOT PUSH1 0x1F DUP3 ADD AND DUP3 ADD DUP1 PUSH1 0x40 MSTORE POP DUP2 ADD SWAP1 PUSH3 0x1AD5 SWAP2 SWAP1 PUSH3 0x2F43 JUMP JUMPDEST PUSH1 0x40 MLOAD PUSH3 0x1AE4 SWAP2 SWAP1 PUSH3 0x37A5 JUMP JUMPDEST PUSH1 0x40 MLOAD DUP1 SWAP2 SUB SWAP1 LOG1 PUSH1 0x1 PUSH1 0x0 SWAP1 SLOAD SWAP1 PUSH2 0x100 EXP SWAP1 DIV PUSH20 0xFFFFFFFFFFFFFFFFFFFFFFFFFFFFFFFFFFFFFFFF AND PUSH20 0xFFFFFFFFFFFFFFFFFFFFFFFFFFFFFFFFFFFFFFFF AND PUSH4 0xF650E0CF PUSH1 0x40 MLOAD DUP2 PUSH4 0xFFFFFFFF AND PUSH1 0xE0 SHL DUP2 MSTORE PUSH1 0x4 ADD PUSH1 0x20 PUSH1 0x40 MLOAD DUP1 DUP4 SUB DUP2 DUP7 GAS STATICCALL ISZERO DUP1 ISZERO PUSH3 0x1B5A JUMPI RETURNDATASIZE PUSH1 0x0 DUP1 RETURNDATACOPY RETURNDATASIZE PUSH1 0x0 REVERT JUMPDEST POP POP POP POP PUSH1 0x40 MLOAD RETURNDATASIZE PUSH1 0x1F NOT PUSH1 0x1F DUP3 ADD AND DUP3 ADD DUP1 PUSH1 0x40 MSTORE POP DUP2 ADD SWAP1 PUSH3 0x1B80 SWAP2 SWAP1 PUSH3 0x2F43 JUMP JUMPDEST ISZERO PUSH3 0x1EC5 JUMPI PUSH1 0x0 PUSH1 0x1 PUSH1 0x0 SWAP1 SLOAD SWAP1 PUSH2 0x100 EXP SWAP1 DIV PUSH20 0xFFFFFFFFFFFFFFFFFFFFFFFFFFFFFFFFFFFFFFFF AND PUSH20 0xFFFFFFFFFFFFFFFFFFFFFFFFFFFFFFFFFFFFFFFF AND PUSH4 0x98C43620 PUSH1 0x40 MLOAD DUP2 PUSH4 0xFFFFFFFF AND PUSH1 0xE0 SHL DUP2 MSTORE PUSH1 0x4 ADD PUSH1 0x0 PUSH1 0x40 MLOAD DUP1 DUP4 SUB DUP2 DUP7 GAS STATICCALL ISZERO DUP1 ISZERO PUSH3 0x1BF6 JUMPI RETURNDATASIZE PUSH1 0x0 DUP1 RETURNDATACOPY RETURNDATASIZE PUSH1 0x0 REVERT JUMPDEST POP POP POP POP PUSH1 0x40 MLOAD RETURNDATASIZE PUSH1 0x0 DUP3 RETURNDATACOPY RETURNDATASIZE PUSH1 0x1F NOT PUSH1 0x1F DUP3 ADD AND DUP3 ADD DUP1 PUSH1 0x40 MSTORE POP DUP2 ADD SWAP1 PUSH3 0x1C21 SWAP2 SWAP1 PUSH3 0x2C84 JUMP JUMPDEST SWAP1 POP PUSH1 0x0 PUSH1 0x2 PUSH1 0x0 SWAP1 SLOAD SWAP1 PUSH2 0x100 EXP SWAP1 DIV PUSH20 0xFFFFFFFFFFFFFFFFFFFFFFFFFFFFFFFFFFFFFFFF AND PUSH20 0xFFFFFFFFFFFFFFFFFFFFFFFFFFFFFFFFFFFFFFFF AND PUSH4 0x8B09BFFD DUP4 PUSH1 0xA0 ADD MLOAD DUP5 PUSH1 0x0 ADD MLOAD DUP6 PUSH2 0x100 ADD MLOAD DUP7 PUSH2 0x120 ADD MLOAD PUSH1 0x40 MLOAD DUP6 PUSH4 0xFFFFFFFF AND PUSH1 0xE0 SHL DUP2 MSTORE PUSH1 0x4 ADD PUSH3 0x1C9A SWAP5 SWAP4 SWAP3 SWAP2 SWAP1 PUSH3 0x37C2 JUMP JUMPDEST PUSH1 0x20 PUSH1 0x40 MLOAD DUP1 DUP4 SUB DUP2 PUSH1 0x0 DUP8 GAS CALL ISZERO DUP1 ISZERO PUSH3 0x1CBA JUMPI RETURNDATASIZE PUSH1 0x0 DUP1 RETURNDATACOPY RETURNDATASIZE PUSH1 0x0 REVERT JUMPDEST POP POP POP POP PUSH1 0x40 MLOAD RETURNDATASIZE PUSH1 0x1F NOT PUSH1 0x1F DUP3 ADD AND DUP3 ADD DUP1 PUSH1 0x40 MSTORE POP DUP2 ADD SWAP1 PUSH3 0x1CE0 SWAP2 SWAP1 PUSH3 0x3021 JUMP JUMPDEST SWAP1 POP PUSH1 0x2 PUSH1 0x0 SWAP1 SLOAD SWAP1 PUSH2 0x100 EXP SWAP1 DIV PUSH20 0xFFFFFFFFFFFFFFFFFFFFFFFFFFFFFFFFFFFFFFFF AND PUSH20 0xFFFFFFFFFFFFFFFFFFFFFFFFFFFFFFFFFFFFFFFF AND PUSH4 0x6E5720A2 PUSH1 0x40 MLOAD DUP2 PUSH4 0xFFFFFFFF AND PUSH1 0xE0 SHL DUP2 MSTORE PUSH1 0x4 ADD PUSH1 0x20 PUSH1 0x40 MLOAD DUP1 DUP4 SUB DUP2 DUP7 GAS STATICCALL ISZERO DUP1 ISZERO PUSH3 0x1D50 JUMPI RETURNDATASIZE PUSH1 0x0 DUP1 RETURNDATACOPY RETURNDATASIZE PUSH1 0x0 REVERT JUMPDEST POP POP POP POP PUSH1 0x40 MLOAD RETURNDATASIZE PUSH1 0x1F NOT PUSH1 0x1F DUP3 ADD AND DUP3 ADD DUP1 PUSH1 0x40 MSTORE POP DUP2 ADD SWAP1 PUSH3 0x1D76 SWAP2 SWAP1 PUSH3 0x3021 JUMP JUMPDEST DUP2 EQ PUSH3 0x1EC2 JUMPI PUSH1 0x1 PUSH1 0x0 SWAP1 SLOAD SWAP1 PUSH2 0x100 EXP SWAP1 DIV PUSH20 0xFFFFFFFFFFFFFFFFFFFFFFFFFFFFFFFFFFFFFFFF AND PUSH20 0xFFFFFFFFFFFFFFFFFFFFFFFFFFFFFFFFFFFFFFFF AND PUSH4 0x1612C40 DUP4 PUSH1 0x0 ADD MLOAD DUP4 PUSH1 0x40 MLOAD DUP4 PUSH4 0xFFFFFFFF AND PUSH1 0xE0 SHL DUP2 MSTORE PUSH1 0x4 ADD PUSH3 0x1DE0 SWAP3 SWAP2 SWAP1 PUSH3 0x380F JUMP JUMPDEST PUSH1 0x0 PUSH1 0x40 MLOAD DUP1 DUP4 SUB DUP2 PUSH1 0x0 DUP8 DUP1 EXTCODESIZE ISZERO DUP1 ISZERO PUSH3 0x1DFB JUMPI PUSH1 0x0 DUP1 REVERT JUMPDEST POP GAS CALL ISZERO DUP1 ISZERO PUSH3 0x1E10 JUMPI RETURNDATASIZE PUSH1 0x0 DUP1 RETURNDATACOPY RETURNDATASIZE PUSH1 0x0 REVERT JUMPDEST POP POP POP POP PUSH1 0x0 PUSH1 0x6 PUSH1 0x0 DUP5 PUSH1 0x20 ADD MLOAD DUP2 MSTORE PUSH1 0x20 ADD SWAP1 DUP2 MSTORE PUSH1 0x20 ADD PUSH1 0x0 KECCAK256 PUSH1 0x0 SWAP1 SLOAD SWAP1 PUSH2 0x100 EXP SWAP1 DIV PUSH20 0xFFFFFFFFFFFFFFFFFFFFFFFFFFFFFFFFFFFFFFFF AND SWAP1 POP DUP1 PUSH20 0xFFFFFFFFFFFFFFFFFFFFFFFFFFFFFFFFFFFFFFFF AND PUSH4 0xB8896EB6 PUSH1 0x2 PUSH1 0x40 MLOAD DUP3 PUSH4 0xFFFFFFFF AND PUSH1 0xE0 SHL DUP2 MSTORE PUSH1 0x4 ADD PUSH3 0x1E8C SWAP2 SWAP1 PUSH3 0x3004 JUMP JUMPDEST PUSH1 0x0 PUSH1 0x40 MLOAD DUP1 DUP4 SUB DUP2 PUSH1 0x0 DUP8 DUP1 EXTCODESIZE ISZERO DUP1 ISZERO PUSH3 0x1EA7 JUMPI PUSH1 0x0 DUP1 REVERT JUMPDEST POP GAS CALL ISZERO DUP1 ISZERO PUSH3 0x1EBC JUMPI RETURNDATASIZE PUSH1 0x0 DUP1 RETURNDATACOPY RETURNDATASIZE PUSH1 0x0 REVERT JUMPDEST POP POP POP POP POP JUMPDEST POP POP JUMPDEST PUSH32 0xCF34EF537AC33EE1AC626CA1587A0A7E8E51561E5514F8CB36AFA1C5102B3BAB PUSH1 0x40 MLOAD PUSH3 0x1EF4 SWAP1 PUSH3 0x388C JUMP JUMPDEST PUSH1 0x40 MLOAD DUP1 SWAP2 SUB SWAP1 LOG1 JUMP JUMPDEST PUSH1 0x40 MLOAD DUP1 PUSH2 0x140 ADD PUSH1 0x40 MSTORE DUP1 PUSH1 0x0 DUP2 MSTORE PUSH1 0x20 ADD PUSH1 0x0 DUP2 MSTORE PUSH1 0x20 ADD PUSH1 0x0 PUSH1 0x1 DUP2 GT ISZERO PUSH3 0x1F2F JUMPI PUSH3 0x1F2E PUSH3 0x2064 JUMP JUMPDEST JUMPDEST DUP2 MSTORE PUSH1 0x20 ADD PUSH1 0x0 PUSH1 0x2 DUP2 GT ISZERO PUSH3 0x1F4B JUMPI PUSH3 0x1F4A PUSH3 0x2064 JUMP JUMPDEST JUMPDEST DUP2 MSTORE PUSH1 0x20 ADD PUSH1 0x60 DUP2 MSTORE PUSH1 0x20 ADD PUSH1 0x0 DUP2 MSTORE PUSH1 0x20 ADD PUSH1 0x0 PUSH20 0xFFFFFFFFFFFFFFFFFFFFFFFFFFFFFFFFFFFFFFFF AND DUP2 MSTORE PUSH1 0x20 ADD PUSH1 0x0 DUP2 MSTORE PUSH1 0x20 ADD PUSH1 0x0 DUP2 MSTORE PUSH1 0x20 ADD PUSH1 0x0 DUP2 MSTORE POP SWAP1 JUMP JUMPDEST PUSH2 0xE82 DUP1 PUSH3 0x38AF DUP4 CODECOPY ADD SWAP1 JUMP JUMPDEST PUSH1 0x40 MLOAD DUP1 PUSH1 0xA0 ADD PUSH1 0x40 MSTORE DUP1 PUSH1 0x0 DUP2 MSTORE PUSH1 0x20 ADD PUSH1 0x0 DUP2 MSTORE PUSH1 0x20 ADD PUSH1 0x0 ISZERO ISZERO DUP2 MSTORE PUSH1 0x20 ADD PUSH1 0x0 ISZERO ISZERO DUP2 MSTORE PUSH1 0x20 ADD PUSH1 0x0 DUP2 MSTORE POP SWAP1 JUMP JUMPDEST PUSH1 0x0 PUSH1 0x40 MLOAD SWAP1 POP SWAP1 JUMP JUMPDEST PUSH1 0x0 DUP1 REVERT JUMPDEST PUSH1 0x0 DUP1 REVERT JUMPDEST PUSH1 0x0 DUP2 SWAP1 POP SWAP2 SWAP1 POP JUMP JUMPDEST PUSH3 0x1FFB DUP2 PUSH3 0x1FE6 JUMP JUMPDEST DUP2 EQ PUSH3 0x2007 JUMPI PUSH1 0x0 DUP1 REVERT JUMPDEST POP JUMP JUMPDEST PUSH1 0x0 DUP2 CALLDATALOAD SWAP1 POP PUSH3 0x201B DUP2 PUSH3 0x1FF0 JUMP JUMPDEST SWAP3 SWAP2 POP POP JUMP JUMPDEST PUSH1 0x0 PUSH1 0x20 DUP3 DUP5 SUB SLT ISZERO PUSH3 0x203A JUMPI PUSH3 0x2039 PUSH3 0x1FDC JUMP JUMPDEST JUMPDEST PUSH1 0x0 PUSH3 0x204A DUP5 DUP3 DUP6 ADD PUSH3 0x200A JUMP JUMPDEST SWAP2 POP POP SWAP3 SWAP2 POP POP JUMP JUMPDEST PUSH3 0x205E DUP2 PUSH3 0x1FE6 JUMP JUMPDEST DUP3 MSTORE POP POP JUMP JUMPDEST PUSH32 0x4E487B7100000000000000000000000000000000000000000000000000000000 PUSH1 0x0 MSTORE PUSH1 0x21 PUSH1 0x4 MSTORE PUSH1 0x24 PUSH1 0x0 REVERT JUMPDEST PUSH1 0x2 DUP2 LT PUSH3 0x20A7 JUMPI PUSH3 0x20A6 PUSH3 0x2064 JUMP JUMPDEST JUMPDEST POP JUMP JUMPDEST PUSH1 0x0 DUP2 SWAP1 POP PUSH3 0x20BA DUP3 PUSH3 0x2093 JUMP JUMPDEST SWAP2 SWAP1 POP JUMP JUMPDEST PUSH1 0x0 PUSH3 0x20CC DUP3 PUSH3 0x20AA JUMP JUMPDEST SWAP1 POP SWAP2 SWAP1 POP JUMP JUMPDEST PUSH3 0x20DE DUP2 PUSH3 0x20BF JUMP JUMPDEST DUP3 MSTORE POP POP JUMP JUMPDEST PUSH1 0x3 DUP2 LT PUSH3 0x20F8 JUMPI PUSH3 0x20F7 PUSH3 0x2064 JUMP JUMPDEST JUMPDEST POP JUMP JUMPDEST PUSH1 0x0 DUP2 SWAP1 POP PUSH3 0x210B DUP3 PUSH3 0x20E4 JUMP JUMPDEST SWAP2 SWAP1 POP JUMP JUMPDEST PUSH1 0x0 PUSH3 0x211D DUP3 PUSH3 0x20FB JUMP JUMPDEST SWAP1 POP SWAP2 SWAP1 POP JUMP JUMPDEST PUSH3 0x212F DUP2 PUSH3 0x2110 JUMP JUMPDEST DUP3 MSTORE POP POP JUMP JUMPDEST PUSH1 0x0 DUP2 MLOAD SWAP1 POP SWAP2 SWAP1 POP JUMP JUMPDEST PUSH1 0x0 DUP3 DUP3 MSTORE PUSH1 0x20 DUP3 ADD SWAP1 POP SWAP3 SWAP2 POP POP JUMP JUMPDEST PUSH1 0x0 JUMPDEST DUP4 DUP2 LT ISZERO PUSH3 0x2171 JUMPI DUP1 DUP3 ADD MLOAD DUP2 DUP5 ADD MSTORE PUSH1 0x20 DUP2 ADD SWAP1 POP PUSH3 0x2154 JUMP JUMPDEST PUSH1 0x0 DUP5 DUP5 ADD MSTORE POP POP POP POP JUMP JUMPDEST PUSH1 0x0 PUSH1 0x1F NOT PUSH1 0x1F DUP4 ADD AND SWAP1 POP SWAP2 SWAP1 POP JUMP JUMPDEST PUSH1 0x0 PUSH3 0x219B DUP3 PUSH3 0x2135 JUMP JUMPDEST PUSH3 0x21A7 DUP2 DUP6 PUSH3 0x2140 JUMP JUMPDEST SWAP4 POP PUSH3 0x21B9 DUP2 DUP6 PUSH1 0x20 DUP7 ADD PUSH3 0x2151 JUMP JUMPDEST PUSH3 0x21C4 DUP2 PUSH3 0x217D JUMP JUMPDEST DUP5 ADD SWAP2 POP POP SWAP3 SWAP2 POP POP JUMP JUMPDEST PUSH1 0x0 PUSH20 0xFFFFFFFFFFFFFFFFFFFFFFFFFFFFFFFFFFFFFFFF DUP3 AND SWAP1 POP SWAP2 SWAP1 POP JUMP JUMPDEST PUSH1 0x0 PUSH3 0x21FC DUP3 PUSH3 0x21CF JUMP JUMPDEST SWAP1 POP SWAP2 SWAP1 POP JUMP JUMPDEST PUSH3 0x220E DUP2 PUSH3 0x21EF JUMP JUMPDEST DUP3 MSTORE POP POP JUMP JUMPDEST PUSH1 0x0 PUSH2 0x140 DUP4 ADD PUSH1 0x0 DUP4 ADD MLOAD PUSH3 0x222F PUSH1 0x0 DUP7 ADD DUP3 PUSH3 0x2053 JUMP JUMPDEST POP PUSH1 0x20 DUP4 ADD MLOAD PUSH3 0x2244 PUSH1 0x20 DUP7 ADD DUP3 PUSH3 0x2053 JUMP JUMPDEST POP PUSH1 0x40 DUP4 ADD MLOAD PUSH3 0x2259 PUSH1 0x40 DUP7 ADD DUP3 PUSH3 0x20D3 JUMP JUMPDEST POP PUSH1 0x60 DUP4 ADD MLOAD PUSH3 0x226E PUSH1 0x60 DUP7 ADD DUP3 PUSH3 0x2124 JUMP JUMPDEST POP PUSH1 0x80 DUP4 ADD MLOAD DUP5 DUP3 SUB PUSH1 0x80 DUP7 ADD MSTORE PUSH3 0x2288 DUP3 DUP3 PUSH3 0x218E JUMP JUMPDEST SWAP2 POP POP PUSH1 0xA0 DUP4 ADD MLOAD PUSH3 0x229F PUSH1 0xA0 DUP7 ADD DUP3 PUSH3 0x2053 JUMP JUMPDEST POP PUSH1 0xC0 DUP4 ADD MLOAD PUSH3 0x22B4 PUSH1 0xC0 DUP7 ADD DUP3 PUSH3 0x2203 JUMP JUMPDEST POP PUSH1 0xE0 DUP4 ADD MLOAD PUSH3 0x22C9 PUSH1 0xE0 DUP7 ADD DUP3 PUSH3 0x2053 JUMP JUMPDEST POP PUSH2 0x100 DUP4 ADD MLOAD PUSH3 0x22E0 PUSH2 0x100 DUP7 ADD DUP3 PUSH3 0x2053 JUMP JUMPDEST POP PUSH2 0x120 DUP4 ADD MLOAD PUSH3 0x22F7 PUSH2 0x120 DUP7 ADD DUP3 PUSH3 0x2053 JUMP JUMPDEST POP DUP1 SWAP2 POP POP SWAP3 SWAP2 POP POP JUMP JUMPDEST PUSH1 0x0 PUSH1 0x20 DUP3 ADD SWAP1 POP DUP2 DUP2 SUB PUSH1 0x0 DUP4 ADD MSTORE PUSH3 0x231E DUP2 DUP5 PUSH3 0x2214 JUMP JUMPDEST SWAP1 POP SWAP3 SWAP2 POP POP JUMP JUMPDEST PUSH1 0x0 DUP2 MLOAD SWAP1 POP SWAP2 SWAP1 POP JUMP JUMPDEST PUSH1 0x0 DUP3 DUP3 MSTORE PUSH1 0x20 DUP3 ADD SWAP1 POP SWAP3 SWAP2 POP POP JUMP JUMPDEST PUSH1 0x0 DUP2 SWAP1 POP PUSH1 0x20 DUP3 ADD SWAP1 POP SWAP2 SWAP1 POP JUMP JUMPDEST PUSH1 0x0 PUSH3 0x2360 DUP4 DUP4 PUSH3 0x2203 JUMP JUMPDEST PUSH1 0x20 DUP4 ADD SWAP1 POP SWAP3 SWAP2 POP POP JUMP JUMPDEST PUSH1 0x0 PUSH1 0x20 DUP3 ADD SWAP1 POP SWAP2 SWAP1 POP JUMP JUMPDEST PUSH1 0x0 PUSH3 0x2386 DUP3 PUSH3 0x2326 JUMP JUMPDEST PUSH3 0x2392 DUP2 DUP6 PUSH3 0x2331 JUMP JUMPDEST SWAP4 POP PUSH3 0x239F DUP4 PUSH3 0x2342 JUMP JUMPDEST DUP1 PUSH1 0x0 JUMPDEST DUP4 DUP2 LT ISZERO PUSH3 0x23D6 JUMPI DUP2 MLOAD PUSH3 0x23BA DUP9 DUP3 PUSH3 0x2352 JUMP JUMPDEST SWAP8 POP PUSH3 0x23C7 DUP4 PUSH3 0x236C JUMP JUMPDEST SWAP3 POP POP PUSH1 0x1 DUP2 ADD SWAP1 POP PUSH3 0x23A3 JUMP JUMPDEST POP DUP6 SWAP4 POP POP POP POP SWAP3 SWAP2 POP POP JUMP JUMPDEST PUSH1 0x0 PUSH1 0x20 DUP3 ADD SWAP1 POP DUP2 DUP2 SUB PUSH1 0x0 DUP4 ADD MSTORE PUSH3 0x23FF DUP2 DUP5 PUSH3 0x2379 JUMP JUMPDEST SWAP1 POP SWAP3 SWAP2 POP POP JUMP JUMPDEST PUSH3 0x2412 DUP2 PUSH3 0x21EF JUMP JUMPDEST DUP2 EQ PUSH3 0x241E JUMPI PUSH1 0x0 DUP1 REVERT JUMPDEST POP JUMP JUMPDEST PUSH1 0x0 DUP2 CALLDATALOAD SWAP1 POP PUSH3 0x2432 DUP2 PUSH3 0x2407 JUMP JUMPDEST SWAP3 SWAP2 POP POP JUMP JUMPDEST PUSH1 0x0 PUSH1 0x20 DUP3 DUP5 SUB SLT ISZERO PUSH3 0x2451 JUMPI PUSH3 0x2450 PUSH3 0x1FDC JUMP JUMPDEST JUMPDEST PUSH1 0x0 PUSH3 0x2461 DUP5 DUP3 DUP6 ADD PUSH3 0x2421 JUMP JUMPDEST SWAP2 POP POP SWAP3 SWAP2 POP POP JUMP JUMPDEST PUSH1 0x0 DUP2 MLOAD SWAP1 POP SWAP2 SWAP1 POP JUMP JUMPDEST PUSH1 0x0 DUP3 DUP3 MSTORE PUSH1 0x20 DUP3 ADD SWAP1 POP SWAP3 SWAP2 POP POP JUMP JUMPDEST PUSH1 0x0 DUP2 SWAP1 POP PUSH1 0x20 DUP3 ADD SWAP1 POP SWAP2 SWAP1 POP JUMP JUMPDEST PUSH1 0x0 PUSH3 0x24A4 DUP4 DUP4 PUSH3 0x2053 JUMP JUMPDEST PUSH1 0x20 DUP4 ADD SWAP1 POP SWAP3 SWAP2 POP POP JUMP JUMPDEST PUSH1 0x0 PUSH1 0x20 DUP3 ADD SWAP1 POP SWAP2 SWAP1 POP JUMP JUMPDEST PUSH1 0x0 PUSH3 0x24CA DUP3 PUSH3 0x246A JUMP JUMPDEST PUSH3 0x24D6 DUP2 DUP6 PUSH3 0x2475 JUMP JUMPDEST SWAP4 POP PUSH3 0x24E3 DUP4 PUSH3 0x2486 JUMP JUMPDEST DUP1 PUSH1 0x0 JUMPDEST DUP4 DUP2 LT ISZERO PUSH3 0x251A JUMPI DUP2 MLOAD PUSH3 0x24FE DUP9 DUP3 PUSH3 0x2496 JUMP JUMPDEST SWAP8 POP PUSH3 0x250B DUP4 PUSH3 0x24B0 JUMP JUMPDEST SWAP3 POP POP PUSH1 0x1 DUP2 ADD SWAP1 POP PUSH3 0x24E7 JUMP JUMPDEST POP DUP6 SWAP4 POP POP POP POP SWAP3 SWAP2 POP POP JUMP JUMPDEST PUSH1 0x0 PUSH1 0x20 DUP3 ADD SWAP1 POP DUP2 DUP2 SUB PUSH1 0x0 DUP4 ADD MSTORE PUSH3 0x2543 DUP2 DUP5 PUSH3 0x24BD JUMP JUMPDEST SWAP1 POP SWAP3 SWAP2 POP POP JUMP JUMPDEST PUSH1 0x0 DUP1 PUSH1 0x40 DUP4 DUP6 SUB SLT ISZERO PUSH3 0x2565 JUMPI PUSH3 0x2564 PUSH3 0x1FDC JUMP JUMPDEST JUMPDEST PUSH1 0x0 PUSH3 0x2575 DUP6 DUP3 DUP7 ADD PUSH3 0x2421 JUMP JUMPDEST SWAP3 POP POP PUSH1 0x20 PUSH3 0x2588 DUP6 DUP3 DUP7 ADD PUSH3 0x200A JUMP JUMPDEST SWAP2 POP POP SWAP3 POP SWAP3 SWAP1 POP JUMP JUMPDEST PUSH3 0x259D DUP2 PUSH3 0x1FE6 JUMP JUMPDEST DUP3 MSTORE POP POP JUMP JUMPDEST PUSH1 0x0 PUSH1 0x20 DUP3 ADD SWAP1 POP PUSH3 0x25BA PUSH1 0x0 DUP4 ADD DUP5 PUSH3 0x2592 JUMP JUMPDEST SWAP3 SWAP2 POP POP JUMP JUMPDEST PUSH1 0x0 DUP1 REVERT JUMPDEST PUSH1 0x0 DUP1 REVERT JUMPDEST PUSH32 0x4E487B7100000000000000000000000000000000000000000000000000000000 PUSH1 0x0 MSTORE PUSH1 0x41 PUSH1 0x4 MSTORE PUSH1 0x24 PUSH1 0x0 REVERT JUMPDEST PUSH3 0x2604 DUP3 PUSH3 0x217D JUMP JUMPDEST DUP2 ADD DUP2 DUP2 LT PUSH8 0xFFFFFFFFFFFFFFFF DUP3 GT OR ISZERO PUSH3 0x2626 JUMPI PUSH3 0x2625 PUSH3 0x25CA JUMP JUMPDEST JUMPDEST DUP1 PUSH1 0x40 MSTORE POP POP POP JUMP JUMPDEST PUSH1 0x0 PUSH3 0x263B PUSH3 0x1FD2 JUMP JUMPDEST SWAP1 POP PUSH3 0x2649 DUP3 DUP3 PUSH3 0x25F9 JUMP JUMPDEST SWAP2 SWAP1 POP JUMP JUMPDEST PUSH1 0x0 PUSH8 0xFFFFFFFFFFFFFFFF DUP3 GT ISZERO PUSH3 0x266C JUMPI PUSH3 0x266B PUSH3 0x25CA JUMP JUMPDEST JUMPDEST PUSH3 0x2677 DUP3 PUSH3 0x217D JUMP JUMPDEST SWAP1 POP PUSH1 0x20 DUP2 ADD SWAP1 POP SWAP2 SWAP1 POP JUMP JUMPDEST DUP3 DUP2 DUP4 CALLDATACOPY PUSH1 0x0 DUP4 DUP4 ADD MSTORE POP POP POP JUMP JUMPDEST PUSH1 0x0 PUSH3 0x26AA PUSH3 0x26A4 DUP5 PUSH3 0x264E JUMP JUMPDEST PUSH3 0x262F JUMP JUMPDEST SWAP1 POP DUP3 DUP2 MSTORE PUSH1 0x20 DUP2 ADD DUP5 DUP5 DUP5 ADD GT ISZERO PUSH3 0x26C9 JUMPI PUSH3 0x26C8 PUSH3 0x25C5 JUMP JUMPDEST JUMPDEST PUSH3 0x26D6 DUP5 DUP3 DUP6 PUSH3 0x2684 JUMP JUMPDEST POP SWAP4 SWAP3 POP POP POP JUMP JUMPDEST PUSH1 0x0 DUP3 PUSH1 0x1F DUP4 ADD SLT PUSH3 0x26F6 JUMPI PUSH3 0x26F5 PUSH3 0x25C0 JUMP JUMPDEST JUMPDEST DUP2 CALLDATALOAD PUSH3 0x2708 DUP5 DUP3 PUSH1 0x20 DUP7 ADD PUSH3 0x2693 JUMP JUMPDEST SWAP2 POP POP SWAP3 SWAP2 POP POP JUMP JUMPDEST PUSH1 0x0 DUP1 PUSH1 0x0 PUSH1 0x60 DUP5 DUP7 SUB SLT ISZERO PUSH3 0x272D JUMPI PUSH3 0x272C PUSH3 0x1FDC JUMP JUMPDEST JUMPDEST PUSH1 0x0 DUP5 ADD CALLDATALOAD PUSH8 0xFFFFFFFFFFFFFFFF DUP2 GT ISZERO PUSH3 0x274E JUMPI PUSH3 0x274D PUSH3 0x1FE1 JUMP JUMPDEST JUMPDEST PUSH3 0x275C DUP7 DUP3 DUP8 ADD PUSH3 0x26DE JUMP JUMPDEST SWAP4 POP POP PUSH1 0x20 PUSH3 0x276F DUP7 DUP3 DUP8 ADD PUSH3 0x200A JUMP JUMPDEST SWAP3 POP POP PUSH1 0x40 PUSH3 0x2782 DUP7 DUP3 DUP8 ADD PUSH3 0x200A JUMP JUMPDEST SWAP2 POP POP SWAP3 POP SWAP3 POP SWAP3 JUMP JUMPDEST PUSH1 0x0 DUP2 SWAP1 POP SWAP2 SWAP1 POP JUMP JUMPDEST PUSH1 0x0 PUSH3 0x27B7 PUSH3 0x27B1 PUSH3 0x27AB DUP5 PUSH3 0x21CF JUMP JUMPDEST PUSH3 0x278C JUMP JUMPDEST PUSH3 0x21CF JUMP JUMPDEST SWAP1 POP SWAP2 SWAP1 POP JUMP JUMPDEST PUSH1 0x0 PUSH3 0x27CB DUP3 PUSH3 0x2796 JUMP JUMPDEST SWAP1 POP SWAP2 SWAP1 POP JUMP JUMPDEST PUSH1 0x0 PUSH3 0x27DF DUP3 PUSH3 0x27BE JUMP JUMPDEST SWAP1 POP SWAP2 SWAP1 POP JUMP JUMPDEST PUSH3 0x27F1 DUP2 PUSH3 0x27D2 JUMP JUMPDEST DUP3 MSTORE POP POP JUMP JUMPDEST PUSH1 0x0 PUSH1 0x20 DUP3 ADD SWAP1 POP PUSH3 0x280E PUSH1 0x0 DUP4 ADD DUP5 PUSH3 0x27E6 JUMP JUMPDEST SWAP3 SWAP2 POP POP JUMP JUMPDEST PUSH1 0x0 DUP2 ISZERO ISZERO SWAP1 POP SWAP2 SWAP1 POP JUMP JUMPDEST PUSH3 0x282B DUP2 PUSH3 0x2814 JUMP JUMPDEST DUP3 MSTORE POP POP JUMP JUMPDEST PUSH1 0xA0 DUP3 ADD PUSH1 0x0 DUP3 ADD MLOAD PUSH3 0x2849 PUSH1 0x0 DUP6 ADD DUP3 PUSH3 0x2053 JUMP JUMPDEST POP PUSH1 0x20 DUP3 ADD MLOAD PUSH3 0x285E PUSH1 0x20 DUP6 ADD DUP3 PUSH3 0x2053 JUMP JUMPDEST POP PUSH1 0x40 DUP3 ADD MLOAD PUSH3 0x2873 PUSH1 0x40 DUP6 ADD DUP3 PUSH3 0x2820 JUMP JUMPDEST POP PUSH1 0x60 DUP3 ADD MLOAD PUSH3 0x2888 PUSH1 0x60 DUP6 ADD DUP3 PUSH3 0x2820 JUMP JUMPDEST POP PUSH1 0x80 DUP3 ADD MLOAD PUSH3 0x289D PUSH1 0x80 DUP6 ADD DUP3 PUSH3 0x2053 JUMP JUMPDEST POP POP POP POP JUMP JUMPDEST PUSH1 0x0 PUSH1 0xA0 DUP3 ADD SWAP1 POP PUSH3 0x28BA PUSH1 0x0 DUP4 ADD DUP5 PUSH3 0x2831 JUMP JUMPDEST SWAP3 SWAP2 POP POP JUMP JUMPDEST PUSH3 0x28CB DUP2 PUSH3 0x21EF JUMP JUMPDEST DUP3 MSTORE POP POP JUMP JUMPDEST PUSH1 0x4 DUP2 LT PUSH3 0x28E5 JUMPI PUSH3 0x28E4 PUSH3 0x2064 JUMP JUMPDEST JUMPDEST POP JUMP JUMPDEST PUSH1 0x0 DUP2 SWAP1 POP PUSH3 0x28F8 DUP3 PUSH3 0x28D1 JUMP JUMPDEST SWAP2 SWAP1 POP JUMP JUMPDEST PUSH1 0x0 PUSH3 0x290A DUP3 PUSH3 0x28E8 JUMP JUMPDEST SWAP1 POP SWAP2 SWAP1 POP JUMP JUMPDEST PUSH3 0x291C DUP2 PUSH3 0x28FD JUMP JUMPDEST DUP3 MSTORE POP POP JUMP JUMPDEST PUSH1 0x0 DUP3 DUP3 MSTORE PUSH1 0x20 DUP3 ADD SWAP1 POP SWAP3 SWAP2 POP POP JUMP JUMPDEST PUSH1 0x0 PUSH3 0x2940 DUP3 PUSH3 0x2135 JUMP JUMPDEST PUSH3 0x294C DUP2 DUP6 PUSH3 0x2922 JUMP JUMPDEST SWAP4 POP PUSH3 0x295E DUP2 DUP6 PUSH1 0x20 DUP7 ADD PUSH3 0x2151 JUMP JUMPDEST PUSH3 0x2969 DUP2 PUSH3 0x217D JUMP JUMPDEST DUP5 ADD SWAP2 POP POP SWAP3 SWAP2 POP POP JUMP JUMPDEST PUSH1 0x0 PUSH2 0x100 DUP3 ADD SWAP1 POP PUSH3 0x298C PUSH1 0x0 DUP4 ADD DUP12 PUSH3 0x2592 JUMP JUMPDEST PUSH3 0x299B PUSH1 0x20 DUP4 ADD DUP11 PUSH3 0x2592 JUMP JUMPDEST PUSH3 0x29AA PUSH1 0x40 DUP4 ADD DUP10 PUSH3 0x28C0 JUMP JUMPDEST PUSH3 0x29B9 PUSH1 0x60 DUP4 ADD DUP9 PUSH3 0x2592 JUMP JUMPDEST PUSH3 0x29C8 PUSH1 0x80 DUP4 ADD DUP8 PUSH3 0x2911 JUMP JUMPDEST PUSH3 0x29D7 PUSH1 0xA0 DUP4 ADD DUP7 PUSH3 0x2592 JUMP JUMPDEST PUSH3 0x29E6 PUSH1 0xC0 DUP4 ADD DUP6 PUSH3 0x2592 JUMP JUMPDEST DUP2 DUP2 SUB PUSH1 0xE0 DUP4 ADD MSTORE PUSH3 0x29FA DUP2 DUP5 PUSH3 0x2933 JUMP JUMPDEST SWAP1 POP SWAP10 SWAP9 POP POP POP POP POP POP POP POP POP JUMP JUMPDEST PUSH1 0x0 DUP1 PUSH1 0x40 DUP4 DUP6 SUB SLT ISZERO PUSH3 0x2A23 JUMPI PUSH3 0x2A22 PUSH3 0x1FDC JUMP JUMPDEST JUMPDEST PUSH1 0x0 PUSH3 0x2A33 DUP6 DUP3 DUP7 ADD PUSH3 0x200A JUMP JUMPDEST SWAP3 POP POP PUSH1 0x20 PUSH3 0x2A46 DUP6 DUP3 DUP7 ADD PUSH3 0x200A JUMP JUMPDEST SWAP2 POP POP SWAP3 POP SWAP3 SWAP1 POP JUMP JUMPDEST PUSH1 0x0 DUP1 REVERT JUMPDEST PUSH1 0x0 DUP1 REVERT JUMPDEST PUSH1 0x0 DUP2 MLOAD SWAP1 POP PUSH3 0x2A6B DUP2 PUSH3 0x1FF0 JUMP JUMPDEST SWAP3 SWAP2 POP POP JUMP JUMPDEST PUSH1 0x2 DUP2 LT PUSH3 0x2A7F JUMPI PUSH1 0x0 DUP1 REVERT JUMPDEST POP JUMP JUMPDEST PUSH1 0x0 DUP2 MLOAD SWAP1 POP PUSH3 0x2A93 DUP2 PUSH3 0x2A71 JUMP JUMPDEST SWAP3 SWAP2 POP POP JUMP JUMPDEST PUSH1 0x3 DUP2 LT PUSH3 0x2AA7 JUMPI PUSH1 0x0 DUP1 REVERT JUMPDEST POP JUMP JUMPDEST PUSH1 0x0 DUP2 MLOAD SWAP1 POP PUSH3 0x2ABB DUP2 PUSH3 0x2A99 JUMP JUMPDEST SWAP3 SWAP2 POP POP JUMP JUMPDEST PUSH1 0x0 PUSH3 0x2AD8 PUSH3 0x2AD2 DUP5 PUSH3 0x264E JUMP JUMPDEST PUSH3 0x262F JUMP JUMPDEST SWAP1 POP DUP3 DUP2 MSTORE PUSH1 0x20 DUP2 ADD DUP5 DUP5 DUP5 ADD GT ISZERO PUSH3 0x2AF7 JUMPI PUSH3 0x2AF6 PUSH3 0x25C5 JUMP JUMPDEST JUMPDEST PUSH3 0x2B04 DUP5 DUP3 DUP6 PUSH3 0x2151 JUMP JUMPDEST POP SWAP4 SWAP3 POP POP POP JUMP JUMPDEST PUSH1 0x0 DUP3 PUSH1 0x1F DUP4 ADD SLT PUSH3 0x2B24 JUMPI PUSH3 0x2B23 PUSH3 0x25C0 JUMP JUMPDEST JUMPDEST DUP2 MLOAD PUSH3 0x2B36 DUP5 DUP3 PUSH1 0x20 DUP7 ADD PUSH3 0x2AC1 JUMP JUMPDEST SWAP2 POP POP SWAP3 SWAP2 POP POP JUMP JUMPDEST PUSH1 0x0 DUP2 MLOAD SWAP1 POP PUSH3 0x2B50 DUP2 PUSH3 0x2407 JUMP JUMPDEST SWAP3 SWAP2 POP POP JUMP JUMPDEST PUSH1 0x0 PUSH2 0x140 DUP3 DUP5 SUB SLT ISZERO PUSH3 0x2B70 JUMPI PUSH3 0x2B6F PUSH3 0x2A50 JUMP JUMPDEST JUMPDEST PUSH3 0x2B7D PUSH2 0x140 PUSH3 0x262F JUMP JUMPDEST SWAP1 POP PUSH1 0x0 PUSH3 0x2B8F DUP5 DUP3 DUP6 ADD PUSH3 0x2A5A JUMP JUMPDEST PUSH1 0x0 DUP4 ADD MSTORE POP PUSH1 0x20 PUSH3 0x2BA5 DUP5 DUP3 DUP6 ADD PUSH3 0x2A5A JUMP JUMPDEST PUSH1 0x20 DUP4 ADD MSTORE POP PUSH1 0x40 PUSH3 0x2BBB DUP5 DUP3 DUP6 ADD PUSH3 0x2A82 JUMP JUMPDEST PUSH1 0x40 DUP4 ADD MSTORE POP PUSH1 0x60 PUSH3 0x2BD1 DUP5 DUP3 DUP6 ADD PUSH3 0x2AAA JUMP JUMPDEST PUSH1 0x60 DUP4 ADD MSTORE POP PUSH1 0x80 DUP3 ADD MLOAD PUSH8 0xFFFFFFFFFFFFFFFF DUP2 GT ISZERO PUSH3 0x2BF8 JUMPI PUSH3 0x2BF7 PUSH3 0x2A55 JUMP JUMPDEST JUMPDEST PUSH3 0x2C06 DUP5 DUP3 DUP6 ADD PUSH3 0x2B0C JUMP JUMPDEST PUSH1 0x80 DUP4 ADD MSTORE POP PUSH1 0xA0 PUSH3 0x2C1C DUP5 DUP3 DUP6 ADD PUSH3 0x2A5A JUMP JUMPDEST PUSH1 0xA0 DUP4 ADD MSTORE POP PUSH1 0xC0 PUSH3 0x2C32 DUP5 DUP3 DUP6 ADD PUSH3 0x2B3F JUMP JUMPDEST PUSH1 0xC0 DUP4 ADD MSTORE POP PUSH1 0xE0 PUSH3 0x2C48 DUP5 DUP3 DUP6 ADD PUSH3 0x2A5A JUMP JUMPDEST PUSH1 0xE0 DUP4 ADD MSTORE POP PUSH2 0x100 PUSH3 0x2C5F DUP5 DUP3 DUP6 ADD PUSH3 0x2A5A JUMP JUMPDEST PUSH2 0x100 DUP4 ADD MSTORE POP PUSH2 0x120 PUSH3 0x2C77 DUP5 DUP3 DUP6 ADD PUSH3 0x2A5A JUMP JUMPDEST PUSH2 0x120 DUP4 ADD MSTORE POP SWAP3 SWAP2 POP POP JUMP JUMPDEST PUSH1 0x0 PUSH1 0x20 DUP3 DUP5 SUB SLT ISZERO PUSH3 0x2C9D JUMPI PUSH3 0x2C9C PUSH3 0x1FDC JUMP JUMPDEST JUMPDEST PUSH1 0x0 DUP3 ADD MLOAD PUSH8 0xFFFFFFFFFFFFFFFF DUP2 GT ISZERO PUSH3 0x2CBE JUMPI PUSH3 0x2CBD PUSH3 0x1FE1 JUMP JUMPDEST JUMPDEST PUSH3 0x2CCC DUP5 DUP3 DUP6 ADD PUSH3 0x2B56 JUMP JUMPDEST SWAP2 POP POP SWAP3 SWAP2 POP POP JUMP JUMPDEST PUSH1 0x0 PUSH8 0xFFFFFFFFFFFFFFFF DUP3 GT ISZERO PUSH3 0x2CF3 JUMPI PUSH3 0x2CF2 PUSH3 0x25CA JUMP JUMPDEST JUMPDEST PUSH1 0x20 DUP3 MUL SWAP1 POP PUSH1 0x20 DUP2 ADD SWAP1 POP SWAP2 SWAP1 POP JUMP JUMPDEST PUSH1 0x0 DUP1 REVERT JUMPDEST PUSH1 0x0 PUSH3 0x2D20 PUSH3 0x2D1A DUP5 PUSH3 0x2CD5 JUMP JUMPDEST PUSH3 0x262F JUMP JUMPDEST SWAP1 POP DUP1 DUP4 DUP3 MSTORE PUSH1 0x20 DUP3 ADD SWAP1 POP PUSH1 0x20 DUP5 MUL DUP4 ADD DUP6 DUP2 GT ISZERO PUSH3 0x2D46 JUMPI PUSH3 0x2D45 PUSH3 0x2D04 JUMP JUMPDEST JUMPDEST DUP4 JUMPDEST DUP2 DUP2 LT ISZERO PUSH3 0x2D73 JUMPI DUP1 PUSH3 0x2D5E DUP9 DUP3 PUSH3 0x2B3F JUMP JUMPDEST DUP5 MSTORE PUSH1 0x20 DUP5 ADD SWAP4 POP POP PUSH1 0x20 DUP2 ADD SWAP1 POP PUSH3 0x2D48 JUMP JUMPDEST POP POP POP SWAP4 SWAP3 POP POP POP JUMP JUMPDEST PUSH1 0x0 DUP3 PUSH1 0x1F DUP4 ADD SLT PUSH3 0x2D95 JUMPI PUSH3 0x2D94 PUSH3 0x25C0 JUMP JUMPDEST JUMPDEST DUP2 MLOAD PUSH3 0x2DA7 DUP5 DUP3 PUSH1 0x20 DUP7 ADD PUSH3 0x2D09 JUMP JUMPDEST SWAP2 POP POP SWAP3 SWAP2 POP POP JUMP JUMPDEST PUSH1 0x0 PUSH1 0x20 DUP3 DUP5 SUB SLT ISZERO PUSH3 0x2DC9 JUMPI PUSH3 0x2DC8 PUSH3 0x1FDC JUMP JUMPDEST JUMPDEST PUSH1 0x0 DUP3 ADD MLOAD PUSH8 0xFFFFFFFFFFFFFFFF DUP2 GT ISZERO PUSH3 0x2DEA JUMPI PUSH3 0x2DE9 PUSH3 0x1FE1 JUMP JUMPDEST JUMPDEST PUSH3 0x2DF8 DUP5 DUP3 DUP6 ADD PUSH3 0x2D7D JUMP JUMPDEST SWAP2 POP POP SWAP3 SWAP2 POP POP JUMP JUMPDEST PUSH32 0x2D2D41646420576F726B65722073746172742121210000000000000000000000 PUSH1 0x0 DUP3 ADD MSTORE POP JUMP JUMPDEST PUSH1 0x0 PUSH3 0x2E39 PUSH1 0x15 DUP4 PUSH3 0x2922 JUMP JUMPDEST SWAP2 POP PUSH3 0x2E46 DUP3 PUSH3 0x2E01 JUMP JUMPDEST PUSH1 0x20 DUP3 ADD SWAP1 POP SWAP2 SWAP1 POP JUMP JUMPDEST PUSH1 0x0 PUSH1 0x20 DUP3 ADD SWAP1 POP DUP2 DUP2 SUB PUSH1 0x0 DUP4 ADD MSTORE PUSH3 0x2E6C DUP2 PUSH3 0x2E2A JUMP JUMPDEST SWAP1 POP SWAP2 SWAP1 POP JUMP JUMPDEST PUSH1 0x0 PUSH1 0x40 DUP3 ADD SWAP1 POP PUSH3 0x2E8A PUSH1 0x0 DUP4 ADD DUP6 PUSH3 0x28C0 JUMP JUMPDEST PUSH3 0x2E99 PUSH1 0x20 DUP4 ADD DUP5 PUSH3 0x2592 JUMP JUMPDEST SWAP4 SWAP3 POP POP POP JUMP JUMPDEST PUSH32 0x2D2D41646420576F726B65722073756363657373656421212100000000000000 PUSH1 0x0 DUP3 ADD MSTORE POP JUMP JUMPDEST PUSH1 0x0 PUSH3 0x2ED8 PUSH1 0x19 DUP4 PUSH3 0x2922 JUMP JUMPDEST SWAP2 POP PUSH3 0x2EE5 DUP3 PUSH3 0x2EA0 JUMP JUMPDEST PUSH1 0x20 DUP3 ADD SWAP1 POP SWAP2 SWAP1 POP JUMP JUMPDEST PUSH1 0x0 PUSH1 0x20 DUP3 ADD SWAP1 POP DUP2 DUP2 SUB PUSH1 0x0 DUP4 ADD MSTORE PUSH3 0x2F0B DUP2 PUSH3 0x2EC9 JUMP JUMPDEST SWAP1 POP SWAP2 SWAP1 POP JUMP JUMPDEST PUSH3 0x2F1D DUP2 PUSH3 0x2814 JUMP JUMPDEST DUP2 EQ PUSH3 0x2F29 JUMPI PUSH1 0x0 DUP1 REVERT JUMPDEST POP JUMP JUMPDEST PUSH1 0x0 DUP2 MLOAD SWAP1 POP PUSH3 0x2F3D DUP2 PUSH3 0x2F12 JUMP JUMPDEST SWAP3 SWAP2 POP POP JUMP JUMPDEST PUSH1 0x0 PUSH1 0x20 DUP3 DUP5 SUB SLT ISZERO PUSH3 0x2F5C JUMPI PUSH3 0x2F5B PUSH3 0x1FDC JUMP JUMPDEST JUMPDEST PUSH1 0x0 PUSH3 0x2F6C DUP5 DUP3 DUP6 ADD PUSH3 0x2F2C JUMP JUMPDEST SWAP2 POP POP SWAP3 SWAP2 POP POP JUMP JUMPDEST PUSH32 0x496E76616C696420726571756573740000000000000000000000000000000000 PUSH1 0x0 DUP3 ADD MSTORE POP JUMP JUMPDEST PUSH1 0x0 PUSH3 0x2FAD PUSH1 0xF DUP4 PUSH3 0x2922 JUMP JUMPDEST SWAP2 POP PUSH3 0x2FBA DUP3 PUSH3 0x2F75 JUMP JUMPDEST PUSH1 0x20 DUP3 ADD SWAP1 POP SWAP2 SWAP1 POP JUMP JUMPDEST PUSH1 0x0 PUSH1 0x20 DUP3 ADD SWAP1 POP DUP2 DUP2 SUB PUSH1 0x0 DUP4 ADD MSTORE PUSH3 0x2FE0 DUP2 PUSH3 0x2F9E JUMP JUMPDEST SWAP1 POP SWAP2 SWAP1 POP JUMP JUMPDEST PUSH1 0x0 PUSH1 0x20 DUP3 ADD SWAP1 POP PUSH3 0x2FFE PUSH1 0x0 DUP4 ADD DUP5 PUSH3 0x28C0 JUMP JUMPDEST SWAP3 SWAP2 POP POP JUMP JUMPDEST PUSH1 0x0 PUSH1 0x20 DUP3 ADD SWAP1 POP PUSH3 0x301B PUSH1 0x0 DUP4 ADD DUP5 PUSH3 0x2911 JUMP JUMPDEST SWAP3 SWAP2 POP POP JUMP JUMPDEST PUSH1 0x0 PUSH1 0x20 DUP3 DUP5 SUB SLT ISZERO PUSH3 0x303A JUMPI PUSH3 0x3039 PUSH3 0x1FDC JUMP JUMPDEST JUMPDEST PUSH1 0x0 PUSH3 0x304A DUP5 DUP3 DUP6 ADD PUSH3 0x2A5A JUMP JUMPDEST SWAP2 POP POP SWAP3 SWAP2 POP POP JUMP JUMPDEST PUSH32 0x4E487B7100000000000000000000000000000000000000000000000000000000 PUSH1 0x0 MSTORE PUSH1 0x11 PUSH1 0x4 MSTORE PUSH1 0x24 PUSH1 0x0 REVERT JUMPDEST PUSH1 0x0 PUSH3 0x308F DUP3 PUSH3 0x1FE6 JUMP JUMPDEST SWAP2 POP PUSH3 0x309C DUP4 PUSH3 0x1FE6 JUMP JUMPDEST SWAP3 POP DUP3 DUP3 MUL PUSH3 0x30AC DUP2 PUSH3 0x1FE6 JUMP JUMPDEST SWAP2 POP DUP3 DUP3 DIV DUP5 EQ DUP4 ISZERO OR PUSH3 0x30C6 JUMPI PUSH3 0x30C5 PUSH3 0x3053 JUMP JUMPDEST JUMPDEST POP SWAP3 SWAP2 POP POP JUMP JUMPDEST PUSH32 0x4E487B7100000000000000000000000000000000000000000000000000000000 PUSH1 0x0 MSTORE PUSH1 0x12 PUSH1 0x4 MSTORE PUSH1 0x24 PUSH1 0x0 REVERT JUMPDEST PUSH1 0x0 PUSH3 0x3109 DUP3 PUSH3 0x1FE6 JUMP JUMPDEST SWAP2 POP PUSH3 0x3116 DUP4 PUSH3 0x1FE6 JUMP JUMPDEST SWAP3 POP DUP3 PUSH3 0x3129 JUMPI PUSH3 0x3128 PUSH3 0x30CD JUMP JUMPDEST JUMPDEST DUP3 DUP3 DIV SWAP1 POP SWAP3 SWAP2 POP POP JUMP JUMPDEST PUSH32 0x496E73756666696369656E7420636F6E74726163742062616C616E63652E0000 PUSH1 0x0 DUP3 ADD MSTORE POP JUMP JUMPDEST PUSH1 0x0 PUSH3 0x316C PUSH1 0x1E DUP4 PUSH3 0x2922 JUMP JUMPDEST SWAP2 POP PUSH3 0x3179 DUP3 PUSH3 0x3134 JUMP JUMPDEST PUSH1 0x20 DUP3 ADD SWAP1 POP SWAP2 SWAP1 POP JUMP JUMPDEST PUSH1 0x0 PUSH1 0x20 DUP3 ADD SWAP1 POP DUP2 DUP2 SUB PUSH1 0x0 DUP4 ADD MSTORE PUSH3 0x319F DUP2 PUSH3 0x315D JUMP JUMPDEST SWAP1 POP SWAP2 SWAP1 POP JUMP JUMPDEST PUSH1 0x0 PUSH3 0x31B3 DUP3 PUSH3 0x1FE6 JUMP JUMPDEST SWAP2 POP PUSH32 0xFFFFFFFFFFFFFFFFFFFFFFFFFFFFFFFFFFFFFFFFFFFFFFFFFFFFFFFFFFFFFFFF DUP3 SUB PUSH3 0x31E8 JUMPI PUSH3 0x31E7 PUSH3 0x3053 JUMP JUMPDEST JUMPDEST PUSH1 0x1 DUP3 ADD SWAP1 POP SWAP2 SWAP1 POP JUMP JUMPDEST PUSH1 0x0 PUSH1 0x80 DUP3 ADD SWAP1 POP PUSH3 0x320A PUSH1 0x0 DUP4 ADD DUP8 PUSH3 0x28C0 JUMP JUMPDEST DUP2 DUP2 SUB PUSH1 0x20 DUP4 ADD MSTORE PUSH3 0x321E DUP2 DUP7 PUSH3 0x2933 JUMP JUMPDEST SWAP1 POP PUSH3 0x322F PUSH1 0x40 DUP4 ADD DUP6 PUSH3 0x2592 JUMP JUMPDEST PUSH3 0x323E PUSH1 0x60 DUP4 ADD DUP5 PUSH3 0x2592 JUMP JUMPDEST SWAP6 SWAP5 POP POP POP POP POP JUMP JUMPDEST PUSH32 0x4372656164206F72646572207375636365737321000000000000000000000000 PUSH1 0x0 DUP3 ADD MSTORE POP JUMP JUMPDEST PUSH1 0x0 PUSH3 0x327F PUSH1 0x14 DUP4 PUSH3 0x2922 JUMP JUMPDEST SWAP2 POP PUSH3 0x328C DUP3 PUSH3 0x3247 JUMP JUMPDEST PUSH1 0x20 DUP3 ADD SWAP1 POP SWAP2 SWAP1 POP JUMP JUMPDEST PUSH1 0x0 PUSH1 0x40 DUP3 ADD SWAP1 POP DUP2 DUP2 SUB PUSH1 0x0 DUP4 ADD MSTORE PUSH3 0x32B2 DUP2 PUSH3 0x3270 JUMP JUMPDEST SWAP1 POP PUSH3 0x32C3 PUSH1 0x20 DUP4 ADD DUP5 PUSH3 0x2592 JUMP JUMPDEST SWAP3 SWAP2 POP POP JUMP JUMPDEST PUSH32 0x4F6E6C792061646D696E2063616E2073657420746865206D61726B6574706C61 PUSH1 0x0 DUP3 ADD MSTORE PUSH32 0x636520616464726573732E000000000000000000000000000000000000000000 PUSH1 0x20 DUP3 ADD MSTORE POP JUMP JUMPDEST PUSH1 0x0 PUSH3 0x3327 PUSH1 0x2B DUP4 PUSH3 0x2922 JUMP JUMPDEST SWAP2 POP PUSH3 0x3334 DUP3 PUSH3 0x32C9 JUMP JUMPDEST PUSH1 0x40 DUP3 ADD SWAP1 POP SWAP2 SWAP1 POP JUMP JUMPDEST PUSH1 0x0 PUSH1 0x20 DUP3 ADD SWAP1 POP DUP2 DUP2 SUB PUSH1 0x0 DUP4 ADD MSTORE PUSH3 0x335A DUP2 PUSH3 0x3318 JUMP JUMPDEST SWAP1 POP SWAP2 SWAP1 POP JUMP JUMPDEST PUSH32 0x4F6E6C792061646D696E2063616E20706572666F726D2074686973206F706572 PUSH1 0x0 DUP3 ADD MSTORE PUSH32 0x6174696F6E2E0000000000000000000000000000000000000000000000000000 PUSH1 0x20 DUP3 ADD MSTORE POP JUMP JUMPDEST PUSH1 0x0 PUSH3 0x33BF PUSH1 0x26 DUP4 PUSH3 0x2922 JUMP JUMPDEST SWAP2 POP PUSH3 0x33CC DUP3 PUSH3 0x3361 JUMP JUMPDEST PUSH1 0x40 DUP3 ADD SWAP1 POP SWAP2 SWAP1 POP JUMP JUMPDEST PUSH1 0x0 PUSH1 0x20 DUP3 ADD SWAP1 POP DUP2 DUP2 SUB PUSH1 0x0 DUP4 ADD MSTORE PUSH3 0x33F2 DUP2 PUSH3 0x33B0 JUMP JUMPDEST SWAP1 POP SWAP2 SWAP1 POP JUMP JUMPDEST PUSH1 0x0 PUSH1 0xA0 DUP3 DUP5 SUB SLT ISZERO PUSH3 0x3412 JUMPI PUSH3 0x3411 PUSH3 0x2A50 JUMP JUMPDEST JUMPDEST PUSH3 0x341E PUSH1 0xA0 PUSH3 0x262F JUMP JUMPDEST SWAP1 POP PUSH1 0x0 PUSH3 0x3430 DUP5 DUP3 DUP6 ADD PUSH3 0x2A5A JUMP JUMPDEST PUSH1 0x0 DUP4 ADD MSTORE POP PUSH1 0x20 PUSH3 0x3446 DUP5 DUP3 DUP6 ADD PUSH3 0x2A5A JUMP JUMPDEST PUSH1 0x20 DUP4 ADD MSTORE POP PUSH1 0x40 PUSH3 0x345C DUP5 DUP3 DUP6 ADD PUSH3 0x2F2C JUMP JUMPDEST PUSH1 0x40 DUP4 ADD MSTORE POP PUSH1 0x60 PUSH3 0x3472 DUP5 DUP3 DUP6 ADD PUSH3 0x2F2C JUMP JUMPDEST PUSH1 0x60 DUP4 ADD MSTORE POP PUSH1 0x80 PUSH3 0x3488 DUP5 DUP3 DUP6 ADD PUSH3 0x2A5A JUMP JUMPDEST PUSH1 0x80 DUP4 ADD MSTORE POP SWAP3 SWAP2 POP POP JUMP JUMPDEST PUSH1 0x0 PUSH1 0xA0 DUP3 DUP5 SUB SLT ISZERO PUSH3 0x34AD JUMPI PUSH3 0x34AC PUSH3 0x1FDC JUMP JUMPDEST JUMPDEST PUSH1 0x0 PUSH3 0x34BD DUP5 DUP3 DUP6 ADD PUSH3 0x33F9 JUMP JUMPDEST SWAP2 POP POP SWAP3 SWAP2 POP POP JUMP JUMPDEST PUSH1 0x0 PUSH1 0x20 DUP3 DUP5 SUB SLT ISZERO PUSH3 0x34DF JUMPI PUSH3 0x34DE PUSH3 0x1FDC JUMP JUMPDEST JUMPDEST PUSH1 0x0 PUSH3 0x34EF DUP5 DUP3 DUP6 ADD PUSH3 0x2B3F JUMP JUMPDEST SWAP2 POP POP SWAP3 SWAP2 POP POP JUMP JUMPDEST PUSH1 0x4 DUP2 LT PUSH3 0x3506 JUMPI PUSH1 0x0 DUP1 REVERT JUMPDEST POP JUMP JUMPDEST PUSH1 0x0 DUP2 MLOAD SWAP1 POP PUSH3 0x351A DUP2 PUSH3 0x34F8 JUMP JUMPDEST SWAP3 SWAP2 POP POP JUMP JUMPDEST PUSH1 0x0 PUSH1 0x20 DUP3 DUP5 SUB SLT ISZERO PUSH3 0x3539 JUMPI PUSH3 0x3538 PUSH3 0x1FDC JUMP JUMPDEST JUMPDEST PUSH1 0x0 PUSH3 0x3549 DUP5 DUP3 DUP6 ADD PUSH3 0x3509 JUMP JUMPDEST SWAP2 POP POP SWAP3 SWAP2 POP POP JUMP JUMPDEST PUSH1 0x0 PUSH1 0x20 DUP3 DUP5 SUB SLT ISZERO PUSH3 0x356B JUMPI PUSH3 0x356A PUSH3 0x1FDC JUMP JUMPDEST JUMPDEST PUSH1 0x0 DUP3 ADD MLOAD PUSH8 0xFFFFFFFFFFFFFFFF DUP2 GT ISZERO PUSH3 0x358C JUMPI PUSH3 0x358B PUSH3 0x1FE1 JUMP JUMPDEST JUMPDEST PUSH3 0x359A DUP5 DUP3 DUP6 ADD PUSH3 0x2B0C JUMP JUMPDEST SWAP2 POP POP SWAP3 SWAP2 POP POP JUMP JUMPDEST PUSH32 0x4F6E6C792074686520636C69656E742063616E20706572666F726D2074686973 PUSH1 0x0 DUP3 ADD MSTORE PUSH32 0x206F7065726174696F6E2E000000000000000000000000000000000000000000 PUSH1 0x20 DUP3 ADD MSTORE POP JUMP JUMPDEST PUSH1 0x0 PUSH3 0x3601 PUSH1 0x2B DUP4 PUSH3 0x2922 JUMP JUMPDEST SWAP2 POP PUSH3 0x360E DUP3 PUSH3 0x35A3 JUMP JUMPDEST PUSH1 0x40 DUP3 ADD SWAP1 POP SWAP2 SWAP1 POP JUMP JUMPDEST PUSH1 0x0 PUSH1 0x20 DUP3 ADD SWAP1 POP DUP2 DUP2 SUB PUSH1 0x0 DUP4 ADD MSTORE PUSH3 0x3634 DUP2 PUSH3 0x35F2 JUMP JUMPDEST SWAP1 POP SWAP2 SWAP1 POP JUMP JUMPDEST PUSH32 0x4E6F7420656E6F7567682066756E64732070726F76696465642E000000000000 PUSH1 0x0 DUP3 ADD MSTORE POP JUMP JUMPDEST PUSH1 0x0 PUSH3 0x3673 PUSH1 0x1A DUP4 PUSH3 0x2922 JUMP JUMPDEST SWAP2 POP PUSH3 0x3680 DUP3 PUSH3 0x363B JUMP JUMPDEST PUSH1 0x20 DUP3 ADD SWAP1 POP SWAP2 SWAP1 POP JUMP JUMPDEST PUSH1 0x0 PUSH1 0x20 DUP3 ADD SWAP1 POP DUP2 DUP2 SUB PUSH1 0x0 DUP4 ADD MSTORE PUSH3 0x36A6 DUP2 PUSH3 0x3664 JUMP JUMPDEST SWAP1 POP SWAP2 SWAP1 POP JUMP JUMPDEST PUSH3 0x36B8 DUP2 PUSH3 0x20BF JUMP JUMPDEST DUP3 MSTORE POP POP JUMP JUMPDEST PUSH1 0x0 PUSH1 0xA0 DUP3 ADD SWAP1 POP PUSH3 0x36D5 PUSH1 0x0 DUP4 ADD DUP9 PUSH3 0x36AD JUMP JUMPDEST PUSH3 0x36E4 PUSH1 0x20 DUP4 ADD DUP8 PUSH3 0x2592 JUMP JUMPDEST DUP2 DUP2 SUB PUSH1 0x40 DUP4 ADD MSTORE PUSH3 0x36F8 DUP2 DUP7 PUSH3 0x2933 JUMP JUMPDEST SWAP1 POP PUSH3 0x3709 PUSH1 0x60 DUP4 ADD DUP6 PUSH3 0x2592 JUMP JUMPDEST PUSH3 0x3718 PUSH1 0x80 DUP4 ADD DUP5 PUSH3 0x2592 JUMP JUMPDEST SWAP7 SWAP6 POP POP POP POP POP POP JUMP JUMPDEST PUSH32 0x547269676765725461736B506F6F6C2073746172740000000000000000000000 PUSH1 0x0 DUP3 ADD MSTORE POP JUMP JUMPDEST PUSH1 0x0 PUSH3 0x375A PUSH1 0x15 DUP4 PUSH3 0x2922 JUMP JUMPDEST SWAP2 POP PUSH3 0x3767 DUP3 PUSH3 0x3722 JUMP JUMPDEST PUSH1 0x20 DUP3 ADD SWAP1 POP SWAP2 SWAP1 POP JUMP JUMPDEST PUSH1 0x0 PUSH1 0x20 DUP3 ADD SWAP1 POP DUP2 DUP2 SUB PUSH1 0x0 DUP4 ADD MSTORE PUSH3 0x378D DUP2 PUSH3 0x374B JUMP JUMPDEST SWAP1 POP SWAP2 SWAP1 POP JUMP JUMPDEST PUSH3 0x379F DUP2 PUSH3 0x2814 JUMP JUMPDEST DUP3 MSTORE POP POP JUMP JUMPDEST PUSH1 0x0 PUSH1 0x20 DUP3 ADD SWAP1 POP PUSH3 0x37BC PUSH1 0x0 DUP4 ADD DUP5 PUSH3 0x3794 JUMP JUMPDEST SWAP3 SWAP2 POP POP JUMP JUMPDEST PUSH1 0x0 PUSH1 0x80 DUP3 ADD SWAP1 POP PUSH3 0x37D9 PUSH1 0x0 DUP4 ADD DUP8 PUSH3 0x2592 JUMP JUMPDEST PUSH3 0x37E8 PUSH1 0x20 DUP4 ADD DUP7 PUSH3 0x2592 JUMP JUMPDEST PUSH3 0x37F7 PUSH1 0x40 DUP4 ADD DUP6 PUSH3 0x2592 JUMP JUMPDEST PUSH3 0x3806 PUSH1 0x60 DUP4 ADD DUP5 PUSH3 0x2592 JUMP JUMPDEST SWAP6 SWAP5 POP POP POP POP POP JUMP JUMPDEST PUSH1 0x0 PUSH1 0x40 DUP3 ADD SWAP1 POP PUSH3 0x3826 PUSH1 0x0 DUP4 ADD DUP6 PUSH3 0x2592 JUMP JUMPDEST PUSH3 0x3835 PUSH1 0x20 DUP4 ADD DUP5 PUSH3 0x2592 JUMP JUMPDEST SWAP4 SWAP3 POP POP POP JUMP JUMPDEST PUSH32 0x547269676765725461736B506F6F6C20656E6400000000000000000000000000 PUSH1 0x0 DUP3 ADD MSTORE POP JUMP JUMPDEST PUSH1 0x0 PUSH3 0x3874 PUSH1 0x13 DUP4 PUSH3 0x2922 JUMP JUMPDEST SWAP2 POP PUSH3 0x3881 DUP3 PUSH3 0x383C JUMP JUMPDEST PUSH1 0x20 DUP3 ADD SWAP1 POP SWAP2 SWAP1 POP JUMP JUMPDEST PUSH1 0x0 PUSH1 0x20 DUP3 ADD SWAP1 POP DUP2 DUP2 SUB PUSH1 0x0 DUP4 ADD MSTORE PUSH3 0x38A7 DUP2 PUSH3 0x3865 JUMP JUMPDEST SWAP1 POP SWAP2 SWAP1 POP JUMP INVALID PUSH1 0x80 PUSH1 0x40 MSTORE CALLVALUE DUP1 ISZERO PUSH3 0x11 JUMPI PUSH1 0x0 DUP1 REVERT JUMPDEST POP PUSH1 0x40 MLOAD PUSH3 0xE82 CODESIZE SUB DUP1 PUSH3 0xE82 DUP4 CODECOPY DUP2 DUP2 ADD PUSH1 0x40 MSTORE DUP2 ADD SWAP1 PUSH3 0x37 SWAP2 SWAP1 PUSH3 0x31A JUMP JUMPDEST PUSH1 0x0 PUSH1 0x1 DUP2 SWAP1 SSTORE POP PUSH1 0x0 DUP1 DUP2 SWAP1 SSTORE POP DUP4 PUSH1 0x2 PUSH1 0x0 PUSH2 0x100 EXP DUP2 SLOAD DUP2 PUSH20 0xFFFFFFFFFFFFFFFFFFFFFFFFFFFFFFFFFFFFFFFF MUL NOT AND SWAP1 DUP4 PUSH20 0xFFFFFFFFFFFFFFFFFFFFFFFFFFFFFFFFFFFFFFFF AND MUL OR SWAP1 SSTORE POP PUSH1 0x0 PUSH1 0x3 DUP2 SWAP1 SSTORE POP PUSH1 0x0 PUSH1 0x6 PUSH1 0x0 PUSH2 0x100 EXP DUP2 SLOAD DUP2 PUSH1 0xFF MUL NOT AND SWAP1 DUP4 PUSH1 0x3 DUP2 GT ISZERO PUSH3 0xB8 JUMPI PUSH3 0xB7 PUSH3 0x3AB JUMP JUMPDEST JUMPDEST MUL OR SWAP1 SSTORE POP DUP3 PUSH1 0x4 SWAP1 DUP2 PUSH3 0xCE SWAP2 SWAP1 PUSH3 0x61B JUMP JUMPDEST POP DUP2 PUSH1 0x5 DUP2 SWAP1 SSTORE POP DUP1 PUSH1 0x7 DUP2 SWAP1 SSTORE POP POP POP POP POP PUSH3 0x702 JUMP JUMPDEST PUSH1 0x0 PUSH1 0x40 MLOAD SWAP1 POP SWAP1 JUMP JUMPDEST PUSH1 0x0 DUP1 REVERT JUMPDEST PUSH1 0x0 DUP1 REVERT JUMPDEST PUSH1 0x0 PUSH20 0xFFFFFFFFFFFFFFFFFFFFFFFFFFFFFFFFFFFFFFFF DUP3 AND SWAP1 POP SWAP2 SWAP1 POP JUMP JUMPDEST PUSH1 0x0 PUSH3 0x128 DUP3 PUSH3 0xFB JUMP JUMPDEST SWAP1 POP SWAP2 SWAP1 POP JUMP JUMPDEST PUSH3 0x13A DUP2 PUSH3 0x11B JUMP JUMPDEST DUP2 EQ PUSH3 0x146 JUMPI PUSH1 0x0 DUP1 REVERT JUMPDEST POP JUMP JUMPDEST PUSH1 0x0 DUP2 MLOAD SWAP1 POP PUSH3 0x15A DUP2 PUSH3 0x12F JUMP JUMPDEST SWAP3 SWAP2 POP POP JUMP JUMPDEST PUSH1 0x0 DUP1 REVERT JUMPDEST PUSH1 0x0 DUP1 REVERT JUMPDEST PUSH1 0x0 PUSH1 0x1F NOT PUSH1 0x1F DUP4 ADD AND SWAP1 POP SWAP2 SWAP1 POP JUMP JUMPDEST PUSH32 0x4E487B7100000000000000000000000000000000000000000000000000000000 PUSH1 0x0 MSTORE PUSH1 0x41 PUSH1 0x4 MSTORE PUSH1 0x24 PUSH1 0x0 REVERT JUMPDEST PUSH3 0x1B5 DUP3 PUSH3 0x16A JUMP JUMPDEST DUP2 ADD DUP2 DUP2 LT PUSH8 0xFFFFFFFFFFFFFFFF DUP3 GT OR ISZERO PUSH3 0x1D7 JUMPI PUSH3 0x1D6 PUSH3 0x17B JUMP JUMPDEST JUMPDEST DUP1 PUSH1 0x40 MSTORE POP POP POP JUMP JUMPDEST PUSH1 0x0 PUSH3 0x1EC PUSH3 0xE7 JUMP JUMPDEST SWAP1 POP PUSH3 0x1FA DUP3 DUP3 PUSH3 0x1AA JUMP JUMPDEST SWAP2 SWAP1 POP JUMP JUMPDEST PUSH1 0x0 PUSH8 0xFFFFFFFFFFFFFFFF DUP3 GT ISZERO PUSH3 0x21D JUMPI PUSH3 0x21C PUSH3 0x17B JUMP JUMPDEST JUMPDEST PUSH3 0x228 DUP3 PUSH3 0x16A JUMP JUMPDEST SWAP1 POP PUSH1 0x20 DUP2 ADD SWAP1 POP SWAP2 SWAP1 POP JUMP JUMPDEST PUSH1 0x0 JUMPDEST DUP4 DUP2 LT ISZERO PUSH3 0x255 JUMPI DUP1 DUP3 ADD MLOAD DUP2 DUP5 ADD MSTORE PUSH1 0x20 DUP2 ADD SWAP1 POP PUSH3 0x238 JUMP JUMPDEST PUSH1 0x0 DUP5 DUP5 ADD MSTORE POP POP POP POP JUMP JUMPDEST PUSH1 0x0 PUSH3 0x278 PUSH3 0x272 DUP5 PUSH3 0x1FF JUMP JUMPDEST PUSH3 0x1E0 JUMP JUMPDEST SWAP1 POP DUP3 DUP2 MSTORE PUSH1 0x20 DUP2 ADD DUP5 DUP5 DUP5 ADD GT ISZERO PUSH3 0x297 JUMPI PUSH3 0x296 PUSH3 0x165 JUMP JUMPDEST JUMPDEST PUSH3 0x2A4 DUP5 DUP3 DUP6 PUSH3 0x235 JUMP JUMPDEST POP SWAP4 SWAP3 POP POP POP JUMP JUMPDEST PUSH1 0x0 DUP3 PUSH1 0x1F DUP4 ADD SLT PUSH3 0x2C4 JUMPI PUSH3 0x2C3 PUSH3 0x160 JUMP JUMPDEST JUMPDEST DUP2 MLOAD PUSH3 0x2D6 DUP5 DUP3 PUSH1 0x20 DUP7 ADD PUSH3 0x261 JUMP JUMPDEST SWAP2 POP POP SWAP3 SWAP2 POP POP JUMP JUMPDEST PUSH1 0x0 DUP2 SWAP1 POP SWAP2 SWAP1 POP JUMP JUMPDEST PUSH3 0x2F4 DUP2 PUSH3 0x2DF JUMP JUMPDEST DUP2 EQ PUSH3 0x300 JUMPI PUSH1 0x0 DUP1 REVERT JUMPDEST POP JUMP JUMPDEST PUSH1 0x0 DUP2 MLOAD SWAP1 POP PUSH3 0x314 DUP2 PUSH3 0x2E9 JUMP JUMPDEST SWAP3 SWAP2 POP POP JUMP JUMPDEST PUSH1 0x0 DUP1 PUSH1 0x0 DUP1 PUSH1 0x80 DUP6 DUP8 SUB SLT ISZERO PUSH3 0x337 JUMPI PUSH3 0x336 PUSH3 0xF1 JUMP JUMPDEST JUMPDEST PUSH1 0x0 PUSH3 0x347 DUP8 DUP3 DUP9 ADD PUSH3 0x149 JUMP JUMPDEST SWAP5 POP POP PUSH1 0x20 DUP6 ADD MLOAD PUSH8 0xFFFFFFFFFFFFFFFF DUP2 GT ISZERO PUSH3 0x36B JUMPI PUSH3 0x36A PUSH3 0xF6 JUMP JUMPDEST JUMPDEST PUSH3 0x379 DUP8 DUP3 DUP9 ADD PUSH3 0x2AC JUMP JUMPDEST SWAP4 POP POP PUSH1 0x40 PUSH3 0x38C DUP8 DUP3 DUP9 ADD PUSH3 0x303 JUMP JUMPDEST SWAP3 POP POP PUSH1 0x60 PUSH3 0x39F DUP8 DUP3 DUP9 ADD PUSH3 0x303 JUMP JUMPDEST SWAP2 POP POP SWAP3 SWAP6 SWAP2 SWAP5 POP SWAP3 POP JUMP JUMPDEST PUSH32 0x4E487B7100000000000000000000000000000000000000000000000000000000 PUSH1 0x0 MSTORE PUSH1 0x21 PUSH1 0x4 MSTORE PUSH1 0x24 PUSH1 0x0 REVERT JUMPDEST PUSH1 0x0 DUP2 MLOAD SWAP1 POP SWAP2 SWAP1 POP JUMP JUMPDEST PUSH32 0x4E487B7100000000000000000000000000000000000000000000000000000000 PUSH1 0x0 MSTORE PUSH1 0x22 PUSH1 0x4 MSTORE PUSH1 0x24 PUSH1 0x0 REVERT JUMPDEST PUSH1 0x0 PUSH1 0x2 DUP3 DIV SWAP1 POP PUSH1 0x1 DUP3 AND DUP1 PUSH3 0x42D JUMPI PUSH1 0x7F DUP3 AND SWAP2 POP JUMPDEST PUSH1 0x20 DUP3 LT DUP2 SUB PUSH3 0x443 JUMPI PUSH3 0x442 PUSH3 0x3E5 JUMP JUMPDEST JUMPDEST POP SWAP2 SWAP1 POP JUMP JUMPDEST PUSH1 0x0 DUP2 SWAP1 POP DUP2 PUSH1 0x0 MSTORE PUSH1 0x20 PUSH1 0x0 KECCAK256 SWAP1 POP SWAP2 SWAP1 POP JUMP JUMPDEST PUSH1 0x0 PUSH1 0x20 PUSH1 0x1F DUP4 ADD DIV SWAP1 POP SWAP2 SWAP1 POP JUMP JUMPDEST PUSH1 0x0 DUP3 DUP3 SHL SWAP1 POP SWAP3 SWAP2 POP POP JUMP JUMPDEST PUSH1 0x0 PUSH1 0x8 DUP4 MUL PUSH3 0x4AD PUSH32 0xFFFFFFFFFFFFFFFFFFFFFFFFFFFFFFFFFFFFFFFFFFFFFFFFFFFFFFFFFFFFFFFF DUP3 PUSH3 0x46E JUMP JUMPDEST PUSH3 0x4B9 DUP7 DUP4 PUSH3 0x46E JUMP JUMPDEST SWAP6 POP DUP1 NOT DUP5 AND SWAP4 POP DUP1 DUP7 AND DUP5 OR SWAP3 POP POP POP SWAP4 SWAP3 POP POP POP JUMP JUMPDEST PUSH1 0x0 DUP2 SWAP1 POP SWAP2 SWAP1 POP JUMP JUMPDEST PUSH1 0x0 PUSH3 0x4FC PUSH3 0x4F6 PUSH3 0x4F0 DUP5 PUSH3 0x2DF JUMP JUMPDEST PUSH3 0x4D1 JUMP JUMPDEST PUSH3 0x2DF JUMP JUMPDEST SWAP1 POP SWAP2 SWAP1 POP JUMP JUMPDEST PUSH1 0x0 DUP2 SWAP1 POP SWAP2 SWAP1 POP JUMP JUMPDEST PUSH3 0x518 DUP4 PUSH3 0x4DB JUMP JUMPDEST PUSH3 0x530 PUSH3 0x527 DUP3 PUSH3 0x503 JUMP JUMPDEST DUP5 DUP5 SLOAD PUSH3 0x47B JUMP JUMPDEST DUP3 SSTORE POP POP POP POP JUMP JUMPDEST PUSH1 0x0 SWAP1 JUMP JUMPDEST PUSH3 0x547 PUSH3 0x538 JUMP JUMPDEST PUSH3 0x554 DUP2 DUP5 DUP5 PUSH3 0x50D JUMP JUMPDEST POP POP POP JUMP JUMPDEST JUMPDEST DUP2 DUP2 LT ISZERO PUSH3 0x57C JUMPI PUSH3 0x570 PUSH1 0x0 DUP3 PUSH3 0x53D JUMP JUMPDEST PUSH1 0x1 DUP2 ADD SWAP1 POP PUSH3 0x55A JUMP JUMPDEST POP POP JUMP JUMPDEST PUSH1 0x1F DUP3 GT ISZERO PUSH3 0x5CB JUMPI PUSH3 0x595 DUP2 PUSH3 0x449 JUMP JUMPDEST PUSH3 0x5A0 DUP5 PUSH3 0x45E JUMP JUMPDEST DUP2 ADD PUSH1 0x20 DUP6 LT ISZERO PUSH3 0x5B0 JUMPI DUP2 SWAP1 POP JUMPDEST PUSH3 0x5C8 PUSH3 0x5BF DUP6 PUSH3 0x45E JUMP JUMPDEST DUP4 ADD DUP3 PUSH3 0x559 JUMP JUMPDEST POP POP JUMPDEST POP POP POP JUMP JUMPDEST PUSH1 0x0 DUP3 DUP3 SHR SWAP1 POP SWAP3 SWAP2 POP POP JUMP JUMPDEST PUSH1 0x0 PUSH3 0x5F0 PUSH1 0x0 NOT DUP5 PUSH1 0x8 MUL PUSH3 0x5D0 JUMP JUMPDEST NOT DUP1 DUP4 AND SWAP2 POP POP SWAP3 SWAP2 POP POP JUMP JUMPDEST PUSH1 0x0 PUSH3 0x60B DUP4 DUP4 PUSH3 0x5DD JUMP JUMPDEST SWAP2 POP DUP3 PUSH1 0x2 MUL DUP3 OR SWAP1 POP SWAP3 SWAP2 POP POP JUMP JUMPDEST PUSH3 0x626 DUP3 PUSH3 0x3DA JUMP JUMPDEST PUSH8 0xFFFFFFFFFFFFFFFF DUP2 GT ISZERO PUSH3 0x642 JUMPI PUSH3 0x641 PUSH3 0x17B JUMP JUMPDEST JUMPDEST PUSH3 0x64E DUP3 SLOAD PUSH3 0x414 JUMP JUMPDEST PUSH3 0x65B DUP3 DUP3 DUP6 PUSH3 0x580 JUMP JUMPDEST PUSH1 0x0 PUSH1 0x20 SWAP1 POP PUSH1 0x1F DUP4 GT PUSH1 0x1 DUP2 EQ PUSH3 0x693 JUMPI PUSH1 0x0 DUP5 ISZERO PUSH3 0x67E JUMPI DUP3 DUP8 ADD MLOAD SWAP1 POP JUMPDEST PUSH3 0x68A DUP6 DUP3 PUSH3 0x5FD JUMP JUMPDEST DUP7 SSTORE POP PUSH3 0x6FA JUMP JUMPDEST PUSH1 0x1F NOT DUP5 AND PUSH3 0x6A3 DUP7 PUSH3 0x449 JUMP JUMPDEST PUSH1 0x0 JUMPDEST DUP3 DUP2 LT ISZERO PUSH3 0x6CD JUMPI DUP5 DUP10 ADD MLOAD DUP3 SSTORE PUSH1 0x1 DUP3 ADD SWAP2 POP PUSH1 0x20 DUP6 ADD SWAP5 POP PUSH1 0x20 DUP2 ADD SWAP1 POP PUSH3 0x6A6 JUMP JUMPDEST DUP7 DUP4 LT ISZERO PUSH3 0x6ED JUMPI DUP5 DUP10 ADD MLOAD PUSH3 0x6E9 PUSH1 0x1F DUP10 AND DUP3 PUSH3 0x5DD JUMP JUMPDEST DUP4 SSTORE POP JUMPDEST PUSH1 0x1 PUSH1 0x2 DUP9 MUL ADD DUP9 SSTORE POP POP POP JUMPDEST POP POP POP POP POP POP JUMP JUMPDEST PUSH2 0x770 DUP1 PUSH3 0x712 PUSH1 0x0 CODECOPY PUSH1 0x0 RETURN INVALID PUSH1 0x80 PUSH1 0x40 MSTORE CALLVALUE DUP1 ISZERO PUSH2 0x10 JUMPI PUSH1 0x0 DUP1 REVERT JUMPDEST POP PUSH1 0x4 CALLDATASIZE LT PUSH2 0xB4 JUMPI PUSH1 0x0 CALLDATALOAD PUSH1 0xE0 SHR DUP1 PUSH4 0xA85CB629 GT PUSH2 0x71 JUMPI DUP1 PUSH4 0xA85CB629 EQ PUSH2 0x16B JUMPI DUP1 PUSH4 0xB8896EB6 EQ PUSH2 0x187 JUMPI DUP1 PUSH4 0xBA0179B5 EQ PUSH2 0x1A3 JUMPI DUP1 PUSH4 0xBEE80FC5 EQ PUSH2 0x1BF JUMPI DUP1 PUSH4 0xC35905C6 EQ PUSH2 0x1DD JUMPI DUP1 PUSH4 0xE7B0B190 EQ PUSH2 0x1FB JUMPI PUSH2 0xB4 JUMP JUMPDEST DUP1 PUSH4 0x109E94CF EQ PUSH2 0xB9 JUMPI DUP1 PUSH4 0x2728E28B EQ PUSH2 0xD7 JUMPI DUP1 PUSH4 0x2C898945 EQ PUSH2 0xF5 JUMPI DUP1 PUSH4 0x523B0B36 EQ PUSH2 0x113 JUMPI DUP1 PUSH4 0x58E9D3D5 EQ PUSH2 0x131 JUMPI DUP1 PUSH4 0x90EF73E2 EQ PUSH2 0x14F JUMPI JUMPDEST PUSH1 0x0 DUP1 REVERT JUMPDEST PUSH2 0xC1 PUSH2 0x219 JUMP JUMPDEST PUSH1 0x40 MLOAD PUSH2 0xCE SWAP2 SWAP1 PUSH2 0x42B JUMP JUMPDEST PUSH1 0x40 MLOAD DUP1 SWAP2 SUB SWAP1 RETURN JUMPDEST PUSH2 0xDF PUSH2 0x23F JUMP JUMPDEST PUSH1 0x40 MLOAD PUSH2 0xEC SWAP2 SWAP1 PUSH2 0x4BD JUMP JUMPDEST PUSH1 0x40 MLOAD DUP1 SWAP2 SUB SWAP1 RETURN JUMPDEST PUSH2 0xFD PUSH2 0x252 JUMP JUMPDEST PUSH1 0x40 MLOAD PUSH2 0x10A SWAP2 SWAP1 PUSH2 0x4F1 JUMP JUMPDEST PUSH1 0x40 MLOAD DUP1 SWAP2 SUB SWAP1 RETURN JUMPDEST PUSH2 0x11B PUSH2 0x258 JUMP JUMPDEST PUSH1 0x40 MLOAD PUSH2 0x128 SWAP2 SWAP1 PUSH2 0x4F1 JUMP JUMPDEST PUSH1 0x40 MLOAD DUP1 SWAP2 SUB SWAP1 RETURN JUMPDEST PUSH2 0x139 PUSH2 0x25E JUMP JUMPDEST PUSH1 0x40 MLOAD PUSH2 0x146 SWAP2 SWAP1 PUSH2 0x59C JUMP JUMPDEST PUSH1 0x40 MLOAD DUP1 SWAP2 SUB SWAP1 RETURN JUMPDEST PUSH2 0x169 PUSH1 0x4 DUP1 CALLDATASIZE SUB DUP2 ADD SWAP1 PUSH2 0x164 SWAP2 SWAP1 PUSH2 0x5EF JUMP JUMPDEST PUSH2 0x2EC JUMP JUMPDEST STOP JUMPDEST PUSH2 0x185 PUSH1 0x4 DUP1 CALLDATASIZE SUB DUP2 ADD SWAP1 PUSH2 0x180 SWAP2 SWAP1 PUSH2 0x5EF JUMP JUMPDEST PUSH2 0x2F6 JUMP JUMPDEST STOP JUMPDEST PUSH2 0x1A1 PUSH1 0x4 DUP1 CALLDATASIZE SUB DUP2 ADD SWAP1 PUSH2 0x19C SWAP2 SWAP1 PUSH2 0x641 JUMP JUMPDEST PUSH2 0x300 JUMP JUMPDEST STOP JUMPDEST PUSH2 0x1BD PUSH1 0x4 DUP1 CALLDATASIZE SUB DUP2 ADD SWAP1 PUSH2 0x1B8 SWAP2 SWAP1 PUSH2 0x5EF JUMP JUMPDEST PUSH2 0x32D JUMP JUMPDEST STOP JUMPDEST PUSH2 0x1C7 PUSH2 0x3D8 JUMP JUMPDEST PUSH1 0x40 MLOAD PUSH2 0x1D4 SWAP2 SWAP1 PUSH2 0x4F1 JUMP JUMPDEST PUSH1 0x40 MLOAD DUP1 SWAP2 SUB SWAP1 RETURN JUMPDEST PUSH2 0x1E5 PUSH2 0x3DE JUMP JUMPDEST PUSH1 0x40 MLOAD PUSH2 0x1F2 SWAP2 SWAP1 PUSH2 0x4F1 JUMP JUMPDEST PUSH1 0x40 MLOAD DUP1 SWAP2 SUB SWAP1 RETURN JUMPDEST PUSH2 0x203 PUSH2 0x3E4 JUMP JUMPDEST PUSH1 0x40 MLOAD PUSH2 0x210 SWAP2 SWAP1 PUSH2 0x4F1 JUMP JUMPDEST PUSH1 0x40 MLOAD DUP1 SWAP2 SUB SWAP1 RETURN JUMPDEST PUSH1 0x2 PUSH1 0x0 SWAP1 SLOAD SWAP1 PUSH2 0x100 EXP SWAP1 DIV PUSH20 0xFFFFFFFFFFFFFFFFFFFFFFFFFFFFFFFFFFFFFFFF AND DUP2 JUMP JUMPDEST PUSH1 0x6 PUSH1 0x0 SWAP1 SLOAD SWAP1 PUSH2 0x100 EXP SWAP1 DIV PUSH1 0xFF AND DUP2 JUMP JUMPDEST PUSH1 0x0 SLOAD DUP2 JUMP JUMPDEST PUSH1 0x5 SLOAD DUP2 JUMP JUMPDEST PUSH1 0x4 DUP1 SLOAD PUSH2 0x26B SWAP1 PUSH2 0x69D JUMP JUMPDEST DUP1 PUSH1 0x1F ADD PUSH1 0x20 DUP1 SWAP2 DIV MUL PUSH1 0x20 ADD PUSH1 0x40 MLOAD SWAP1 DUP2 ADD PUSH1 0x40 MSTORE DUP1 SWAP3 SWAP2 SWAP1 DUP2 DUP2 MSTORE PUSH1 0x20 ADD DUP3 DUP1 SLOAD PUSH2 0x297 SWAP1 PUSH2 0x69D JUMP JUMPDEST DUP1 ISZERO PUSH2 0x2E4 JUMPI DUP1 PUSH1 0x1F LT PUSH2 0x2B9 JUMPI PUSH2 0x100 DUP1 DUP4 SLOAD DIV MUL DUP4 MSTORE SWAP2 PUSH1 0x20 ADD SWAP2 PUSH2 0x2E4 JUMP JUMPDEST DUP3 ADD SWAP2 SWAP1 PUSH1 0x0 MSTORE PUSH1 0x20 PUSH1 0x0 KECCAK256 SWAP1 JUMPDEST DUP2 SLOAD DUP2 MSTORE SWAP1 PUSH1 0x1 ADD SWAP1 PUSH1 0x20 ADD DUP1 DUP4 GT PUSH2 0x2C7 JUMPI DUP3 SWAP1 SUB PUSH1 0x1F AND DUP3 ADD SWAP2 JUMPDEST POP POP POP POP POP DUP2 JUMP JUMPDEST DUP1 PUSH1 0x0 DUP2 SWAP1 SSTORE POP POP JUMP JUMPDEST DUP1 PUSH1 0x1 DUP2 SWAP1 SSTORE POP POP JUMP JUMPDEST DUP1 PUSH1 0x6 PUSH1 0x0 PUSH2 0x100 EXP DUP2 SLOAD DUP2 PUSH1 0xFF MUL NOT AND SWAP1 DUP4 PUSH1 0x3 DUP2 GT ISZERO PUSH2 0x325 JUMPI PUSH2 0x324 PUSH2 0x446 JUMP JUMPDEST JUMPDEST MUL OR SWAP1 SSTORE POP POP JUMP JUMPDEST PUSH1 0x1 PUSH1 0x3 DUP2 GT ISZERO PUSH2 0x341 JUMPI PUSH2 0x340 PUSH2 0x446 JUMP JUMPDEST JUMPDEST PUSH1 0x6 PUSH1 0x0 SWAP1 SLOAD SWAP1 PUSH2 0x100 EXP SWAP1 DIV PUSH1 0xFF AND PUSH1 0x3 DUP2 GT ISZERO PUSH2 0x363 JUMPI PUSH2 0x362 PUSH2 0x446 JUMP JUMPDEST JUMPDEST SUB PUSH2 0x3A3 JUMPI PUSH1 0x40 MLOAD PUSH32 0x8C379A000000000000000000000000000000000000000000000000000000000 DUP2 MSTORE PUSH1 0x4 ADD PUSH2 0x39A SWAP1 PUSH2 0x71A JUMP JUMPDEST PUSH1 0x40 MLOAD DUP1 SWAP2 SUB SWAP1 REVERT JUMPDEST DUP1 PUSH1 0x3 DUP2 SWAP1 SSTORE POP PUSH1 0x1 PUSH1 0x6 PUSH1 0x0 PUSH2 0x100 EXP DUP2 SLOAD DUP2 PUSH1 0xFF MUL NOT AND SWAP1 DUP4 PUSH1 0x3 DUP2 GT ISZERO PUSH2 0x3D0 JUMPI PUSH2 0x3CF PUSH2 0x446 JUMP JUMPDEST JUMPDEST MUL OR SWAP1 SSTORE POP POP JUMP JUMPDEST PUSH1 0x7 SLOAD DUP2 JUMP JUMPDEST PUSH1 0x3 SLOAD DUP2 JUMP JUMPDEST PUSH1 0x1 SLOAD DUP2 JUMP JUMPDEST PUSH1 0x0 PUSH20 0xFFFFFFFFFFFFFFFFFFFFFFFFFFFFFFFFFFFFFFFF DUP3 AND SWAP1 POP SWAP2 SWAP1 POP JUMP JUMPDEST PUSH1 0x0 PUSH2 0x415 DUP3 PUSH2 0x3EA JUMP JUMPDEST SWAP1 POP SWAP2 SWAP1 POP JUMP JUMPDEST PUSH2 0x425 DUP2 PUSH2 0x40A JUMP JUMPDEST DUP3 MSTORE POP POP JUMP JUMPDEST PUSH1 0x0 PUSH1 0x20 DUP3 ADD SWAP1 POP PUSH2 0x440 PUSH1 0x0 DUP4 ADD DUP5 PUSH2 0x41C JUMP JUMPDEST SWAP3 SWAP2 POP POP JUMP JUMPDEST PUSH32 0x4E487B7100000000000000000000000000000000000000000000000000000000 PUSH1 0x0 MSTORE PUSH1 0x21 PUSH1 0x4 MSTORE PUSH1 0x24 PUSH1 0x0 REVERT JUMPDEST PUSH1 0x4 DUP2 LT PUSH2 0x486 JUMPI PUSH2 0x485 PUSH2 0x446 JUMP JUMPDEST JUMPDEST POP JUMP JUMPDEST PUSH1 0x0 DUP2 SWAP1 POP PUSH2 0x497 DUP3 PUSH2 0x475 JUMP JUMPDEST SWAP2 SWAP1 POP JUMP JUMPDEST PUSH1 0x0 PUSH2 0x4A7 DUP3 PUSH2 0x489 JUMP JUMPDEST SWAP1 POP SWAP2 SWAP1 POP JUMP JUMPDEST PUSH2 0x4B7 DUP2 PUSH2 0x49C JUMP JUMPDEST DUP3 MSTORE POP POP JUMP JUMPDEST PUSH1 0x0 PUSH1 0x20 DUP3 ADD SWAP1 POP PUSH2 0x4D2 PUSH1 0x0 DUP4 ADD DUP5 PUSH2 0x4AE JUMP JUMPDEST SWAP3 SWAP2 POP POP JUMP JUMPDEST PUSH1 0x0 DUP2 SWAP1 POP SWAP2 SWAP1 POP JUMP JUMPDEST PUSH2 0x4EB DUP2 PUSH2 0x4D8 JUMP JUMPDEST DUP3 MSTORE POP POP JUMP JUMPDEST PUSH1 0x0 PUSH1 0x20 DUP3 ADD SWAP1 POP PUSH2 0x506 PUSH1 0x0 DUP4 ADD DUP5 PUSH2 0x4E2 JUMP JUMPDEST SWAP3 SWAP2 POP POP JUMP JUMPDEST PUSH1 0x0 DUP2 MLOAD SWAP1 POP SWAP2 SWAP1 POP JUMP JUMPDEST PUSH1 0x0 DUP3 DUP3 MSTORE PUSH1 0x20 DUP3 ADD SWAP1 POP SWAP3 SWAP2 POP POP JUMP JUMPDEST PUSH1 0x0 JUMPDEST DUP4 DUP2 LT ISZERO PUSH2 0x546 JUMPI DUP1 DUP3 ADD MLOAD DUP2 DUP5 ADD MSTORE PUSH1 0x20 DUP2 ADD SWAP1 POP PUSH2 0x52B JUMP JUMPDEST PUSH1 0x0 DUP5 DUP5 ADD MSTORE POP POP POP POP JUMP JUMPDEST PUSH1 0x0 PUSH1 0x1F NOT PUSH1 0x1F DUP4 ADD AND SWAP1 POP SWAP2 SWAP1 POP JUMP JUMPDEST PUSH1 0x0 PUSH2 0x56E DUP3 PUSH2 0x50C JUMP JUMPDEST PUSH2 0x578 DUP2 DUP6 PUSH2 0x517 JUMP JUMPDEST SWAP4 POP PUSH2 0x588 DUP2 DUP6 PUSH1 0x20 DUP7 ADD PUSH2 0x528 JUMP JUMPDEST PUSH2 0x591 DUP2 PUSH2 0x552 JUMP JUMPDEST DUP5 ADD SWAP2 POP POP SWAP3 SWAP2 POP POP JUMP JUMPDEST PUSH1 0x0 PUSH1 0x20 DUP3 ADD SWAP1 POP DUP2 DUP2 SUB PUSH1 0x0 DUP4 ADD MSTORE PUSH2 0x5B6 DUP2 DUP5 PUSH2 0x563 JUMP JUMPDEST SWAP1 POP SWAP3 SWAP2 POP POP JUMP JUMPDEST PUSH1 0x0 DUP1 REVERT JUMPDEST PUSH2 0x5CC DUP2 PUSH2 0x4D8 JUMP JUMPDEST DUP2 EQ PUSH2 0x5D7 JUMPI PUSH1 0x0 DUP1 REVERT JUMPDEST POP JUMP JUMPDEST PUSH1 0x0 DUP2 CALLDATALOAD SWAP1 POP PUSH2 0x5E9 DUP2 PUSH2 0x5C3 JUMP JUMPDEST SWAP3 SWAP2 POP POP JUMP JUMPDEST PUSH1 0x0 PUSH1 0x20 DUP3 DUP5 SUB SLT ISZERO PUSH2 0x605 JUMPI PUSH2 0x604 PUSH2 0x5BE JUMP JUMPDEST JUMPDEST PUSH1 0x0 PUSH2 0x613 DUP5 DUP3 DUP6 ADD PUSH2 0x5DA JUMP JUMPDEST SWAP2 POP POP SWAP3 SWAP2 POP POP JUMP JUMPDEST PUSH1 0x4 DUP2 LT PUSH2 0x629 JUMPI PUSH1 0x0 DUP1 REVERT JUMPDEST POP JUMP JUMPDEST PUSH1 0x0 DUP2 CALLDATALOAD SWAP1 POP PUSH2 0x63B DUP2 PUSH2 0x61C JUMP JUMPDEST SWAP3 SWAP2 POP POP JUMP JUMPDEST PUSH1 0x0 PUSH1 0x20 DUP3 DUP5 SUB SLT ISZERO PUSH2 0x657 JUMPI PUSH2 0x656 PUSH2 0x5BE JUMP JUMPDEST JUMPDEST PUSH1 0x0 PUSH2 0x665 DUP5 DUP3 DUP6 ADD PUSH2 0x62C JUMP JUMPDEST SWAP2 POP POP SWAP3 SWAP2 POP POP JUMP JUMPDEST PUSH32 0x4E487B7100000000000000000000000000000000000000000000000000000000 PUSH1 0x0 MSTORE PUSH1 0x22 PUSH1 0x4 MSTORE PUSH1 0x24 PUSH1 0x0 REVERT JUMPDEST PUSH1 0x0 PUSH1 0x2 DUP3 DIV SWAP1 POP PUSH1 0x1 DUP3 AND DUP1 PUSH2 0x6B5 JUMPI PUSH1 0x7F DUP3 AND SWAP2 POP JUMPDEST PUSH1 0x20 DUP3 LT DUP2 SUB PUSH2 0x6C8 JUMPI PUSH2 0x6C7 PUSH2 0x66E JUMP JUMPDEST JUMPDEST POP SWAP2 SWAP1 POP JUMP JUMPDEST PUSH32 0x4F7264657220616C726561647920636F6E6669726D65642E0000000000000000 PUSH1 0x0 DUP3 ADD MSTORE POP JUMP JUMPDEST PUSH1 0x0 PUSH2 0x704 PUSH1 0x18 DUP4 PUSH2 0x517 JUMP JUMPDEST SWAP2 POP PUSH2 0x70F DUP3 PUSH2 0x6CE JUMP JUMPDEST PUSH1 0x20 DUP3 ADD SWAP1 POP SWAP2 SWAP1 POP JUMP JUMPDEST PUSH1 0x0 PUSH1 0x20 DUP3 ADD SWAP1 POP DUP2 DUP2 SUB PUSH1 0x0 DUP4 ADD MSTORE PUSH2 0x733 DUP2 PUSH2 0x6F7 JUMP JUMPDEST SWAP1 POP SWAP2 SWAP1 POP JUMP INVALID LOG2 PUSH5 0x6970667358 0x22 SLT KECCAK256 0xAA 0xD9 SWAP8 PUSH18 0xCB7BC1036342035CAFB5491BCB5DB8B27DE8 EXTCODESIZE DIV SSTORE MSIZE RETURNDATASIZE 0xC0 0xD4 PUSH2 0xFF75 PUSH5 0x736F6C6343 STOP ADDMOD SLT STOP CALLER LOG2 PUSH5 0x6970667358 0x22 SLT KECCAK256 REVERT ORIGIN 0xBE LT PUSH20 0xDEE7E2359252B37FE8A6512051E5DACD8D886F16 0xCD SWAP6 SHL 0xAF SWAP12 DUP1 0xBB PUSH5 0x736F6C6343 STOP ADDMOD SLT STOP CALLER "
		},
		"gasEstimates": {
			"creation": {
				"codeDepositCost": "3655600",
				"executionCost": "infinite",
				"totalCost": "infinite"
			},
			"external": {
				"CompleteTask(address,uint256)": "infinite",
				"addWorker(address,uint256)": "infinite",
				"confirmOrder(uint256,uint256)": "infinite",
				"createOrderPreview(string,uint256,uint256)": "infinite",
				"getOrderInfo(uint256)": "infinite",
				"getTask(uint256)": "infinite",
				"getUserOrders(address)": "infinite",
				"getWorkerInfo(address)": "infinite",
				"getWorkerList()": "infinite",
				"orders(uint256)": "infinite",
				"removeWorker(address)": "infinite",
				"setMarketplaceAddress(address)": "26959",
				"transferFunds(address,uint256)": "infinite",
				"userOrders(address,uint256)": "infinite",
				"workerLoad(address)": "2902"
			},
			"internal": {
				"TriggerTaskPool()": "infinite"
			}
		},
		"methodIdentifiers": {
			"CompleteTask(address,uint256)": "8db4b00f",
			"addWorker(address,uint256)": "6b6096fc",
			"confirmOrder(uint256,uint256)": "f38aa74d",
			"createOrderPreview(string,uint256,uint256)": "9e5da8fc",
			"getOrderInfo(uint256)": "d311636b",
			"getTask(uint256)": "1d65e77e",
			"getUserOrders(address)": "63c69f08",
			"getWorkerInfo(address)": "ce8ef7a6",
			"getWorkerList()": "1e7f931f",
			"orders(uint256)": "a85c38ef",
			"removeWorker(address)": "c4f987a5",
			"setMarketplaceAddress(address)": "b47cc556",
			"transferFunds(address,uint256)": "990dc9db",
			"userOrders(address,uint256)": "856652e9",
			"workerLoad(address)": "fd8a1682"
		}
	},
	"abi": [
		{
			"inputs": [
				{
					"internalType": "address payable",
					"name": "paymentAddress",
					"type": "address"
				},
				{
					"internalType": "address",
					"name": "taskPoolAddress",
					"type": "address"
				},
				{
					"internalType": "address",
					"name": "workerPoolAddress",
					"type": "address"
				}
			],
			"stateMutability": "nonpayable",
			"type": "constructor"
		},
		{
			"anonymous": false,
			"inputs": [
				{
					"indexed": false,
					"internalType": "uint256",
					"name": "orderId",
					"type": "uint256"
				},
				{
					"indexed": false,
					"internalType": "uint256",
					"name": "paymentAmount",
					"type": "uint256"
				}
			],
			"name": "ConfirmOrder",
			"type": "event"
		},
		{
			"anonymous": false,
			"inputs": [
				{
					"indexed": false,
					"internalType": "string",
					"name": "message",
					"type": "string"
				}
			],
			"name": "Log",
			"type": "event"
		},
		{
			"anonymous": false,
			"inputs": [
				{
					"indexed": false,
					"internalType": "bool",
					"name": "LogBool",
					"type": "bool"
				}
			],
			"name": "LogBool",
			"type": "event"
		},
		{
			"anonymous": false,
			"inputs": [
				{
					"indexed": false,
					"internalType": "address",
					"name": "adr",
					"type": "address"
				},
				{
					"indexed": false,
					"internalType": "address",
					"name": "adr2",
					"type": "address"
				}
			],
			"name": "Logad",
			"type": "event"
		},
		{
			"anonymous": false,
			"inputs": [
				{
					"indexed": false,
					"internalType": "string",
					"name": "message",
					"type": "string"
				},
				{
					"indexed": false,
					"internalType": "uint256",
					"name": "orderId",
					"type": "uint256"
				}
			],
			"name": "OrderCreated",
			"type": "event"
		},
		{
			"anonymous": false,
			"inputs": [
				{
					"indexed": true,
					"internalType": "uint256",
					"name": "taskId",
					"type": "uint256"
				},
				{
					"indexed": true,
					"internalType": "address",
					"name": "worker",
					"type": "address"
				}
			],
			"name": "TaskCompleted",
			"type": "event"
		},
		{
			"inputs": [
				{
					"internalType": "address",
					"name": "workerAddress",
					"type": "address"
				},
				{
					"internalType": "uint256",
					"name": "taskId",
					"type": "uint256"
				}
			],
			"name": "CompleteTask",
			"outputs": [],
			"stateMutability": "nonpayable",
			"type": "function"
		},
		{
			"inputs": [
				{
					"internalType": "address",
					"name": "worker",
					"type": "address"
				},
				{
					"internalType": "uint256",
					"name": "_computingPower",
					"type": "uint256"
				}
			],
			"name": "addWorker",
			"outputs": [],
			"stateMutability": "nonpayable",
			"type": "function"
		},
		{
			"inputs": [
				{
					"internalType": "uint256",
					"name": "orderId",
					"type": "uint256"
				},
				{
					"internalType": "uint256",
					"name": "paymentAmount",
					"type": "uint256"
				}
			],
			"name": "confirmOrder",
			"outputs": [],
			"stateMutability": "payable",
			"type": "function"
		},
		{
			"inputs": [
				{
					"internalType": "string",
					"name": "folderUrl",
					"type": "string"
				},
				{
					"internalType": "uint256",
					"name": "requiredPower",
					"type": "uint256"
				},
				{
					"internalType": "uint256",
					"name": "orderLevel",
					"type": "uint256"
				}
			],
			"name": "createOrderPreview",
			"outputs": [
				{
					"internalType": "uint256",
					"name": "",
					"type": "uint256"
				}
			],
			"stateMutability": "nonpayable",
			"type": "function"
		},
		{
			"inputs": [
				{
					"internalType": "uint256",
					"name": "orderId",
					"type": "uint256"
				}
			],
			"name": "getOrderInfo",
			"outputs": [
				{
					"internalType": "uint256",
					"name": "_trainTaskId",
					"type": "uint256"
				},
				{
					"internalType": "uint256",
					"name": "_validateTaskId",
					"type": "uint256"
				},
				{
					"internalType": "address",
					"name": "_client",
					"type": "address"
				},
				{
					"internalType": "uint256",
					"name": "_paymentAmount",
					"type": "uint256"
				},
				{
					"internalType": "enum SharedStructs.OrderStatus",
					"name": "_orderStatus",
					"type": "uint8"
				},
				{
					"internalType": "uint256",
					"name": "_orderLevel",
					"type": "uint256"
				},
				{
					"internalType": "uint256",
					"name": "_requiredComputingPower",
					"type": "uint256"
				},
				{
					"internalType": "string",
					"name": "_floderUrl",
					"type": "string"
				}
			],
			"stateMutability": "view",
			"type": "function"
		},
		{
			"inputs": [
				{
					"internalType": "uint256",
					"name": "taskId",
					"type": "uint256"
				}
			],
			"name": "getTask",
			"outputs": [
				{
					"components": [
						{
							"internalType": "uint256",
							"name": "id",
							"type": "uint256"
						},
						{
							"internalType": "uint256",
							"name": "orderId",
							"type": "uint256"
						},
						{
							"internalType": "enum SharedStructs.TaskType",
							"name": "taskType",
							"type": "uint8"
						},
						{
							"internalType": "enum SharedStructs.TaskStatus",
							"name": "status",
							"type": "uint8"
						},
						{
							"internalType": "string",
							"name": "folderUrl",
							"type": "string"
						},
						{
							"internalType": "uint256",
							"name": "requiredPower",
							"type": "uint256"
						},
						{
							"internalType": "address",
							"name": "creator",
							"type": "address"
						},
						{
							"internalType": "uint256",
							"name": "workerId",
							"type": "uint256"
						},
						{
							"internalType": "uint256",
							"name": "expectWorkerId",
							"type": "uint256"
						},
						{
							"internalType": "uint256",
							"name": "orderLevel",
							"type": "uint256"
						}
					],
					"internalType": "struct SharedStructs.TaskInfo",
					"name": "",
					"type": "tuple"
				}
			],
			"stateMutability": "view",
			"type": "function"
		},
		{
			"inputs": [
				{
					"internalType": "address",
					"name": "user",
					"type": "address"
				}
			],
			"name": "getUserOrders",
			"outputs": [
				{
					"internalType": "uint256[]",
					"name": "",
					"type": "uint256[]"
				}
			],
			"stateMutability": "view",
			"type": "function"
		},
		{
			"inputs": [
				{
					"internalType": "address",
					"name": "worker",
					"type": "address"
				}
			],
			"name": "getWorkerInfo",
			"outputs": [
				{
					"components": [
						{
							"internalType": "uint256",
							"name": "workerId",
							"type": "uint256"
						},
						{
							"internalType": "uint256",
							"name": "computingPower",
							"type": "uint256"
						},
						{
							"internalType": "bool",
							"name": "isBusy",
							"type": "bool"
						},
						{
							"internalType": "bool",
							"name": "isActivate",
							"type": "bool"
						},
						{
							"internalType": "uint256",
							"name": "taskId",
							"type": "uint256"
						}
					],
					"internalType": "struct WorkerPool.Worker",
					"name": "",
					"type": "tuple"
				}
			],
			"stateMutability": "view",
			"type": "function"
		},
		{
			"inputs": [],
			"name": "getWorkerList",
			"outputs": [
				{
					"internalType": "address[]",
					"name": "",
					"type": "address[]"
				}
			],
			"stateMutability": "view",
			"type": "function"
		},
		{
			"inputs": [
				{
					"internalType": "uint256",
					"name": "",
					"type": "uint256"
				}
			],
			"name": "orders",
			"outputs": [
				{
					"internalType": "contract Order",
					"name": "",
					"type": "address"
				}
			],
			"stateMutability": "view",
			"type": "function"
		},
		{
			"inputs": [
				{
					"internalType": "address",
					"name": "worker",
					"type": "address"
				}
			],
			"name": "removeWorker",
			"outputs": [],
			"stateMutability": "nonpayable",
			"type": "function"
		},
		{
			"inputs": [
				{
					"internalType": "address",
					"name": "marketplaceAddress",
					"type": "address"
				}
			],
			"name": "setMarketplaceAddress",
			"outputs": [],
			"stateMutability": "nonpayable",
			"type": "function"
		},
		{
			"inputs": [
				{
					"internalType": "address",
					"name": "recipient",
					"type": "address"
				},
				{
					"internalType": "uint256",
					"name": "amount",
					"type": "uint256"
				}
			],
			"name": "transferFunds",
			"outputs": [],
			"stateMutability": "nonpayable",
			"type": "function"
		},
		{
			"inputs": [
				{
					"internalType": "address",
					"name": "",
					"type": "address"
				},
				{
					"internalType": "uint256",
					"name": "",
					"type": "uint256"
				}
			],
			"name": "userOrders",
			"outputs": [
				{
					"internalType": "uint256",
					"name": "",
					"type": "uint256"
				}
			],
			"stateMutability": "view",
			"type": "function"
		},
		{
			"inputs": [
				{
					"internalType": "address",
					"name": "",
					"type": "address"
				}
			],
			"name": "workerLoad",
			"outputs": [
				{
					"internalType": "uint256",
					"name": "",
					"type": "uint256"
				}
			],
			"stateMutability": "view",
			"type": "function"
		}
	]
}