{
  "contractName": "Marketplace",
  "abi": [
    {
      "inputs": [
        {
          "internalType": "address",
          "name": "paymentAddress",
          "type": "address"
        },
        {
          "internalType": "address",
          "name": "taskAddress",
          "type": "address"
        }
      ],
      "stateMutability": "nonpayable",
      "type": "constructor"
    },
    {
      "anonymous": false,
      "inputs": [
        {
          "indexed": false,
          "internalType": "uint256",
          "name": "taskId",
          "type": "uint256"
        },
        {
          "indexed": false,
          "internalType": "address",
          "name": "worker",
          "type": "address"
        }
      ],
      "name": "TaskAssigned",
      "type": "event"
    },
    {
      "anonymous": false,
      "inputs": [
        {
          "indexed": false,
          "internalType": "uint256",
          "name": "taskId",
          "type": "uint256"
        }
      ],
      "name": "TaskCompleted",
      "type": "event"
    },
    {
      "anonymous": false,
      "inputs": [
        {
          "indexed": false,
          "internalType": "uint256",
          "name": "taskId",
          "type": "uint256"
        },
        {
          "indexed": false,
          "internalType": "address",
          "name": "client",
          "type": "address"
        }
      ],
      "name": "TaskCreated",
      "type": "event"
    },
    {
      "inputs": [
        {
          "internalType": "string",
          "name": "trainFileUrl",
          "type": "string"
        },
        {
          "internalType": "string",
          "name": "validationFileUrl",
          "type": "string"
        },
        {
          "internalType": "uint256",
          "name": "cost",
          "type": "uint256"
        }
      ],
      "name": "createTask",
      "outputs": [],
      "stateMutability": "payable",
      "type": "function",
      "payable": true
    },
    {
      "inputs": [
        {
          "internalType": "uint256",
          "name": "taskId",
          "type": "uint256"
        },
        {
          "internalType": "address",
          "name": "worker",
          "type": "address"
        }
      ],
      "name": "assignWorker",
      "outputs": [],
      "stateMutability": "nonpayable",
      "type": "function"
    },
    {
      "inputs": [
        {
          "internalType": "uint256",
          "name": "taskId",
          "type": "uint256"
        },
        {
          "internalType": "string",
          "name": "resultFileUrl",
          "type": "string"
        }
      ],
      "name": "completeTask",
      "outputs": [],
      "stateMutability": "nonpayable",
      "type": "function"
    }
  ],
  "bytecode": "0x608060405234801561001057600080fd5b50604051610c2f380380610c2f8339818101604052810190610032919061011d565b816000806101000a81548173ffffffffffffffffffffffffffffffffffffffff021916908373ffffffffffffffffffffffffffffffffffffffff16021790555080600160006101000a81548173ffffffffffffffffffffffffffffffffffffffff021916908373ffffffffffffffffffffffffffffffffffffffff160217905550505061015d565b600080fd5b600073ffffffffffffffffffffffffffffffffffffffff82169050919050565b60006100ea826100bf565b9050919050565b6100fa816100df565b811461010557600080fd5b50565b600081519050610117816100f1565b92915050565b60008060408385031215610134576101336100ba565b5b600061014285828601610108565b925050602061015385828601610108565b9150509250929050565b610ac38061016c6000396000f3fe6080604052600436106100345760003560e01c806341a4e30a146100395780637464a25b1461005557806374aaa7601461007e575b600080fd5b610053600480360381019061004e91906106b8565b6100a7565b005b34801561006157600080fd5b5061007c600480360381019061007791906107a1565b61025b565b005b34801561008a57600080fd5b506100a560048036038101906100a091906107e1565b610327565b005b803410156100ea576040517f08c379a00000000000000000000000000000000000000000000000000000000081526004016100e19061089a565b60405180910390fd5b60008054906101000a900473ffffffffffffffffffffffffffffffffffffffff1673ffffffffffffffffffffffffffffffffffffffff16635259b9ab3433846040518463ffffffff1660e01b81526004016101469291906108d8565b6000604051808303818588803b15801561015f57600080fd5b505af1158015610173573d6000803e3d6000fd5b50505050506000600160009054906101000a900473ffffffffffffffffffffffffffffffffffffffff1673ffffffffffffffffffffffffffffffffffffffff16635628dd7c33846040518363ffffffff1660e01b81526004016101d79291906108d8565b6020604051808303816000875af11580156101f6573d6000803e3d6000fd5b505050506040513d601f19601f8201168201806040525081019061021a9190610916565b90507fe9ee39160568153d230ca0e29961267415d513defbb7d3b21af0fe940e1ebd15813360405161024d929190610943565b60405180910390a150505050565b600160009054906101000a900473ffffffffffffffffffffffffffffffffffffffff1673ffffffffffffffffffffffffffffffffffffffff16637464a25b83836040518363ffffffff1660e01b81526004016102b8929190610943565b600060405180830381600087803b1580156102d257600080fd5b505af11580156102e6573d6000803e3d6000fd5b505050507f52476d55ecef5cf13caa64038f297fe6bbf865d9584a98b8722a15a6d5db128f828260405161031b929190610943565b60405180910390a15050565b600160009054906101000a900473ffffffffffffffffffffffffffffffffffffffff1673ffffffffffffffffffffffffffffffffffffffff166374aaa76083836040518363ffffffff1660e01b81526004016103849291906109da565b600060405180830381600087803b15801561039e57600080fd5b505af11580156103b2573d6000803e3d6000fd5b505050506000806000600160009054906101000a900473ffffffffffffffffffffffffffffffffffffffff1673ffffffffffffffffffffffffffffffffffffffff1663d810ff0f866040518263ffffffff1660e01b81526004016104169190610a0a565b606060405180830381865afa158015610433573d6000803e3d6000fd5b505050506040513d601f19601f820116820180604052508101906104579190610a3a565b92509250925060008054906101000a900473ffffffffffffffffffffffffffffffffffffffff1673ffffffffffffffffffffffffffffffffffffffff1663935f4c1883836040518363ffffffff1660e01b81526004016104b89291906108d8565b600060405180830381600087803b1580156104d257600080fd5b505af11580156104e6573d6000803e3d6000fd5b505050507fc1fa7142cfb933d0855114a3bffde296944c30b727f297c14d0db4d553d3a5c7856040516105199190610a0a565b60405180910390a15050505050565b6000604051905090565b600080fd5b600080fd5b600080fd5b600080fd5b6000601f19601f8301169050919050565b7f4e487b7100000000000000000000000000000000000000000000000000000000600052604160045260246000fd5b61058f82610546565b810181811067ffffffffffffffff821117156105ae576105ad610557565b5b80604052505050565b60006105c1610528565b90506105cd8282610586565b919050565b600067ffffffffffffffff8211156105ed576105ec610557565b5b6105f682610546565b9050602081019050919050565b82818337600083830152505050565b6000610625610620846105d2565b6105b7565b90508281526020810184848401111561064157610640610541565b5b61064c848285610603565b509392505050565b600082601f8301126106695761066861053c565b5b8135610679848260208601610612565b91505092915050565b6000819050919050565b61069581610682565b81146106a057600080fd5b50565b6000813590506106b28161068c565b92915050565b6000806000606084860312156106d1576106d0610532565b5b600084013567ffffffffffffffff8111156106ef576106ee610537565b5b6106fb86828701610654565b935050602084013567ffffffffffffffff81111561071c5761071b610537565b5b61072886828701610654565b9250506040610739868287016106a3565b9150509250925092565b600073ffffffffffffffffffffffffffffffffffffffff82169050919050565b600061076e82610743565b9050919050565b61077e81610763565b811461078957600080fd5b50565b60008135905061079b81610775565b92915050565b600080604083850312156107b8576107b7610532565b5b60006107c6858286016106a3565b92505060206107d78582860161078c565b9150509250929050565b600080604083850312156107f8576107f7610532565b5b6000610806858286016106a3565b925050602083013567ffffffffffffffff81111561082757610826610537565b5b61083385828601610654565b9150509250929050565b600082825260208201905092915050565b7f496e73756666696369656e74207061796d656e74000000000000000000000000600082015250565b600061088460148361083d565b915061088f8261084e565b602082019050919050565b600060208201905081810360008301526108b381610877565b9050919050565b6108c381610763565b82525050565b6108d281610682565b82525050565b60006040820190506108ed60008301856108ba565b6108fa60208301846108c9565b9392505050565b6000815190506109108161068c565b92915050565b60006020828403121561092c5761092b610532565b5b600061093a84828501610901565b91505092915050565b600060408201905061095860008301856108c9565b61096560208301846108ba565b9392505050565b600081519050919050565b60005b8381101561099557808201518184015260208101905061097a565b60008484015250505050565b60006109ac8261096c565b6109b6818561083d565b93506109c6818560208601610977565b6109cf81610546565b840191505092915050565b60006040820190506109ef60008301856108c9565b8181036020830152610a0181846109a1565b90509392505050565b6000602082019050610a1f60008301846108c9565b92915050565b600081519050610a3481610775565b92915050565b600080600060608486031215610a5357610a52610532565b5b6000610a6186828701610a25565b9350506020610a7286828701610a25565b9250506040610a8386828701610901565b915050925092509256fea264697066735822122017431ae466b46f4789814f367439f01fe7b055657590bc438968b33e326509e564736f6c63430008130033",
  "immutableReferences": {},
  "source": "// SPDX-License-Identifier: MIT\r\npragma solidity ^0.8.0;\r\n\r\nimport \"./Payment.sol\";\r\nimport \"./Task.sol\";\r\n\r\ncontract Marketplace {\r\n    // \r\n    Payment private paymentContract;\r\n    Task private taskContract;\r\n\r\n    constructor(address paymentAddress, address taskAddress) {\r\n        paymentContract = Payment(paymentAddress);\r\n        taskContract = Task(taskAddress);\r\n    }\r\n\r\n    // \r\n    event TaskCreated(uint taskId, address client);\r\n    event TaskAssigned(uint taskId, address worker);\r\n    event TaskCompleted(uint taskId);\r\n\r\n    // \r\n    function createTask(\r\n        string memory trainFileUrl,\r\n        string memory validationFileUrl,\r\n        uint cost\r\n    ) public payable {\r\n        require(msg.value >= cost, \"Insufficient payment\");\r\n\r\n        //  Payment \r\n        paymentContract.receivePayment{value: msg.value}(msg.sender, cost);\r\n\r\n        // \r\n        uint taskId = taskContract.createTaskInfo(msg.sender, cost);\r\n\r\n        // \r\n        emit TaskCreated(taskId, msg.sender);\r\n    }\r\n\r\n    //  worker\r\n    function assignWorker(uint taskId, address worker) public {\r\n        taskContract.assignWorker(taskId, worker);\r\n\r\n        // \r\n        emit TaskAssigned(taskId, worker);\r\n    }\r\n\r\n    // \r\n    function completeTask(uint taskId, string memory resultFileUrl) public {\r\n        taskContract.completeTask(taskId, resultFileUrl);\r\n\r\n        //  Payment  worker\r\n        (address client, address worker, uint cost) = taskContract.getPaymentInfo(taskId);\r\n        paymentContract.sendPayment(worker, cost);\r\n\r\n        // \r\n        emit TaskCompleted(taskId);\r\n    }\r\n}\r\n",
  "sourcePath": "D:\\study\\Code\\codeRepos\\ApexHackthon\\contracts\\Marketplace.sol",
  "compiler": {
    "name": "solc",
    "version": "0.8.19+commit.7dd6d404.Emscripten.clang"
  },
  "schemaVersion": "3.4.13",
  "updatedAt": "2023-04-15T10:28:43.275Z",
  "networkType": "ethereum",
  "devdoc": {
    "kind": "dev",
    "methods": {},
    "version": 1
  },
  "userdoc": {
    "kind": "user",
    "methods": {},
    "version": 1
  }
}