{
  "contractName": "Payment",
  "abi": [
    {
      "anonymous": false,
      "inputs": [
        {
          "indexed": false,
          "internalType": "address",
          "name": "from",
          "type": "address"
        },
        {
          "indexed": false,
          "internalType": "uint256",
          "name": "amount",
          "type": "uint256"
        }
      ],
      "name": "PaymentReceived",
      "type": "event"
    },
    {
      "anonymous": false,
      "inputs": [
        {
          "indexed": false,
          "internalType": "address",
          "name": "to",
          "type": "address"
        },
        {
          "indexed": false,
          "internalType": "uint256",
          "name": "amount",
          "type": "uint256"
        }
      ],
      "name": "PaymentSent",
      "type": "event"
    },
    {
      "inputs": [
        {
          "internalType": "address",
          "name": "",
          "type": "address"
        }
      ],
      "name": "balances",
      "outputs": [
        {
          "internalType": "uint256",
          "name": "",
          "type": "uint256"
        }
      ],
      "stateMutability": "view",
      "type": "function",
      "constant": true
    },
    {
      "inputs": [
        {
          "internalType": "address",
          "name": "from",
          "type": "address"
        },
        {
          "internalType": "uint256",
          "name": "amount",
          "type": "uint256"
        }
      ],
      "name": "receivePayment",
      "outputs": [],
      "stateMutability": "payable",
      "type": "function",
      "payable": true
    },
    {
      "inputs": [
        {
          "internalType": "address",
          "name": "to",
          "type": "address"
        },
        {
          "internalType": "uint256",
          "name": "amount",
          "type": "uint256"
        }
      ],
      "name": "sendPayment",
      "outputs": [],
      "stateMutability": "nonpayable",
      "type": "function"
    }
  ],
  "bytecode": "0x608060405234801561001057600080fd5b50610620806100206000396000f3fe6080604052600436106100345760003560e01c806327e235e3146100395780635259b9ab14610076578063935f4c1814610092575b600080fd5b34801561004557600080fd5b50610060600480360381019061005b9190610365565b6100bb565b60405161006d91906103ab565b60405180910390f35b610090600480360381019061008b91906103f2565b6100d3565b005b34801561009e57600080fd5b506100b960048036038101906100b491906103f2565b6101a8565b005b60006020528060005260406000206000915090505481565b80341015610116576040517f08c379a000000000000000000000000000000000000000000000000000000000815260040161010d9061048f565b60405180910390fd5b346000808473ffffffffffffffffffffffffffffffffffffffff1673ffffffffffffffffffffffffffffffffffffffff168152602001908152602001600020600082825461016491906104de565b925050819055507f6ef95f06320e7a25a04a175ca677b7052bdd97131872c2192525a629f51be770823460405161019c929190610521565b60405180910390a15050565b806000803373ffffffffffffffffffffffffffffffffffffffff1673ffffffffffffffffffffffffffffffffffffffff168152602001908152602001600020541015610229576040517f08c379a000000000000000000000000000000000000000000000000000000000815260040161022090610596565b60405180910390fd5b806000803373ffffffffffffffffffffffffffffffffffffffff1673ffffffffffffffffffffffffffffffffffffffff168152602001908152602001600020600082825461027791906105b6565b925050819055508173ffffffffffffffffffffffffffffffffffffffff166108fc829081150290604051600060405180830381858888f193505050501580156102c4573d6000803e3d6000fd5b507f47db2abce6d5fbcd80ffd9b4ba74dcde804a746ef732bc7f8a70fabfc912c59082826040516102f6929190610521565b60405180910390a15050565b600080fd5b600073ffffffffffffffffffffffffffffffffffffffff82169050919050565b600061033282610307565b9050919050565b61034281610327565b811461034d57600080fd5b50565b60008135905061035f81610339565b92915050565b60006020828403121561037b5761037a610302565b5b600061038984828501610350565b91505092915050565b6000819050919050565b6103a581610392565b82525050565b60006020820190506103c0600083018461039c565b92915050565b6103cf81610392565b81146103da57600080fd5b50565b6000813590506103ec816103c6565b92915050565b6000806040838503121561040957610408610302565b5b600061041785828601610350565b9250506020610428858286016103dd565b9150509250929050565b600082825260208201905092915050565b7f496e73756666696369656e74207061796d656e74000000000000000000000000600082015250565b6000610479601483610432565b915061048482610443565b602082019050919050565b600060208201905081810360008301526104a88161046c565b9050919050565b7f4e487b7100000000000000000000000000000000000000000000000000000000600052601160045260246000fd5b60006104e982610392565b91506104f483610392565b925082820190508082111561050c5761050b6104af565b5b92915050565b61051b81610327565b82525050565b60006040820190506105366000830185610512565b610543602083018461039c565b9392505050565b7f496e73756666696369656e742062616c616e6365000000000000000000000000600082015250565b6000610580601483610432565b915061058b8261054a565b602082019050919050565b600060208201905081810360008301526105af81610573565b9050919050565b60006105c182610392565b91506105cc83610392565b92508282039050818111156105e4576105e36104af565b5b9291505056fea264697066735822122029d496f87e771273aea8f8f4456425c88c23c7c9ae12dbe2d16cb714631c2fb464736f6c63430008130033",
  "immutableReferences": {},
  "source": "// SPDX-License-Identifier: MIT\r\npragma solidity ^0.8.0;\r\n\r\ncontract Payment {\r\n    // \r\n    mapping(address => uint) public balances;\r\n\r\n    // \r\n    event PaymentReceived(address from, uint amount);\r\n    event PaymentSent(address to, uint amount);\r\n\r\n    // \r\n    function receivePayment(address from, uint amount) public payable {\r\n        require(msg.value >= amount, \"Insufficient payment\");\r\n        balances[from] += msg.value;\r\n        emit PaymentReceived(from, msg.value);\r\n    }\r\n\r\n    // \r\n    function sendPayment(address to, uint amount) public {\r\n        require(balances[msg.sender] >= amount, \"Insufficient balance\");\r\n        balances[msg.sender] -= amount;\r\n        payable(to).transfer(amount);\r\n        emit PaymentSent(to, amount);\r\n    }\r\n}\r\n",
  "sourcePath": "D:\\study\\Code\\codeRepos\\solidity_hackthon_ms\\contracts\\Payment.sol",
  "compiler": {
    "name": "solc",
    "version": "0.8.19+commit.7dd6d404.Emscripten.clang"
  },
  "schemaVersion": "3.4.13",
  "updatedAt": "2023-04-15T09:41:41.619Z",
  "networkType": "ethereum",
  "devdoc": {
    "kind": "dev",
    "methods": {},
    "version": 1
  },
  "userdoc": {
    "kind": "user",
    "methods": {},
    "version": 1
  }
}