{
  "contractName": "Task",
  "abi": [
    {
      "inputs": [],
      "name": "taskCount",
      "outputs": [
        {
          "internalType": "uint256",
          "name": "",
          "type": "uint256"
        }
      ],
      "stateMutability": "view",
      "type": "function",
      "constant": true
    },
    {
      "inputs": [
        {
          "internalType": "uint256",
          "name": "",
          "type": "uint256"
        }
      ],
      "name": "taskInfos",
      "outputs": [
        {
          "internalType": "uint256",
          "name": "taskId",
          "type": "uint256"
        },
        {
          "internalType": "address",
          "name": "client",
          "type": "address"
        },
        {
          "internalType": "address",
          "name": "worker",
          "type": "address"
        },
        {
          "internalType": "string",
          "name": "trainFileUrl",
          "type": "string"
        },
        {
          "internalType": "string",
          "name": "validationFileUrl",
          "type": "string"
        },
        {
          "internalType": "string",
          "name": "resultFileUrl",
          "type": "string"
        },
        {
          "internalType": "uint256",
          "name": "cost",
          "type": "uint256"
        },
        {
          "internalType": "bool",
          "name": "isPaid",
          "type": "bool"
        },
        {
          "internalType": "bool",
          "name": "isAssigned",
          "type": "bool"
        },
        {
          "internalType": "bool",
          "name": "isCompleted",
          "type": "bool"
        }
      ],
      "stateMutability": "view",
      "type": "function",
      "constant": true
    },
    {
      "inputs": [
        {
          "internalType": "address",
          "name": "client",
          "type": "address"
        },
        {
          "internalType": "uint256",
          "name": "cost",
          "type": "uint256"
        }
      ],
      "name": "createTaskInfo",
      "outputs": [
        {
          "internalType": "uint256",
          "name": "",
          "type": "uint256"
        }
      ],
      "stateMutability": "nonpayable",
      "type": "function"
    },
    {
      "inputs": [
        {
          "internalType": "uint256",
          "name": "taskId",
          "type": "uint256"
        },
        {
          "internalType": "address",
          "name": "worker",
          "type": "address"
        }
      ],
      "name": "assignWorker",
      "outputs": [],
      "stateMutability": "nonpayable",
      "type": "function"
    },
    {
      "inputs": [
        {
          "internalType": "uint256",
          "name": "taskId",
          "type": "uint256"
        },
        {
          "internalType": "string",
          "name": "resultFileUrl",
          "type": "string"
        }
      ],
      "name": "completeTask",
      "outputs": [],
      "stateMutability": "nonpayable",
      "type": "function"
    },
    {
      "inputs": [
        {
          "internalType": "uint256",
          "name": "taskId",
          "type": "uint256"
        }
      ],
      "name": "getPaymentInfo",
      "outputs": [
        {
          "internalType": "address",
          "name": "",
          "type": "address"
        },
        {
          "internalType": "address",
          "name": "",
          "type": "address"
        },
        {
          "internalType": "uint256",
          "name": "",
          "type": "uint256"
        }
      ],
      "stateMutability": "view",
      "type": "function",
      "constant": true
    }
  ],
  "bytecode": "0x608060405234801561001057600080fd5b50610f94806100206000396000f3fe608060405234801561001057600080fd5b50600436106100625760003560e01c80633004c21b146100675780635628dd7c146100a05780637464a25b146100d057806374aaa760146100ec578063b6cb58a514610108578063d810ff0f14610126575b600080fd5b610081600480360381019061007c91906106c9565b610158565b6040516100979a999897969594939291906107f1565b60405180910390f35b6100ba60048036038101906100b591906108ce565b6103ab565b6040516100c7919061090e565b60405180910390f35b6100ea60048036038101906100e59190610929565b610496565b005b61010660048036038101906101019190610a9e565b610564565b005b610110610601565b60405161011d919061090e565b60405180910390f35b610140600480360381019061013b91906106c9565b610607565b60405161014f93929190610afa565b60405180910390f35b60016020528060005260406000206000915090508060000154908060010160009054906101000a900473ffffffffffffffffffffffffffffffffffffffff16908060020160009054906101000a900473ffffffffffffffffffffffffffffffffffffffff16908060030180546101cd90610b60565b80601f01602080910402602001604051908101604052809291908181526020018280546101f990610b60565b80156102465780601f1061021b57610100808354040283529160200191610246565b820191906000526020600020905b81548152906001019060200180831161022957829003601f168201915b50505050509080600401805461025b90610b60565b80601f016020809104026020016040519081016040528092919081815260200182805461028790610b60565b80156102d45780601f106102a9576101008083540402835291602001916102d4565b820191906000526020600020905b8154815290600101906020018083116102b757829003601f168201915b5050505050908060050180546102e990610b60565b80601f016020809104026020016040519081016040528092919081815260200182805461031590610b60565b80156103625780601f1061033757610100808354040283529160200191610362565b820191906000526020600020905b81548152906001019060200180831161034557829003601f168201915b5050505050908060060154908060070160009054906101000a900460ff16908060070160019054906101000a900460ff16908060070160029054906101000a900460ff1690508a565b60008060008154809291906103bf90610bc0565b91905055506000600160008054815260200190815260200160002090506000548160000181905550838160010160006101000a81548173ffffffffffffffffffffffffffffffffffffffff021916908373ffffffffffffffffffffffffffffffffffffffff16021790555082816006018190555060018160070160006101000a81548160ff02191690831515021790555060008160070160016101000a81548160ff02191690831515021790555060008160070160026101000a81548160ff02191690831515021790555060005491505092915050565b60006001600084815260200190815260200160002090508060070160019054906101000a900460ff16156104ff576040517f08c379a00000000000000000000000000000000000000000000000000000000081526004016104f690610c54565b60405180910390fd5b818160020160006101000a81548173ffffffffffffffffffffffffffffffffffffffff021916908373ffffffffffffffffffffffffffffffffffffffff16021790555060018160070160016101000a81548160ff021916908315150217905550505050565b60006001600084815260200190815260200160002090508060070160029054906101000a900460ff16156105cd576040517f08c379a00000000000000000000000000000000000000000000000000000000081526004016105c490610cc0565b60405180910390fd5b818160050190816105de9190610e8c565b5060018160070160026101000a81548160ff021916908315150217905550505050565b60005481565b6000806000806001600086815260200190815260200160002090508060010160009054906101000a900473ffffffffffffffffffffffffffffffffffffffff168160020160009054906101000a900473ffffffffffffffffffffffffffffffffffffffff168260060154935093509350509193909250565b6000604051905090565b600080fd5b600080fd5b6000819050919050565b6106a681610693565b81146106b157600080fd5b50565b6000813590506106c38161069d565b92915050565b6000602082840312156106df576106de610689565b5b60006106ed848285016106b4565b91505092915050565b6106ff81610693565b82525050565b600073ffffffffffffffffffffffffffffffffffffffff82169050919050565b600061073082610705565b9050919050565b61074081610725565b82525050565b600081519050919050565b600082825260208201905092915050565b60005b83811015610780578082015181840152602081019050610765565b60008484015250505050565b6000601f19601f8301169050919050565b60006107a882610746565b6107b28185610751565b93506107c2818560208601610762565b6107cb8161078c565b840191505092915050565b60008115159050919050565b6107eb816107d6565b82525050565b600061014082019050610807600083018d6106f6565b610814602083018c610737565b610821604083018b610737565b8181036060830152610833818a61079d565b90508181036080830152610847818961079d565b905081810360a083015261085b818861079d565b905061086a60c08301876106f6565b61087760e08301866107e2565b6108856101008301856107e2565b6108936101208301846107e2565b9b9a5050505050505050505050565b6108ab81610725565b81146108b657600080fd5b50565b6000813590506108c8816108a2565b92915050565b600080604083850312156108e5576108e4610689565b5b60006108f3858286016108b9565b9250506020610904858286016106b4565b9150509250929050565b600060208201905061092360008301846106f6565b92915050565b600080604083850312156109405761093f610689565b5b600061094e858286016106b4565b925050602061095f858286016108b9565b9150509250929050565b600080fd5b600080fd5b7f4e487b7100000000000000000000000000000000000000000000000000000000600052604160045260246000fd5b6109ab8261078c565b810181811067ffffffffffffffff821117156109ca576109c9610973565b5b80604052505050565b60006109dd61067f565b90506109e982826109a2565b919050565b600067ffffffffffffffff821115610a0957610a08610973565b5b610a128261078c565b9050602081019050919050565b82818337600083830152505050565b6000610a41610a3c846109ee565b6109d3565b905082815260208101848484011115610a5d57610a5c61096e565b5b610a68848285610a1f565b509392505050565b600082601f830112610a8557610a84610969565b5b8135610a95848260208601610a2e565b91505092915050565b60008060408385031215610ab557610ab4610689565b5b6000610ac3858286016106b4565b925050602083013567ffffffffffffffff811115610ae457610ae361068e565b5b610af085828601610a70565b9150509250929050565b6000606082019050610b0f6000830186610737565b610b1c6020830185610737565b610b2960408301846106f6565b949350505050565b7f4e487b7100000000000000000000000000000000000000000000000000000000600052602260045260246000fd5b60006002820490506001821680610b7857607f821691505b602082108103610b8b57610b8a610b31565b5b50919050565b7f4e487b7100000000000000000000000000000000000000000000000000000000600052601160045260246000fd5b6000610bcb82610693565b91507fffffffffffffffffffffffffffffffffffffffffffffffffffffffffffffffff8203610bfd57610bfc610b91565b5b600182019050919050565b7f5461736b20697320616c72656164792061737369676e65640000000000000000600082015250565b6000610c3e601883610751565b9150610c4982610c08565b602082019050919050565b60006020820190508181036000830152610c6d81610c31565b9050919050565b7f5461736b20697320616c726561647920636f6d706c6574656400000000000000600082015250565b6000610caa601983610751565b9150610cb582610c74565b602082019050919050565b60006020820190508181036000830152610cd981610c9d565b9050919050565b60008190508160005260206000209050919050565b60006020601f8301049050919050565b600082821b905092915050565b600060088302610d427fffffffffffffffffffffffffffffffffffffffffffffffffffffffffffffffff82610d05565b610d4c8683610d05565b95508019841693508086168417925050509392505050565b6000819050919050565b6000610d89610d84610d7f84610693565b610d64565b610693565b9050919050565b6000819050919050565b610da383610d6e565b610db7610daf82610d90565b848454610d12565b825550505050565b600090565b610dcc610dbf565b610dd7818484610d9a565b505050565b5b81811015610dfb57610df0600082610dc4565b600181019050610ddd565b5050565b601f821115610e4057610e1181610ce0565b610e1a84610cf5565b81016020851015610e29578190505b610e3d610e3585610cf5565b830182610ddc565b50505b505050565b600082821c905092915050565b6000610e6360001984600802610e45565b1980831691505092915050565b6000610e7c8383610e52565b9150826002028217905092915050565b610e9582610746565b67ffffffffffffffff811115610eae57610ead610973565b5b610eb88254610b60565b610ec3828285610dff565b600060209050601f831160018114610ef65760008415610ee4578287015190505b610eee8582610e70565b865550610f56565b601f198416610f0486610ce0565b60005b82811015610f2c57848901518255600182019150602085019450602081019050610f07565b86831015610f495784890151610f45601f891682610e52565b8355505b6001600288020188555050505b50505050505056fea26469706673582212208a9496e225cb281e66339ac37ae21325007b4d1f02734f256319ef627902ec1464736f6c63430008130033",
  "immutableReferences": {},
  "source": "// SPDX-License-Identifier: MIT\r\npragma solidity ^0.8.0;\r\n\r\ncontract Task {\r\n    // \r\n    struct TaskInfo {\r\n        uint taskId;\r\n        address client;\r\n        address worker;\r\n        string trainFileUrl;\r\n        string validationFileUrl;\r\n        string resultFileUrl;\r\n        uint cost;\r\n        bool isPaid;\r\n        bool isAssigned;\r\n        bool isCompleted;\r\n    }\r\n\r\n    // \r\n    uint public taskCount;\r\n    mapping(uint => TaskInfo) public taskInfos;\r\n\r\n    // \r\n    function createTaskInfo(address client, uint cost) public returns (uint) {\r\n        taskCount++;\r\n        TaskInfo storage newTask = taskInfos[taskCount];\r\n        newTask.taskId = taskCount;\r\n        newTask.client = client;\r\n        newTask.cost = cost;\r\n        newTask.isPaid = true;\r\n        newTask.isAssigned = false;\r\n        newTask.isCompleted = false;\r\n        return taskCount;\r\n    }\r\n\r\n    //  worker\r\n    function assignWorker(uint taskId, address worker) public {\r\n        TaskInfo storage task = taskInfos[taskId];\r\n        require(!task.isAssigned, \"Task is already assigned\");\r\n        task.worker = worker;\r\n        task.isAssigned = true;\r\n    }\r\n\r\n    // \r\n    function completeTask(uint taskId, string memory resultFileUrl) public {\r\n        TaskInfo storage task = taskInfos[taskId];\r\n        require(!task.isCompleted, \"Task is already completed\");\r\n        task.resultFileUrl = resultFileUrl;\r\n        task.isCompleted = true;\r\n    }\r\n\r\n    // \r\n    function getPaymentInfo(uint taskId) public view returns (address, address, uint) {\r\n        TaskInfo storage task = taskInfos[taskId];\r\n        return (task.client, task.worker, task.cost);\r\n    }\r\n}",
  "sourcePath": "D:\\study\\Code\\codeRepos\\ApexHackthon\\contracts\\Task.sol",
  "compiler": {
    "name": "solc",
    "version": "0.8.19+commit.7dd6d404.Emscripten.clang"
  },
  "schemaVersion": "3.4.13",
  "updatedAt": "2023-04-15T10:28:43.283Z",
  "networkType": "ethereum",
  "devdoc": {
    "kind": "dev",
    "methods": {},
    "version": 1
  },
  "userdoc": {
    "kind": "user",
    "methods": {},
    "version": 1
  }
}